:020000041102E7
:1000000003B40148019001BDADAE000003B4014846
:10001000019001BD456B010003B40148019001BD91
:100020000189000003B40148019001BDC53F0000F3
:1000300003B40148019001BDE94C010003B401483B
:10004000019001BDC95C010003B40148019001BDEC
:10005000CD4C010003B40148019001BD618900004D
:1000600003B40148019001BD154D010003B40148DE
:10007000019001BD1D4B010003B40148019001BD79
:10008000090E000003B40148019001BDF54E0100C6
:1000900003B40148019001BD434D010003B4014880
:1000A000019001BD4551010003B40148019001BD1B
:1000B0002526000003B40148019001BD8B520100C8
:1000C00003B40148019001BDB352010003B40148DB
:1000D000019001BD0D52010003B40148019001BD22
:1000E000C94A010003B40148019001BD3D4B010024
:1000F00003B40148019001BD014C010003B4014863
:10010000019001BDF94C010003B40148019001BD0B
:10011000691F000003B40148019001BD5D17000094
:1001200003B40148019001BD5952010003B40148D4
:10013000019001BD5125000003B40148019001BDAB
:10014000594F010003B40148019001BD8D12000018
:1001500003B40148019001BD4D1F000003B40148E4
:10016000019001BD5522000003B40148019001BD7A
:10017000DD52010003B40148019001BD1D4D010095
:1001800003B40148019001BD810E000003B4014891
:10019000019001BD6D4CFF1F03B40148019001BDEA
:1001A0003946FF1F03B40148019001BD35540000DA
:1001B00003B40148019001BDB549FF1F03B40148D4
:1001C000019001BD154AFF1F03B40148019001BD14
:1001D000C94DFF1F03B40148019001BD017F00001C
:1001E00003B40148019001BDE117000003B40148C8
:1001F000019001BD7918000003B40148019001BDD0
:10020000D949010003B40148019001BDE92800006B
:1002100003B40148019001BD5549010003B40148F0
:10022000019001BD2F2CFF1F03B40148019001BDB7
:10023000DD51FF1F03B40148019001BD4535FF1F8B
:1002400003B40148019001BD594AFF1F03B401489E
:10025000019001BD1951FF1F03B40148019001BD78
:100260007151FF1F03B40148019001BDC150FF1F30
:1002700003B40148019001BDF129FF1F03B40148F7
:10028000019001BD1954FF1F03B40148019001BD45
:10029000053DFF1F03B40148019001BDA5520000B8
:1002A00003B40148019001BD612CFF1F03B4014854
:1002B000019001BDF14FFF1F03B40148019001BD42
:1002C000B72BFF1F03B40148019001BDC54EFF1FAE
:1002D00003B40148019001BDF54EFF1F03B401486E
:1002E000019001BD594FFF1F03B40148019001BDAA
:1002F000894FFF1F03B40148019001BDC14FFF1F8B
:1003000003B40148019001BD3135FF1F03B401481A
:10031000019001BD452CFF1F03B40148019001BDB0
:10032000C926000003B40148019001BD350E00004C
:1003300003B40148019001BDC735FF1F03B4014854
:10034000019001BDE946FF1F03B40148019001BDC2
:100350003519000003B40148019001BDBD1800002B
:1003600003B40148019001BDC521000003B4014858
:10037000019001BD291C000003B40148019001BD9A
:10038000851F000003B40148019001BDA94601008A
:1003900003B40148019001BD1147010003B40148B5
:1003A000019001BD8145FF1F03B40148019001BDCB
:1003B000F553FF1F03B40148019001BDB327FF1F90
:1003C00003B40148019001BD8D27FF1F03B401480C
:1003D000019001BDB13E000003B40148019001BD90
:1003E0007135FF1F03B40148019001BDC90E000023
:1003F00003B40148019001BD055E000003B401484B
:10040000019001BDE548000003B40148019001BD21
:100410002951010003B40148019001BDD91B00001E
:1004200003B40148019001BD3528FF1F03B4014802
:10043000019001BD5D28FF1F03B40148019001BD7B
:1004400051470100F8B5D349D14A002004464A601B
:100450008300401CD450FF28FADD4868CE4A01468C
:1004600080318A606E22C262CC4A1278002A01D0A2
:100470007F22C2620A220265C94A13788363C94B8C
:10048000C36115781023022D08D01578012D05D0F1
:100490001578032D02D01578042D00D10362C24DCA
:1004A00045611925AD0185613725CD6036272826A0
:1004B000C7630825466405644F6032270F603B27F9
:1004C000CF634127CF6439274031E0C132274F60E5
:1004D00002274F6142270831E0C11E274F60CE60DE
:1004E0008D6005264E6142260E615A2660390E61E6
:1004F0004D613C258D61AF25ED000560AB4D056379
:100500001578022D09D01578012D08D01578032D06
:1005100007D01578042D06D007E0152504E04360C8
:1005200003E00E2500E00C254560FF252D35856094
:10053000C560FF25F53505619D4D85647D25ED0080
:100540009C4ECD67C66445629B4D85627325C5652B
:10055000062545658565C51D0826F93502272E60E7
:1005600047664B27FF0087660927C766934F0767D3
:100570004667BE108467C667914F8E4E3E60167800
:10058000022E09D01678012E0AD01678032E0BD031
:100590001278042A0CD00EE01A22CA61212205E04A
:1005A0001422CA61182201E01322CB610A6202E020
:1005B0000E220B62CA617E4A8A627D22D2008A675D
:1005C00064224A620522CA6202220A63C8228C633C
:1005D0004A63382169607B4929647B49A9614B21C1
:1005E000C900E9617349FF30643929627D2109013D
:1005F0006962EC661E212C67A9667049A965E965E8
:1006000089102966696469677049A9677049714AE8
:100610008130E967026082604160FF21F531C1608D
:1006200001616E486C495A4A81606D49803A116196
:100630006A496C4A80318A626B4ACA626B4A82613B
:100640006B4AC2626B4A02636B4A64484038C263B9
:100650006A4ACA616A49816360496A48403188616F
:100660006A49694888605D48694A80384260694AD9
:100670004263694A0A626949816058496848C039D9
:10068000C860FFF7BDFC0120FFF7C0FCF8BDF3B563
:100690000746644881B0C169634A1140FF3109319E
:1006A000C161002613E000252C461120FFF7B4FCA1
:1006B0005C48406A8007800F610088402843641CC2
:1006C000E4B20546102CF0D301C7761CF6B20298AE
:1006D0008642E8D3FEBD10B52E4C607800280AD1C2
:1006E00004215248FFF7D3FF504804211030FFF790
:1006F000CEFF0120607010BDF0B500248BB00D4618
:100700000646102902D901200BB0F0BDFFF7E3FF28
:10071000464900200A5C401C1419C0B21028F9D3C5
:10072000002C03D0102D03D90B20EDE70E20EBE7B2
:100730003F483E4C0023006802A91034E25CC75CCD
:100740007A40CA545B1CDBB2102BF7D306AA374899
:10075000FFF768FC102D00D910252A4606A930465F
:10076000FFF766FCFFF76AFC216840182060FFF77E
:1007700065FC616840186060FFF760FCA168401884
:10078000A060FFF75BFCE1684018E0600020BBE779
:100790000004FF1FAC70FF1F4893FF1F0C6AFF1F70
:1007A0004A0AFF1F3A07000080C3C9019A020000ED
:1007B00050C30000280A00006A180000204E000004
:1007C000F009FF1F0040001168100000DC05000068
:1007D00040420F0010270000D559FF1F0001FF1FE6
:1007E0000130FF1FF55DFF1FCD60FF1F6B2CFF1F4A
:1007F000FD2DFF1F852CFF1F193DFF1F3967FF1FB0
:100800005D65FF1F0D28FF1FB933FF1F0002FF1F8B
:100810004D56FF1F2958FF1F6D57FF1F0956FF1F19
:10082000E933FF1F40F0004000FEFEFFCC8DFF1FAC
:10083000D070FF1F0A7802708A7842704A88120AC4
:1008400082700979C170042070470A7802700988A3
:10085000090A41700220704710B500220EE0930093
:100860005B189C7804705C88521C240A44701C79C4
:1008700084709B88D2B21B0AC370001D0B78934210
:10088000EDD81806800D10BDF8B50D46064649781E
:10089000012031700024761C16E06978012917D0F8
:1008A0001221614349198A7832704A88871C120ADA
:1008B0007270B61C10223046091DFFF7B9FB1037C5
:1008C000B8B21036641CE4B22978A142E5D8F8BD6C
:1008D000A10049198A7832704A88871C120A7270FE
:1008E000B61C02223046091DFFF7A2FBBF1CB8B29E
:1008F000B61CE7E710B50C46097801702188090A93
:1009000041706288211D801CFFF792FB6088801C6B
:1009100080B210BD10B50C46097801702188090A13
:100920004170A17881706188090AC170A288A11DF7
:10093000001DFFF77DFBA088001D80B210BD10B523
:100940000C460A88891CFFF773FB208810BD10B580
:100950000B788A7802705343DCB22246401C091D92
:10096000FFF766FB601C10BD10B50B788A7802702B
:100970005343DCB22246401C091DFFF759FB601CA3
:1009800010BD10B50C460A88891CFFF751FB208862
:1009900010BD10B50C460A88891CFFF749FB20885A
:1009A00010BD7FB515460446022901D0102903D198
:1009B000022B04D0102B02D0002004B070BD99424D
:1009C00002D10A46294607E01029694607D000F0FF
:1009D0000DF8102269462846FFF736FBEDE7104672
:1009E00000F004F8102269462046F5E770B50C4681
:1009F00005000CD0002C0AD0102206492046FFF733
:100A000017FB2878207368786073012070BD002080
:100A100070BD0000389D021110B50B46012202493D
:100A200003F0AEFA10BD00003508021170B506469D
:100A300008880C46172812D30B4603220949304672
:100A400003F09EFA050008D10749208809888842EA
:100A500000D20146304600F0ABF9284670BD0220B6
:100A600070BD00004B080211DE70FF1F10B500239F
:100A70001922194603F084FA10BD000010B50A7857
:100A8000002A05D00B460722024903F079FA10BD6F
:100A9000022010BD5908021110B54A78012A01D070
:100AA000022A08D10A78002A05D00B4605220349FC
:100AB00003F066FA10BD022010BD00008908021183
:100AC00001494000085A7047DC70FF1F10B50B4603
:100AD0001D22024903F054FA10BD0000F50802116E
:100AE00010B50B461B22024903F04AFA10BD000064
:100AF000F50802110149172008807047DC70FF1FBC
:100B00000098022B01D0042070471178527812020D
:100B100089180180002070470098012B01D0042023
:100B20007047117801700020704770B5049C1E4614
:100B30001546062B1BD369782878090240182080B7
:100B4000E978A87809024018608002222271291DE4
:100B5000601DFFF76DFAB61FB2B22281F02A06D8E7
:100B60002046A91D0A30FFF763FA002070BD04205B
:100B700070BD0098042B01D0042070475378117881
:100B80001B02C91801809178D2781202891841801D
:100B900000207047F8B584890D460646002C26D003
:100BA000B2681778380620D50C2C20D90C3CA4B29A
:100BB0001019009001217088234603F079F900286C
:100BC00011D0022028707806C00F6870B806800E19
:100BD000A870641E2004000CA88001D0B068401CDE
:100BE000A8600020F8BD0120ECE70020EAE7012022
:100BF000F8BD10B502981146042B14D34C780A782E
:100C0000240212190280CC788A78240212194280B8
:100C10001B1F9AB28280F22A05D8801D091DFFF79A
:100C200007FA002010BD042010BD0098042B01D04D
:100C300004207047537811781B02C91801809178FD
:100C4000D2781202891841800020704710B50298AE
:100C50001146062B03D0142B03D0042010BD022212
:100C600000E0102202714B780A781B02D218028031
:100C7000CB788A781B02D21842800279401D091D68
:100C8000FFF7D6F9002010BD30B5039CD80718D166
:100C9000D805010E022914D30B488088814210D850
:100CA000F6200155002008E0557813782D025B19D5
:100CB0004500401C6353C0B2921C8842F4D300200C
:100CC00030BD042030BD0000D670FF1F0098022BFD
:100CD00001D00420704711785278120289180180DF
:100CE0000020704770B5144602460498022B18D3B2
:100CF000667825783602AD1905800546E0352A76F6
:100D00006976002A0BD0E8219B1E9AB242808A4263
:100D100007D8A11C001DFFF78BF9002070BDF4213E
:100D2000F2E7042070BD000010B50B4617220249FF
:100D300003F026F910BD00001509021110B50B468D
:100D40000D22024903F01CF910BD00003F090211F9
:100D500010B50A78002A05D00B461122024903F08B
:100D60000FF910BD022010BD4F09021110B50A780D
:100D7000002A05D00B460922024903F001F910BDF3
:100D8000022010BD6909021110B50B460F2202495D
:100D900003F0F6F810BD00008309021110B50B46F0
:100DA0000B22024903F0ECF810BD00009309021178
:100DB000044A1288914203D8024A4000921D1152FF
:100DC00070470000D670FF1F10B50023132219468C
:100DD00003F0D6F810BD000010B5094C07492046B5
:100DE00001F0F8F905492046083101F0F3F903480C
:100DF000044A0821103001F06DFB10BD406DFF1F4B
:100E0000FFFF0000B89C0211034610B50020104AF5
:100E1000002B08D0012B08D01C32022B08D0032B4A
:100E200009D0022010BD127800E092780A7010BD3F
:100E300052890A8010BD064BDB1C1C780C715B7854
:100E40004B71538D0B80528F4A8001228A7110BDE5
:100E5000346DFF1F10B504460B48844212D001299F
:100E600007D002290ED10121204607F08BF8002877
:100E700008D10649204601F0ADF904492046083161
:100E800001F0A8F910BD0000FEFF0000406DFF1F3B
:100E900010B505495F200A785F2A03D90870034816
:100EA00007F02CF8002010BD346DFF1FFD3F02112C
:100EB0000149886070470000346DFF1F10B5034A78
:100EC0000D21034801F006FB10BD00009C9C02119F
:100ED000606CFF1F70B50C460146012080020A1AA3
:100EE00000251C481300FFF7B5F80F32090B0D1051
:100EF00012181A1C2A1F212325272A00408A23E0C2
:100F0000807800E0C078207021E00079FBE71022B3
:100F100011492046FFF78CF819E04079F3E7C07AD1
:100F2000F1E78069206012E0407AECE7807AEAE736
:100F3000007BE8E7807BE6E703F0BCFCE3E72729DA
:100F400004D2084600F0AAFE208000E002252846D0
:100F500070BD00006C6AFF1F5488FF1F10B5024966
:100F6000087003F0A3FD10BD6C6AFF1FF0B593B0CD
:100F7000002416461D46109410AA119400F0BCF9E6
:100F8000074603F097FC002F6BD120206A460E2104
:100F900007F020F8002802D168468089C4B2082DE5
:100FA00011D000201290082D0FD021271C220021E3
:100FB0006846FFF755F86A461C21384607F00AF8DC
:100FC000002804D00FE00120ECE72227EEE7684676
:100FD000807EC01F092806D8E107C90F6A4630463F
:100FE000129B00F0CDFD1422002107A8FFF738F86E
:100FF000242007AA102106F0EDFF002811D11022AD
:10100000FF2107A8FFF732F800280AD125200BAAF4
:10101000042106F0DFFFE107C90F07AA304600F000
:10102000F3FF70200CAA102106F0D4FF002811D184
:101030000CA803F02DFD0027B9000CA808180188A2
:10104000002903D08278304601F0A0FA7F1CFFB25D
:10105000042FF1D3A00704D508480178304601F0E9
:1010600083FA042D07D10548401C805D022802D177
:10107000304603F053FD002013B0F0BD6C6AFF1F33
:1010800070B50024054600290BD108491046FEF72B
:10109000F3FF0846294600F09DFE040003D001211D
:1010A000284600F0D7FF204670BD000040420F00E8
:1010B00070B50C46080428D515480078FEF7E2FF05
:1010C00005001ED00178B02908D0B1290ED0D02952
:1010D00014D100F01FF8002810D112E001791E2968
:1010E0000CD16888002100F05FF907E00179002940
:1010F00004D10289C188688800F042FA2846FEF7C8
:10110000C7FF0120C003604070BD002070BD00001B
:101110006C6AFF1F7FB582786E4C921F0025E169D3
:101120001300FEF797FF0AAFD4D4681B06D4D45F30
:1011300077D40546002908D00E68002E05D06B7BB9
:101140002A7B6989E81CB047C1E06989A06900F081
:1011500041FE0028F8D0688901218DE005464078DD
:1011600000282DD1A879C0072AD0A8885949800025
:1011700020310858002823D10E2200216846FEF7AE
:101180006FFF6969002903D006226846103107E025
:10119000A88806F053FE00283BD0C11D06226846F1
:1011A000FEF746FF69468889A9794907C90F0843B0
:1011B000694688812946684603F040FA002809D02C
:1011C000E069002825D04368002B22D06A78A888DF
:1011D00001214EE0A8882A46694603F071FD0020EF
:1011E00004B070BD002972D04B68002B6FD04278DC
:1011F000808802213DE00446C0780022211D00F0D5
:101200007BF8002863D1224625200C32042106F009
:10121000ECFE5CE00546607A0028A88801D0A17A3F
:101220002AE02C49491C095C002924D006F006FE5E
:101230000646A87AC0070DD0002E48D0B079002805
:1012400008D0A989890505D46A46F11D00F054F833
:10125000002814D02A46B179A888083203F0A0FAF1
:10126000E069002833D04368002B30D00022A888E2
:10127000114698472BE0052100F0ECFE27E0A888F6
:101280000321F9E700F086FD002820D1E07B01284A
:1012900006D0104E00241036305D01280AD00DE033
:1012A00003F04CFB0B48E573012200211030FEF7E0
:1012B000D7FE07E0204603F04EFB3555641C24069C
:1012C000240EE9D0502006F083FE03F0EFFB01204E
:1012D00086E700006C6AFF1F10B5064CE0612178BC
:1012E000FF2905D0262000F07FFE207801F0ECF8E1
:1012F00010BD00006C6AFF1FF0B5012485B01646D2
:101300000F46002807D0012805D0012502280FD05C
:10131000032844D11EE0084603F07CFB04003ED1C4
:10132000002E3CD0062239463046FEF781FE36E0DC
:101330001C4F002400910E206043C0190622801D1E
:101340000099FEF781FE002823D1641C2406240E98
:10135000F1D01CE000242046062148432330C0B2CF
:101360006A46102106F036FE00280CD11022FF211B
:101370006846FEF77BFE002805D13946684600F036
:10138000E7FD002805D0641C2406240EE3D02C467B
:1013900005E0002E03D03146204603F061FB2046D5
:1013A00005B0F0BD6488FF1F70B50E4617491525BE
:1013B000884212D1002432460221204603F092FADC
:1013C000002800D00025641C2406240EF3D0002E33
:1013D0001AD00F4806F092FD16E006F02FFD04002B
:1013E00011D0A0790022E11DFFF786FF002804D16B
:1013F0003246022103F076FA0025002E04D0204662
:1014000003F082FB00E01425284670BDFFFF0000BA
:10141000094B0211FEB5154601229202821A0024E0
:101420000127544E1300FEF715FE110A151A212844
:101430002F373E434B757D848C9A9A569A0001292A
:101440006FD1297802297ED84A480122401CFEF734
:1014500007FE8CE0022976D12888708287E0012976
:1014600071D1287801286ED8B07080E001296AD146
:101470002878042867D8F07079E0012963D12878AA
:10148000012860D8307172E010295CD11022294601
:101490003948FEF7CDFD6AE0012954D128780128AA
:1014A00051D8707163E001294DD12878F0725EE067
:1014B000042948D131492868884244D8B06156E0AF
:1014C000002940D100F066FC002801D0F7734EE0FF
:1014D00003F034FA18E0072935D10622691C684662
:1014E000FEF7DCFD287800226946FFF705FF0500BE
:1014F0000ED100F04FFC002803D01E4810300770BA
:1015000035E0284603F027FA502006F061FD23E07D
:1015100002242CE0012916D12878012813D87072F2
:1015200025E010E001290ED1287809280BD8B072E7
:101530001DE0012907D12878C11F092903D830737C
:1015400015E0012901D0182411E0B07B2978B1738E
:1015500000280CD101290AD103F0A8FA07E02728B6
:10156000D6D20229D4D1298800F03EFD0446204677
:10157000FEBD00006C6AFF1F5488FF1F3F420F0032
:10158000F8B50F4613491525164688420DD100249B
:1015900032463946204603F0E3FA002800D0002501
:1015A000641C2406240EF3D012E006F047FC002849
:1015B0000DD08379C11D00221846FFF79DFE00283B
:1015C00006D13246394603F0CBFA002500E0142557
:1015D0002846F8BDFFFF000070B50C460146032009
:1015E00000020A1A002534481300FEF733FD1D10CF
:1015F00012151C1F2326282C303234383A3C3E402A
:10160000424446484A4E50525A5456585A00C0799D
:1016100011E01022294902E0284910221031204609
:10162000FEF706FD45E0C06A206042E0224906223E
:101630003C31F4E7007820703BE0808936E01E49B9
:1016400042784231EBE71D4982781F39E7E7007A9B
:10165000F1E7407AEFE7184906223031DFE7807A78
:10166000E9E7C07AE7E7C08920E0808A1EE0C07819
:101670001CE0C08A1AE0008B18E0408B16E0808BDB
:1016800014E00D4906223631C9E7C08B0EE0008C0C
:101690000CE0408C0AE08079CDE7008A06E0408AC1
:1016A00004E0272904D2084600F0F8FA208000E080
:1016B0000225284670BD0000186BFF1FA788FF1F7A
:1016C00070B50E4C00256071A571691EE18100F0B6
:1016D00039FC0420E071102200210948FEF7C0FC0B
:1016E0000748102200211030FEF7BAFCE56225728F
:1016F00065720720A072E57270BD0000186BFF1FB5
:10170000A788FF1FFEB53B4D0C4608040CD5687931
:10171000FEF7B8FC050004D004F012F82846FEF7E6
:10172000B7FC0120C00360E0600403D50120800302
:101730004840FEBD2F48E1070126807900292AD0C4
:101740002978002920D0052821D0297A68460170FF
:10175000697A4170274906223031801CFEF768FC07
:10176000A97A68460172E97A41726946687900F09F
:10177000B1FA002808D00720A871696A002903D0AF
:101780000968002900D0884720467040FEBD03202C
:1017900069460870E4E7A1070DD5052809D1E88955
:1017A000FEF782FCAA8A002A03D002216879FEF79C
:1017B00081FC022019E0600704D5002004F000F845
:1017C000042012E0200712D52879012802D002282F
:1017D0000AD107E00096AB8B6A8B298BE88A00F070
:1017E0000BF801E000F05AF908206040FEBD00202F
:1017F000FEBD0000186BFF1FF8B5134C069EA579BF
:10180000052D01D01420F8BD104F851FBD4219D2FF
:10181000062917D3BD1DA94214D2FF27F537BA42B6
:1018200010D20A2B0ED3AB420CD2E082218362830A
:10183000A383304603F0C4FF04216079FEF740FC27
:101840000020F8BD1820F8BD186BFF1F7A0C0000AF
:10185000F7B50D4680490098164642187F4F002480
:101860007879B9791300FEF7F5FB190E141BE920FE
:1018700040455970777E888FE996A2A9B4BFC8E920
:10188000E9E9E9D3E900102D76D1102231467448F8
:101890006FE0102D70D1724810223146103068E090
:1018A000042D69D13068F862CEE0012D64D13B7817
:1018B00032783A70002B0AD0002A07D1022903D0CF
:1018C000062901D0042901D100F0BEF9BCE0002AAC
:1018D0000AD0012905D0032903D0052901D0042904
:1018E00002D10121FEF7F2FBAEE0022D44D1308897
:1018F000B881A9E01F2D3FD858481F22002142304F
:10190000FEF7AEFB55482A4631464230FEF790FBC3
:10191000524B7D7042332A46012112E01F2D7CD8A4
:101920004F481F2200211F38FEF79AFB4C482A46D9
:1019300031461F38FEF77CFB494B2A461F3BBD70E2
:101940000021787900F0D6FB83E0012D65D1307855
:10195000042862D8387277E0012D5ED130780328F0
:101960005BD8787270E0062D57D13C48062231468C
:101970003030FEF75DFB67E04FE0012D4DD1307850
:1019800007284AD8B8725FE0012D46D13078032885
:1019900043D8F87258E0022D3FD13288BA82002A2B
:1019A00052D0052950D10221FEF784FB4CE0012DD5
:1019B00033D13078012830D8F87045E03088022DD6
:1019C0002BD1062829D31921C901884225D8F882AC
:1019D0003AE03088022D20D106281ED31921C901F2
:1019E00088421AD838832FE03088022D15D1FF2184
:1019F000F531884211D2788326E03088022D0CD14F
:101A00000A280AD31921C901884206D8B8831BE0E5
:101A10003178012D01D1012901D0182414E00821C9
:101A2000FEF75AFB002801D016240DE0002003F039
:101A3000C7FE04217879FEF743FB05E000982728CC
:101A400001D2022D02D002242046FEBD318800F0D2
:101A5000CBFA0446F8E70000FFFCFFFF186BFF1FFE
:101A6000A788FF1F1CB50B4CA179002901D01120BC
:101A70001CBD002800D06062064907482C3103468F
:101A800001910090103B0022E179607900F0BCF8F0
:101A900000201CBD186BFF1FB788FF1F10B506483C
:101AA0008179052901D0122010BDC1891322407906
:101AB00000F0E0FA10BD0000186BFF1FF8B50446F7
:101AC0002C480F460078022805D0012803D00828AA
:101AD00003D1002F01D01220F8BD002C07D02088A0
:101AE000254D81006958002903D01120F8BD02203E
:101AF000F8BD06F0A3F9060036D02C20FEF7F2FA66
:101B0000218889006850002830D02C220021FEF75F
:101B1000A7FA20881C228100695848802088211D4E
:101B200080002858001DFEF783FA218802208900D2
:101B300069580870228890002B5870791B1D002866
:101B400016D000200D49097802F05EF90546002FF5
:101B500003D03946304606F07BFF002D02D02088A6
:101B600003F028F92846F8BD1420F8BD1320F8BD6D
:101B70000120E7E7E370FF1F4C71FF1F7171FF1F2A
:101B8000FFB5204D81B028781E461746022823D085
:101B9000012821D0002F22D0019806F04FF904002F
:101BA0001FD0606A002801D0FEF7A2FA1C21384637
:101BB000FEF7A4FA6062010015D02878000714D55A
:101BC000002E12D0887E00900B4612330A8A0198AC
:101BD00007F008FA014609E0122005B0F0BD022026
:101BE000FBE71420F9E71320F7E70021207904220E
:101BF00010432071029A002A02D002221043207161
:101C00000846EAE7E370FF1FF8B51D460224069F69
:101C1000079E0B00FEF71EFA0D1508151508151581
:101C2000151515151508150000F0B8F8040008D1B1
:101C300032463946284600F08FF900F0EFF802F0FE
:101C4000D3F82046F8BD000070B5104C216800297B
:101C500004D00978814203D0032070BD122070BDEA
:101C60000B4D02212878FEF72BFA0A480026468001
:101C700004212878FEF724FA07480680216803200B
:101C800048700020FEF740FA70BD00004071FF1F51
:101C90007171FF1F5471FF1FE670FF1F272803D2C9
:101CA00002494000085A704701487047EE70FF1F14
:101CB000FFFF000010B5064C607006F0EFF860788A
:101CC000FEF728FA0521607801F020FC10BD000025
:101CD0007071FF1F70B5284E054630680C4600280D
:101CE00001D0112070BD254801780520014216D091
:101CF00023488068002805D00078002802D0C80753
:101D000006D101E0102070BD00F044F8002808D092
:101D10002078032805D0022803D0002801D0122003
:101D200070BD0C20FEF7DEF93060002820D0057071
:101D3000002141700A222146801CFEF779F903F048
:101D400023FE040002D003F029F812E00D480078C9
:101D500003280ED11D20FFF7A1FF0B4900280880A2
:101D600007D00B48094A04210078FEF7D9F900E0B2
:101D70001324204670BD00004071FF1FE370FF1F59
:101D80005471FF1FE470FF1FE670FF1F60EA000040
:101D90007171FF1F10B506F09FF810BD70B50C46AD
:101DA00005461C2200210948FEF75AF9084805702B
:101DB0004470FEF7BBF90549002803D000200870E5
:101DC000122070BD01220A7070BD0000FC8DFF1F43
:101DD000E270FF1F7FB504460D46084606F02EF858
:101DE000002805D00C48844204D9022004B070BDFC
:101DF0001220FBE7102200216846FEF731F9684601
:101E00000470210A4170210C8170210EC170294695
:101E100001F05CFFEAE700003F420F0070B50F4C95
:101E20000025A068002802D0FEF762F9A560E068EE
:101E3000002802D0FEF75CF9E5600948052100782A
:101E4000084206D00548103003F07AFB02F0CCFBC4
:101E500070BD002003F074FB002070BD5471FF1FA3
:101E6000E370FF1FFEB5344D0C46080419D56878A1
:101E7000FEF708F90121C9034C40064600280ED0A0
:101E800003F07EFA002807D12878FF2804D03146D5
:101E9000FEF752F9002802D03046FEF7F9F8204646
:101EA000FEBDE007012700280AD0A868002804D05A
:101EB0004168002901D00020884720467840FEBDB7
:101EC000A00709D56868002804D04168002901D01E
:101ED0000120884702202AE060072AD5174E308863
:101EE00000281FD0401E0004000C30801ED102F0DC
:101EF000C7FF002809D0124807706868002804D07E
:101F00004168002901D00120884702F093FF69460B
:101F100001F05AFE684603F01DFA1D20FFF7BEFED1
:101F2000308003E004216878FEF7CAF8042060409E
:101F3000FEBD0020FEBD00007071FF1FE670FF1F98
:101F4000E570FF1F01490870704700007071FF1FA6
:101F500010B501F023FF10BD70B50E4C0B46261DC9
:101F600007C60546102200211846FEF77FF8012813
:101F700003D11021A06806F0D7FB102200212846CB
:101F8000FEF774F8012803D11021606806F0CCFB3D
:101F900070BD0000FC8DFF1F38B505460F480C468C
:101FA0000078400701D4122038BD284605F046FFCE
:101FB000002811D00A48A9004058002801D0817D8E
:101FC00000E02146684607F063F8064B6A460221A6
:101FD000284606F0C3FF38BD142038BDE370FF1F4C
:101FE0004C71FF1F9D950211272807D2044A914288
:101FF00004D0044A4000115200207047022070476C
:10200000FFFF0000EE70FF1F70B50E461049154629
:102010000978022916D0012914D0002D14D005F01A
:102020000DFF040012D0002E03D0207902210843B6
:10203000207110222946A018FDF7FAFF28692062B6
:10204000002070BD122070BD022070BD142070BD34
:10205000E370FF1F38B50C46054605F0EFFE00287B
:1020600006D0684604706946284606F065FF38BD0C
:10207000142038BDF8B50D4617461D4906461B4AC3
:102080001224C868954208D100282DD00268002A81
:102090002AD029463046904723E0144A521C9542E4
:1020A00013D1002807D00268002A04D02946304600
:1020B0009047040005D03946304602F0D7F80400B6
:1020C00012D10B48067047700EE0284605F0B6FEA8
:1020D000002809D00078B04205D139462846FEF7DD
:1020E00031F8044600E003242046F8BDFEFF00005E
:1020F0004471FF1FF8B50E46014619481546007891
:1021000005221F46104028D0304326D01548012E06
:102110001BD0C468002C20D01F2D18D8002D01D052
:10212000002F14D001701F220021601CFDF798FFC2
:102130002A463946601CFDF77BFF28462570002E95
:1021400007D0611CFEF704F8F8BD8468E2E70220BE
:10215000F8BD611CFEF702F8F8BD1220F8BD0000C2
:10216000E370FF1F5471FF1F014610B50020C9071F
:1021700004D0034A0421034800F0ACF910BD00006C
:10218000F89B02119C6BFF1F70B50F4D0F4CA87090
:1021900029461831204600F01DF8002128460B463C
:1021A0001030CA0084521218491C09065360090EE7
:1021B000F7D0012004F0C8FAA87800F071FB0448B9
:1021C00005F0B2FE70BD00007C6BFF1FFFFF00003A
:1021D000815F021170B50A4C0025A04209D1002090
:1021E00082008C525218401CC0B295700228F7D35E
:1021F00070BD03F094FE0028FAD00480857070BD95
:10220000FFFF0000F8B50E46074606990024079820
:10221000002902D00B242046F8BD022B01D00D244A
:10222000F9E711785278120289188DB22946814354
:1022300001D08024EFE73846F16800F03DF9A8426C
:10224000E9D02A463846F16800F0CCF90400E2D122
:1022500071892A46384600F06BF9DCE770B50C4608
:10226000080412D50A488078FDF70CFF050008D055
:102270002878B02802D1284603F06EFF2846FDF7E3
:1022800007FF0120C003604070BD002070BD00004A
:102290007C6BFF1FFFB587B0087A0025109E1C4697
:1022A0000F46C0060DD5099803F032FE030006D094
:1022B0000A22394607989847050035D101E00E25D6
:1022C00032E0387802281DD17868292201784078D8
:1022D00012020002081880B2811A90427ED009DCF6
:1022E0007249401A23D0012821D0022851D0032856
:1022F00008D125E0012972D0022971D003296DD0BF
:1023000004296ED0099803F02BFE0028D7D0056869
:10231000002DD4D012991198019100903346224695
:1023200039460798A847054628460BB0F0BD1198D6
:10233000002873D1F868017831800278416897E00D
:10234000119800286AD101203080F86800210078B7
:1023500020707889401C80B200F072F900280FD0FC
:10236000318802788918891C3180817A61704189AD
:10237000090AA17002784168E01CFDF759FED3E715
:1023800030880422001D30800021601CFDF768FEAB
:10239000CAE71198002872D1F86804A90088009053
:1023A00004203080009820700098000A6070009827
:1023B00000F046F9070028D0F86805906846028AC0
:1023C00003AB3B49384600F093F900280FD13B7826
:1023D000022138487A68FEF7E4FA03E027E031E0AA
:1023E0001DE049E0002802D1401E69468881059819
:1023F000007802280CD1059802224168201DFDF7C3
:1024000017FE3088801C308002E069460098888181
:1024100068468089A070000AE07085E72FE0119877
:1024200000282CD1F968079800F046F804E01198CC
:10243000002824D1F8680088022131802070000A29
:10244000607071E7F868FDF78FFE1199C0B28142A4
:1024500010D8814201D1002206E0129A89188142E7
:1024600002D31199401AC2B23280F9681198091842
:10247000204682E7072557E71198002801D00B2551
:1024800052E70721F8683180017821704178617046
:102490008178A1704188090AE170017921718179FF
:1024A0006171C088000AA0713EE7000000280000AA
:1024B000FFFF0000AE9D021110B503F030FD0028B3
:1024C00000D0807810BD00000149087070470000FE
:1024D0007C6BFF1F7CB51446050019D0684601953A
:1024E000018000F0E3F903001DD1002C1BD06D89A1
:1024F000002D0DD00C20FDF7F5FD00280AD000239B
:1025000003608580094A84609168002904D006E050
:10251000022308E0132306E0906004E011460A68F5
:10252000002AFBD1086018467CBD00007C6BFF1FB1
:10253000F8B50C4C0746207815460E46FF280FD0FC
:102540000A20FDF717FE01000AD0B1200870002014
:10255000487008714F80CE800D812078FDF7ECFD2A
:10256000F8BD00007C6BFF1F70B50C4605460649A0
:10257000FFF7A2FF800704D52146284600F0EAF9BC
:1025800070BD012070BD0000946BFF1F1CB56B4631
:102590001A71120A5A7100220092022301AA00F055
:1025A00001F81CBDFFB583B008461F4601A90C9E6B
:1025B00000F046F8050012D06846808803F0D0FC91
:1025C00000280AD04468002C07D000963B462946D4
:1025D000059A0398A04707B0F0BD0E20FBE7012045
:1025E000F9E7000070B514460E46054603F097FC67
:1025F000002806D13146054803F091FC002803D09D
:1026000005808470002070BD112070BDFFFF0000A8
:1026100010B50178B0290BD14178002908D1017992
:10262000122906D01B2903D14088012100F0F8FEB1
:1026300010BDFF210231095C0129F5D010BD000059
:10264000F0B58C4610494B6819E09F687C89A04220
:1026500014D39E883119814210D900220CE0110157
:102660007D186989814205D16046002800D0048028
:102670002846F0BD521C92B29642F0D81B68002B3F
:10268000E3D10020F0BD00007C71FF1FFFB51748AB
:1026900081B00A9F446824E000251EE0A06829015B
:1026A000461870890199884215D30299884212D838
:1026B0000498002807D031787068049B039AFEF7CD
:1026C00070F9002807D0002F02D0A0684089388018
:1026D000304605B0F0BD6D1CADB2A088A842DDD873
:1026E0002468002CD8D10020F3E700007C71FF1F84
:1026F000FEB5174600256A469580044640891D4A66
:102700001E46904208D001AA0092401C237880B255
:102710006268FFF7BBFF054623780221164862680E
:10272000FEF73FF9002807D1237802211348626899
:10273000FEF737F9002801D060890EE023780221E6
:102740000F486268FEF72DF900280DD0002D03D048
:1027500068468088B84203D0384604F009F904E09E
:102760006889401E80B200E06089002E00D0308071
:102770002846FEBDFFFF0000AC9D0211AE9D021178
:10278000B29D0211FFB581B00F461E461446694640
:10279000019803F00BFA050018D1002C06D0012295
:1027A0001021019805F024FB05000FD1394601984E
:1027B000FEF78CF9050009D1009CFF2E06D02146BA
:1027C0001E22A31C034804F0DFF8E670284605B07B
:1027D000F0BD00007568021110B5054908700421AC
:1027E00000F094FE00F006F8FEF784F910BD00003A
:1027F0008C71FF1F70B50E4C00200C4B651CFF2226
:102800008100C91800280ED00D80401CCA70C0B2CB
:102810008A700228F4D3074803F06CFB064805F0E1
:1028200083FB002070BD0C80EFE700008471FF1F68
:10283000FEFF0000A1680211F5670211F8B50D4610
:1028400014460646694603F0B1F917280CD0002C4F
:1028500006D001221021304605F0CAFA002803D123
:1028600029463046FEF73CF9F8BD000070B50C462D
:10287000080411D509480078FDF704FC050007D0CD
:102880000178A02901D103F0D9FA2846FDF700FC10
:102890000120C003604070BD002070BD8C71FF1F1F
:1028A00001490870704700007C71FF1F70B5054634
:1028B000008800281DD068680221037842682248F9
:1028C000FEF76FF8002808D1686802210378426893
:1028D0001E48FEF766F800280BD01D4C60880028C3
:1028E00005D0012229881204101A814203D901203F
:1028F00070BD022070BD0C20FDF7F4FB060001D076
:1029000000200AE0132070BD02016B6861880A3262
:102910009952491C401C618080B229888142F3D8B9
:102920000020306008222946301DFDF781FB6068D9
:10293000002802D1666004E0084601680029FBD146
:102940000660002070BD0000AC9D0211AE9D02111A
:102950007C71FF1F70B5BEB00D46064600240223F1
:102960000E4A0F4901200094FFF790FE002812D074
:1029700040896A46108004205080012010715471F3
:10298000FF209071D0712B46002269463046FFF738
:10299000F9FE3EB070BD0120FBE70000CA9D0211A8
:1029A000FFFF00000649496806E08A6852898242B2
:1029B00001D18888704709680029F6D10020704746
:1029C0007C71FF1F10B51422114201D0012202E0D8
:1029D0004A0604D50022102105F00AFA10BDC807E6
:1029E00001D0002010BD022010BD10B514468A068B
:1029F00004D50122102105F0FBF910BD88221142F7
:102A00000ED008220A40102105F0F2F900280BD060
:102A1000E034617E0029F0D0217E0129EDD103E070
:102A2000880701D4032010BD002010BD014610B559
:102A30000020C90704D0034A07210348FFF74AFDD5
:102A400010BD0000E49B0211A46AFF1F70B50D4683
:102A5000164600241D490300FDF7FCFA0805123450
:102A6000341934222934152D23D816220021184870
:102A7000FDF7F6FA2A4631461548FDF7D9FA22E065
:102A8000022D16D111491088103908801BE0082D3D
:102A90000FD10E48082231460838FDF771FB12E0CD
:102AA000012D06D1CA6909493078283107E0012D86
:102AB00001D0182407E0CA6B04493078483104F08B
:102AC00024F800E00224204670BD0000A46AFF1F25
:102AD0007288FF1F10B5012208490020FFF782FD10
:102AE0000649012208310020FFF77CFD034901223D
:102AF00010310020FFF776FD10BD0000766EFF1F3D
:102B000038B50F4C6946E0710120087001466A46ED
:102B10000C48FEF77FFC0025ED432846FFF786FFB3
:102B20002846FFF721FBFEF7C9F9FEF755F900200B
:102B3000FEF7BEF90121E079FDF7C8FA38BD0000C3
:102B40003C6EFF1F0D040000FEB5544D0C460804FA
:102B500009D5E879FDF796FA002801D0FDF798FA33
:102B60000120C00389E0E0070126002809D04B4876
:102B70001C30FEF777FF4A48FEF7AEFB2046704058
:102B8000FEBD46486107007808D5052804D1A8781D
:102B9000002801D004F074FC04206EE0A1070AD5DF
:102BA000052806D1FEF774F93E4A0221E879FDF7BF
:102BB00081FA022061E0210721D5697808202646A4
:102BC0004640002917D06879A97988420FD00B2197
:102BD000401CFDF751FA69710B20414332480B1834
:102BE00005D09A7859781878DB1C04F0F9FB6879DD
:102BF000A979884201D13046FEBD2046FEBDE106DE
:102C000011D569460E700E7105280AD1312001AA2E
:102C100001210001FEF71CFE6A4601212348FEF750
:102C200017FE102029E0A00636D50020FDF748FF4A
:102C3000C0B200271E4DB92821D09E281FD04D2894
:102C40001DD06F72FFF746FF1A48C8220121007895
:102C5000FDF730FA184828602E72A87A002810D0A4
:102C600001212F710846FDF791FA01210020FDF79F
:102C70008DFA002000F076FE20206040FEBD6E72CE
:102C8000E0E72E7100210120FDF780FA00210846BF
:102C9000FDF77CFA0120EDE70020FEBD3C6EFF1F32
:102CA000C49C0211983A00001A8DFF1F19030000FE
:102CB0006C70FF1F7A70FF1F110E0000FFB583B00C
:102CC0000020009048680E46017840781D460002BA
:102CD0000818524A5149514B0C9F84B22B391B3B67
:102CE000901E002F04D0844225D00B2007B0F0BDE9
:102CF000944207D08C4205D09C4203D047491A39F0
:102D00008C4216D1708904F051FB00280ED0059931
:102D100000950191424A4179526900791568012371
:102D20002246A8470090002874D075E00020288033
:102D300070E084424CD13B480088874202D3072090
:102D4000009069E0364C7D2252011021E079FDF7B8
:102D5000B1F97D22D2002021E079FDF7ABF9002006
:102D6000FDF7AEFEC0B2B92806D09E2804D04D288B
:102D700002D0002F07D00AE0002F08D12A490120F5
:102D80004872002002E028490020487260812548EE
:102D90000D990088C01B884200DD084682B22A8057
:102DA000F068C1190598FDF743F928886189401832
:102DB00080B21C496081098888422BD11A48407A28
:102DC000002827D164222021E079FDF773F921E062
:102DD0001248C01E844204D1042028800246F168B3
:102DE00015E0124902208C420ED00C49491C8C423D
:102DF00006D101202880F06801780598017009E06B
:102E00000A49491E8C4205D12880F16802220598A2
:102E1000FDF70EF904F034FB009867E74D2A000037
:102E20003C6EFF1F606EFF1F6C70FF1F08290000C3
:102E3000014A5161906170473C6EFF1F014A116168
:102E4000107270473C6EFF1FF8B507460D480E46DE
:102E500001781C461546052912D14178002909D070
:102E600041798079814205D13146384604F0B8FA7B
:102E7000002805D023462A463146384604F0B4F9E6
:102E8000F8BD00003C6EFF1FFFB583B00C9B002413
:102E900015460F468446002B02D00B2007B0F0BD2C
:102EA0007868017840780002081886B23E48864269
:102EB00003D03D481B38864212D1788904F076FA57
:102EC00000286AD006A901950091384A41795269D3
:102ED0000079146800233246A04704005DD05EE00C
:102EE0003248314A41696846521E008B96420AD1E7
:102EF000012841D12878002801D0012843D1002899
:102F000049D0012047E02A4A96422FD1012100935F
:102F10000191C3B22A4639466046FFF773F90400AF
:102F20003DD16978287809024018204982B20869A1
:102F30007B89097A15E047889F420FD100282CD061
:102F400006A901950091012A0ED00323174A417961
:102F50005269007915683246A8471EE0491EC9B279
:102F600008300029E7D118E00223EFE70E4A521C8F
:102F7000964212D1012801D00D2410E028780028B3
:102F800003D0012801D0802409E0FA681070287865
:102F9000002806D003204968884704F071FA2046CB
:102FA0007CE70220F7E700004D2A00003C6EFF1F7F
:102FB00002290000F8B5334C31492046FFF70AF9E1
:102FC0002F4920460831FFF705F92D4920461031D9
:102FD000FFF700F92A482C4A1D211A30FFF77AFA28
:102FE000009027481A30C1690220FDF70DFF2449DF
:102FF0002648C91F0F7807714E784671E1314A891A
:103000000280498B41801E4901228271491F0D783F
:1030100005734C781E4B447359890181002141810D
:103020008273077546755B8F0382194B40335E8947
:1030300046828175057744775B8D03834183034620
:1030400081772033124C1A715A7180346589058456
:10305000658B45840A4D9971ED1E2E781E736D782F
:103060005D73648F0485418501469A733031032076
:10307000FDF7CAFE05490720FFF7E0FE0098F8BDFE
:10308000766EFF1FFFFF00002C9D0211948DFF1F25
:10309000906FFF1F70B50C4C049816190B4A012451
:1030A000002E0FD000251B2E03D1022903D00329A7
:1030B00003D01D8004E0117800E0917801701C803D
:1030C000002070BD5178F9E7CED5FFFF6C6EFF1F71
:1030D000F0B5614E8DB0707006211F20FEF784FFA1
:1030E00000246846047104840721017201250573D8
:1030F0000A2181841421018504218185FF21F53174
:10310000018604AF049402225448791C0594FDF70B
:1031100043F80422F91C1003FDF73EF8304606225E
:10312000791C1030FCF784FF01AA01214C48FEF7FE
:103130008FFB4B4808AA0221401CFEF789FBC320E5
:1031400002AA01218000FEF783FB454832462B325C
:103150001321801CFEF77CFB324661200C321F21BC
:10316000C000FEF775FB312003AA01210001FEF724
:103170006FFB3B4809AA02210C30FEF769FB384877
:103180000AAA02210D30FEF763FB35480BAA022183
:103190000E30FEF75DFBC5200CAA02218000FEF771
:1031A00057FBC72168460170032747706A46022112
:1031B0000120FFF74BFC32463E3215210020FFF77D
:1031C00045FC6846059405710472077305748120F7
:1031D00005AA0421C000FEF71DF9012101AA8802F9
:1031E000FEF718F91E4802AA0121FD30FEF712F978
:1031F0001B4803AA0121FE30FEF70CF904AA0121A5
:103200001848FEF707F9A02421460620FEF7ECFE39
:1032100021460720FEF7E8FE21460820FEF7E4FEDF
:1032200021460920FEF7E0FEFFF7C4FE3146543187
:10323000301DFFF7FDFD0CA103C90791069006A9FB
:10324000082004F02DFF00F03DFA01217078FCF712
:103250003DFF0DB0F0BD0000D86DFF1F0440000021
:1032600005030000060400004C454E5A455A5051D3
:10327000F8B50C46080424D51D4D6878FCF702FF0C
:1032800006001BD03078B02815D0B22813D1A8780A
:10329000401CC1B2A970F278B3781002184340BA4A
:1032A000C82803D9012901D1FEF7F8FBA878C8285E
:1032B00001D9C820A8703046FCF7EAFE0120C003FF
:1032C00012E0E0070AD00125684605706A462946E3
:1032D0000848FEF7BDFA20466840F8BD200705D52E
:1032E0000020FCF75FFF08206040F8BD0020F8BD1B
:1032F000D86DFF1F0503000030B50F4D0020551994
:10330000039C0E4A13D01B2D04D1022903D003299C
:1033100008D00A2030BD012B02D12178117030BDB8
:103320000D2030BD012BFBD12178917030BD012BD8
:10333000F6D12178517030BDCED5FFFF6C6EFF1FE6
:1033400010B500210E20FCF733FF01210E20FCF701
:1033500035FF00211120FCF72BFF01211120FCF784
:103360002DFF0F4A00211120FCF72EFF00210C2019
:10337000FCF71EFF03210C20FCF720FF0021042096
:10338000FCF716FF01210420FCF718FF01210020A3
:10339000FCF70EFF01210020FCF7F8FE10BD000035
:1033A0001127FF1F0B7803700B8802221B0A437042
:1033B0000B88801C012B02D0022B07D011E08A78E9
:1033C00002704988090A417004220AE08A78027072
:1033D0004A88120A42700A7982708988090AC17083
:1033E000062210467047000008B5044B00931346B0
:1033F0000A46012104F04CFC08BD0000A53302116F
:103400001CB50323019200930A46024B122104F0DB
:103410006FFC1CBDB175021110B5FCF7DBFE10BDD1
:1034200013B504480078012803D101AA6946FCF7C6
:10343000D7FE1CBD9871FF1F70B50F490F4A087069
:1034400000210B468C00491CC9B213530429F9D33F
:103450000A4C00211034FF260A460A256A43151932
:103460006B80491CA354C9B26E720329F4D3FCF7D4
:10347000BDFE04F0E1FB70BD9971FF1F188EFF1FA8
:10348000082A01D0012070474B780A781B02D21815
:103490000280CB788A781B02D21842804B790A7955
:1034A0001B02D21882808A79C97909025118C18019
:1034B0000020704770B50C46080411D50948007803
:1034C000FCF7E0FD050007D00178902901D104F058
:1034D00015FB2846FCF7DCFD0120C003604070BDF1
:1034E000002070BD9971FF1F70B500280AD1064CED
:1034F00000252580A581A580A068002802D0FCF7C2
:103500007BFEA56070BD0000948EFF1F072907D0C9
:10351000052905D0042903D0062901D002207047CF
:10352000044A8B009A181346403B1986203A90743F
:1035300000207047188EFF1F70B506001BD10E4C7F
:103540000025214640310D744D740D76606D0028C4
:1035500002D0FCF751FE65655C2000254643341916
:10356000E80020184068002801D0FCF745FE6D1CDB
:10357000EDB20A2DF4D370BDA48EFF1F70B50A887A
:103580000C460546072A07D0052A05D0042A03D091
:10359000062A01D0022070BD012104F0F3FC0028AE
:1035A00004D02146284604F019F870BD142070BDDF
:1035B00010B5001D80B2FCF725FE002803D00321C2
:1035C000C943FCF725FE10BD7CB5FCF727FE0021A2
:1035D0001120FCF7EDFD01211120FCF7EFFD00218A
:1035E0000846FCF7E5FD01210020FCF7E7FD00217E
:1035F0000120FCF7DDFD00211320FCF7D9FD01219E
:103600000846FCF7DBFD01211320FCF7D7FD0E2156
:1036100068460170002141700A2141800C2101712E
:10362000012141710521C1806820FCF7FDFD094D94
:103630007624EC60084E03E03046FCF7FBFDEC60BE
:103640000E20FCF7FDFD0028F6D002216846FCF7AD
:10365000FDFD7CBD002000401027000070B50E204D
:10366000FCF7EEFD164D2C46143C002816D0112018
:10367000FCF7E6FD002813D0207800280DD00020AC
:10368000207028710A2201212079FCF713FDFF2206
:10369000F53210212079FCF70DFD70BD012000E00E
:1036A000022021788142F8D0207028710A2201215D
:1036B0002079FCF7FFFC10212079FCF701FD70BD9B
:1036C0009C70FF1F10B5FFF73BFE002211466820DB
:1036D000FCF7C2FD6820FCF7C5FD0C20FCF7B0FD2F
:1036E000002805D005480121417181720021017136
:1036F0001E21002000F086F910BD00006C70FF1F35
:10370000F8B5754C0E4608040CD52079FCF7BAFCC8
:10371000040004D0FCF7ACFD2046FCF7B9FC012006
:10372000C003D5E0F0070125002700287ED0FCF774
:10373000A5FD0121684D0843143520612879002832
:1037400060780ED0002817D11421E068FCF79CFDAA
:10375000002811D0012060702069A0602879A07035
:103760000AE0002808D01421A068FCF78DFD00288D
:1037700002D02069E06067706879002834D028683A
:10378000002831D0FF212D31FCF77EFD00282BD001
:103790005248817A002924D16979022921D1E1781E
:1037A000012902D0022902D01BE0877119E0007ABA
:1037B000012816D10020FCF76DFD4948082100784A
:1037C000FCF77EFC0821002003F0A0FE0021084643
:1037D00003F09CFE4248FF22F53208210078FCF7F6
:1037E00069FC2F606F71E770A078002810D02879ED
:1037F000002813D11421A068FCF746FD002807D04B
:103800006879401C687120692860A078E070A77012
:103810002879002802D16879002804D014220121D7
:103820002079FCF747FC012052E0FFE7300708D57C
:10383000282208212079FCF73DFCFFF70FFF082024
:1038400046E0F0060FD5274A00210E20FCF7BCFC0D
:10385000244A00211120FCF7B7FC08212079FCF74D
:103860002FFC102034E0B00634D5FF22F5322021A1
:103870002079FCF755FC0420FCF7E2FC002815D069
:10388000FCF70EFDFCF712FD01211320FCF790FC64
:1038900000211320FCF77AFC1048C5721248017809
:1038A000642901D2491C00E0642101700C20FCF75E
:1038B000C7FC00280BD10948C82287710B48012199
:1038C0000078FCF7F7FB20212079FCF7F9FB20209A
:1038D0007040F8BD0020F8BD8870FF1F6C70FF1F9E
:1038E000D96DFF1F1127FF1F346DFF1FA770FF1F2A
:1038F00070B5174C184D20711648807901280AD1EF
:10390000FF22F53201212878FCF7D4FB134A00216D
:103910000E20FCF759FC0C20FCF792FC00280ED07E
:103920000F49BB200870C82204212878FCF7C2FB8D
:103930007D22D20020212079FCF7BCFB04E000228C
:1039400006490C20FCF740FCFCF7B6FC70BD0000FB
:103950008870FF1F6C70FF1FA770FF1F1127FF1FCC
:10396000356DFF1F10B5012808D00020FCF7AAFC18
:103970000120FCF7A7FC00F033F810BD00F030F890
:103980000022012311461046FCF7A2FC152100205D
:10399000FCF7A4FC0123002211461846FCF798FC12
:1039A00016210120FCF79AFC002201231146022077
:1039B000FCF78EFC13210220FCF790FC2122102141
:1039C0000020FCF791FC202210210120FCF78CFC48
:1039D000FF2211460220FCF787FCFCF78BFC10BD90
:1039E00010B501211520FCF7E3FB00211520FCF7A1
:1039F000CDFB01211620FCF7DBFB00211620FCF794
:103A0000C5FB10BDF8B5104D0E466979002914D1DB
:103A10003446002813D1002C11D000270A20FCF7CF
:103A20006FFC0E20FCF70CFC002804D0641E24065A
:103A3000240EF3D104E0B44202D00120A871F8BDF5
:103A4000AF71FFF7C1FDF8BD6C70FF1F10B501210C
:103A50000846FCF7ADFB01210846FCF797FB012166
:103A60001320FCF7A5FB01211320FCF78FFB10BDF1
:103A7000F8B5404E0C4608040CD5F078FCF702FB74
:103A8000050004D0FCF7F4FB2846FCF701FB0120FD
:103A9000C0036BE0E0070027374D002831D0A8793C
:103AA000012802D0002828D029E0287A00280BD04D
:103AB00000F0DAFA7D22D2000121F078FCF7FAFA60
:103AC0002879012813D01AE0A87A0028F2D1B0781A
:103AD000002805D001210846FCF758FBB770E9E73C
:103AE00000210120FCF752FB0120B070E2E72868BA
:103AF000401E286003D1AF7101E0FFF765FD012092
:103B000034E0A00703D500F041F802202EE0600762
:103B10002ED5FCF7FBFB7770FF20307001211320BE
:103B2000FCF746FB01211320FCF730FB00220123A8
:103B300011460220FCF7CCFB13210220FCF7CEFB40
:103B4000FF2211460220FCF7CFFBFCF7D3FB287ABB
:103B5000012806D101210020FCF718FB0020FFF707
:103B600001FF01210846FCF711FB04206040F8BD6D
:103B70000020F8BDA470FF1F6C70FF1F10B5024934
:103B8000C870FFF763FF10BDA470FF1F0D4810B58C
:103B9000427801460978002A05D0491CC9B2017053
:103BA000FF2907D008E0491E0906090E017003D15C
:103BB000012100E0002141700178FF220220FCF782
:103BC00093FB10BDA470FF1F38B50C46050014D040
:103BD000002C12D00321684604F0A6FD69468878BF
:103BE00040218006800E0843694688702246284698
:103BF00005F00EFB050002D006E0022038BD0322CE
:103C00006946E01CFCF714FA284638BDF7B58EB0BB
:103C10000E9815460E4600282DD0002D2BD0301DB5
:103C2000C0B20190FCF75EFA040039D001F00EF941
:103C300007463246201D0E99FCF730FAF8B208907C
:103C4000E0703804000E0B90A0703802000E0A904D
:103C500060703F0E277001F0F3F80146102202A8B1
:103C6000FCF71CFA06AB214602A8019A05F026FAD9
:103C7000060003D010E0022011B0F0BD08982870B3
:103C80000B9868700A98A870EF70082206A9281D82
:103C9000FCF704FA01F0E0F82046FCF729FA00E00E
:103CA00013263046E8E7000010B5064C2070FCF7FC
:103CB00033FB06212078FFF729FC034804F034F990
:103CC00010BD0000A871FF1F7D870211F8B50E46D8
:103CD0001F4C0146B50060590027002807D0242258
:103CE000125C022A05D0032A03D0042A01D0122034
:103CF000F8BDC288B24201D00220F8BD10220C30BB
:103D0000FCF796F960591021353004F00DFD61592A
:103D100030460B460A46253335320C3105F09AFA07
:103D2000605902210278002A427807D0032A0BD179
:103D30004170304604F0C2FC074605E0042A02D078
:103D4000032A03D000E041703846F8BD0521EFE7B3
:103D5000B471FF1F70B50C46080419D50D480078E2
:103D6000FCF790F905000FD004F028FE002808D1D8
:103D700009480078FF2804D02946FCF7DDF900281F
:103D800002D02846FCF784F90120C003604070BDD2
:103D9000002070BDA871FF1F7071FF1F7CB50C461D
:103DA00005001DD0002C1BD00322E11C6846FCF747
:103DB0003FF96946887840218006800E08436946AD
:103DC000887001AA284605F023FA002807D10322AB
:103DD000214601A8FCF738F9012803D001207CBD59
:103DE00002207CBD00207CBD10B50548007840074E
:103DF00001D5044800E0002004F094FE002010BD2E
:103E0000E370FF1F9C71FF1FFFB581B00020274C9E
:103E10009500009060591E461746002802D01120D8
:103E200005B0F0BD002E0BD02120FDF737FF317E0D
:103E3000884205D82220FDF731FF317E884201D229
:103E40000220EDE77820FCF74DF9605100282AD0D8
:103E500078220021FCF704F961590020487062596A
:103E6000019911706259029991706259FF21D170C4
:103E70006159CF8061598E60615908626159203162
:103E800008710198002803D0384604F02DFC0090FA
:103E90006159012048700098002802D0384604F08B
:103EA000DFFB0098BCE71320BAE70000B471FF1FE6
:103EB000FFB58DB00F98169C0E46002815D0002C2B
:103EC00013D00D9803F0BAFF050011D06178207867
:103ED00009024018A178E2780904120689184718E7
:103EE000286AB84206D3401C04D0022011B0F0BDAD
:103EF0001420FBE7002E04D02879800701D401208C
:103F0000F4E70822002106A8FCF7AAF81098001D83
:103F1000C0B20190FCF7E6F8060017D0301D109AE9
:103F20000F99FCF7BBF8042221463046FCF7B6F89F
:103F30001022A91802A8FCF7B1F806AB314602A876
:103F4000019A05F0BBF8050002D013E01320CDE77D
:103F5000082206A908A8FCF7A1F80822211D08A834
:103F6000FCF772F8012801D0012503E039460D98CD
:103F700001F064FD3046FCF7BBF82846B6E70000C8
:103F8000FFB583B00F4603981B4940001646085AF8
:103F9000FFF70EFB04002AD00125601C2670002FBD
:103FA00003D00699B847401C85B2300610D51021C1
:103FB000039803F0E7FF002801D0192613E06219E7
:103FC000E9B22046FFF722FE06000CD10C35ADB257
:103FD0000421684601800194058169460398FFF732
:103FE000CDFA060004D02046FCF706F900E01326BF
:103FF000304607B0F0BD0000DC70FF1F70B504460E
:104000000079BEB0C0072AD060881649FEF754FA7E
:10401000144EC00701250C3E00280CD030461C3041
:10402000418D6846018045803178017160880022A9
:104030006946FEF703FC0B4960880831FEF73CFA3D
:10404000C0070CD0074800225030418D68460180DF
:1040500045807178017160886946FEF7EFFB3EB0DC
:1040600070BD0000406DFF1F10B5024803F046FF11
:1040700010BD0000FD3F021170B51046049A0025E6
:10408000002A01D00B2070BD4A68124E1478527875
:104090001202A21892B2104CB24208D122785F21CB
:1040A0005F2A00D921700121198021780DE00B4E83
:1040B000B24205D102221A80C968FBF7B9FF07E0B6
:1040C0000449491C8A4202D16178017000E00A2546
:1040D000284670BD192A0000346DFF1F0829000012
:1040E000FEB54C68154626786478089A240234197F
:1040F0001A4EA4B2F4420ED1194C4E89678F012496
:10410000BE421CD10092DBB201942A46FEF77AF837
:10411000040003D000E00A242046FEBD6978287818
:10412000090240180E4980B21C3989680029F3D071
:10413000002802D001208847EEE70220FBE7084F65
:1041400040377F8FBE4207D10092DBB201942A46EE
:10415000FEF758F80446DFE70124DDE7FED6FFFF4F
:10416000506DFF1F01680A0508D11031044A016033
:1041700052781203914201D3891A016070470000FE
:10418000386AFF1FF8B5496894460A784978069C52
:10419000090251188EB20521091B304A8E460C21A6
:1041A00000250798B71A091B964231D007DC2C4A24
:1041B000B2180DD0012A15D0022A04D11CE0022F1A
:1041C00031D0292F39D0002018800A252846F8BD83
:1041D000052C34D27146864500D8084682B21A8032
:1041E000204836E00C2C2AD2814200D8084682B200
:1041F0001C481A800C302CE0112C20D21121091BF4
:10420000814200D8084682B216481A80193020E050
:10421000052C14D27146864500D8084682B2114852
:104220001A80801D15E00C2C09D2814200D8084666
:1042300082B20C481A802B300BE0072C01D30725E3
:10424000C4E70721091B814200D8084682B206480C
:104250001A8001196046FBF7EBFEB7E7272A00003A
:10426000DCD5FFFF649C0211586CFF1F10B50C4693
:1042700003F0F8FD002804D040882146FBF762FFD8
:1042800010BD122010BD0000F0B5504E504C9BB038
:104290007168216071782171FF21A17110210025C1
:1042A00061712F460922FF21E01DFBF7D9FE4E2246
:1042B000002106A8FBF7D4FE32E02068290340184D
:1042C000102202A900F040F902982168884218D112
:1042D0006846007B2179884213D16846407B61792A
:1042E00088420ED168467178807B491E884225DA63
:1042F000A84201D1022700E0032706A94855A07172
:104300000CE00298401C19D16846007BFF2815D1AB
:104310006846407BFF2811D106A948556D1CEDB2B7
:104320002179A942C9D8042F08D0A0790125FF28F6
:1043300007D0012F05D0002006AA24E020201BB0C2
:10434000F0BD00270DE0A77121683803081810227E
:104350001F4900F00FF9002801D01F20EFE77F1C54
:10436000FFB22079401EB842EDDC00202074207995
:10437000401E607410206082357025E0135C002BB5
:1043800003D0401CC0B28142F8D881421CD9401EE3
:104390000818FBF7C7FF61740020357002466946B4
:1043A000009000F017F8002802D0212802D004E085
:1043B000009901E0012109036182C0B2212803D0E4
:1043C000002801D02A20BAE70020B8E7386AFF1F8A
:1043D0001888FF1FF7B501248AB000200E46274633
:1043E00005909CE056480179407CC019FBF744FEDB
:1043F000C8B2FF2C03D3FF3CA4B2FF2C33D20A9ADD
:10440000002A01D14E4A117400030290059801253B
:10441000002803D000200590601C06E0012C05D97F
:104420002819811EFF2917DA401E85B2029829013A
:10443000081807904248042201680798081804A940
:1044400000F082F80A9800280ED0012829D002280E
:104450003CD006200DB0F0BDFF200230401B201ADA
:1044600084B20120059058E004988103890F04D09C
:10447000022902D003294CD10EE00103890F012942
:1044800001D0012445E0000D0C21FBF7F5FD0029CA
:1044900000D0012144183CE007980005000D306071
:1044A00047E0049881038A0F04D0022A05D0032A2A
:1044B0002FD142E0890F0229DFD1328881B292B236
:1044C0009142DAD10C990798086032E00498810390
:1044D000890F04D00229D0D003291AD129E0010381
:1044E000890F012903D0306801240C300BE0000D46
:1044F0000C21FBF7C1FD002900D0012144180C203C
:1045000031686043081830600C980C990068401CB2
:1045100008606D1CADB2FF2D80D97F1CFFB2094829
:104520004078874200D25DE70A98002803D001282E
:1045300003D000208EE721208CE725208AE70000A9
:104540001888FF1F386AFF1F10B5094C636898422E
:104550000BD364782403E318834206D9002904D0DE
:10456000002A02D0FBF718FE10BD222010BD00006B
:10457000386AFF1F70B515460E460446FBF7D8FE95
:10458000800601D0292070BD09494868844206D3BD
:10459000497809030818A04201D9A00701D02220B8
:1045A00070BD2A4631462046FBF7C8FE70BD0000AC
:1045B000386AFF1F0022002913D0002811D00128DB
:1045C00006D04A799206920E4A71032805D007E078
:1045D0004879C0221043487102E0402002434A71EA
:1045E000012210467047000070B51248002500787F
:1045F000052108421BD02020FBF774FD0E4C00283B
:10460000A06013D020220021FBF72AFD2020FBF719
:1046100069FDE060002804D020220021FBF720FD86
:1046200005E0A068FBF764FD0020A0601325284684
:1046300070BD0000E370FF1F5471FF1FF3B5888841
:104640000D4681005448544C40580027203C85B00A
:1046500000281CD1059800287CD0002D7AD000F0CD
:10466000D9F9607400281AD000260E204B497043F7
:1046700040180622FF21FBF7F9FC002804D1761C24
:104680003606360EF1D001266674012E03D0607C0A
:10469000002804D05EE06774607B401C6073A888CB
:1046A0003D4E80003058002857D08268002A07D03D
:1046B00021201C2103F099FCA888800030588760D5
:1046C000A888800030580269002A0BD0607C06213F
:1046D00048432230C0B21C2103F087FCA888800028
:1046E00030580761A888800030584269002A0BD0F2
:1046F000607C062148432330C0B2102103F075FCD2
:10470000A888800030584761A88880003058C26867
:10471000002A18D0607C062148432430C0B2102102
:1047200003F063FCA888062180003058C268607CD2
:10473000103248432530C0B2042103F056FCA8884B
:1047400080003058C760A07B002801D000F09EFA9E
:1047500000F0E0FA012007B0F0BD20200E21059AFC
:1047600003F043FC1022FF216846FBF779FC607CD4
:104770006A467030C0B2102103F037FC607C0E2115
:10478000484306490E2240180599FBF751FCA888BA
:10479000800035500020DEE78C6AFF1F6488FF1F11
:1047A000F0B589B017460E4604462022002168461F
:1047B000FBF756FC68460480394C0225E17801710C
:1047C00022794271217B017706984108E07A4900FD
:1047D000C307DB0F1943069181070029069901DA07
:1047E000294300E0A943069101072E4B069901D504
:1047F000194300E099430691C1062B4B069901D558
:10480000194300E0994306918106284B069901D58A
:10481000194300E0994306914007042100280698B7
:1048200001DA084300E088430690002A05D001A879
:1048300010221F490230FBF7FBFB6179002904D0ED
:10484000002E02D00698284306906846807D0029F5
:1048500000D00121084369468875A178002900D05D
:104860000421084369468875A179002900D00821F0
:10487000084369468875E179002900D01021084372
:1048800069468875217A002900D0202108436946AD
:10489000887539466846FDF711F909B0F0BD00008A
:1048A0006C6AFF1F0001000000020000000400000D
:1048B0005488FF1F70B50025094E2C460E2060431A
:1048C00080190622FF21FBF7D1FB002801D16D1CC6
:1048D000EDB2641C2406240EF0D0284670BD000002
:1048E0006488FF1F7FB50C460621484306461546DF
:1048F0002036F0B26A460E2103F06CFB002806D188
:104900000622FF216846FBF7B1FB002802D00020F9
:1049100004B070BD68468189002DC8B202D0204322
:10492000C0B200E0A043814206D069468881F0B25F
:104930006A460E2103F059FB0120E9E710B500207B
:10494000044604E0204600F006F8641CE4B2214668
:104950000143F7D010BD70B5054604460620444318
:10496000264690B02036F0B207AA0E2103F032FBA3
:10497000002806D10622FF2107A8FBF777FB0028B5
:1049800002D0002010B070BD0E22FF2107A8FBF757
:1049900067FB1C22FF216846FBF762FB1022FF2108
:1049A0000BA8FBF75DFBF0B207AA0E2103F01DFB7D
:1049B000064620462130C0B26A461C2103F015FB92
:1049C000064320462230C0B26A461C2103F00DFB8C
:1049D000064320462330C0B26A46102103F005FB8F
:1049E000064320462430C0B26A46102103F0FDFA87
:1049F00006432534E0B26A46042103F0F6FA014684
:104A000031430C467035E8B20BAA102103F0EDFAE1
:104A10002043B7E770B50A4D064600240E206043D8
:104A2000401906223146FBF70FFB002801D0204633
:104A300070BD641C2406240EF0D0012070BD00005F
:104A40006488FF1F00229300CB5A834202D190005A
:104A500040187047521CD2B2042AF4D30020704789
:104A60007FB50C46002809D1002C07D020206A46CB
:104A70000E2103F0AFFA050003D007E0022004B0D6
:104A800070BD062269462046FBF7D2FA2846F6E7B3
:104A900000218A00835A491CDB4383521218937801
:104AA000C9B2DB4393700429F3D3704770B5144E39
:104AB00000240E20604382192046062148432030FE
:104AC0001546C0B20E2103F085FA00280BD0284607
:104AD0000622FF21FBF7C4FAA81D0622FF21FBF7DF
:104AE000BFFA0020A881641C2406240EE1D00548EA
:104AF000807B002801D000F0C9F800F00BF970BDF0
:104B00006488FF1F6C6AFF1F10B50349408809784D
:104B1000FDF72AFD10BD00006C6AFF1F10B50F499C
:104B20004A79002A01D0012300E000238A78002A74
:104B300000D004221A438B79002B00D008231343A2
:104B4000CA79002A00D01022097A1A43002900D01D
:104B500020211143FDF720FA10BD00006C6AFF1FF1
:104B600070B50E4604460621484388B015462030ED
:104B7000C0B204AA0E2103F02DFA002843D1062268
:104B8000FF2104A8FBF772FA00283CD17034E0B290
:104B90006A46102103F01EFA002831D16846FFF75B
:104BA00077FF002E06D069463046FFF74BFF0028FE
:104BB0000DD015E0102200216846FBF757FA0028B7
:104BC0001ED1102200216846FBF74AFA10E0002DA2
:104BD00019D069460020FFF735FF002813D0068062
:104BE0008178A9420CD08570002D01D1002101806F
:104BF0006846FFF74DFFE0B26A46102103F0F5F971
:104C0000012008B070BD0020FBE7000070B51C4C0F
:104C10000646606A1B4D86B0002809D12046143034
:104C200000900223184A29460120FDF72FFD20E0BD
:104C300004A80222002100900292019103ABA28AF3
:104C40003046616AFDF726FB00280CD16846017BDF
:104C5000407B000208180204120C04D0606A4189EB
:104C60003046FCF78DFC0023A28A2946606AFDF7D6
:104C70003FFD60620028DBD1012006B070BD00005E
:104C80006C6AFF1FFFFF0000B89D021170B5FBF7B3
:104C90005BFB0A4E00240E20604380190546062265
:104CA000FF21FBF7E3F9002802D12946FBF752FB6D
:104CB000641C2406240EEED070BD00006488FF1F23
:104CC00070B50B46044611461846FFF7B7FC00289E
:104CD0001DD00F4DA40028598088FFF797FF0028AA
:104CE00015D02E46203EF069002807D04368002BDF
:104CF00004D028590022808801219847285900288B
:104D000003D0FBF7C5F9002028510120707470BD55
:104D10008C6AFF1F08B5FFF7CDFD012801D90220DD
:104D200000E00A20694608706A4601210520FDF767
:104D30008DFE08BD002909D0012807D149798909CC
:104D40008901C02902D0402901D0022070470320E8
:104D50007047FFB500200E4608701AE01C5C401C2E
:104D6000C5B2002C17D02819904214D85F5D6D1C75
:104D7000EDB2384600F08BFE002806D0641EE0B28B
:104D8000307000998F4202D1581904B0F0BD40191B
:104D9000C0B29042E2D30020F7E7000010B5044C07
:104DA0002068002803D0FBF7A3F90020206010BD85
:104DB0004071FF1F70B50E4D84002859002815D092
:104DC000006A002801D0FBF793F92859406A0028AF
:104DD00001D0FBF78DF92859806A002801D0FBF734
:104DE00087F92859FBF784F90020285170BD00008D
:104DF0004C71FF1F10B5044C6068002803D0FBF70E
:104E000077F90020606010BD4471FF1F0100044865
:104E100005D104498978002901D00248801D7047D6
:104E20000C8EFF1FE270FF1F014880787047000062
:104E3000E270FF1F0148406870470000FC8DFF1FB3
:104E40000148806870470000FC8DFF1F0148C06862
:104E500000687047FC8DFF1F10B50748C0680168E7
:104E6000491C016005480078FF2803D0012189030F
:104E7000FBF72CF910BD0000FC8DFF1FE270FF1F37
:104E800002484068002800D0012070473C71FF1F95
:104E9000FFB581B00F460D9E0A9D039802F0CEFF2C
:104EA000040042D0019800283FD120791021084306
:104EB00020710499490702D50221084301E0FD2130
:104EC000084020710B99284608430C990843304349
:104ED000207902D00421084301E0FB210840207121
:104EE000002E06D03069102220623146A018FBF750
:104EF0009FF8002D01D0002F05D00B98002814D06A
:104F0000012F08D011E0606A002801D0FBF7F0F80B
:104F10001C21284606E0606A002801D0FBF7E8F86B
:104F20001C210B98FBF7EAF860620398224C87007B
:104F3000E05900283ED0002D0FD0006A002806D18D
:104F40001C20FBF7CFF8E1590028086205D0E05992
:104F50001C22006A2946FBF76BF80C98002810D039
:104F6000E059406A002806D11620FBF7BBF8E1594A
:104F70000028486205D0E0591622406A0C99FBF7D8
:104F800057F8002E10D0E059806A002806D114206E
:104F9000FBF7A8F8E1590028886205D0E0591422EF
:104FA000806A3146FBF744F80B9B049A03990198F9
:104FB00003F022FA05B0F0BD4C71FF1FF3B581B0CC
:104FC000019802F03BFF050029D00E20FBF7D2F834
:104FD000040024D02620FCF761FE060000D12E78C4
:104FE000D0202070002767700B20A0700622E91DDA
:104FF000E01CFBF71DF8019860810298C1070120B1
:10500000002901D0207300E027730299890701D598
:10501000607300E06773F0B22146FBF78DF8FEBDC8
:1050200010B581881F4B0124CA1A994237D011DC70
:105030001D4BCA1A994219D007DC1C4A8A1810D095
:10504000022A1ED0032A29D11BE0472A27D0482A4A
:1050500024D124E01300FAF7FDFF062122222222A8
:1050600022218068007800F0D3FC08E08068827814
:1050700041781202891889B2007800F029FD0446AF
:105080000DE0094A921E914201D1012200E0002266
:1050900080680178104600F003FD00E000242046FF
:1050A00010BD0000532000000A200000FADFFFFFBF
:1050B00070B51A4D1A4A0146002628781268194C14
:1050C00001290CD0002A09D017490978490705D5CC
:1050D0000221FAF7F5FF6680FFF760FE70BD618878
:1050E000002903D0114B1B78002B05D0002AF5D0E6
:1050F0001078FCF7A9FD70BD3C2902D33C396180D2
:1051000070BD0221FAF7DCFF62887D20C0004243B7
:1051100002212878FAF7CEFF668070BD7171FF1FFB
:105120004071FF1F5471FF1FE370FF1FE570FF1FE9
:1051300008B5418900910389C2888188C07800F050
:10514000B3FB08BDF0B504468088A121890048431F
:10515000304987B009684018FF30FF300230A1792C
:105160004167002C54D02C4D6868002823D0067865
:105170002A480068002804D04168002901D0002096
:1051800088472146E07908310591FFF7D3FDE071AA
:105190000246277D638A218AE089019002A88AC09D
:1051A000A0880090E0783146059B03F09BF9E078F9
:1051B000002802D00DE01A48D9E7E079E2896B4671
:1051C000059907C3A379A1880122304602F0E4FDC6
:1051D000E0706868002811D0FFF70CFE28780028DE
:1051E0000CD06978FFF742F8002807D0E078A28851
:1051F0000346297803F0CAF900202870A0881721F7
:10520000FBF7D6FDA088FEF76FF9A088FEF794F9AA
:1052100007B0F0BD3409FF1F4471FF1F7471FF1FF9
:10522000E270FF1F70B504460026808802F006FE7B
:10523000002803D00678A08802F088FE144D287854
:10524000002808D0864206D16978FFF70FF80028B9
:1052500009D000202870002E05D0A379A288A0785C
:10526000314603F093F9A088094A81000832515869
:10527000002901D0FFF79EFDA0881721FBF798FDBC
:10528000A088FEF731F9A088FEF756F970BD00003E
:105290004471FF1F70B58288294D0124531B294991
:1052A000AA4242D019DC284D531BAA4218D00BDC6D
:1052B000264BD21826D0254B1033D2181ED0032AE5
:1052C00017D0042A39D10BE0012B09D0022B07D0CB
:1052D000032B21D0042B30D11AE0433B072B2CD8D1
:1052E000496800292AD00968002927D08847044640
:1052F00024E08068007800F0ADF81FE0806800F0DE
:1053000001F9F4E78068411C007800F0D9F8EEE775
:1053100083681B78002B11D0896800290ED00B6898
:1053200008E0014610469847E1E709490968002965
:1053300004D04B68002BF4D100E00024204670BD5F
:105340000E2000007071FF1F08200000F7EFFFFF24
:105350005071FF1F10B5094CA17800290CD00146EF
:105360000622A01DFAF764FEA11DA078FFF722F91E
:10537000A01DFAF7F5FF10BD002010BDE270FF1F61
:105380001CB52F49037801240A68912B02D0A22B67
:105390002ED13EE04178052909D00E2904D00F29ED
:1053A00008D03E2924D115E0FFF774FF10E0FFF785
:1053B00039FF3AE001468088224B0124C31801D00E
:1053C000062B15D1002A30D05268002A2DD09047E4
:1053D00004462AE081780124032917D004DC01293E
:1053E00011D0022904D105E015291ED016291CD0A0
:1053F00000241AE014498968002916D04968002958
:1054000013D0884711E0FFF79DFE0EE0FFF790FEF6
:105410000BE00E490978042909D0002A05D052680A
:10542000002A02D001460A48904720461CBD0021B0
:105430006A46118001794088FDF7D6FFF5E7000044
:105440005071FF1FF3DFFFFF7071FF1FE370FF1F3D
:10545000FFFF0000F8B5164F0646BD1F2878FF284D
:1054600014D00A20FAF786FE04000FD0D020207056
:1054700066700820A070A878E07006223946201DCA
:10548000FAF7D6FD21462878FAF756FEE878012883
:105490000DD108480068002803D08068002800D09B
:1054A00080470648044A04210078FAF739FEF8BD1F
:1054B000E870FF1F7471FF1F60EA00007171FF1F29
:1054C00070B500240546002805D1002903D0062226
:1054D0000B48FAF7ADFD0A4810380178012907D1C9
:1054E0000124002D06D000210170284600F0B8F9F3
:1054F000204670BD02210170FAF738FFF8E700007E
:105500000C8EFF1F10B50024002813D002780B4921
:10551000002A03D14288CA8202790A760A78022ACE
:1055200008D102780124002A06D000220A700078EF
:1055300000F096F9204610BD0322F7E7FC8DFF1F0F
:1055400001494860704700007071FF1FF8B57A4C40
:1055500087780146002507266079A2793B00FAF793
:1055600079FD0805361A37375F9ACD364878002816
:105570005CD1714806223C30C91CFAF759FD012064
:10558000A0716D4B0146423362786079FCF7B2FD41
:1055900000284BD1A8E00F464978002946D1F97878
:1055A000002906D0654BA2780021FCF7A3FD787096
:1055B0000AE0022A0BD00121FAF78EFD002803D160
:1055C00001216079FAF782FD787800282ED1F8BDA4
:1055D000497800292AD1032F09D0A289002A0CD0AA
:1055E000217800290AD00121FAF764FD06E0052A96
:1055F00001D0022012E0062010E02570A0790628D4
:1056000002D0042802D008E0052007E00120207025
:1056100001466079FAF75AFD66E00320A07163E065
:1056200048780F46002803D0312832D0A6715BE0BD
:1056300041480622391D3630FAF7FAFC7889E081B4
:10564000B8892082F88960820520A071A28A002A88
:1056500003D002216079FAF72DFDB889E083F8893B
:105660002084388A6084E07801280AD11F20FCF762
:1056700015FB7D21C9004843024604216079FAF7F1
:1056800019FD7A89F8780423391DFBF76FFC257022
:105690002AE02570C1E728480E4606220021363050
:1056A000FAF7DEFCE5832584658404216079FAF746
:1056B00007FD08216079FAF703FDB079082808D0C2
:1056C0000320A0712078002805D06079FCF7BCFA8F
:1056D00007E00420F5E70120207001466079FAF721
:1056E000F5FC0020C043E081606A002800D16EE72D
:1056F00001680029FBD0A0798847F8BD0D46082134
:10570000FAF7DEFC687829460028F6D1E888E083BD
:10571000288920844889608404216079FAF7DCFCB8
:105720000028EAD1A06A0028E7D00368628C218CA7
:10573000E08B9847F8BD0000186BFF1F8888FF1F9B
:1057400010B501781C4C912906D0A2291BD0D02974
:1057500001D1FFF7FBFE10BD41780E29FBD18188F6
:10576000164A9142F7D1816803200856A17905298C
:10577000F1D17F28EFD0616A0029ECD04968002977
:10578000E9D0884710BD41791329FBD10089012850
:1057900002D12079022808D00520FCF77FFA0246C2
:1057A00008216079FAF786FC10BD08216079FAF7C4
:1057B00087FCFCF773F910BD186BFF1F0514000080
:1057C0007CB5154C0546E08BE18A88420AD3218BD3
:1057D000884207D8208C618B884203D1608CA18BD2
:1057E000884217D00520FCF759FA0646E18A684638
:1057F0000180218B4180618B8180A18BC180627986
:105800006946E089FDF7FCFD257132460821607983
:10581000FAF750FC7CBD0000186BFF1FF8B5074677
:105820000E46084602F00AFB040018D02620FCF7BA
:1058300035FA050000D125780620FAF79BFC040014
:105840000DD006220021FAF70BFCD02020706770E3
:105850000E20A070A680E8B22146FAF76DFCF8BDD4
:1058600070B50F4D06462878FF2818D00E20FAF79D
:1058700081FC040013D0D020207066700020A0703E
:1058800006220849E01CFAF7D3FB06481038C18A03
:105890006181007E207321462878FAF74DFC70BDA7
:1058A000E270FF1F0C8EFF1FFFB581B01E4617462A
:1058B0000D460C20FAF75EFC040013D0284602F0D7
:1058C000BDFA002810D00078D021217001996170B4
:1058D0000721A170A580E78026810A996181214670
:1058E000FAF72AFC05B0F0BD0048ECE7E270FF1FB4
:1058F00070B50D4D044628680E46002812D00620CB
:10590000FAF738FC010009D0D02008704C70032051
:1059100088708E8028680078FAF70EFC002C01D081
:10592000FFF73CFA70BD00004071FF1FFFB581B06A
:105930001F460E46084602F081FA050022D01020CC
:10594000FAF718FC04001DD010220021FAF788FB9A
:105950002620FCF7A3F9002800D12878D021217057
:10596000019961700F21A170A6800399217267725D
:105970000A99A1720B99E1720C99E160C0B22146BB
:10598000FAF7DAFB05B0F0BDF0B51F4D85B0286819
:10599000002837D08778FCF7FDF9002805D00A20C9
:1059A000FCF77CF904900B200EE001F0CFFD0028FD
:1059B00005D00620FCF772F90490072004E00820C7
:1059C000FCF76CF904900920FCF768F904460F48CD
:1059D0000078002814D001262968C878091DFEF730
:1059E000E9FD29686D46CA7A8B7A091D0BC50392B9
:1059F00033463A4621460498FAF7BEFC05B0F0BD9E
:105A00000026E9E70120F9E74071FF1FE470FF1F5E
:105A100010B50949096800290CD0002805D10120DA
:105A20004870FAF771FB002802D00021FFF760FFF1
:105A3000012010BD002010BD4071FF1FF8B50C46BD
:105A400002F0FCF9020021D026201462FCF726F9AE
:105A500005062D0E00D115789679D01D00901020E6
:105A6000176AFAF787FB040010D0D02020700020BE
:105A700060700920A070E6700622201D0099FAF7D8
:105A8000D7FA21462846E760FAF756FBF8BD411ED3
:105A9000152903D9FF2801D0002070470120704745
:105AA00070B50A4E054630780C46FF280DD004200C
:105AB000FAF760FB010008D0D02008704C7002207B
:105AC0008870CD703078FAF737FB70BD5471FF1FC6
:105AD000F3B5284D81B0286800284AD04078264E7A
