:020000041102E7
:1000000003B40148019001BDADAE000003B4014846
:10001000019001BD456B010003B40148019001BD91
:100020000189000003B40148019001BDC53F0000F3
:1000300003B40148019001BDE94C010003B401483B
:10004000019001BDC95C010003B40148019001BDEC
:10005000CD4C010003B40148019001BD618900004D
:1000600003B40148019001BD154D010003B40148DE
:10007000019001BD1D4B010003B40148019001BD79
:10008000090E000003B40148019001BDF54E0100C6
:1000900003B40148019001BD434D010003B4014880
:1000A000019001BD4551010003B40148019001BD1B
:1000B0002526000003B40148019001BD8B520100C8
:1000C00003B40148019001BDB352010003B40148DB
:1000D000019001BD0D52010003B40148019001BD22
:1000E000C94A010003B40148019001BD3D4B010024
:1000F00003B40148019001BD014C010003B4014863
:10010000019001BDF94C010003B40148019001BD0B
:10011000691F000003B40148019001BD5D17000094
:1001200003B40148019001BD5952010003B40148D4
:10013000019001BD5125000003B40148019001BDAB
:10014000594F010003B40148019001BD8D12000018
:1001500003B40148019001BD4D1F000003B40148E4
:10016000019001BD5522000003B40148019001BD7A
:10017000DD52010003B40148019001BD1D4D010095
:1001800003B40148019001BD810E000003B4014891
:10019000019001BD9D28FF1F03B40148019001BDDE
:1001A000E54BFF1F03B40148019001BDB145FF1F9E
:1001B00003B40148019001BD3554000003B4014867
:1001C000019001BD2D49FF1F03B40148019001BDFD
:1001D0008D49FF1F03B40148019001BD414DFF1F30
:1001E00003B40148019001BD017F000003B4014840
:1001F000019001BDE117000003B40148019001BD69
:100200007918000003B40148019001BDD9490100EB
:1002100003B40148019001BDE928000003B401487E
:10022000019001BD5549010003B40148019001BD91
:100230004D51FF1F03B40148019001BD2133FF1F41
:1002400003B40148019001BDD149FF1F03B4014827
:10025000019001BD8950FF1F03B40148019001BD09
:10026000E150FF1F03B40148019001BD3150FF1F51
:1002700003B40148019001BD892AFF1F03B401485E
:10028000019001BD8953FF1F03B40148019001BDD6
:10029000E13AFF1F03B40148019001BDF94EFF1F71
:1002A00003B40148019001BD614FFF1F03B4014831
:1002B000019001BD654EFF1F03B40148019001BDCF
:1002C000C94EFF1F03B40148019001BD314FFF1F0C
:1002D00003B40148019001BD0D33FF1F03B4014871
:1002E000019001BD814DFF1F03B40148019001BD84
:1002F000C926000003B40148019001BDF953FF1F56
:1003000003B40148019001BD9553FF1F03B4014898
:10031000019001BD350E000003B40148019001BDFC
:10032000A333FF1F03B40148019001BD6146FF1FC5
:1003300003B40148019001BD3519000003B4014820
:10034000019001BDBD18000003B40148019001BD3A
:10035000C521000003B40148019001BD291C000023
:1003600003B40148019001BD851F000003B401489A
:10037000019001BDA946010003B40148019001BDEF
:100380001147010003B40148019001BDF944FF1F6A
:1003900003B40148019001BD6553FF1F03B4014838
:1003A000019001BD1B28FF1F03B40148019001BD4E
:1003B000F527FF1F03B40148019001BDB13E0000C5
:1003C00003B40148019001BD4D33FF1F03B4014840
:1003D000019001BDC90E000003B40148019001BDA8
:1003E000055E000003B40148019001BDE54800002E
:1003F00003B40148019001BD2951010003B4014833
:10040000019001BDD91B000003B40148019001BD5A
:10041000B528FF1F03B40148019001BDDD28FF1F6F
:1004200003B40148019001BD51470100F8B5D3491B
:10043000D14A002004464A608300401CD450FF2863
:10044000FADD4868CE4A014680318A606E22C26277
:10045000CC4A1278002A01D07F22C2620A220265A9
:10046000C94A13788363C94BC36115781023022DE1
:1004700008D01578012D05D01578032D02D01578F8
:10048000042D00D10362C24D45611925AD0185617E
:100490003725CD6036272826C763082546640564BE
:1004A0004F6032270F603B27CF634127CF64392746
:1004B0004031E0C132274F6002274F6142270831A7
:1004C000E0C11E274F60CE608D6005264E6142263A
:1004D0000E615A2660390E614D613C258D61AF2554
:1004E000ED000560AB4D05631578022D09D0157838
:1004F000012D08D01578032D07D01578042D06D0CE
:1005000007E0152504E0436003E00E2500E00C251C
:100510004560FF252D358560C560FF25F5350561F2
:100520009D4D85647D25ED009C4ECD67C66445627A
:100530009B4D85627325C565062545658565C51D89
:100540000826F93502272E6047664B27FF0087668D
:100550000927C766934F07674667BE108467C6675B
:10056000914F8E4E3E601678022E09D01678012EDD
:100570000AD01678032E0BD01278042A0CD00EE085
:100580001A22CA61212205E01422CA61182201E060
:100590001322CB610A6202E00E220B62CA617E4A1C
:1005A0008A627D22D2008A6764224A620522CA6278
:1005B00002220A63C8228C634A63382169607B493E
:1005C00029647B49A9614B21C900E9617349FF3066
:1005D000643929627D2109016962EC661E212C675C
:1005E000A9667049A965E965891029666964696722
:1005F0007049A9677049714A8130E9670260826079
:100600004160FF21F531C16001616E486C495A4A71
:1006100081606D49803A11616A496C4A80318A6211
:100620006B4ACA626B4A82616B4AC2626B4A02635E
:100630006B4A64484038C2636A4ACA616A49816346
:1006400060496A48403188616A49694888605D4804
:10065000694A80384260694A4263694A0A62694964
:10066000816058496848C039C860FFF7C9FC01205B
:10067000FFF7CCFCF8BDF3B50746644881B0C1690B
:10068000634A1140FF310931C161002613E00025A2
:100690002C461120FFF7C0FC5C48406A8007800FA1
:1006A000610088402843641CE4B20546102CF0D356
:1006B00001C7761CF6B202988642E8D3FEBD10B59B
:1006C0002E4C607800280AD104215248FFF7D3FF4E
:1006D000504804211030FFF7CEFF0120607010BD9C
:1006E000F0B500248BB00D460646102902D9012032
:1006F0000BB0F0BDFFF7E3FF464900200A5C401C49
:100700001419C0B21028F9D3002C03D0102D03D92E
:100710000B20EDE70E20EBE73F483E4C002300683E
:1007200002A91034E25CC75C7A40CA545B1CDBB29D
:10073000102BF7D306AA3748FFF774FC102D00D909
:1007400010252A4606A93046FFF772FCFFF776FC13
:10075000216840182060FFF771FC616840186060F4
:10076000FFF76CFCA1684018A060FFF767FCE16828
:100770004018E0600020BBE70004FF1F6074FF1F0B
:100780000897FF1F786CFF1F4A0AFF1F3A070000F7
:1007900080C3C9019A02000050C30000280A00006B
:1007A0006A180000204E0000F009FF1F00400011F1
:1007B00068100000DC05000040420F001027000018
:1007C0009958FF1F0001FF1F212EFF1FFD5CFF1F17
:1007D000D55FFF1F8B2AFF1F1D2CFF1FA52AFF1FA0
:1007E000F53AFF1F4969FF1F6D67FF1F7528FF1F3F
:1007F000D931FF1F0002FF1F1155FF1FED56FF1FCC
:100800003156FF1FCD54FF1F0932FF1F40F000403B
:1008100000FEFEFF9091FF1F8474FF1F0A78027094
:100820008A7842704A88120A82700979C17004205D
:1008300070470A7802700988090A417002207047DF
:1008400010B500220EE093005B189C7804705C8861
:10085000521C240A44701C7984709B88D2B21B0AF3
:10086000C370001D0B789342EDD81806800D10BDA3
:10087000F8B50D4606464978012031700024761CF3
:1008800016E06978012917D01221614349198A7845
:1008900032704A88871C120A7270B61C10223046C9
:1008A000091DFFF7C5FB1037B8B21036641CE4B25F
:1008B0002978A142E5D8F8BDA10049198A7832709B
:1008C0004A88871C120A7270B61C02223046091D23
:1008D000FFF7AEFBBF1CB8B2B61CE7E710B50C467D
:1008E000097801702188090A41706288211D801CE5
:1008F000FFF79EFB6088801C80B210BD10B50C46CF
:10090000097801702188090A4170A1788170618895
:10091000090AC170A288A11D001DFFF789FBA088EC
:10092000001D80B210BD10B50C460A88891CFFF767
:100930007FFB208810BD10B50B788A780270534376
:10094000DCB22246401C091DFFF772FB601C10BD83
:1009500010B50B788A7802705343DCB22246401CF3
:10096000091DFFF765FB601C10BD10B50C460A8819
:10097000891CFFF75DFB208810BD10B50C460A8866
:10098000891CFFF755FB208810BD7FB5154604462E
:10099000022901D0102903D1022B04D0102B02D040
:1009A000002004B070BD994202D10A46294607E0F2
:1009B0001029694607D000F00DF810226946284634
:1009C000FFF742FBEDE7104600F004F810226946FD
:1009D0002046F5E770B50C4605000CD0002C0AD077
:1009E000102206492046FFF723FB287820736878F9
:1009F0006073012070BD002070BD00000CA60211C4
:100A000010B50B460122024903F036FC10BD000070
:100A10001D08021170B5064608880C46172812D327
:100A20000B4603220949304603F026FC050008D195
:100A3000074920880988884200D20146304600F0E4
:100A4000ABF9284670BD022070BD000033080211CA
:100A50009274FF1F10B500231922194603F00CFCF5
:100A600010BD000010B50A78002A05D00B460722F9
:100A7000024903F001FC10BD022010BD4108021123
:100A800010B54A78012A01D0022A08D10A78002A32
:100A900005D00B460522034903F0EEFB10BD0220F2
:100AA00010BD00007108021101494000085A70474A
:100AB0009074FF1F10B50B461D22024903F0DCFBAA
:100AC00010BD0000DD08021110B50B461B220249C3
:100AD00003F0D2FB10BD0000DD0802110149172010
:100AE000088070479074FF1F0098022B01D00420EB
:100AF00070471178527812028918018000207047DF
:100B00000098012B01D0042070471178017000205B
:100B1000704770B5049C1E461546062B1BD369789A
:100B20002878090240182080E978A878090240183E
:100B3000608002222271291D601DFFF779FAB61F1D
:100B4000B2B22281F02A06D82046A91D0A30FFF74A
:100B50006FFA002070BD042070BD0098042B01D0F6
:100B600004207047537811781B02C91801809178CE
:100B7000D27812028918418000207047F8B5848924
:100B80000D460646002C26D0B2681778380620D5C8
:100B90000C2C20D90C3CA4B21019009001217088B3
:100BA000234603F0FBFA002811D0022028707806B3
:100BB000C00F6870B806800EA870641E2004000C78
:100BC000A88001D0B068401CA8600020F8BD0120BA
:100BD000ECE70020EAE70120F8BD10B502981146C5
:100BE000042B14D34C780A78240212190280CC7892
:100BF0008A782402121942801B1F9AB28280F22A3C
:100C000005D8801D091DFFF713FA002010BD042030
:100C100010BD0098042B01D0042070475378117840
:100C20001B02C91801809178D2781202891841807C
:100C30000020704710B502981146062B03D0142BE4
:100C400003D0042010BD022200E0102202714B7874
:100C50000A781B02D2180280CB788A781B02D2183D
:100C600042800279401D091DFFF7E2F9002010BD06
:100C700030B5039CD80718D1D805010E022914D32A
:100C80000B488088814210D8F6200155002008E0EA
:100C9000557813782D025B194500401C6353C0B290
:100CA000921C8842F4D3002030BD042030BD0000E7
:100CB0008A74FF1F0098022B01D00420704711781E
:100CC00052781202891801800020704770B51446CE
:100CD00002460498022B18D3667825783602AD199F
:100CE00005800546E0352A766976002A0BD0E82192
:100CF0009B1E9AB242808A4207D8A11C001DFFF7B2
:100D000097F9002070BDF421F2E7042070BD0000C7
:100D100010B50B461722024903F0AEFA10BD0000D1
:100D2000FD08021110B50B460D22024903F0A4FA8A
:100D300010BD00002709021110B50A78002A05D05D
:100D40000B461122024903F097FA10BD022010BD94
:100D50003709021110B50A78002A05D00B4609227E
:100D6000024903F089FA10BD022010BD5109021199
:100D700010B50B460F22024903F07EFA10BD0000A9
:100D80006B09021110B50B460B22024903F074FAED
:100D900010BD00007B090211044A1288914203D859
:100DA000024A4000921D1152704700008A74FF1FD2
:100DB00010B500231322194603F05EFA10BD00009F
:100DC00010B5094C0749204601F056FA054920465E
:100DD000083101F051FA0348044A0821103001F0AB
:100DE000CBFB10BDB46FFF1FFFFF000060A5021119
:100DF000034610B50020104A002B08D0012B08D064
:100E00001C32022B08D0032B09D0022010BD12780F
:100E100000E092780A7010BD52890A8010BD064B1E
:100E2000DB1C1C780C715B784B71538D0B80528FDF
:100E30004A8001228A7110BDA86FFF1F10B50446B9
:100E40000B48844212D0012907D002290ED101217A
:100E5000204607F085FA002808D10649204601F00F
:100E60000BFA04492046083101F006FA10BD0000D3
:100E7000FEFF0000B46FFF1F10B505495F200A7820
:100E80005F2A03D90870034807F026FA002010BD36
:100E9000A86FFF1FF54202110149886070470000EA
:100EA000A86FFF1F70B50C460146012080020A1A88
:100EB00000251C481300FFF7CDF80F32090B0D1069
:100EC00012181A1C2A1F212325272A00408A23E0F2
:100ED000807800E0C078207021E00079FBE71022E4
:100EE00011492046FFF7A4F819E04079F3E7C07AEA
:100EF000F1E78069206012E0407AECE7807AEAE767
:100F0000007BE8E7807BE6E703F0F4FDE3E72729D1
:100F100004D2084600F014FF208000E00225284695
:100F200070BD0000E06CFF1F088CFF1F10B5024968
:100F3000087003F0DBFE10BDE06CFF1FFFB593B03F
:100F400000240F461D461646109411944BA0139989
:100F500003F094FA0621384607F086FB10AA3946BA
:100F6000139800F0F5F9074601464CA003F086FA05
:100F7000062110A807F078FB03F0BCFD01464FA046
:100F800003F07CFA002F6BD120206A460E2107F077
:100F900037FC002802D168468089C4B2082D11D0E0
:100FA00000201290082D0FD021271C220021684616
:100FB000FFF756F86A461C21384607F021FC002846
:100FC00004D00FE00120ECE72227EEE76846807EA0
:100FD000C01F092806D8E107C90F6A463046129B90
:100FE00000F0FAFD1422002107A8FFF739F82420A9
:100FF00007AA102107F004FC002811D11022FF21BC
:1010000007A8FFF733F800280AD125200BAA0421EE
:1010100007F0F6FBE107C90F07AA304601F046F8D2
:1010200070200CAA102107F0EBFB002811D10CA8AE
:1010300003F04EFE0027B9000CA80818018800290B
:1010400003D08278304601F0F3FA7F1CFFB2042F00
:10105000F1D3A00704D51F480178304601F0D6FA35
:10106000042D07D11B48401C805D022802D1304668
:1010700003F074FE002017B0F0BD00004C696E6BE9
:101080004573742D2D61646472547970653D2564D7
:101090002C70446576416464723A0A004C696E6B48
:1010A0004573742D2D6964783D25642C7075626CD0
:1010B0006963416464723A0A00000000626F6E6402
:1010C00020746F74616F6C206E756D6265723D2562
:1010D000640A0000E06CFF1F70B50024054600297B
:1010E0000BD108491046FEF7C7FF0846294600F015
:1010F000C3FE040003D00121284600F0FDFF204676
:1011000070BD000040420F0070B50C46080428D5A1
:1011100015480078FEF7B6FF05001ED00178B0290B
:1011200008D0B1290ED0D02914D100F01FF8002822
:1011300010D112E001791E290CD16888002100F03D
:101140005FF907E00179002904D10289C188688824
:1011500000F042FA2846FEF79BFF0120C0036040E2
:1011600070BD002070BD0000E06CFF1F7FB582786D
:101170006E4C921F0025E1691300FEF76BFF0AAF6A
:10118000D4D4681B06D4D45F77D40546002908D090
:101190000E68002E05D06B7B2A7B6989E81CB0475E
:1011A000C1E06989A06900F067FE0028F8D068896D
:1011B00001218DE00546407800282DD1A879C0078F
:1011C0002AD0A8885949800020310858002823D106
:1011D0000E2200216846FEF743FF6969002903D00B
:1011E00006226846103107E0A88807F015F80028A5
:1011F0003BD0C11D06226846FEF71AFF6946888962
:10120000A9794907C90F0843694688812946684674
:1012100003F034FB002809D0E069002825D043689A
:10122000002B22D06A78A88801214EE0A8882A469F
:10123000694603F065FE002004B070BD002972D03D
:101240004B68002B6FD04278808802213DE0044635
:10125000C0780022211D00F07BF8002863D12246CF
:1012600025200C32042107F0D6FA5CE00546607AAE
:101270000028A88801D0A17A2AE02C49491C095CE1
:10128000002924D006F0C8FF0646A87AC0070DD072
:10129000002E48D0B079002808D0A989890505D446
:1012A0006A46F11D00F054F8002814D02A46B1799E
:1012B000A888083203F094FBE069002833D0436823
:1012C000002B30D00022A888114698472BE005213A
:1012D00000F012FF27E0A8880321F9E700F0ACFD39
:1012E000002820D1E07B012806D0104E00241036C3
:1012F000305D01280AD00DE003F040FC0B48E57397
:10130000012200211030FEF7ABFE07E0204603F07B
:1013100042FC3555641C2406240EE9D0502007F009
:101320006DFA03F0E3FC012086E70000E06CFF1F8C
:1013300010B5064CE0612178FF2905D0262000F089
:10134000A5FE207801F012F910BD0000E06CFF1F2F
:10135000F0B5012485B016460F46002807D00128B5
:1013600005D0012502280FD0032844D11EE00846ED
:1013700003F070FC04003ED1002E3CD0062239461A
:101380003046FEF755FE36E01C4F002400910E203B
:101390006043C0190622801D0099FEF755FE002803
:1013A00023D1641C2406240EF1D01CE00024204626
:1013B000062148432330C0B26A46102107F020FAC4
:1013C00000280CD11022FF216846FEF74FFE0028AE
:1013D00005D13946684600F00DFE002805D0641C92
:1013E0002406240EE3D02C4605E0002E03D031461F
:1013F000204603F055FC204605B0F0BD188CFF1FB9
:1014000070B50E4617491525884212D10024324680
:101410000221204603F086FB002800D00025641C32
:101420002406240EF3D0002E1AD00F4806F054FFE5
:1014300016E006F0F1FE040011D0A0790022E11DB3
:10144000FFF786FF002804D13246022103F06AFB31
:101450000025002E04D0204603F076FC00E0142581
:10146000284670BDFFFF0000494D0211FEB515462C
:1014700001229202821A00240127544E1300FEF723
:10148000E9FD110A151A21282F373E434B757D843B
:101490008C9A9A569A0001296FD1297802297ED810
:1014A0004A480122401CFEF7DBFD8CE0022976D180
:1014B0002888708287E0012971D1287801286ED8A8
:1014C000B07080E001296AD12878042867D8F070CC
:1014D00079E0012963D12878012860D8307172E061
:1014E00010295CD1102229463948FEF7A1FD6AE097
:1014F000012954D12878012851D8707163E001295D
:101500004DD12878F0725EE0042948D1314928682D
:10151000884244D8B06156E0002940D100F08CFCEC
:10152000002801D0F7734EE003F028FB18E00729EC
:1015300035D10622691C6846FEF7B0FD28780022E6
:101540006946FFF705FF05000ED100F075FC002885
:1015500003D01E481030077035E0284603F01BFB0F
:10156000502007F04BF923E002242CE0012916D18A
:101570002878012813D8707225E010E001290ED1D7
:10158000287809280BD8B0721DE0012907D12878E6
:10159000C11F092903D8307315E0012901D018248F
:1015A00011E0B07B2978B17300280CD101290AD150
:1015B00003F09CFB07E02728D6D20229D4D1298842
:1015C00000F064FD04462046FEBD0000E06CFF1FF5
:1015D000088CFF1F3F420F00F8B50F461349152531
:1015E000164688420DD1002432463946204603F083
:1015F000D7FB002800D00025641C2406240EF3D05D
:1016000012E006F009FE00280DD08379C11D0022EA
:101610001846FFF79DFE002806D13246394603F0F2
:10162000BFFB002500E014252846F8BDFFFF0000A1
:1016300070B50C460146032000020A1A0025344802
:101640001300FEF707FD1D1012151C1F2326282C62
:10165000303234383A3C3E40424446484A4E50527A
:101660005A5456585A00C07911E01022294902E014
:101670002849102210312046FEF7DAFC45E0C06A06
:10168000206042E0224906223C31F4E700782070D5
:101690003BE0808936E01E4942784231EBE71D4944
:1016A00082781F39E7E7007AF1E7407AEFE71849D7
:1016B00006223031DFE7807AE9E7C07AE7E7C089C0
:1016C00020E0808A1EE0C0781CE0C08A1AE0008B0F
:1016D00018E0408B16E0808B14E00D49062236316D
:1016E000C9E7C08B0EE0008C0CE0408C0AE08079EA
:1016F000CDE7008A06E0408A04E0272904D20846A4
:1017000000F01EFB208000E00225284670BD00008E
:101710008C6DFF1F5B8CFF1F70B50E4C0025607138
:10172000A571691EE18100F05FFC0420E0711022C8
:1017300000210948FEF794FC0748102200211030D0
:10174000FEF78EFCE562257265720720A072E572D5
:1017500070BD00008C6DFF1F5B8CFF1FFEB53B4D05
:101760000C4608040CD56879FEF78CFC050004D003
:1017700004F006F92846FEF78BFC0120C00360E068
:10178000600403D5012080034840FEBD2F48E107D7
:101790000126807900292AD02978002920D005281F
:1017A00021D0297A68460170697A4170274906225A
:1017B0003031801CFEF73CFCA97A68460172E97A58
:1017C00041726946687900F0D7FA002808D00720EE
:1017D000A871696A002903D00968002900D08847E8
:1017E00020467040FEBD032069460870E4E7A1076B
:1017F0000DD5052809D1E889FEF756FCAA8A002AEA
:1018000003D002216879FEF755FC022019E0600739
:1018100004D5002004F00CF9042012E0200712D5B2
:101820002879012802D002280AD107E00096AB8B64
:101830006A8B298BE88A00F00BF801E000F05AF976
:1018400008206040FEBD0020FEBD00008C6DFF1F23
:10185000F8B5134C069EA579052D01D01420F8BDCE
:10186000104F851FBD4219D2062917D3BD1DA942AD
:1018700014D2FF27F537BA4210D20A2B0ED3AB424F
:101880000CD2E08221836283A383304604F0D0F837
:1018900004216079FEF714FC0020F8BD1820F8BD83
:1018A0008C6DFF1F7A0C0000F7B50D46804900983B
:1018B000164642187F4F00247879B9791300FEF755
:1018C000C9FB190E141BE92040455970777E888F9B
:1018D000E996A2A9B4BFC8E9E9E9E9D3E900102D66
:1018E00076D11022314674486FE0102D70D17248C5
:1018F00010223146103068E0042D69D13068F8625A
:10190000CEE0012D64D13B7832783A70002B0AD0BA
:10191000002A07D1022903D0062901D0042901D1C8
:1019200000F0E4F9BCE0002A0AD0012905D003291F
:1019300003D0052901D0042902D10121FEF7C6FBFD
:10194000AEE0022D44D13088B881A9E01F2D3FD8E8
:1019500058481F2200214230FEF782FB55482A4694
:1019600031464230FEF764FB524B7D7042332A46CB
:10197000012112E01F2D7CD84F481F2200211F3863
:10198000FEF76EFB4C482A4631461F38FEF750FBE7
:10199000494B2A461F3BBD700021787900F0FCFBC3
:1019A00083E0012D65D13078042862D8387277E061
:1019B000012D5ED1307803285BD8787270E0062D57
:1019C00057D13C48062231463030FEF731FB67E004
:1019D0004FE0012D4DD1307807284AD8B8725FE02A
:1019E000012D46D13078032843D8F87258E0022DF3
:1019F0003FD13288BA82002A52D0052950D1022123
:101A0000FEF758FB4CE0012D33D13078012830D857
:101A1000F87045E03088022D2BD1062829D31921F2
:101A2000C901884225D8F8823AE03088022D20D1B9
:101A300006281ED31921C90188421AD838832FE0FD
:101A40003088022D15D1FF21F531884211D27883DB
:101A500026E03088022D0CD10A280AD31921C901A9
:101A6000884206D8B8831BE03178012D01D10129C5
:101A700001D0182414E00821FEF72EFB002801D025
:101A800016240DE0002003F0D3FF04217879FEF73F
:101A900017FB05E00098272801D2022D02D002246E
:101AA0002046FEBD318800F0F1FA0446F8E7000058
:101AB000FFFCFFFF8C6DFF1F5B8CFF1F1CB50B4CE9
:101AC000A179002901D011201CBD002800D060623E
:101AD000064907482C31034601910090103B002233
:101AE000E179607900F0BCF800201CBD8C6DFF1F0F
:101AF0006B8CFF1F10B506488179052901D0122093
:101B000010BDC1891322407900F006FB10BD000012
:101B10008C6DFF1FF8B504462C480F46007802284C
:101B200005D0012803D0082803D1002F01D01220AE
:101B3000F8BD002C07D02088254D81006958002968
:101B400003D01120F8BD0220F8BD06F065FB0600A9
:101B500036D02C20FEF7C6FA21888900685000286C
:101B600030D02C220021FEF77BFA20881C22810035
:101B7000695848802088211D80002858001DFEF7E4
:101B800057FA21880220890069580870228890003D
:101B90002B5870791B1D002816D000200D4909789C
:101BA00002F0A8FA0546002F03D03946304607F068
:101BB000C9FB002D02D0208803F01CFA2846F8BD8E
:101BC0001420F8BD1320F8BD0120E7E79774FF1F2C
:101BD0000075FF1F2575FF1FFFB5204D81B02878C8
:101BE0001E461746022823D0012821D0002F22D0DC
:101BF000019806F011FB04001FD0606A002801D094
:101C0000FEF776FA1C213846FEF778FA606201008A
:101C100015D02878000714D5002E12D0887E0090A9
:101C20000B4612330A8A019807F056FE014609E076
:101C3000122005B0F0BD0220FBE71420F9E71320C5
:101C4000F7E700212079042210432071029A002A2C
:101C500002D00222104320710846EAE79774FF1F62
:101C6000FFB581B01E460D4602240B9F0B00FEF708
:101C7000F1F90D1A0B1A1A0B1A1A1A1A1A1A1A084B
:101C80001A000AA002F0FAFB2946019800F0D8F8E1
:101C9000040008D13A4630460A9900F0AFF900F046
:101CA0000FF902F017FA204605B0F0BD4741505F2A
:101CB000446576696365496E69743A204741505FAF
:101CC00050524F46494C455F43454E5452414C207B
:101CD0007C204741505F50524F46494C455F50452C
:101CE000524950484552414C200A000070B5104CF2
:101CF0002168002904D00978814203D0032070BDF7
:101D0000122070BD0B4D02212878FEF7D9F90A4840
:101D10000026468004212878FEF7D2F9074806807D
:101D20002168032048700020FEF7EEF970BD000026
:101D3000F474FF1F2575FF1F0875FF1F9A74FF1F9E
:101D4000272803D202494000085A704701487047CB
:101D5000A274FF1FFFFF000010B5064C607006F074
:101D60008BFA6078FEF7D6F90521607801F01AFD4C
:101D700010BD00002475FF1F70B5284E0546306861
:101D80000C46002801D0112070BD2548017805209F
:101D9000014216D023488068002805D0007800282A
:101DA00002D0C80706D101E0102070BD00F044F851
:101DB000002808D02078032805D0022803D0002866
:101DC00001D0122070BD0C20FEF78CF93060002885
:101DD00020D00570002141700A222146801CFEF7A8
:101DE00027F903F009FF040002D003F0F7F812E02E
:101DF0000D48007803280ED11D20FFF7A1FF0B49E5
:101E00000028088007D00B48094A04210078FEF713
:101E100087F900E01324204670BD0000F474FF1F12
:101E20009774FF1F0875FF1F9874FF1F9A74FF1F98
:101E300060EA00002575FF1F10B506F03BFA10BDE3
:101E400070B50C4605461C2200210948FEF708F92A
:101E5000084805704470FEF769F90549002803D069
:101E600000200870122070BD01220A7070BD0000B1
:101E7000C091FF1F9674FF1F7FB504460D460846AC
:101E800006F0CAF9002805D00C48844204D9022083
:101E900004B070BD1220FBE7102200216846FEF757
:101EA000DFF868460470210A4170210C8170210E10
:101EB000C170294602F080F8EAE700003F420F00B7
:101EC00070B50F4C0025A068002802D0FEF710F96D
:101ED000A560E068002802D0FEF70AF9E56009482D
:101EE00005210078084206D00548103003F048FC70
:101EF00002F09AFC70BD002003F042FC002070BD8F
:101F00000875FF1F9774FF1FFEB5344D0C4608047B
:101F100019D56878FEF7B6F80121C9034C4006468A
:101F200000280ED003F04CFB002807D12878FF28AA
:101F300004D03146FEF700F9002802D03046FEF703
:101F4000A7F82046FEBDE007012700280AD0A868B0
:101F5000002804D04168002901D00020884720468D
:101F60007840FEBDA00709D56868002804D0416804
:101F7000002901D00120884702202AE060072AD5E5
:101F8000174E308800281FD0401E0004000C3080FF
:101F90001ED103F095F8002809D012480770686830
:101FA000002804D04168002901D00120884703F0AF
:101FB00061F8694601F07EFF684603F0EBFA1D20E8
:101FC000FFF7BEFE308003E004216878FEF778F862
:101FD00004206040FEBD0020FEBD00002475FF1FF0
:101FE0009A74FF1F9974FF1F014908707047000021
:101FF0002475FF1F10B502F047F810BD70B50E4CE8
:102000000B46261D07C60546102200211846FEF77E
:102010002DF8012803D11021A06806F0FFFF10223F
:1020200000212846FEF722F8012803D1102160681C
:1020300006F0F4FF70BD0000C091FF1F38B50546E3
:102040000F480C460078400701D4122038BD2846BE
:1020500006F0E2F8002811D00A48A90040580028EC
:1020600001D0817D00E02146684607F08BFC064BDD
:102070006A460221284607F0EBFB38BD142038BD24
:102080009774FF1F0075FF1F919E0211272807D22A
:10209000044A914204D0044A400011520020704783
:1020A00002207047FFFF0000A274FF1F70B50E46AC
:1020B000104915460978022916D0012914D0002D9F
:1020C00014D006F0A9F8040012D0002E03D0207915
:1020D00002210843207110222946A018FDF7A8FF0D
:1020E00028692062002070BD122070BD022070BDE2
:1020F000142070BD9774FF1F38B50C46054606F0D6
:102100008BF8002806D0684604706946284607F018
:102110008DFB38BD142038BDF8B50D4617461D4956
:1021200006461B4A1224C868954208D100282DD0C3
:102130000268002A2AD029463046904723E0144AF4
:10214000521C954213D1002807D00268002A04D0FF
:10215000294630469047040005D03946304602F003
:10216000A5F9040012D10B48067047700EE028460E
:1021700006F052F8002809D00078B04205D139465F
:102180002846FDF7DFFF044600E003242046F8BDA3
:10219000FEFF0000F874FF1FF8B50E46014619480F
:1021A0001546007805221F46104028D0304326D01F
:1021B0001548012E1BD0C468002C20D01F2D18D824
:1021C000002D01D0002F14D001701F220021601CAF
:1021D000FDF746FF2A463946601CFDF729FF2846D1
:1021E0002570002E07D0611CFDF7B2FFF8BD846892
:1021F000E2E70220F8BD611CFDF7B0FFF8BD122038
:10220000F8BD00009774FF1F0875FF1F014610B549
:102210000020C90704D0034A0421034800F0ACF9A8
:1022200010BD0000FCA40211106EFF1F70B50F4D11
:102230000F4CA87029461831204600F01DF80021E7
:1022400028460B461030CA0084521218491C090651
:102250005360090EF7D0012004F0AEFBA87800F01F
:1022600071FB044806F04EF870BD0000F06DFF1FD2
:10227000FFFF0000F161021170B50A4C0025A04279
:1022800009D1002082008C525218401CC0B29570B7
:102290000228F7D370BD03F07AFF0028FAD004803B
:1022A000857070BDFFFF0000F8B50E460746069921
:1022B00000240798002902D00B242046F8BD022BE9
:1022C00001D00D24F9E711785278120289188DB2E5
:1022D0002946814301D08024EFE73846F16800F0B9
:1022E0003DF9A842E9D02A463846F16800F0CCF919
:1022F0000400E2D171892A46384600F06BF9DCE728
:1023000070B50C46080412D50A488078FDF7BAFE6D
:10231000050008D02878B02802D1284604F054F8E7
:102320002846FDF7B5FE0120C003604070BD0020C7
:1023300070BD0000F06DFF1FFFB587B0087A002563
:10234000109E1C460F46C0060DD5099803F018FFD5
:10235000030006D00A22394607989847050035D170
:1023600001E00E2532E0387802281DD17868292254
:102370000178407812020002081880B2811A904257
:102380007ED009DC7249401A23D0012821D00228CE
:1023900051D0032808D125E0012972D0022971D03B
:1023A00003296DD004296ED0099803F011FF00288D
:1023B000D7D00568002DD4D01299119801910090C2
:1023C0003346224639460798A847054628460BB0AB
:1023D000F0BD1198002873D1F86801783180027837
:1023E000416897E0119800286AD101203080F86890
:1023F0000021007820707889401C80B200F072F9CA
:1024000000280FD0318802788918891C3180817AA0
:1024100061704189090AA17002784168E01CFDF7EA
:1024200007FED3E730880422001D30800021601CA5
:10243000FDF716FECAE71198002872D1F86804A9C2
:102440000088009004203080009820700098000AD6
:102450006070009800F046F9070028D0F8680590F1
:102460006846028A03AB3B49384600F093F90028DE
:102470000FD13B78022138487A68FEF786FA03E0EC
:1024800027E031E01DE049E0002802D1401E694606
:1024900088810598007802280CD1059802224168AD
:1024A000201DFDF7C5FD3088801C308002E06946A4
:1024B0000098888168468089A070000AE07085E7EE
:1024C0002FE0119800282CD1F968079800F046F801
:1024D00004E01198002824D1F86800880221318096
:1024E0002070000A607071E7F868FDF73DFE1199F1
:1024F000C0B2814210D8814201D1002206E0129A76
:102500008918814202D31199401AC2B23280F96807
:1025100011980918204682E7072557E711980028E7
:1025200001D00B2552E70721F8683180017821702E
:10253000417861708178A1704188090AE170017960
:10254000217181796171C088000AA0713EE70000A5
:1025500000280000FFFF000082A6021110B503F062
:1025600016FE002800D0807810BD000001490870D8
:1025700070470000F06DFF1F7CB51446050019D0B0
:1025800068460195018000F0E3F903001DD1002C9D
:102590001BD06D89002D0DD00C20FDF7A3FD002868
:1025A0000AD0002303608580094A8460916800296D
:1025B00004D006E0022308E0132306E0906004E064
:1025C00011460A68002AFBD1086018467CBD00004D
:1025D000F06DFF1FF8B50C4C0746207815460E46E7
:1025E000FF280FD00A20FDF7C5FD01000AD0B12059
:1025F00008700020487008714F80CE800D812078CF
:10260000FDF79AFDF8BD0000F06DFF1F70B50C4698
:1026100005460649FFF7A2FF800704D52146284654
:1026200000F0EAF970BD012070BD0000086EFF1FC8
:102630001CB56B461A71120A5A71002200920223CD
:1026400001AA00F001F81CBDFFB583B008461F4683
:1026500001A90C9E00F046F8050012D0684680885B
:1026600003F0B6FD00280AD04468002C07D000967D
:102670003B462946059A0398A04707B0F0BD0E20B7
:10268000FBE70120F9E7000070B514460E46054649
:1026900003F07DFD002806D13146054803F077FDA3
:1026A000002803D005808470002070BD112070BD0B
:1026B000FFFF000010B50178B0290BD14178002947
:1026C00008D10179122906D01B2903D140880121A4
:1026D00000F0F2FF10BDFF210231095C0129F5D0A5
:1026E00010BD0000F0B58C4610494B6819E09F689A
:1026F0007C89A04214D39E883119814210D90022CE
:102700000CE011017D186989814205D160460028DD
:1027100000D004802846F0BD521C92B29642F0D8F8
:102720001B68002BE3D10020F0BD00003075FF1FB7
:10273000FFB5174881B00A9F446824E000251EE0D9
:10274000A0682901461870890199884215D3029919
:10275000884212D80498002807D031787068049B0A
:10276000039AFEF712F9002807D0002F02D0A068C4
:1027700040893880304605B0F0BD6D1CADB2A088F0
:10278000A842DDD82468002CD8D10020F3E700004F
:102790003075FF1FFEB5174600256A469580044632
:1027A00040891D4A1E46904208D001AA0092401C52
:1027B000237880B26268FFF7BBFF054623780221C9
:1027C00016486268FEF7E1F8002807D12378022155
:1027D00013486268FEF7D9F8002801D060890EE03E
:1027E000237802210F486268FEF7CFF800280DD049
:1027F000002D03D068468088B84203D0384604F0E4
:10280000EFF904E06889401E80B200E06089002E84
:1028100000D030802846FEBDFFFF000080A60211D8
:1028200082A6021186A60211FFB581B00F461E4690
:1028300014466946019803F0F1FA050018D1002CFE
:1028400006D001221021019805F0C0FC05000FD12F
:1028500039460198FEF72EF9050009D1009CFF2E9C
:1028600006D021461E22A31C034804F0C5F9E670D9
:10287000284605B0F0BD0000E56A021110B5054913
:102880000870042100F08EFF00F006F8FEF726F92C
:1028900010BD00004075FF1F70B50E4C00200C4BA2
:1028A000651CFF228100C91800280ED00D80401C35
:1028B000CA70C0B28A700228F4D3074803F052FCF1
:1028C000064805F01FFD002070BD0C80EFE70000FA
:1028D0003875FF1FFEFF0000116B0211656A0211BF
:1028E000F8B50D4614460646694603F097FA1728D0
:1028F0000CD0002C06D001221021304605F066FCD9
:10290000002803D129463046FEF7DEF8F8BD000066
:1029100070B50C46080411D509480078FDF7B2FBE4
:10292000050007D00178A02901D103F0BFFB28469C
:10293000FDF7AEFB0120C003604070BD002070BDFC
:102940004075FF1F01490870704700003075FF1F78
:1029500070B50546008800281DD0686802210378FC
:1029600042682248FEF711F8002808D16868022161
:10297000037842681E48FEF708F800280BD01D4C6B
:102980006088002805D0012229881204101A81428B
:1029900003D9012070BD022070BD0C20FDF7A2FB01
:1029A000060001D000200AE0132070BD02016B6810
:1029B00061880A329952491C401C618080B2298882
:1029C0008142F3D80020306008222946301DFDF7EF
:1029D0002FFB6068002802D1666004E008460168A9
:1029E0000029FBD10660002070BD000080A6021106
:1029F00082A602113075FF1F70B5BEB00D460646A7
:102A0000002402230E4A0F4901200094FFF790FE94
:102A1000002812D040896A4610800420508001208E
:102A200010715471FF209071D0712B4600226946BD
:102A30003046FFF7F9FE3EB070BD0120FBE7000015
:102A40009EA60211FFFF00000649496806E08A6859
:102A50005289824201D18888704709680029F6D1DD
:102A6000002070473075FF1F10B51422114201D0AD
:102A7000012202E04A0604D50022102105F0A6FB3F
:102A800010BDC80701D0002010BD022010BD10B538
:102A900014468A0604D50122102105F097FB10BDCB
:102AA000882211420ED008220A40102105F08EFB28
:102AB00000280BD0E034617E0029F0D0217E01296E
:102AC000EDD103E0880701D4032010BD002010BD24
:102AD000014610B50020C90704D0034A0721034866
:102AE000FFF74AFD10BD0000E8A40211186DFF1F9A
:102AF00070B50D46164600241D490300FDF7AAFADD
:102B000008051234341934222934152D23D81622FD
:102B100000211848FDF7A4FA2A4631461548FDF76A
:102B200087FA22E0022D16D1114910881039088049
:102B30001BE0082D0FD10E48082231460838FDF75A
:102B40001FFB12E0012D06D1CA69094930782831EE
:102B500007E0012D01D0182407E0CA6B0449307842
:102B6000483104F00AF900E00224204670BD00005C
:102B7000186DFF1F268CFF1F10B501220E49002083
:102B8000FFF782FD0C49012218390020FFF77CFD78
:102B90000949012208310020FFF776FD064901228C
:102BA00010390020FFF770FD034901220839002089
:102BB000FFF76AFD10BD00000671FF1F38B50F4C0E
:102BC0006946E0710120087001466A460C48FEF72C
:102BD0004DFC0025ED432846FFF77AFF2846FFF716
:102BE00015FBFDF7D3FAFEF7EBF80020FEF754F9DA
:102BF0000121E079FDF76AFA38BD0000B070FF1FCF
:102C00000D040000FEB56A4E0C46080409D5F079A3
:102C1000FDF738FA002801D0FDF73AFA0120C00389
:102C2000C0E0E007012700280CD061481C30FEF707
:102C300045FF6048FEF77CFB5FA001F01FFC2046CB
:102C40007840FEBD5A48610700780DD5052809D1A6
:102C5000B078002803D004F0C9FD5CA000E061A0BA
:102C600001F00CFC04209DE0A1070AD5052806D13F
:102C7000FEF702F9644A0221F079FDF71BFA0220FF
:102C800090E0200724D5717808202546454000298A
:102C90001AD05EA001F0F2FB7079B17988420FD0B2
:102CA0000B21401CFDF7E8F971710B2041435C4892
:102CB0000B1805D09A7859781878DB1C04F03AFD87
:102CC0007079B179884201D12846FEBD2046FEBD0B
:102CD000544DE0062DD5012069460870087100208A
:102CE000FDF7E2FEC7B239464FA001F0C7FBB92F8E
:102CF0000CD09E2F0AD04D2F08D0A87A012801D0E1
:102D00000020A8723078052802D010E00120F8E7F2
:102D1000312001AA01210001FEF7C6FD6A4601210A
:102D20004448FEF7C1FDA97A43A001F0A7FB10209B
:102D300038E0A0060CD5684607703E486A46012177
:102D40001438FEF7B1FD49A001F098FB202029E0DE
:102D5000E0052BD50020FDF7A7FEC0B2B92823D08F
:102D60009E2821D04D281FD00020A872FFF704FF15
:102D700043487D22D20001210078FDF79BF92F7294
:102D80002F7300210120FDF707FA00210846FDF707
:102D900003FA012000F07EFFA97A3AA001F06EFB51
:102DA000FF2001306040FEBDAF72DFE70020FEBDB6
:102DB000B070FF1F6CA502117374617274204465BA
:102DC00076696365204556540A0D000068696444BD
:102DD0006576537461727449646C6554696D65728B
:102DE000200A0D0068696444657653746172744901
:102DF000646C6554696D657220646973636F6E6E8F
:102E0000656374200A0D0000983A000053656E64F3
:102E100020486964205265706F72740A0D000000CA
:102E2000CE90FF1F7873FF1F6D747573697A653DCF
:102E300025640A00190300006465766963652075DE
:102E4000706461746120636F6E6E65637465642085
:102E5000706172616D656E742C2070686F6E652094
:102E600074797065203D25640A00000041445620B5
:102E7000656E61626C6520757064617465210A001D
:102E80008973FF1F70686F6E6520747970652063A9
:102E90006865636B2025640A00000000FFB583B0FD
:102EA00000200C9F029048680E46017840781D462D
:102EB00000020818594A5949584B84B22B391B3B18
:102EC000901E002F04D0844225D00B2007B0F0BD07
:102ED000944207D08C4205D09C4203D04F491A3906
:102EE0008C4216D1708904F00BFC00280ED0059995
:102EF000009501914A4A4179526900791568012388
:102F00002246A8470290002802D085E000202880B1
:102F100080E084425CD143480088874202D3072086
:102F2000029079E03E4C404A1021E079FDF7C2F86A
:102F3000FF213E4A0131E079FDF7BCF80020FDF7A2
:102F4000B3FDC1B23A4AB92906D09E2904D04D2911
:102F500002D0002F06D008E0002F06D10120907289
:102F6000002001E00020907260813148827A31A017
:102F700001F084FA2B480D990088C01B884200DDBF
:102F8000084628800398FDF78FFD0090019725489B
:102F90002B8801882FA00D9A01F070FAF0682A881A
:102FA000C1190598FDF744F828886189401880B256
:102FB0001C496081098888422CD11D48807A0028EC
:102FC00028D1FF2164220131E079FDF773F821E077
:102FD0001248C01E844204D1042028800246F168B1
:102FE00015E0294902208C420ED00C49491C8C4224
:102FF00006D101202880F06801780598017009E069
:103000002149491E8C4205D12880F1680222059889
:10301000FDF70EF804F0EAFB029857E74D2A00008E
:10302000B070FF1FD470FF1F70170000B80B0000B6
:103030007873FF1F6D74755F6C656E3D25642C7031
:10304000686F6E652074796570203D2025640A0DD7
:10305000000000004849445F4D41505F4C454E3DE3
:1030600025642C6D61783D25642C2A704C656E3D7D
:1030700025642C6D74753D25642C6F6666736574CC
:103080003D25640A0D00000008290000014A516135
:1030900090617047B070FF1F014A11611072704754
:1030A000B070FF1FF8B507460D480E4601781C4664
:1030B0001546052912D14178002909D04179807936
:1030C000814205D13146384604F034FB002805D052
:1030D00023462A463146384604F046F9F8BD00003A
:1030E000B070FF1FFFB583B00C9B002415460F4640
:1030F0008446002B02D00B2007B0F0BD7868017821
:1031000040780002081886B23E48864203D03D4807
:103110001B38864212D1788904F0F2FA00286AD06E
:1031200006A901950091384A4179526900791468DD
:1031300000233246A04704005DD05EE03248314AA9
:1031400041696846521E008B96420AD1012841D13E
:103150002878002801D0012843D1002849D0012037
:1031600047E02A4A96422FD1012100930191C3B230
:103170002A4639466046FFF797F804003DD1697842
:10318000287809024018204982B208697B89097AA7
:1031900015E047889F420FD100282CD006A9019541
:1031A0000091012A0ED00323174A41795269007910
:1031B00015683246A8471EE0491EC9B208300029EA
:1031C000E7D118E00223EFE70E4A521C964212D1D3
:1031D000012801D00D2410E02878002803D0012810
:1031E00001D0802409E0FA6810702878002806D001
:1031F00003204968884704F0F9FA20467CE702205A
:10320000F7E700004D2A0000B070FF1F0229000000
:10321000F8B5474C45492046FFF72EF8434920466C
:103220001839FFF729F8414920460831FFF724F8FB
:103230003E4920461039FFF71FF83C49204608391F
:10324000FFF71AF839483B4A25211230FFF794F965
:10325000009036481230C1690220FDF7C9FD33489D
:10326000354C2338077827714678FF306671363041
:1032700041892180408B60802C480125A57121382F
:103280000378237342782D49627348892081002096
:103290006081A57327756675498F21822749403162
:1032A0004E896682A07523776277498D218360837A
:1032B0002646A0772036214935717571C0314A897B
:1032C00022844A8B6284194AB0711F3A137833738F
:1032D00052787273498F218560852146B5733031EC
:1032E0000320FDF785FD11481D38017831774078BE
:1032F00070771248803841892187408B60870B495D
:10330000B5771B3920460A784030027149784171FF
:103310000A4980314A890280498B41808571214662
:103320000920FFF7B9FE0098F8BD00000671FF1FE5
:10333000FFFF000000A602114891FF1F5872FF1FF7
:1033400070B50C4C049816190B4A0124002E0FD0AE
:1033500000251B2E03D1022903D0032903D01D8091
:1033600004E0117800E0917801701C80002070BDAD
:103370005178F9E7CED5FFFFE070FF1FF0B5634E3F
:103380008DB0707006211F20FEF780FE0024684675
:103390000471048407210172012505730A218184C7
:1033A00014210185FF218485F531018604AF049441
:1033B00002225748791C0594FCF7F4FE0422F91CFC
:1033C0001003FCF7EFFE30460622791C1030FCF7A4
:1033D0002FFE50A001F052F80621781C05F044F9A8
:1033E00001AA01214D48FEF75FFA4C4808AA0221C4
:1033F000401CFEF759FAC32002AA01218000FEF703
:1034000053FA464832462B321321801CFEF74CFA01
:10341000324661200C321F21C000FEF745FA3120F0
:1034200003AA01210001FEF73FFA3C4809AA022144
:103430000C30FEF739FA39480AAA02210D30FEF79E
:1034400033FA36480BAA02210E30FEF72DFAC520BA
:103450000CAA02218000FEF727FAC72168460170F6
:10346000032747706A4602210120FFF741FB3246DD
:103470003E3215210020FFF73BFB6846059405719D
:10348000047207730574812005AA0421C000FDF7AA
:10349000EDFF012101AA8802FDF7E8FF1F4802AAFB
:1034A0000121FD30FDF7E2FF1C4803AA0121FE3097
:1034B000FDF7DCFF04AA01211948FDF7D7FFA0247E
:1034C00021460620FEF7E2FD21460720FEF7DEFD3D
:1034D00021460820FEF7DAFD21460920FEF7D6FD39
:1034E000FFF796FE31465431301DFFF7CFFD0DA199
:1034F00003C90791069006A9082005F00FFA0121DB
:103500007078FCF7E3FD0DB0F0BD00004C70FF1FBC
:10351000044000004D41433A000000000503000054
:10352000060400004C454E5A455A505138B50C46D9
:1035300008040DD512484078FCF7A4FD050004D01E
:1035400004F0BAF92846FCF7A3FD0120C00312E0FD
:10355000E0070AD00125684605706A4629460948F1
:10356000FEF7A2F92046684038BD200705D50020A7
:10357000FCF71EFE0820604038BD002038BD00006A
:103580004C70FF1F0503000030B50F4D002055198A
:10359000039C0E4A13D01B2D04D1022903D003290A
:1035A00008D00A2030BD012B02D12178117030BD26
:1035B0000D2030BD012BFBD12178917030BD012B46
:1035C000F6D12178517030BDCED5FFFFE070FF1FDE
:1035D00010B500210E20FCF7F1FD01210E20FCF7B3
:1035E000F3FD00211120FCF7E9FD01211120FCF77A
:1035F000EBFD114A00211120FCF7ECFD00210C200D
:10360000FCF7DCFD03210C20FCF7DEFD00220A495B
:103610000C20FCF7DFFD00210420FCF7CFFD012189
:103620000420FCF7D1FD01210020FCF7C7FD01219A
:103630000020FCF7B1FD10BD4327FF1F0B7803707E
:103640000B8802221B0A43700B88801C012B02D0BE
:10365000022B07D011E08A7802704988090A41706C
:1036600004220AE08A7802704A88120A42700A79B3
:1036700082708988090AC1700622104670470000CE
:1036800008B5044B009313460A46012104F0EEFCF2
:1036900008BD00003D3602111CB5032301920093C2
:1036A0000A46024B122104F011FD1CBD8D79021156
:1036B00010B5FCF795FD10BD13B50448007801283E
:1036C00003D101AA6946FCF791FD1CBD4C75FF1F93
:1036D00070B50F490F4A087000210B468C00491C39
:1036E000C9B213530429F9D30A4C00211034FF2620
:1036F0000A460A256A4315196B80491CA354C9B2AE
:103700006E720329F4D3FCF777FD04F083FC70BDDF
:103710004D75FF1FDC91FF1F082A01D00120704763
:103720004B780A781B02D2180280CB788A781B0269
:10373000D21842804B790A791B02D21882808A798A
:10374000C97909025118C1800020704770B50C4634
:10375000080411D509480078FCF794FC050007D04F
:103760000178902901D104F0B7FB2846FCF790FCC2
:103770000120C003604070BD002070BD4D75FF1F6B
:1037800070B500280AD1064C00252580A581A580AA
:10379000A068002802D0FCF735FDA56070BD0000D0
:1037A0005892FF1F072907D0052905D0042903D007
:1037B000062901D002207047044A8B009A1813464C
:1037C000403B1986203A907400207047DC91FF1F1F
:1037D00070B506001BD10E4C0025214640310D74FA
:1037E0004D740D76606D002802D0FCF70BFD656509
:1037F0005C20002546433419E80020184068002862
:1038000001D0FCF7FFFC6D1CEDB20A2DF4D370BDA6
:103810006892FF1F70B50A880C460546072A07D034
:10382000052A05D0042A03D0062A01D0022070BD43
:10383000012104F095FD002804D02146284604F01B
:10384000BBF870BD142070BD10B5001D80B2FCF730
:10385000DFFC002803D00321C943FCF7DFFC10BDC7
:103860007CB51148817911A000F008FE0E21684650
:10387000017000214170052141806820FCF7D4FCD3
:103880000E4D7624EC600E4E03E03046FCF7D2FC81
:10389000EC600E20FCF7D4FC0028F6D0012168462D
:1038A000FCF7D4FC7CBD00007873FF1F504F5745D8
:1038B00052204F46465B25645D0A00000020004010
:1038C0001027000070B50E20FCF7BAFC164D2C46F0
:1038D000143C002816D01120FCF7B2FC002813D0AD
:1038E000207800280DD00020207028710A220121A4
:1038F0006079FCF7DFFBFF22F53210216079FCF7DD
:10390000D9FB70BD012000E0022021788142F8D06F
:10391000207028710A2201216079FCF7CBFB10216D
:103920006079FCF7CDFB70BDA873FF1F10B5FFF7E2
:103930004FFE0A4801680AA000F0A0FD00221146CF
:103940006820FCF789FC6820FCF78CFC3221002001
:1039500000F0D6F90B490A48086010BD800AFF1F25
:10396000506F7765725F466C6173685F536176650F
:10397000645F466C6167203D205B25785D0A00002E
:10398000110E00007873FF1FF8B57F4C0D46080438
:103990000CD56079FCF776FB040004D0FCF768FCDA
:1039A0002046FCF775FB0120C003E9E0E80700278B
:1039B00000287DD0FCF762FC0121734E08431436C9
:1039C00020613079002860780ED0002817D11421AA
:1039D000E068FCF759FC002811D0012060702069D4
:1039E000A0603079A0700AE0002808D01421A068F7
:1039F000FCF74AFC002802D02069E060677070790B
:103A000000283AD03068002837D0FF212D31FCF74C
:103A10003BFC002831D071795CA000F02FFD70795B
:103A2000022820D15F48C07A00281CD1E078002805
:103A300019D10120E0705CA000F020FD2079012860
:103A400002D0022803D00EE0564887710BE055489B
:103A5000007A012807D10821002003F00DFF002182
:103A6000084603F009FFE078012803D1E77051A070
:103A700000F004FD376077712771A078002814D01A
:103A80003079002819D11421A068FCF7FDFB00282B
:103A90000BD07079401CC1B2717120693060A2787E
:103AA000227149A000F0EAFCA7703079002800E0FC
:103AB0000AE002D17079002804D014220121607933
:103AC000FCF7F8FA01205BE0A80708D535488079B3
:103AD000022802D143A000F0D1FC022050E02807C8
:103AE00008D5282208216079FCF7E4FAFFF7EAFEFE
:103AF000082045E0E80612D53DA000F0BFFC404A92
:103B000000210E20FCF766FB3D4A00211120FCF746
:103B100061FB08216079FCF7D3FA102030E0A80699
:103B200030D5FF22F53220216079FCF7F9FA042024
:103B3000FCF786FB002806D032A000F09FFC012194
:103B40001320FCF729FB0C20FCF77AFB002816D188
:103B500030A000F093FC01211320FCF71DFB002294
:103B600027490C20FCF736FB2E49AF2008700D4882
:103B70002D49C772016020216079FCF7A1FA20204D
:103B80006840F8BD0020F8BD9473FF1F4B65792095
:103B9000746F74616C204B69636B206E756D3A2095
:103BA00025640A007873FF1F7477696365206F6E60
:103BB00063650A004B657920547769636520526517
:103BC0006C656173650A00006B65792074696D65C9
:103BD000206E756D3A2025642C206B657920697301
:103BE00025640A005359535F52455345540A000057
:103BF00073746F70207363616E66200A00000000AA
:103C00004327FF1F6368617267652066696E697389
:103C1000680A00006368617267652073746F700AD8
:103C200000000000A96FFF1F110E000010B50B4926
:103C300048710B488079012809D10AA000F01EFCC8
:103C40000C48FF22F53201210078FCF733FA0A4ACA
:103C500000210E20FCF7BEFA10BD00009473FF1F78
:103C60007873FF1F706F776572206F6E206C6564CC
:103C70000A0000002574FF1F4327FF1F10B52122F3
:103C800010210020FCF706FB202210210120FCF768
:103C900001FB10BD10B5012804D000F01EF8FCF7A0
:103CA000FFFA10BD00F019F800220123114610465A
:103CB000FCF7FCFA15210020FCF7FEFA0123002294
:103CC00011461846FCF7F2FA16210120FCF7F4FA27
:103CD000FFF7D4FFFCF7F6FA10BD10B5012115204F
:103CE000FCF76CFA00211520FCF756FA012116208A
:103CF000FCF764FA00211620FCF74EFA10BD000014
:103D0000F8B51F4D0E4669790127002936D1344692
:103D1000002819D0F8BD0E20FCF792FA002816D022
:103D2000B4420CD014240A20FCF7D2FA641EE4B288
:103D30000E20FCF785FA002818D0002CF3D10020C3
:103D40003446A871FFF78CFD002CE4D1F8BD0A20A1
:103D5000FCF7BEFA641E2406240EDCD109A000F094
:103D60008DFB0020A871FFF77BFDF8BD0A20FCF752
:103D7000AFFA0E20FCF764FA0028FAD0AF71F8BD54
:103D80007873FF1F6C6F6E67206F6E6365207072B3
:103D90006573730A0000000010B501210846FCF7A6
:103DA0000DFA0120FCF79AFA01210846FCF7F4F914
:103DB00001211320FCF702FA1320FCF78FFA0121EE
:103DC0001320FCF7E9F910BDF8B52A4E0C4608049B
:103DD0000DD57078FCF756F9050004D0FCF748FAC9
:103DE0002846FCF755F90120C0036040F8BDE00704
:103DF00039D0214D0127A879012802D000282DD0E3
:103E00002EE0287A002803D0287B012810D011E06A
:103E10003078002806D001210846FCF7BDF90020C3
:103E2000307007E000210120FCF7B6F9377001E09F
:103E300000F096FA7D22D20001217078FCF73AF961
:103E400029680122491E0DA0296000F017FB28688F
:103E5000002805D101217078FCF732F9FFF700FD49
:103E600020467840F8BDA00702D502204840F8BDA2
:103E70000020F8BD2474FF1F7873FF1F73797374DB
:103E8000656D207469656D7220574F524B494E47DE
:103E9000203D205B25645D2A5B25645D730A00007C
:103EA00010B503494870FFF777FFFFF73FFD10BDDE
:103EB0002474FF1F38B50C46050014D0002C12D016
:103EC0000321684605F0AAF86946887840218006F3
:103ED000800E0843694688702246284605F012FE87
:103EE000050002D006E0022038BD03226946E01C2E
:103EF000FCF79EF8284638BDF7B58EB00E981546EB
:103F00000E4600282DD0002D2BD0301DC0B20190C0
:103F1000FCF7E8F8040039D001F0B8F8074632465B
:103F2000201D0E99FCF7BAF8F8B20890E07038043A
:103F3000000E0B90A0703802000E0A9060703F0EC9
:103F4000277001F09DF80146102202A8FCF7A6F8A0
:103F500006AB214602A8019A05F02AFD060003D00F
:103F600010E0022011B0F0BD089828700B9868701E
:103F70000A98A870EF70082206A9281DFCF78EF891
:103F800001F08AF82046FCF7B3F800E0132630462B
:103F9000E8E7000010B5064C2070FCF7A5F90621F3
:103FA0002078FFF7FFFB034804F0ACF910BD0000D8
:103FB0005C75FF1F71900211F8B50E461F4C01464B
:103FC000B50060590027002807D02422125C022A7D
:103FD00005D0032A03D0042A01D01220F8BDC288DC
:103FE000B24201D00220F8BD10220C30FCF720F8BC
:103FF00060591021353005F011F8615930460B46F3
:104000000A46253335320C3105F09EFD60590221F8
:104010000278002A427807D0032A0BD1417030463B
:1040200004F0C6FF074605E0042A02D0032A03D0A5
:1040300000E041703846F8BD0521EFE76875FF1FC5
:1040400070B50C46080419D50D480078FCF71AF82D
:1040500005000FD005F02CF9002808D10948007898
:10406000FF2804D02946FCF767F8002802D028462C
:10407000FCF70EF80120C003604070BD002070BD49
:104080005C75FF1F2475FF1F7CB50C4605001DD015
:10409000002C1BD00322E11C6846FBF7C9FF6946D0
:1040A000887840218006800E08436946887001AAFE
:1040B000284605F027FD002807D10322214601A844
:1040C000FBF7C2FF012803D001207CBD02207CBD8C
:1040D00000207CBD10B505480078400701D5044894
:1040E00000E0002005F098F9002010BD9774FF1F34
:1040F0005075FF1FFFB581B00020274C9500009040
:1041000060591E461746002802D0112005B0F0BDA8
:10411000002E0BD02120FDF713FE317E884205D8FA
:104120002220FDF70DFE317E884201D20220EDE70C
:104130007820FBF7D7FF605100282AD07822002191
:10414000FBF78EFF61590020487062590199117088
:104150006259029991706259FF21D1706159CF80E3
:1041600061598E6061590862615920310871019866
:10417000002803D0384604F031FF00906159012037
:1041800048700098002802D0384604F0E3FE0098FA
:10419000BCE71320BAE700006875FF1FFFB58DB0BC
:1041A0000F98169C0E46002815D0002C13D00D98A1
:1041B00004F032F8050011D0617820780902401827
:1041C000A178E2780904120689184718286AB842CB
:1041D00006D3401C04D0022011B0F0BD1420FBE730
:1041E000002E04D02879800701D40120F4E70822AA
:1041F000002106A8FBF734FF1098001DC0B2019003
:10420000FBF770FF060017D0301D109A0F99FBF7CF
:1042100045FF042221463046FBF740FF1022A91833
:1042200002A8FBF73BFF06AB314602A8019A05F056
:10423000BFFB050002D013E01320CDE7082206A93A
:1042400008A8FBF72BFF0822211D08A8FBF7FCFE9E
:10425000012801D0012503E039460D9801F026FD23
:104260003046FBF745FF2846B6E70A4610B501463B
:104270000020FCF73FF810BDFFB583B00F46039850
:104280001B4940001646085AFFF7DEFA04002AD000
:104290000125601C2670002F03D00699B847401CEA
:1042A00085B2300610D51021039804F059F8002883
:1042B00001D0192613E06219E9B22046FFF71CFE6F
:1042C00006000CD10C35ADB2042168460180019482
:1042D000058169460398FFF79DFA060004D0204641
:1042E000FBF790FF00E01326304607B0F0BD00005A
:1042F0009074FF1F70B504460079BEB0C0072AD085
:1043000060881649FEF72AF9144EC00701250C3EB5
:1043100000280CD030461C30418D68460180458015
:1043200031780171608800226946FEF7D9FA0B499D
:1043300060880831FEF712F9C0070CD00748002248
:104340005030418D684601804580717801716088E8
:104350006946FEF7C5FA3EB070BD0000B46FFF1F9E
:1043600010B5024803F0B8FF10BD0000F54202117D
:1043700070B51046049A0025002A01D00B2070BDAC
:104380004A68124E147852781202A21892B2104C57
:10439000B24208D122785F215F2A00D92170012121
:1043A000198021780DE00B4EB24205D102221A800D
:1043B000C968FBF73DFE07E00449491C8A4202D167
:1043C0006178017000E00A25284670BD192A0000B6
:1043D000A86FFF1F08290000FEB54C681546267817
:1043E0006478089A240234191A4EA4B2F4420ED109
:1043F000194C4E89678F0124BE421CD10092DBB25A
:1044000001942A46FDF750FF040003D000E00A247F
:104410002046FEBD69782878090240180E4980B20E
:104420001C3989680029F3D0002802D00120884770
:10443000EEE70220FBE7084F40377F8FBE4207D1EF
:104440000092DBB201942A46FDF72EFF0446DFE717
:104450000124DDE7FED6FFFFC46FFF1F01680A05D8
:1044600008D11031044A016052781203914201D3FD
:10447000891A016070470000AC6CFF1F0FB410B5C3
:1044800003AA0448029903F0BBFF10BC08BC04B0A7
:10449000184700006B42021138B5034B00240FCBC4
:1044A0000094FBF72DFF38BDD0A4021110B50C46C7
:1044B00003F0C6FE002804D040882146FBF742FEE8
:1044C00010BD122010BD0000F0B5504E504C9BB0F6
:1044D0007168216071782171FF21A171102100257F
:1044E00061712F460922FF21E01DFBF7B9FD4E2225
:1044F000002106A8FBF7B4FD32E02068290340182C
:10450000102202A900F040F902982168884218D1CF
:104510006846007B2179884213D16846407B6179E7
:1045200088420ED168467178807B491E884225DA20
:10453000A84201D1022700E0032706A94855A0712F
:104540000CE00298401C19D16846007BFF2815D169
:104550006846407BFF2811D106A948556D1CEDB275
:104560002179A942C9D8042F08D0A0790125FF28B4
:1045700007D0012F05D0002006AA24E020201BB080
:10458000F0BD00270DE0A77121683803081810223C
:104590001F4900F00FF9002801D01F20EFE77F1C12
:1045A000FFB22079401EB842EDDC00202074207953
:1045B000401E607410206082357025E0135C002B73
:1045C00003D0401CC0B28142F8D881421CD9401EA1
:1045D0000818FBF79BFE617400203570024669469F
:1045E000009000F017F8002802D0212802D004E043
:1045F000009901E0012109036182C0B2212803D0A2
:10460000002801D02A20BAE70020B8E7AC6CFF1FD1
:10461000CC8BFF1FF7B501248AB000200E46274639
:1046200005909CE056480179407CC019FBF724FDB9
:10463000C8B2FF2C03D3FF3CA4B2FF2C33D20A9A9A
:10464000002A01D14E4A11740003029005980125F9
:10465000002803D000200590601C06E0012C05D93D
:104660002819811EFF2917DA401E85B202982901F8
:10467000081807904248042201680798081804A9FE
:1046800000F082F80A9800280ED0012829D00228CC
:104690003CD006200DB0F0BDFF200230401B201A98
:1046A00084B20120059058E004988103890F04D05A
:1046B000022902D003294CD10EE00103890F012900
:1046C00001D0012445E0000D0C21FBF7D5FC0029A9
:1046D00000D0012144183CE007980005000D30602F
:1046E00047E0049881038A0F04D0022A05D0032AE8
:1046F0002FD142E0890F0229DFD1328881B292B2F4
:104700009142DAD10C990798086032E0049881034D
:10471000890F04D00229D0D003291AD129E001033E
:10472000890F012903D0306801240C300BE0000D03
:104730000C21FBF7A1FC002900D0012144180C201A
:1047400031686043081830600C980C990068401C70
:1047500008606D1CADB2FF2D80D97F1CFFB20948E7
:104760004078874200D25DE70A98002803D00128EC
:1047700003D000208EE721208CE725208AE7000067
:10478000CC8BFF1FAC6CFF1F10B5094C63689842BF
:104790000BD364782403E318834206D9002904D09C
:1047A000002A02D0FBF7FEFC10BD222010BD000045
:1047B000AC6CFF1F70B515460E460446FBF7ACFD0A
:1047C000800601D0292070BD09494868844206D37B
:1047D000497809030818A04201D9A00701D0222076
:1047E00070BD2A4631462046FBF79CFD70BD000097
:1047F000AC6CFF1F0022002913D0002811D0012823
:1048000006D04A799206920E4A71032805D007E035
:104810004879C0221043487102E0402002434A71A7
:10482000012210467047000070B51248002500783C
:10483000052108421BD02020FBF754FC0E4C002819
:10484000A06013D020220021FBF70AFC2020FBF7F8
:1048500049FCE060002804D020220021FBF700FC86
:1048600005E0A068FBF744FC0020A0601325284663
:1048700070BD00009774FF1F0875FF1FF3B588888F
:104880000D4681005448544C40580027203C85B0C8
:1048900000281CD1059800287CD0002D7AD000F08B
:1048A000D9F9607400281AD000260E204B497043B5
:1048B00040180622FF21FBF7D9FB002804D1761C03
:1048C0003606360EF1D001266674012E03D0607CC8
:1048D000002804D05EE06774607B401C6073A88889
:1048E0003D4E80003058002857D08268002A07D0FB
:1048F00021201C2103F08FFFA8888000305887609A
:10490000A888800030580269002A0BD0607C0621FC
:1049100048432230C0B21C2103F07DFFA8888000EC
:1049200030580761A888800030584269002A0BD0AF
:10493000607C062148432330C0B2102103F06BFF96
:10494000A888800030584761A88880003058C26825
:10495000002A18D0607C062148432430C0B21021C0
:1049600003F059FFA888062180003058C268607C97
:10497000103248432530C0B2042103F04CFFA88810
:1049800080003058C760A07B002801D000F09EFA5C
:1049900000F0E0FA012007B0F0BD20200E21059ABA
:1049A00003F039FF1022FF216846FBF759FB607CBA
:1049B0006A467030C0B2102103F02DFF607C0E21DA
:1049C000484306490E2240180599FBF731FBA88899
:1049D000800035500020DEE7006DFF1F188CFF1FA0
:1049E000F0B589B017460E460446202200216846DD
:1049F000FBF736FB68460480394C0225E1780171EB
:104A000022794271217B017706984108E07A4900BA
:104A1000C307DB0F1943069181070029069901DAC4
:104A2000294300E0A943069101072E4B069901D5C1
:104A3000194300E099430691C1062B4B069901D515
:104A4000194300E0994306918106284B069901D548
:104A5000194300E099430691400704210028069875
:104A600001DA084300E088430690002A05D001A837
:104A700010221F490230FBF7DBFA6179002904D0CC
:104A8000002E02D00698284306906846807D0029B3
:104A900000D00121084369468875A178002900D01B
:104AA0000421084369468875A179002900D00821AE
:104AB000084369468875E179002900D01021084330
:104AC00069468875217A002900D02021084369466B
:104AD000887539466846FDF71DF809B0F0BD00003D
:104AE000E06CFF1F00010000000200000004000055
:104AF000088CFF1F70B50025094E2C460E20604320
:104B000080190622FF21FBF7B1FA002801D16D1CA4
:104B1000EDB2641C2406240EF0D0284670BD0000BF
:104B2000188CFF1F7FB50C460621484306461546E4
:104B30002036F0B26A460E2103F062FE002806D14C
:104B40000622FF216846FBF791FA002802D00020D8
:104B500004B070BD68468189002DC8B202D02043E0
:104B6000C0B200E0A043814206D069468881F0B21D
:104B70006A460E2103F04FFE0120E9E710B5002040
:104B8000044604E0204600F006F8641CE4B2214626
:104B90000143F7D010BD70B50546044606204443D6
:104BA000264690B02036F0B207AA0E2103F028FE68
:104BB000002806D10622FF2107A8FBF757FA002894
:104BC00002D0002010B070BD0E22FF2107A8FBF715
:104BD00047FA1C22FF216846FBF742FA1022FF2108
:104BE0000BA8FBF73DFAF0B207AA0E2103F013FE63
:104BF000064620462130C0B26A461C2103F00BFE57
:104C0000064320462230C0B26A461C2103F003FE50
:104C1000064320462330C0B26A46102103F0FBFD54
:104C2000064320462430C0B26A46102103F0F3FD4B
:104C300006432534E0B26A46042103F0ECFD014648
:104C400031430C467035E8B20BAA102103F0E3FDA6
:104C50002043B7E770B50A4D064600240E20604396
:104C6000401906223146FBF7EFF9002801D0204613
:104C700070BD641C2406240EF0D0012070BD00001D
:104C8000188CFF1F00229300CB5A834202D1900060
:104C900040187047521CD2B2042AF4D30020704747
:104CA0007FB50C46002809D1002C07D020206A4689
:104CB0000E2103F0A5FD050003D007E0022004B09B
:104CC00070BD062269462046FBF7B2F92846F6E792
:104CD00000218A00835A491CDB43835212189378BF
:104CE000C9B2DB4393700429F3D3704770B5144EF7
:104CF00000240E20604382192046062148432030BC
:104D00001546C0B20E2103F07BFD00280BD02846CB
:104D10000622FF21FBF7A4F9A81D0622FF21FBF7BD
:104D20009FF90020A881641C2406240EE1D00548C8
:104D3000807B002801D000F0C9F800F00BF970BDAD
:104D4000188CFF1FE06CFF1F10B5034940880978DD
:104D5000FDF75CFC10BD0000E06CFF1F10B50F49B3
:104D60004A79002A01D0012300E000238A78002A32
:104D700000D004221A438B79002B00D00823134360
:104D8000CA79002A00D01022097A1A43002900D0DB
:104D900020211143FDF752F910BD0000E06CFF1F08
:104DA00070B50E4604460621484388B015462030AB
:104DB000C0B204AA0E2103F023FD002843D106222D
:104DC000FF2104A8FBF752F900283CD17034E0B26F
:104DD0006A46102103F014FD002831D16846FFF720
:104DE00077FF002E06D069463046FFF74BFF0028BC
:104DF0000DD015E0102200216846FBF737F9002896
:104E00001ED1102200216846FBF72AF910E0002D80
:104E100019D069460020FFF735FF002813D006801F
:104E20008178A9420CD08570002D01D1002101802C
:104E30006846FFF74DFFE0B26A46102103F0EBFC35
:104E4000012008B070BD0020FBE7000070B51C4CCD
:104E50000646606A1B4D86B0002809D120461430F2
:104E600000900223184A29460120FDF761FC20E04A
:104E700004A80222002100900292019103ABA28AB1
:104E80003046616AFDF758FA00280CD16846017B6C
:104E9000407B000208180204120C04D0606A4189A9
:104EA0003046FCF799FB0023A28A2946606AFDF789
:104EB00071FC60620028DBD1012006B070BD0000EB
:104EC000E06CFF1FFFFF00008CA6021170B5FBF71E
:104ED0002FFA0A4E00240E20604380190546062250
:104EE000FF21FBF7C3F8002802D12946FBF726FA79
:104EF000641C2406240EEED070BD0000188CFF1F29
:104F000070B50B46044611461846FFF7B7FC00285B
:104F10001DD00F4DA40028598088FFF797FF002867
:104F200015D02E46203EF069002807D04368002B9C
:104F300004D0285900228088012198472859002848
:104F400003D0FBF7A5F8002028510120707470BD34
:104F5000006DFF1F08B5FFF7CDFD012801D9022024
:104F600000E00A20694608706A4601210520FDF725
:104F7000BFFD08BD002909D0012807D14979890959
:104F80008901C02902D0402901D0022070470320A6
:104F90007047FFB500200E4608701AE01C5C401CEC
:104FA000C5B2002C17D02819904214D85F5D6D1C33
:104FB000EDB2384600F0A3FE002806D0641EE0B231
:104FC000307000998F4202D1581904B0F0BD4019D9
:104FD000C0B29042E2D30020F7E7000010B5044CC5
:104FE0002068002803D0FBF783F80020206010BD64
:104FF000F474FF1F70B50E4D84002859002815D099
:10500000006A002801D0FBF773F82859406A00288D
:1050100001D0FBF76DF82859806A002801D0FBF712
:1050200067F82859FBF764F80020285170BD00008C
:105030000075FF1F10B5044C6068002803D0FBF713
:1050400057F80020606010BDF874FF1F010004488D
:1050500005D104498978002901D00248801D704794
:10506000D091FF1F9674FF1F0148807870470000A1
:105070009674FF1F0148406870470000C091FF1FF1
:105080000148806870470000C091FF1F0148C06858
:1050900000687047C091FF1F10B50748C0680168DD
:1050A000491C016005480078FF2803D001218903CD
:1050B000FBF70CF810BD0000C091FF1F9674FF1F96
:1050C00002484068002800D001207047F074FF1F9C
:1050D000FFB581B00F460D9E0A9D039803F09CF822
:1050E000040042D0019800283FD1207910210843C4
:1050F00020710499490702D50221084301E0FD21EE
:10510000084020710B99284608430C990843304306
:10511000207902D00421084301E0FB2108402071DE
:10512000002E06D03069102220623146A018FAF70E
:105130007FFF002D01D0002F05D00B98002814D040
:10514000012F08D011E0606A002801D0FAF7D0FFE3
:105150001C21284606E0606A002801D0FAF7C8FF43
:105160001C210B98FAF7CAFF60620398224C870053
:10517000E05900283ED0002D0FD0006A002806D14B
:105180001C20FAF7AFFFE1590028086205D0E0596A
:105190001C22006A2946FAF74BFF0C98002810D011
:1051A000E059406A002806D11620FAF79BFFE15922
:1051B0000028486205D0E0591622406A0C99FAF797
:1051C00037FF002E10D0E059806A002806D1142045
:1051D000FAF788FFE1590028886205D0E0591422C7
:1051E000806A3146FAF724FF0B9B049A03990198D1
:1051F00003F06CFD05B0F0BD0075FF1FF3B581B085
:10520000019803F009F8050029D00E20FAF7B2FF43
:10521000040024D02620FCF793FD060000D12E7850
:10522000D0202070002767700B20A0700622E91D97
:10523000E01CFAF7FDFE019860810298C107012089
:10524000002901D0207300E027730299890701D556
:10525000607300E06773F0B22146FAF76DFFFEBDA0
:1052600010B581881F4B0124CA1A994237D011DC2E
:105270001D4BCA1A994219D007DC1C4A8A1810D053
:10528000022A1ED0032A29D11BE0472A27D0482A08
:1052900024D124E01300FAF7DDFE06212222222287
:1052A00022218068007800F0EBFC08E080688278BA
:1052B00041781202891889B2007800F041FD044655
:1052C0000DE0094A921E914201D1012200E0002224
:1052D00080680178104600F01BFD00E000242046A5
:1052E00010BD0000532000000A200000FADFFFFF7D
:1052F00070B51A4D1A4A0146002628781268194CD2
:1053000001290CD0002A09D017490978490705D589
:105310000221FAF7D5FE6680FFF760FE70BD618856
:10532000002903D0114B1B78002B05D0002AF5D0A3
:105330001078FCF7DBFC70BD3C2902D33C3961805E
:1053400070BD0221FAF7BCFE62887D20C000424396
:1053500002212878FAF7AEFE668070BD2575FF1F22
:10536000F474FF1F0875FF1F9774FF1F9974FF1FC8
:1053700008B5418900910389C2888188C07800F00E
:10538000CBFB08BDF0B504468088A12189004843C5
:10539000304987B009684018FF30FF300230A179EA
:1053A0004167002C54D02C4D6868002823D0067823
:1053B0002A480068002804D04168002901D0002054
:1053C00088472146E07908310591FFF7D3FDE07168
:1053D0000246277D638A218AE089019002A88AC05B
:1053E000A0880090E0783146059B03F0E5FCE0786A
:1053F000002802D00DE01A48D9E7E079E2896B462F
:10540000059907C3A379A1880122304602F0B2FEB4
:10541000E0706868002811D0FFF70CFE287800289B
:105420000CD06978FFF742F8002807D0E078A2880E
:105430000346297803F014FD00202870A088172166
:10544000FBF7AAFCA088FEF79BF9A088FEF7C0F93D
:1054500007B0F0BD3409FF1FF874FF1F2875FF1F48
:105460009674FF1F70B504460026808802F0D4FEB3
:10547000002803D00678A08802F056FF144D287843
:10548000002808D0864206D16978FFF70FF8002877
:1054900009D000202870002E05D0A379A288A0781A
:1054A000314603F0DDFCA088094A810008325158DA
:1054B000002901D0FFF79EFDA0881721FBF76CFCA7
:1054C000A088FEF75DF9A088FEF782F970BD0000A4
:1054D000F874FF1F70B58288294D0124531B294998
:1054E000AA4242D019DC284D531BAA4218D00BDC2B
:1054F000264BD21826D0254B1033D2181ED0032AA3
:1055000017D0042A39D10BE0012B09D0022B07D088
:10551000032B21D0042B30D11AE0433B072B2CD88E
:10552000496800292AD00968002927D088470446FD
:1055300024E08068007800F0ADF81FE0806800F09B
:1055400001F9F4E78068411C007800F0D9F8EEE733
:1055500083681B78002B11D0896800290ED00B6856
:1055600008E0014610469847E1E709490968002923
:1055700004D04B68002BF4D100E00024204670BD1D
:105580000E2000002475FF1F08200000F7EFFFFF2A
:105590000475FF1F10B5094CA17800290CD00146F5
:1055A0000622A01DFAF744FDA11DA078FFF722F9FD
:1055B000A01DFAF7C9FE10BD002010BD9674FF1F94
:1055C0001CB52F49037801240A68912B02D0A22B25
:1055D0002ED13EE04178052909D00E2904D00F29AB
:1055E00008D03E2924D115E0FFF774FF10E0FFF743
:1055F00039FF3AE001468088224B0124C31801D0CC
:10560000062B15D1002A30D05268002A2DD09047A1
:1056100004462AE081780124032917D004DC0129FB
:1056200011D0022904D105E015291ED016291CD05D
:1056300000241AE014498968002916D04968002915
:1056400013D0884711E0FFF79DFE0EE0FFF790FEB4
:105650000BE00E490978042909D0002A05D05268C8
:10566000002A02D001460A48904720461CBD00216E
:105670006A46118001794088FEF702F8F5E70000DC
:105680000475FF1FF3DFFFFF2475FF1F9774FF1FD3
:10569000FFFF0000F8B5164F0646BD1F2878FF280B
:1056A00014D00A20FAF766FD04000FD0D020207035
:1056B00066700820A070A878E07006223946201D88
:1056C000FAF7B6FC21462878FAF736FDE878012883
:1056D0000DD108480068002803D08068002800D059
:1056E00080470648044A04210078FAF719FDF8BDFE
:1056F0009C74FF1F2875FF1F60EA00002575FF1FBF
:1057000070B500240546002805D1002903D00622E3
:105710000B48FAF78DFC0A4810380178012907D1A7
:105720000124002D06D000210170284600F0D0F998
:10573000204670BD02210170FAF70CFEF8E7000068
:10574000D091FF1F10B50024002813D002780B4918
:10575000002A03D14288CA8202790A760A78022A8C
:1057600008D102780124002A06D000220A700078AD
:1057700000F0AEF9204610BD0322F7E7C091FF1FED
:1057800001494860704700002475FF1FF8B57A4C46
:1057900087780146002507266079A2793B00FAF751
:1057A00059FC0805361A37375F9ACD3648780028F5
:1057B0005CD1714806223C30C91CFAF739FC012043
:1057C000A0716D4B0146423362786079FCF7E4FCCE
:1057D00000284BD1A8E00F464978002946D1F97836
:1057E000002906D0654BA2780021FCF7D5FC787023
:1057F0000AE0022A0BD00121FAF76EFC002803D13F
:1058000001216079FAF762FC787800282ED1F8BD82
:10581000497800292AD1032F09D0A289002A0CD067
:10582000217800290AD00121FAF744FC06E0052A74
:1058300001D0022012E0062010E02570A079062891
:1058400002D0042802D008E0052007E001202070E3
:1058500001466079FAF73AFC66E00320A07163E044
:1058600048780F46002803D0312832D0A6715BE07B
:1058700041480622391D3630FAF7DAFB7889E08193
:10588000B8892082F88960820520A071A28A002A46
:1058900003D002216079FAF70DFCB889E083F8891A
:1058A0002084388A6084E07801280AD11F20FCF720
:1058B00047FA7D21C9004843024604216079FAF77E
:1058C000F9FB7A89F8780423391DFBF737FB25703B
:1058D0002AE02570C1E728480E460622002136300E
:1058E000FAF7BEFBE5832584658404216079FAF725
:1058F000E7FB08216079FAF7E3FBB079082808D0C4
:105900000320A0712078002805D06079FCF7EEF91B
:1059100007E00420F5E70120207001466079FAF7DE
:10592000D5FB0020C043E081606A002800D16EE70B
:1059300001680029FBD0A0798847F8BD0D460821F1
:10594000FAF7BEFB687829460028F6D1E888E0839C
:10595000288920844889608404216079FAF7BCFB97
:105960000028EAD1A06A0028E7D00368628C218C65
:10597000E08B9847F8BD00008C6DFF1F3C8CFF1F2B
:1059800010B50178224C912906D0A22926D0D02921
:1059900001D1FFF7FBFE10BD41780E29FBD18188B4
:1059A0001C4A91420FD1816803200856A17905292C
:1059B000F1D17F28EFD0616A0029ECD04968002935
:1059C000E9D0884710BD144A9142FBD180688378A2
:1059D0004278017811A0FEF751FD10BD41791329DD
:1059E000FBD10089012802D12079022808D00520A6
:1059F000FCF7A6F9024608216079FAF75BFB10BDB7
:105A000008216079FAF75CFBFCF774F810BD000020
:105A10008C6DFF1F05140000222000005B484349E5
:105A200020444C455D25642025642025640A00003F
:105A30007CB5154C0546E08BE18A88420AD3218B60
:105A4000884207D8208C618B884203D1608CA18B5F
:105A5000884217D00520FCF773F90646E18A6846AC
:105A60000180218B4180618B8180A18BC180627913
:105A70006946E089FDF710FE2571324608216079FC
:105A8000FAF718FB7CBD00008C6DFF1FF8B50746C8
:105A90000E46084602F0C0FB040018D02620FCF792
:105AA0004FF9050000D125780620FAF763FB0400C2
:105AB0000DD006220021FAF7D3FAD02020706770AB
:105AC0000E20A070A680E8B22146FAF735FBF8BD9B
:105AD00070B50F4D06462878FF2818D00E20FAF72B
