:020000041102E7
:1000000003B40148019001BDADAE000003B4014846
:10001000019001BD456B010003B40148019001BD91
:100020000189000003B40148019001BDC53F0000F3
:1000300003B40148019001BDE94C010003B401483B
:10004000019001BDC95C010003B40148019001BDEC
:10005000CD4C010003B40148019001BD618900004D
:1000600003B40148019001BD154D010003B40148DE
:10007000019001BD1D4B010003B40148019001BD79
:10008000090E000003B40148019001BDF54E0100C6
:1000900003B40148019001BD434D010003B4014880
:1000A000019001BD4551010003B40148019001BD1B
:1000B0002526000003B40148019001BD8B520100C8
:1000C00003B40148019001BDB352010003B40148DB
:1000D000019001BD0D52010003B40148019001BD22
:1000E000C94A010003B40148019001BD3D4B010024
:1000F00003B40148019001BD014C010003B4014863
:10010000019001BDF94C010003B40148019001BD0B
:10011000691F000003B40148019001BD5D17000094
:1001200003B40148019001BD5952010003B40148D4
:10013000019001BD5125000003B40148019001BDAB
:10014000594F010003B40148019001BD8D12000018
:1001500003B40148019001BD4D1F000003B40148E4
:10016000019001BD5522000003B40148019001BD7A
:10017000DD52010003B40148019001BD1D4D010095
:1001800003B40148019001BD810E000003B4014891
:10019000019001BD4128FF1F03B40148019001BD3A
:1001A000294BFF1F03B40148019001BDF544FF1F17
:1001B00003B40148019001BD3554000003B4014867
:1001C000019001BD7148FF1F03B40148019001BDBA
:1001D000D148FF1F03B40148019001BD854CFF1FAA
:1001E00003B40148019001BD017F000003B4014840
:1001F000019001BDE117000003B40148019001BD69
:100200007918000003B40148019001BDD9490100EB
:1002100003B40148019001BDE928000003B401487E
:10022000019001BD5549010003B40148019001BD91
:100230009950FF1F03B40148019001BD1933FF1FFE
:1002400003B40148019001BD1549FF1F03B40148E3
:10025000019001BDD54FFF1F03B40148019001BDBE
:100260002D50FF1F03B40148019001BD7D4FFF1FBA
:1002700003B40148019001BD152AFF1F03B40148D2
:10028000019001BDD552FF1F03B40148019001BD8B
:10029000D93AFF1F03B40148019001BD352AFF1F61
:1002A00003B40148019001BDAD4EFF1F03B40148E6
:1002B000019001BD814DFF1F03B40148019001BDB4
:1002C000B14DFF1F03B40148019001BD154EFF1F42
:1002D00003B40148019001BD454EFF1F03B401481E
:1002E000019001BD7D4EFF1F03B40148019001BD87
:1002F0000533FF1F03B40148019001BD192AFF1FF8
:1003000003B40148019001BDC926000003B40148AF
:10031000019001BD350E000003B40148019001BDFC
:100320009B33FF1F03B40148019001BDA545FF1F8A
:1003300003B40148019001BD3519000003B4014820
:10034000019001BDBD18000003B40148019001BD3A
:10035000C521000003B40148019001BD291C000023
:1003600003B40148019001BD851F000003B401489A
:10037000019001BDA946010003B40148019001BDEF
:100380001147010003B40148019001BD3D44FF1F26
:1003900003B40148019001BDB152FF1F03B40148ED
:1003A000019001BDBF27FF1F03B40148019001BDAB
:1003B0009927FF1F03B40148019001BDB13E000021
:1003C00003B40148019001BD4533FF1F03B4014848
:1003D000019001BDC90E000003B40148019001BDA8
:1003E000055E000003B40148019001BDE54800002E
:1003F00003B40148019001BD2951010003B4014833
:10040000019001BDD91B000003B40148019001BD5A
:100410005928FF1F03B40148019001BD8128FF1F27
:1004200003B40148019001BD51470100F8B5D3491B
:10043000D14A002004464A608300401CD450FF2863
:10044000FADD4868CE4A014680318A606E22C26277
:10045000CC4A1278002A01D07F22C2620A220265A9
:10046000C94A13788363C94BC36115781023022DE1
:1004700008D01578012D05D01578032D02D01578F8
:10048000042D00D10362C24D45611925AD0185617E
:100490003725CD6036272826C763082546640564BE
:1004A0004F6032270F603B27CF634127CF64392746
:1004B0004031E0C132274F6002274F6142270831A7
:1004C000E0C11E274F60CE608D6005264E6142263A
:1004D0000E615A2660390E614D613C258D61AF2554
:1004E000ED000560AB4D05631578022D09D0157838
:1004F000012D08D01578032D07D01578042D06D0CE
:1005000007E0152504E0436003E00E2500E00C251C
:100510004560FF252D358560C560FF25F5350561F2
:100520009D4D85647D25ED009C4ECD67C66445627A
:100530009B4D85627325C565062545658565C51D89
:100540000826F93502272E6047664B27FF0087668D
:100550000927C766934F07674667BE108467C6675B
:10056000914F8E4E3E601678022E09D01678012EDD
:100570000AD01678032E0BD01278042A0CD00EE085
:100580001A22CA61212205E01422CA61182201E060
:100590001322CB610A6202E00E220B62CA617E4A1C
:1005A0008A627D22D2008A6764224A620522CA6278
:1005B00002220A63C8228C634A63382169607B493E
:1005C00029647B49A9614B21C900E9617349FF3066
:1005D000643929627D2109016962EC661E212C675C
:1005E000A9667049A965E965891029666964696722
:1005F0007049A9677049714A8130E9670260826079
:100600004160FF21F531C16001616E486C495A4A71
:1006100081606D49803A11616A496C4A80318A6211
:100620006B4ACA626B4A82616B4AC2626B4A02635E
:100630006B4A64484038C2636A4ACA616A49816346
:1006400060496A48403188616A49694888605D4804
:10065000694A80384260694A4263694A0A62694964
:10066000816058496848C039C860FFF7C9FC01205B
:10067000FFF7CCFCF8BDF3B50746644881B0C1690B
:10068000634A1140FF310931C161002613E00025A2
:100690002C461120FFF7C0FC5C48406A8007800FA1
:1006A000610088402843641CE4B20546102CF0D356
:1006B00001C7761CF6B202988642E8D3FEBD10B59B
:1006C0002E4C607800280AD104215248FFF7D3FF4E
:1006D000504804211030FFF7CEFF0120607010BD9C
:1006E000F0B500248BB00D460646102902D9012032
:1006F0000BB0F0BDFFF7E3FF464900200A5C401C49
:100700001419C0B21028F9D3002C03D0102D03D92E
:100710000B20EDE70E20EBE73F483E4C002300683E
:1007200002A91034E25CC75C7A40CA545B1CDBB29D
:10073000102BF7D306AA3748FFF774FC102D00D909
:1007400010252A4606A93046FFF772FCFFF776FC13
:10075000216840182060FFF771FC616840186060F4
:10076000FFF76CFCA1684018A060FFF767FCE16828
:100770004018E0600020BBE70004FF1F5C70FF1F13
:100780000893FF1F2469FF1F4A0AFF1F3A07000052
:1007900080C3C9019A02000050C30000280A00006B
:1007A0006A180000204E0000F009FF1F00400011F1
:1007B00068100000DC05000040420F001027000018
:1007C0009158FF1F0001FF1FD52DFF1FB15CFF1FB8
:1007D000895FFF1F3F2AFF1FD12BFF1F592AFF1FD1
:1007E000ED3AFF1FF565FF1F1964FF1F1928FF1F52
:1007F0008D31FF1F0002FF1F0955FF1FE556FF1F28
:100800002956FF1FC554FF1FBD31FF1F40F0004098
:1008100000FEFEFF8C8DFF1F8070FF1F0A780270A4
:100820008A7842704A88120A82700979C17004205D
:1008300070470A7802700988090A417002207047DF
:1008400010B500220EE093005B189C7804705C8861
:10085000521C240A44701C7984709B88D2B21B0AF3
:10086000C370001D0B789342EDD81806800D10BDA3
:10087000F8B50D4606464978012031700024761CF3
:1008800016E06978012917D01221614349198A7845
:1008900032704A88871C120A7270B61C10223046C9
:1008A000091DFFF7C5FB1037B8B21036641CE4B25F
:1008B0002978A142E5D8F8BDA10049198A7832709B
:1008C0004A88871C120A7270B61C02223046091D23
:1008D000FFF7AEFBBF1CB8B2B61CE7E710B50C467D
:1008E000097801702188090A41706288211D801CE5
:1008F000FFF79EFB6088801C80B210BD10B50C46CF
:10090000097801702188090A4170A1788170618895
:10091000090AC170A288A11D001DFFF789FBA088EC
:10092000001D80B210BD10B50C460A88891CFFF767
:100930007FFB208810BD10B50B788A780270534376
:10094000DCB22246401C091DFFF772FB601C10BD83
:1009500010B50B788A7802705343DCB22246401CF3
:10096000091DFFF765FB601C10BD10B50C460A8819
:10097000891CFFF75DFB208810BD10B50C460A8866
:10098000891CFFF755FB208810BD7FB5154604462E
:10099000022901D0102903D1022B04D0102B02D040
:1009A000002004B070BD994202D10A46294607E0F2
:1009B0001029694607D000F00DF810226946284634
:1009C000FFF742FBEDE7104600F004F810226946FD
:1009D0002046F5E770B50C4605000CD0002C0AD077
:1009E000102206492046FFF723FB287820736878F9
:1009F0006073012070BD002070BD0000949C021146
:100A000010B50B460122024903F002FB10BD0000A5
:100A10001D08021170B5064608880C46172812D327
:100A20000B4603220949304603F0F2FA050008D1CB
:100A3000074920880988884200D20146304600F0E4
:100A4000ABF9284670BD022070BD000033080211CA
:100A50008E70FF1F10B500231922194603F0D8FA33
:100A600010BD000010B50A78002A05D00B460722F9
:100A7000024903F0CDFA10BD022010BD4108021159
:100A800010B54A78012A01D0022A08D10A78002A32
:100A900005D00B460522034903F0BAFA10BD022027
:100AA00010BD00007108021101494000085A70474A
:100AB0008C70FF1F10B50B461D22024903F0A8FAE7
:100AC00010BD0000DD08021110B50B461B220249C3
:100AD00003F09EFA10BD0000DD0802110149172045
:100AE000088070478C70FF1F0098022B01D00420F3
:100AF00070471178527812028918018000207047DF
:100B00000098012B01D0042070471178017000205B
:100B1000704770B5049C1E461546062B1BD369789A
:100B20002878090240182080E978A878090240183E
:100B3000608002222271291D601DFFF779FAB61F1D
:100B4000B2B22281F02A06D82046A91D0A30FFF74A
:100B50006FFA002070BD042070BD0098042B01D0F6
:100B600004207047537811781B02C91801809178CE
:100B7000D27812028918418000207047F8B5848924
:100B80000D460646002C26D0B2681778380620D5C8
:100B90000C2C20D90C3CA4B21019009001217088B3
:100BA000234603F0CDF9002811D0022028707806E2
:100BB000C00F6870B806800EA870641E2004000C78
:100BC000A88001D0B068401CA8600020F8BD0120BA
:100BD000ECE70020EAE70120F8BD10B502981146C5
:100BE000042B14D34C780A78240212190280CC7892
:100BF0008A782402121942801B1F9AB28280F22A3C
:100C000005D8801D091DFFF713FA002010BD042030
:100C100010BD0098042B01D0042070475378117840
:100C20001B02C91801809178D2781202891841807C
:100C30000020704710B502981146062B03D0142BE4
:100C400003D0042010BD022200E0102202714B7874
:100C50000A781B02D2180280CB788A781B02D2183D
:100C600042800279401D091DFFF7E2F9002010BD06
:100C700030B5039CD80718D1D805010E022914D32A
:100C80000B488088814210D8F6200155002008E0EA
:100C9000557813782D025B194500401C6353C0B290
:100CA000921C8842F4D3002030BD042030BD0000E7
:100CB0008670FF1F0098022B01D004207047117826
:100CC00052781202891801800020704770B51446CE
:100CD00002460498022B18D3667825783602AD199F
:100CE00005800546E0352A766976002A0BD0E82192
:100CF0009B1E9AB242808A4207D8A11C001DFFF7B2
:100D000097F9002070BDF421F2E7042070BD0000C7
:100D100010B50B461722024903F07AF910BD000006
:100D2000FD08021110B50B460D22024903F070F9BF
:100D300010BD00002709021110B50A78002A05D05D
:100D40000B461122024903F063F910BD022010BDC9
:100D50003709021110B50A78002A05D00B4609227E
:100D6000024903F055F910BD022010BD51090211CE
:100D700010B50B460F22024903F04AF910BD0000DE
:100D80006B09021110B50B460B22024903F040F922
:100D900010BD00007B090211044A1288914203D859
:100DA000024A4000921D1152704700008670FF1FDA
:100DB00010B500231322194603F02AF910BD0000D4
:100DC00010B5094C0749204601F0ECF905492046C9
:100DD000083101F0E7F90348044A0821103001F016
:100DE00061FB10BD586CFF1FFFFF0000FC9B021150
:100DF000034610B50020104A002B08D0012B08D064
:100E00001C32022B08D0032B09D0022010BD12780F
:100E100000E092780A7010BD52890A8010BD064B1E
:100E2000DB1C1C780C715B784B71538D0B80528FDF
:100E30004A8001228A7110BD4C6CFF1F10B5044618
:100E40000B48844212D0012907D002290ED101217A
:100E5000204607F067F8002808D10649204601F02F
:100E6000A1F904492046083101F09CF910BD0000A9
:100E7000FEFF0000586CFF1F10B505495F200A787F
:100E80005F2A03D90870034807F008F8002010BD56
:100E90004C6CFF1F8D4002110149886070470000B3
:100EA0004C6CFF1F70B50C460146012080020A1AE7
:100EB00000251C481300FFF7CDF80F32090B0D1069
:100EC00012181A1C2A1F212325272A00408A23E0F2
:100ED000807800E0C078207021E00079FBE71022E4
:100EE00011492046FFF7A4F819E04079F3E7C07AEA
:100EF000F1E78069206012E0407AECE7807AEAE767
:100F0000007BE8E7807BE6E703F0A8FCE3E727291E
:100F100004D2084600F0AAFE208000E00225284600
:100F200070BD00008469FF1F0488FF1F10B50249CF
:100F3000087003F08FFD10BD8469FF1FF0B593B0FA
:100F4000002416461D46109410AA119400F0BCF916
:100F5000074603F083FC002F6BD120206A460E2148
:100F600007F008F8002802D168468089C4B2082D2D
:100F700011D000201290082D0FD021271C22002113
:100F80006846FFF76DF86A461C21384606F0F2FF06
:100F9000002804D00FE00120ECE72227EEE76846A6
:100FA000807EC01F092806D8E107C90F6A4630466F
:100FB000129B00F0CDFD1422002107A8FFF750F886
:100FC000242007AA102106F0D5FF002811D11022F5
:100FD000FF2107A8FFF74AF800280AD125200BAA0D
:100FE000042106F0C7FFE107C90F07AA304600F049
:100FF000F3FF70200CAA102106F0BCFF002811D1CD
:101000000CA803F019FD0027B9000CA808180188E6
:10101000002903D08278304601F0A0FA7F1CFFB28D
:10102000042FF1D3A00704D508480178304601F019
:1010300083FA042D07D10548401C805D022802D1A7
:10104000304603F03FFD002013B0F0BD8469FF1F60
:1010500070B50024054600290BD108491046FFF75A
:101060000BF80846294600F09DFE040003D001213C
:10107000284600F0D7FF204670BD000040420F0018
:1010800070B50C46080428D515480078FEF7FAFF1D
:1010900005001ED00178B02908D0B1290ED0D02982
:1010A00014D100F01FF8002810D112E001791E2998
:1010B0000CD16888002100F05FF907E00179002970
:1010C00004D10289C188688800F042FA2846FEF7F8
:1010D000DFFF0120C003604070BD002070BD000034
:1010E0008469FF1F7FB582786E4C921F0025E169ED
:1010F0001300FEF7AFFF0AAFD4D4681B06D4D45F49
:1011000077D40546002908D00E68002E05D06B7BE9
:101110002A7B6989E81CB047C1E06989A06900F0B1
:1011200041FE0028F8D0688901218DE0054640780D
:1011300000282DD1A879C0072AD0A8885949800055
:1011400020310858002823D10E2200216846FEF7DE
:1011500087FF6969002903D006226846103107E03D
:10116000A88806F03BFE00283BD0C11D0622684639
:10117000FEF75EFF69468889A9794907C90F0843C8
:10118000694688812946684603F02CFA002809D070
:10119000E069002825D04368002B22D06A78A8880F
:1011A00001214EE0A8882A46694603F05DFD002033
:1011B00004B070BD002972D04B68002B6FD042780C
:1011C000808802213DE00446C0780022211D00F005
:1011D0007BF8002863D1224625200C32042106F03A
:1011E000D4FE5CE00546607A0028A88801D0A17A88
:1011F0002AE02C49491C095C002924D006F0EEFDA8
:101200000646A87AC0070DD0002E48D0B079002835
:1012100008D0A989890505D46A46F11D00F054F863
:10122000002814D02A46B179A888083203F08CFA35
:10123000E069002833D04368002B30D00022A88812
:10124000114698472BE0052100F0ECFE27E0A88826
:101250000321F9E700F086FD002820D1E07B01287A
:1012600006D0104E00241036305D01280AD00DE063
:1012700003F038FB0B48E573012200211030FEF724
:10128000EFFE07E0204603F03AFB3555641C2406C8
:10129000240EE9D0502006F06BFE03F0DBFB0120AA
:1012A00086E700008469FF1F10B5064CE0612178D5
:1012B000FF2905D0262000F07FFE207801F0ECF811
:1012C00010BD00008469FF1FF0B5012485B01646EB
:1012D0000F46002807D0012805D0012502280FD08D
:1012E000032844D11EE0084603F068FB04003ED109
:1012F000002E3CD0062239463046FEF799FE36E0F5
:101300001C4F002400910E206043C0190622801D4E
:101310000099FEF799FE002823D1641C2406240EB0
:10132000F1D01CE000242046062148432330C0B2FF
:101330006A46102106F01EFE00280CD11022FF2163
:101340006846FEF793FE002805D13946684600F04E
:10135000E7FD002805D0641C2406240EE3D02C46AB
:1013600005E0002E03D03146204603F04DFB204619
:1013700005B0F0BD1488FF1F70B50E46174915253E
:10138000884212D1002432460221204603F07EFA20
:10139000002800D00025641C2406240EF3D0002E63
:1013A0001AD00F4806F07AFD16E006F017FD04008B
:1013B00011D0A0790022E11DFFF786FF002804D19B
:1013C0003246022103F062FA0025002E04D02046A6
:1013D00003F06EFB00E01425284670BDFFFF0000FF
:1013E000B14A0211FEB5154601229202821A00246A
:1013F0000127544E1300FEF72DFE110A151A21285D
:101400002F373E434B757D848C9A9A569A0001295A
:101410006FD1297802297ED84A480122401CFEF764
:101420001FFE8CE0022976D12888708287E001298E
:1014300071D1287801286ED8B07080E001296AD176
:101440002878042867D8F07079E0012963D12878DA
:10145000012860D8307172E010295CD11022294631
:101460003948FEF7E5FD6AE0012954D128780128C2
:1014700051D8707163E001294DD12878F0725EE097
:10148000042948D131492868884244D8B06156E0DF
:10149000002940D100F066FC002801D0F7734EE02F
:1014A00003F020FA18E0072935D10622691C6846A6
:1014B000FEF7F4FD287800226946FFF705FF0500D6
:1014C0000ED100F04FFC002803D01E4810300770EA
:1014D00035E0284603F013FA502006F049FD23E0DA
:1014E00002242CE0012916D12878012813D8707223
:1014F00025E010E001290ED1287809280BD8B07218
:101500001DE0012907D12878C11F092903D83073AC
:1015100015E0012901D0182411E0B07B2978B173BE
:1015200000280CD101290AD103F094FA07E02728FA
:10153000D6D20229D4D1298800F03EFD04462046A7
:10154000FEBD00008469FF1F0488FF1F3F420F009B
:10155000F8B50F4613491525164688420DD10024CB
:1015600032463946204603F0CFFA002800D0002545
:10157000641C2406240EF3D012E006F02FFC002891
:101580000DD08379C11D00221846FFF79DFE00286B
:1015900006D13246394603F0B7FA002500E014259B
:1015A0002846F8BDFFFF000070B50C460146032039
:1015B00000020A1A002534481300FEF74BFD1D10E7
:1015C00012151C1F2326282C303234383A3C3E405A
:1015D000424446484A4E50525A5456585A00C079CE
:1015E00011E01022294902E028491022103120463A
:1015F000FEF71EFD45E0C06A206042E02249062257
:101600003C31F4E7007820703BE0808936E01E49E9
:1016100042784231EBE71D4982781F39E7E7007ACB
:10162000F1E7407AEFE7184906223031DFE7807AA8
:10163000E9E7C07AE7E7C08920E0808A1EE0C07849
:101640001CE0C08A1AE0008B18E0408B16E0808B0B
:1016500014E00D4906223631C9E7C08B0EE0008C3C
:101660000CE0408C0AE08079CDE7008A06E0408AF1
:1016700004E0272904D2084600F0F8FA208000E0B0
:101680000225284670BD0000306AFF1F5788FF1FE3
:1016900070B50E4C00256071A571691EE18100F0E6
:1016A00039FC0420E071102200210948FEF7D8FC23
:1016B0000748102200211030FEF7D2FCE5622572A7
:1016C00065720720A072E57270BD0000306AFF1FCE
:1016D0005788FF1FFEB53B4D0C4608040CD56879B2
:1016E000FEF7D0FC050004D003F0FEFF2846FEF70D
:1016F000CFFC0120C00360E0600403D5012080031B
:101700004840FEBD2F48E1070126807900292AD0F4
:101710002978002920D0052821D0297A684601702F
:10172000697A4170274906223031801CFEF780FC1F
:10173000A97A68460172E97A41726946687900F0CF
:10174000B1FA002808D00720A871696A002903D0DF
:101750000968002900D0884720467040FEBD03205C
:1017600069460870E4E7A1070DD5052809D1E88985
:10177000FEF79AFCAA8A002A03D002216879FEF7B4
:1017800099FC022019E0600704D5002003F0ECFF6B
:10179000042012E0200712D52879012802D002285F
:1017A0000AD107E00096AB8B6A8B298BE88A00F0A0
:1017B0000BF801E000F05AF908206040FEBD00205F
:1017C000FEBD0000306AFF1FF8B5134C069EA579D8
:1017D000052D01D01420F8BD104F851FBD4219D230
:1017E000062917D3BD1DA94214D2FF27F537BA42E7
:1017F00010D20A2B0ED3AB420CD2E082218362833B
:10180000A383304603F0B0FF04216079FEF758FC53
:101810000020F8BD1820F8BD306AFF1F7A0C0000C8
:10182000F7B50D4680490098164642187F4F0024B0
:101830007879B9791300FEF70DFC190E141BE92015
:1018400040455970777E888FE996A2A9B4BFC8E950
:10185000E9E9E9D3E900102D76D110223146744828
:101860006FE0102D70D1724810223146103068E0C0
:10187000042D69D13068F862CEE0012D64D13B7847
:1018800032783A70002B0AD0002A07D1022903D0FF
:10189000062901D0042901D100F0BEF9BCE0002ADC
:1018A0000AD0012905D0032903D0052901D0042934
:1018B00002D10121FEF70AFCAEE0022D44D13088AE
:1018C000B881A9E01F2D3FD858481F22002142307F
:1018D000FEF7C6FB55482A4631464230FEF7A8FBC4
:1018E000524B7D7042332A46012112E01F2D7CD8D5
:1018F0004F481F2200211F38FEF7B2FB4C482A46F2
:1019000031461F38FEF794FB494B2A461F3BBD70FA
:101910000021787900F0D6FB83E0012D65D1307885
:10192000042862D8387277E0012D5ED13078032820
:101930005BD8787270E0062D57D13C4806223146BC
:101940003030FEF775FB67E04FE0012D4DD1307868
:1019500007284AD8B8725FE0012D46D130780328B5
:1019600043D8F87258E0022D3FD13288BA82002A5B
:1019700052D0052950D10221FEF79CFB4CE0012DED
:1019800033D13078012830D8F87045E03088022D06
:101990002BD1062829D31921C901884225D8F882DC
:1019A0003AE03088022D20D106281ED31921C90122
:1019B00088421AD838832FE03088022D15D1FF21B4
:1019C000F531884211D2788326E03088022D0CD17F
:1019D0000A280AD31921C901884206D8B8831BE016
:1019E0003178012D01D1012901D0182414E00821FA
:1019F000FEF772FB002801D016240DE0002003F052
:101A0000B3FE04217879FEF75BFB05E000982728F8
:101A100001D2022D02D002242046FEBD318800F002
:101A2000CBFA0446F8E70000FFFCFFFF306AFF1F17
:101A30005788FF1F1CB50B4CA179002901D011203C
:101A40001CBD002800D06062064907482C310346BF
:101A500001910090103B0022E179607900F0BCF820
:101A600000201CBD306AFF1F6788FF1F10B50648A5
:101A70008179052901D0122010BDC1891322407936
:101A800000F0E0FA10BD0000306AFF1FF8B5044610
:101A90002C480F460078022805D0012803D00828DA
:101AA00003D1002F01D01220F8BD002C07D02088D0
:101AB000254D81006958002903D01120F8BD02206E
:101AC000F8BD06F08BF9060036D02C20FEF70AFB95
:101AD000218889006850002830D02C220021FEF790
:101AE000BFFA20881C228100695848802088211D67
:101AF00080002858001DFEF79BFA218802208900EB
:101B000069580870228890002B5870791B1D002896
:101B100016D000200D49097802F0BEF90546002FC5
:101B200003D03946304606F063FF002D02D02088EE
:101B300003F014F92846F8BD1420F8BD1320F8BDB1
:101B40000120E7E79370FF1FFC70FF1F2171FF1F4B
:101B5000FFB5204D81B028781E461746022823D0B5
:101B6000012821D0002F22D0019806F037F9040077
:101B70001FD0606A002801D0FEF7BAFA1C2138464F
:101B8000FEF7BCFA6062010015D02878000714D572
:101B9000002E12D0887E00900B4612330A8A0198DC
:101BA00007F0F0F9014609E0122005B0F0BD02206F
:101BB000FBE71420F9E71320F7E70021207904223E
:101BC00010432071029A002A02D002221043207191
:101BD0000846EAE79370FF1FF8B51D460224069FEA
:101BE000079E0B00FEF736FA0D150815150815159A
:101BF000151515151508150000F0B8F8040008D1E2
:101C000032463946284600F08FF900F0EFF802F02E
:101C100033F92046F8BD000070B5104C216800294A
:101C200004D00978814203D0032070BD122070BD1A
:101C30000B4D02212878FEF743FA0A480026468019
:101C400004212878FEF73CFA074806802168032023
:101C500048700020FEF758FA70BD0000F070FF1FBA
:101C60002171FF1F0471FF1F9670FF1F272803D2E9
:101C700002494000085A7047014870479E70FF1F94
:101C8000FFFF000010B5064C607006F0D7F86078D2
:101C9000FEF740FA0521607801F078FC10BD0000E5
:101CA0002071FF1F70B5284E054630680C4600288D
:101CB00001D0112070BD254801780520014216D0C1
:101CC00023488068002805D00078002802D0C80783
:101CD00006D101E0102070BD00F044F8002808D0C3
:101CE0002078032805D0022803D0002801D0122034
:101CF00070BD0C20FEF7F6F93060002820D005708A
:101D0000002141700A222146801CFEF791F903F060
:101D10000FFE040002D003F015F812E00D48007821
:101D200003280ED11D20FFF7A1FF0B4900280880D2
:101D300007D00B48094A04210078FEF7F1F900E0CA
:101D40001324204670BD0000F070FF1F9370FF1F2A
:101D50000471FF1F9470FF1F9670FF1F60EA000060
:101D60002171FF1F10B506F087F810BD70B50C4645
:101D700005461C2200210948FEF772F90848057043
:101D80004470FEF7D3F90549002803D000200870FD
:101D9000122070BD01220A7070BD0000BC8DFF1FB3
:101DA0009270FF1F7FB504460D46084606F016F8F0
:101DB000002805D00C48844204D9022004B070BD2C
:101DC0001220FBE7102200216846FEF749F9684619
:101DD0000470210A4170210C8170210EC1702946C6
:101DE00001F0BCFFEAE700003F420F0070B50F4C66
:101DF0000025A068002802D0FEF77AF9A560E06807
:101E0000002802D0FEF774F9E56009480521007842
:101E1000084206D00548103003F066FB02F0B8FB1C
:101E200070BD002003F060FB002070BD0471FF1F37
:101E30009370FF1FFEB5344D0C46080419D5687821
:101E4000FEF720F90121C9034C40064600280ED0B8
:101E500003F06AFA002807D12878FF2804D0314619
:101E6000FEF76AF9002802D03046FEF711F9204645
:101E7000FEBDE007012700280AD0A868002804D08A
:101E80004168002901D00020884720467840FEBDE7
:101E9000A00709D56868002804D04168002901D04E
:101EA0000120884702202AE060072AD5174E308893
:101EB00000281FD0401E0004000C30801ED102F00C
:101EC000B3FF002809D0124807706868002804D0C2
:101ED0004168002901D00120884702F07FFF694650
:101EE00001F0BAFE684603F009FA1D20FFF7BEFEB6
:101EF000308003E004216878FEF7E2F804206040B7
:101F0000FEBD0020FEBD00002071FF1F9670FF1F68
:101F10009570FF1F01490870704700002071FF1F76
:101F200010B501F083FF10BD70B50E4C0B46261D99
:101F300007C60546102200211846FEF797F801282B
:101F400003D11021A06806F0BFFB10220021284613
:101F5000FEF78CF8012803D11021606806F0B4FB6D
:101F600070BD0000BC8DFF1F38B505460F480C46FC
:101F70000078400701D4122038BD284605F02EFF16
:101F8000002811D00A48A9004058002801D0817DBE
:101F900000E02146684607F04BF8064B6A460221EE
:101FA000284606F0ABFF38BD142038BD9370FF1FE4
:101FB000FC70FF1F3D950211272807D2044A914269
:101FC00004D0044A4000115200207047022070479C
:101FD000FFFF00009E70FF1F70B50E4610491546AA
:101FE0000978022916D0012914D0002D14D005F04B
:101FF000F5FE040012D0002E03D020790221084300
:10200000207110222946A018FEF712F828692062D4
:10201000002070BD122070BD022070BD142070BD64
:102020009370FF1F38B50C46054605F0D7FE002813
:1020300006D0684604706946284606F04DFF38BD54
:10204000142038BDF8B50D4617461D4906461B4AF3
:102050001224C868954208D100282DD00268002AB1
:102060002AD029463046904723E0144A521C954214
:1020700013D1002807D00268002A04D02946304630
:102080009047040005D03946304602F0C3F80400FA
:1020900012D10B48067047700EE0284605F09EFEF0
:1020A000002809D00078B04205D139462846FEF70D
:1020B00049F8044600E003242046F8BDFEFF000076
:1020C000F470FF1FF8B50E46014619481546007812
:1020D00005221F46104028D0304326D01548012E37
:1020E0001BD0C468002C20D01F2D18D8002D01D083
:1020F000002F14D001701F220021601CFDF7B0FFDB
:102100002A463946601CFDF793FF28462570002EAD
:1021100007D0611CFEF71CF8F8BD8468E2E70220D6
:10212000F8BD611CFEF71AF8F8BD1220F8BD0000DA
:102130009370FF1F0471FF1F014610B50020C907EF
:1021400004D0034A0421034800F0ACF910BD00009C
:10215000989B0211B46AFF1F70B50F4D0F4CA87009
:1021600029461831204600F01DF8002128460B466C
:102170001030CA0084521218491C09065360090E17
:10218000F7D0012004F0B4FAA87800F071FB0448FD
:1021900005F09AFE70BD0000946AFF1FFFFF00006B
:1021A000295F021170B50A4C0025A04209D1002018
:1021B00082008C525218401CC0B295700228F7D38E
:1021C00070BD03F080FE0028FAD00480857070BDD9
:1021D000FFFF0000F8B50E46074606990024079851
:1021E000002902D00B242046F8BD022B01D00D247B
:1021F000F9E711785278120289188DB22946814385
:1022000001D08024EFE73846F16800F03DF9A8429C
:10221000E9D02A463846F16800F0CCF90400E2D152
:1022200071892A46384600F06BF9DCE770B50C4638
:10223000080412D50A488078FDF724FF050008D06D
:102240002878B02802D1284603F05AFF2846FDF727
:102250001FFF0120C003604070BD002070BD000062
:10226000946AFF1FFFB587B0087A0025109E1C46B0
:102270000F46C0060DD5099803F01EFE030006D0D8
:102280000A22394607989847050035D101E00E2506
:1022900032E0387802281DD1786829220178407808
:1022A00012020002081880B2811A90427ED009DC26
:1022B0007249401A23D0012821D0022851D0032886
:1022C00008D125E0012972D0022971D003296DD0EF
:1022D00004296ED0099803F017FE0028D7D00568AE
:1022E000002DD4D0129911980191009033462246C6
:1022F00039460798A847054628460BB0F0BD119807
:10230000002873D1F868017831800278416897E03D
:10231000119800286AD101203080F86800210078E7
:1023200020707889401C80B200F072F900280FD02C
:10233000318802788918891C3180817A61704189DD
:10234000090AA17002784168E01CFDF771FED3E72D
:1023500030880422001D30800021601CFDF780FEC3
:10236000CAE71198002872D1F86804A90088009083
:1023700004203080009820700098000A6070009857
:1023800000F046F9070028D0F86805906846028AF0
:1023900003AB3B49384600F093F900280FD13B7856
:1023A000022138487A68FEF7F0FA03E027E031E0CE
:1023B0001DE049E0002802D1401E69468881059849
:1023C000007802280CD1059802224168201DFDF7F3
:1023D0002FFE3088801C308002E06946009888819A
:1023E00068468089A070000AE07085E72FE01198A8
:1023F00000282CD1F968079800F046F804E01198FD
:10240000002824D1F8680088022131802070000A59
:10241000607071E7F868FDF7A7FE1199C0B28142BC
:1024200010D8814201D1002206E0129A8918814217
:1024300002D31199401AC2B23280F9681198091872
:10244000204682E7072557E71198002801D00B2581
:1024500052E70721F8683180017821704178617076
:102460008178A1704188090AE1700179217181792F
:102470006171C088000AA0713EE7000000280000DA
:10248000FFFF00000A9D021110B503F01CFD00289B
:1024900000D0807810BD000001490870704700002E
:1024A000946AFF1F7CB51446050019D06846019553
:1024B000018000F0E3F903001DD1002C1BD06D89D1
:1024C000002D0DD00C20FDF70DFE00280AD00023B2
:1024D00003608580094A84609168002904D006E081
:1024E000022308E0132306E0906004E011460A6826
:1024F000002AFBD1086018467CBD0000946AFF1FCB
:10250000F8B50C4C0746207815460E46FF280FD02C
:102510000A20FDF72FFE01000AD0B120087000202C
:10252000487008714F80CE800D812078FDF704FE41
:10253000F8BD0000946AFF1F70B50C4605460649B9
:10254000FFF7A2FF800704D52146284600F0EAF9EC
:1025500070BD012070BD0000AC6AFF1F1CB56B464A
:102560001A71120A5A7100220092022301AA00F085
:1025700001F81CBDFFB583B008461F4601A90C9E9B
:1025800000F046F8050012D06846808803F0BCFCD5
:1025900000280AD04468002C07D000963B46294604
:1025A000059A0398A04707B0F0BD0E20FBE7012075
:1025B000F9E7000070B514460E46054603F083FCAB
:1025C000002806D13146054803F07DFC002803D0E1
:1025D00005808470002070BD112070BDFFFF0000D9
:1025E00010B50178B0290BD14178002908D10179C3
:1025F000122906D01B2903D14088012100F050FF89
:1026000010BDFF210231095C0129F5D010BD000089
:10261000F0B58C4610494B6819E09F687C89A04250
:1026200014D39E883119814210D900220CE0110187
:102630007D186989814205D16046002800D0048058
:102640002846F0BD521C92B29642F0D81B68002B6F
:10265000E3D10020F0BD00002C71FF1FFFB517482B
:1026600081B00A9F446824E000251EE0A06829018B
:10267000461870890199884215D30299884212D868
:102680000498002807D031787068049B039AFEF7FD
:102690007CF9002807D0002F02D0A068408938803C
:1026A000304605B0F0BD6D1CADB2A088A842DDD8A3
:1026B0002468002CD8D10020F3E700002C71FF1F04
:1026C000FEB5174600256A469580044640891D4A96
:1026D0001E46904208D001AA0092401C237880B286
:1026E0006268FFF7BBFF054623780221164862683F
:1026F000FEF74BF9002807D12378022113486268BE
:10270000FEF743F9002801D060890EE0237802210A
:102710000F486268FEF739F900280DD0002D03D06C
:1027200068468088B84203D0384604F0F5F804E0E3
:102730006889401E80B200E06089002E00D03080A1
:102740002846FEBDFFFF0000089D02110A9D0211F0
:102750000E9D0211FFB581B00F461E461446694614
:10276000019803F0F7F9050018D1002C06D00122DA
:102770001021019805F00CFB05000FD13946019896
:10278000FEF798F9050009D1009CFF2E06D02146DE
:102790001E22A31C034804F0CBF8E670284605B0BF
:1027A000F0BD00001D68021110B505490870042134
:1027B00000F0ECFE00F006F8FEF790F910BD000006
:1027C0003C71FF1F70B50E4C00200C4B651CFF22A6
:1027D0008100C91800280ED00D80401CCA70C0B2FC
:1027E0008A700228F4D3074803F058FB064805F026
:1027F0006BFB002070BD0C80EFE700003471FF1F01
:10280000FEFF0000496802119D670211F8B50D46F0
:1028100014460646694603F09DF917280CD0002C93
:1028200006D001221021304605F0B2FA002803D16B
:1028300029463046FEF748F9F8BD000070B50C4651
:10284000080411D509480078FDF71CFC050007D0E5
:102850000178A02901D103F0C5FA2846FDF718FC3C
:102860000120C003604070BD002070BD3C71FF1F9F
:1028700001490870704700002C71FF1F70B50546B4
:10288000008800281DD06868022103784268224829
:10289000FEF77BF8002808D16868022103784268B7
:1028A0001E48FEF772F800280BD01D4C60880028E7
:1028B00005D0012229881204101A814203D901206F
:1028C00070BD022070BD0C20FDF70CFC060001D08D
:1028D00000200AE0132070BD02016B6861880A3293
:1028E0009952491C401C618080B229888142F3D8EA
:1028F0000020306008222946301DFDF799FB6068F2
:10290000002802D1666004E0084601680029FBD176
:102910000660002070BD0000089D02110A9D021192
:102920002C71FF1F70B5BEB00D4606460024022371
:102930000E4A0F4901200094FFF790FE002812D0A4
:1029400040896A4610800420508001201071547123
:10295000FF209071D0712B46002269463046FFF768
:10296000F9FE3EB070BD0120FBE70000269D02117C
:10297000FFFF00000649496806E08A6852898242E2
:1029800001D18888704709680029F6D10020704776
:102990002C71FF1F10B51422114201D0012202E058
:1029A0004A0604D50022102105F0F2F910BDC8072F
:1029B00001D0002010BD022010BD10B514468A06BB
:1029C00004D50122102105F0E3F910BD882211423F
:1029D0000ED008220A40102105F0DAF900280BD0A9
:1029E000E034617E0029F0D0217E0129EDD103E0A1
:1029F000880701D4032010BD002010BD014610B58A
:102A00000020C90704D0034A07210348FFF74AFD05
:102A100010BD0000849B0211BC69FF1F70B50D46FC
:102A2000164600241D490300FDF714FB0805123467
:102A3000341934222934152D23D8162200211848A0
:102A4000FDF70EFB2A4631461548FDF7F1FA22E064
:102A5000022D16D111491088103908801BE0082D6D
:102A60000FD10E48082231460838FDF789FB12E0E5
:102A7000012D06D1CA6909493078283107E0012DB6
:102A800001D0182407E0CA6B04493078483104F0BB
:102A900010F800E00224204670BD0000BC69FF1F52
:102AA0002288FF1F10B501220E490020FFF782FD8A
:102AB0000C49012218390020FFF77CFD0949012249
:102AC00008310020FFF776FD064901221039002069
:102AD000FFF770FD0349012208390020FFF76AFD66
:102AE00010BD0000AA6DFF1F38B50F4C6946E0719C
:102AF0000120087001466A460C48FEF773FC002569
:102B0000ED432846FFF77AFF2846FFF715FBFDF750
:102B10003DFBFEF755F90020FEF7BEF90121E079F3
:102B2000FDF7D4FA38BD0000546DFF1F0D040000FE
:102B3000FEB5654E0C46080409D5F079FDF7A2FAFA
:102B4000002801D0FDF7A4FA0120C003AAE0E007A5
:102B50000127002809D05C481C30FEF76BFF5B485A
:102B6000FEF7A2FB20467840FEBD5748610700787B
:102B700008D5052804D1B078002801D004F050FC15
:102B800004208FE0A1070AD5052806D1FEF774F9C5
:102B90004F4A0221F079FDF78DFA022082E02007EA
:102BA00021D57178082025464540002917D0707935
:102BB000B17988420FD00B21401CFDF75DFA71718D
:102BC0000B20414343480B1805D09A785978187860
:102BD000DB1C04F0D5FB7079B179884201D128461D
:102BE000FEBD2046FEBD3C4DE00624D5684607707C
:102BF00007710020FDF758FFC0B2B9280CD09E28FD
:102C00000AD04D2808D0687A012801D000206872C7
:102C10003078052802D00CE06F72F9E7312001AA64
:102C200001210001FEF7FCFD6A4601212B48FEF759
:102C3000F7FD102036E0A00609D568460770274842
:102C40006A4601211438FEF7EBFD20202AE0E0055A
:102C500037D50020FDF728FFC0B2B92824D09E2820
:102C600022D04D2820D000206872FFF71BFF1C489F
:102C7000C82201210078FDF71DFA1A4828602F723A
:102C8000A87A002812D00020287101210846FDF7FB
:102C900083FA01210020FDF77FFA002000F08EFE6C
:102CA000FF2001306040FEBD6F72DEE72F71002112
:102CB0000120FDF771FA00210846FDF76DFA0120A9
:102CC000ECE70020FEBD0000546DFF1F089C0211C0
:102CD000983A0000CA8CFF1F1C70FF1F19030000E8
:102CE0002A70FF1F110E0000FFB583B00020009076
:102CF00048680E46017840781D4600020818524A7E
:102D00005149514B0C9F84B22B391B3B901E002F15
:102D100004D0844225D00B2007B0F0BD944207D0E8
:102D20008C4205D09C4203D047491A398C4216D1B7
:102D3000708904F00BFB00280ED0059900950191D5
:102D4000424A417952690079156801232246A84711
:102D50000090002874D075E00020288070E0844244
:102D60004CD13B480088874202D30720009069E09D
:102D7000364C384A1021E079FDF79CF9FF21364A9C
:102D80000131E079FDF796F90020FDF78DFEC0B224
:102D9000B92806D09E2804D04D2802D0002F07D095
:102DA0000AE0002F08D12D4901204872002002E0DE
:102DB0002A4900204872608125480D990088C01B6F
:102DC000884200DD084682B22A80F068C119059861
:102DD000FDF72EF928886189401880B21C4960816E
:102DE000098888422CD11D48407A002828D1FF212B
:102DF00064220131E079FDF75DF921E01248C01E3F
:102E0000844204D1042028800246F16815E0144968
:102E100002208C420ED00C49491C8C4206D1012064
:102E20002880F06801780598017009E00C49491E76
:102E30008C4205D12880F16802220598FDF7F8F848
:102E400004F0EEFA009867E74D2A0000546DFF1F6A
:102E5000786DFF1F70170000B80B00001C70FF1F7B
:102E600008290000014A516190617047546DFF1FAD
:102E7000014A116110727047546DFF1FF8B5074683
:102E80000D480E4601781C461546052912D1417899
:102E9000002909D041798079814205D131463846EF
:102EA00004F06EFA002805D023462A4631463846FB
:102EB00004F0F6F8F8BD0000546DFF1FFFB583B0B5
:102EC0000C9B002415460F468446002B02D00B2095
:102ED00007B0F0BD7868017840780002081886B223
:102EE0003E48864203D03D481B38864212D178893D
:102EF00004F02CFA00286AD006A901950091384AFE
:102F0000417952690079146800233246A0470400D1
:102F10005DD05EE03248314A41696846521E008BFE
:102F200096420AD1012841D12878002801D00128F1
:102F300043D1002849D0012047E02A4A96422FD1A8
:102F4000012100930191C3B22A4639466046FFF73A
:102F500041F904003DD169782878090240182049D8
:102F600082B208697B89097A15E047889F420FD1B0
:102F700000282CD006A901950091012A0ED0032328
:102F8000174A41795269007915683246A8471EE010
:102F9000491EC9B208300029E7D118E00223EFE743
:102FA0000E4A521C964212D1012801D00D2410E085
:102FB0002878002803D0012801D0802409E0FA688D
:102FC00010702878002806D003204968884704F04C
:102FD00027FA20467CE70220F7E700004D2A000090
:102FE000546DFF1F02290000F8B5474C45492046A3
:102FF000FFF7D8F8434920461839FFF7D3F841497D
:1030000020460831FFF7CEF83E4920461039FFF739
:10301000C9F83C4920460839FFF7C4F839483B4A0B
:1030200025211230FFF73EFA009036481230C16970
:103030000220FDF7DDFE3348354C23380778277131
:103040004678FF306671363041892180408B608040
:103050002C480125A57121380378237342782D4926
:1030600062734889208100206081A5732775667589
:10307000498F2182274940314E896682A075237786
:103080006277498D218360832646A07720362149C7
:1030900035717571C0314A8922844A8B6284194A1C
:1030A000B0711F3A1378337352787273498F218548
:1030B00060852146B57330310320FDF799FE114834
:1030C0001D3801783177407870771248803841890F
:1030D0002187408B60870B49B5771B3920460A78DA
:1030E00040300271497841710A4980314A89028031
:1030F000498B4180857121460920FFF7B9FE009870
:10310000F8BD0000AA6DFF1FFFFF0000889C0211A0
:10311000448DFF1FFC6EFF1F70B50C4C04981619F0
:103120000B4A0124002E0FD000251B2E03D10229AB
:1031300003D0032903D01D8004E0117800E09178CA
:1031400001701C80002070BD5178F9E7CED5FFFFDB
:10315000846DFF1FF0B5604E8DB0707006211F208A
:10316000FEF72AFF002468460471048407210172D7
:10317000012505730A21818414210185FF2184859D
:10318000F531018604AF049402225448791C059459
:10319000FDF708F80422F91C1003FDF703F8304688
:1031A0000622791C1030FCF743FF01AA01214C488C
:1031B000FEF736FB4A4808AA0221401CFEF730FB06
:1031C000C32002AA01218000FEF72AFB44483246B0
:1031D0002B321321801CFEF723FB324661200C3278
:1031E0001F21C000FEF71CFB312003AA01210001B2
:1031F000FEF716FB3A4809AA02210C30FEF710FB35
:1032000037480AAA02210D30FEF70AFB34480BAA00
:1032100002210E30FEF704FBC5200CAA022180001B
:10322000FEF7FEFAC72168460170032747706A4619
:1032300002210120FFF7F2FB32463E321521002029
:10324000FFF7ECFB6846059405710472077305747B
:10325000812005AA0421C000FEF7C4F8012101AABB
:103260008802FEF7BFF81E4802AA0121FD30FEF7D2
:10327000B9F81B4803AA0121FE30FEF7B3F804AAEF
:1032800001211848FEF7AEF8A02421460620FEF7DB
:1032900093FE21460720FEF78FFE21460820FEF709
:1032A0008BFE21460920FEF787FEFFF79DFE314683
:1032B0005431301DFFF7D6FD0BA103C907910690CD
:1032C00006A9082004F0BCFE00F032FA0121707853
:1032D000FCF7FCFE0DB0F0BDF06CFF1F04400000D9
:1032E00005030000060400004C454E5A455A505153
:1032F000F8B50C46080424D51D4D6878FCF7C2FECD
:1033000006001BD03078B02815D0B22813D1A87889
:10331000401CC1B2A970F278B3781002184340BAC9
:10332000C82803D9012901D1FEF7A0FBA878C82835
:1033300001D9C820A8703046FCF7AAFE0120C003BE
:1033400012E0E0070AD00125684605706A46294662
:103350000848FEF765FA20466840F8BD200705D505
:103360000020FCF725FF08206040F8BD0020F8BDD4
:10337000F06CFF1F0503000030B50F4D00205519FC
:10338000039C0E4A13D01B2D04D1022903D003291C
:1033900008D00A2030BD012B02D12178117030BD38
:1033A0000D2030BD012BFBD12178917030BD012B58
:1033B000F6D12178517030BDCED5FFFF846DFF1F4F
:1033C00010B500210E20FCF7F9FE01210E20FCF7BC
:1033D000FBFE00211120FCF7F1FE01211120FCF77A
:1033E000F3FE0F4A00211120FCF7F4FE00210C200F
:1033F000FCF7E4FE03210C20FCF7E6FE002104208C
:10340000FCF7DCFE01210420FCF7DEFE0121002098
:10341000FCF7D4FE01210020FCF7BEFE10BD000029
:103420001D27FF1F0B7803700B8802221B0A4370B5
:103430000B88801C012B02D0022B07D011E08A7868
:1034400002704988090A417004220AE08A780270F1
:103450004A88120A42700A7982708988090AC17002
:10346000062210467047000008B5044B009313462F
:103470000A46012104F0DCFB08BD000025340211DE
:103480001CB50323019200930A46024B122104F05B
:10349000FFFB1CBD5175021110B5FCF7A1FE10BD5C
:1034A00013B504480078012803D101AA6946FCF746
:1034B0009DFE1CBD4871FF1F70B50F490F4A087073
:1034C00000210B468C00491CC9B213530429F9D3BF
:1034D0000A4C00211034FF260A460A256A431519B2
:1034E0006B80491CA354C9B26E720329F4D3FCF754
:1034F00083FE04F071FB70BD4971FF1FD88DFF1F63
:10350000082A01D0012070474B780A781B02D21894
:103510000280CB788A781B02D21842804B790A79D4
:103520001B02D21882808A79C97909025118C18098
:103530000020704770B50C46080411D50948007882
:10354000FCF7A0FD050007D00178902901D104F017
:10355000A5FA2846FCF79CFD0120C003604070BD21
:10356000002070BD4971FF1F70B500280AD1064CBC
:1035700000252580A581A580A068002802D0FCF741
:1035800041FEA56070BD0000548EFF1F072907D0C3
:10359000052905D0042903D0062901D0022070474F
:1035A000044A8B009A181346403B1986203A9074BF
:1035B00000207047D88DFF1F70B506001BD10E4C40
:1035C0000025214640310D744D740D76606D002844
:1035D00002D0FCF717FE65655C20002546433419D0
:1035E000E80020184068002801D0FCF70BFE6D1C95
:1035F000EDB20A2DF4D370BD648EFF1F70B50A883A
:103600000C460546072A07D0052A05D0042A03D010
:10361000062A01D0022070BD012104F083FC00289D
:1036200004D02146284603F0A9FF70BD142070BDC8
:1036300010B5001D80B2FCF7EBFD002803D003217C
:10364000C943FCF7EBFD10BD7CB500210846FCF733
:10365000B5FD01210020FCF7B7FD00210120FCF79A
:10366000ADFD00211320FCF7A9FD01210846FCF760
:10367000ABFD01211320FCF7A7FD0E216846017068
:1036800000214170052141800C220271012242710A
:10369000C1806820FCF7C8FD094D7624EC60094E16
:1036A00003E03046FCF7C6FDEC600E20FCF7C8FDD9
:1036B0000028F6D002216846FCF7C8FD7CBD00005A
:1036C000002000401027000070B50E20FCF7B8FD68
:1036D000164D2C46143C002816D01120FCF7B0FDE6
:1036E000002813D0207800280DD0002020702871E9
:1036F0000A2201216079FCF7DDFCFF22F53210215E
:103700006079FCF7D7FC70BD012000E00220217831
:103710008142F8D0207028710A2201216079FCF7DB
:10372000C9FC10216079FCF7CBFC70BD4C70FF1F09
:1037300010B5FFF745FE002211466820FCF78CFD0E
:103740006820FCF78FFD0C20FCF77AFD002805D0DF
:10375000054801214171817200210171322100204F
:1037600000F07CF910BD00001C70FF1FF8B5724D11
:103770000C4608040CD56879FCF784FC050004D0DD
:10378000FCF776FD2846FCF783FC0120C003CFE060
:10379000E00701260027002878D0FCF76FFD012103
:1037A000654E0843143628613079002868780ED0B9
:1037B000002817D11421E868FCF766FD002811D015
:1037C000012068702869A8603079A8700AE0002894
:1037D00008D01421A868FCF757FD002802D02869FA
:1037E000E8606F70707900282ED0306800282BD0E8
:1037F000FF212D31FCF748FD002825D070790228E3
:103800001BD14E48817A002917D1E978002914D1BB
:103810000121E9702979012902D0022902D00FE0A3
:1038200087710DE0007A01280AD10821002003F0F9
:103830003DFE0021084603F039FEE878012800D15A
:10384000EF70376077712F71A878002810D0307929
:10385000002813D11421A868FCF716FD002807D012
:103860007079401C707128693060A8782871AF7039
:103870003079002802D17079002804D01422012167
:103880006879FCF717FC012052E0FFE7A00702D59A
:1038900002204840F8BD200708D528220821687971
:1038A000FCF708FCFFF710FF082041E0E0060FD509
:1038B000234A00210E20FCF78DFC214A0021112013
:1038C000FCF788FC08216879FCF7FAFB10202FE050
:1038D000A0062FD5FF22F53220216879FCF720FCC5
:1038E0000420FCF7ADFC002810D0FCF7D3FCFCF75B
:1038F000D7FC01211320FCF761FC00211320FCF709
:103900004BFC0E480F49C672642008700C20FCF76F
:1039100097FC00280BD10948C82287710A48012169
:103920000078FCF7C7FB20216879FCF7C9FB202051
:103930006040F8BD0020F8BD3870FF1F1C70FF1FED
:103940001D27FF1F4C6CFF1F5770FF1F70B5164CD3
:10395000174D60711548807901280AD1FF22F53290
:1039600001212878FCF7A6FB124A00210E20FCF763
:1039700031FC0C20FCF764FC00280ED00E49BB2063
:103980000870C82204212878FCF794FB7D22D2001D
:1039900020216079FCF78EFB70BD002205490C20C8
:1039A000FCF718FC70BD00003870FF1F1C70FF1F73
:1039B0005770FF1F1D27FF1F4D6CFF1F10B50128FB
:1039C00008D00020FCF772FC0120FCF76FFC00F02F
:1039D00033F810BD00F030F80022012311461046E4
:1039E000FCF76AFC15210020FCF76CFC0123002287
:1039F00011461846FCF760FC16210120FCF762FC1A
:103A00000022012311460220FCF756FC132102205C
:103A1000FCF758FC212210210020FCF759FC202241
:103A200010210120FCF754FCFF2211460220FCF774
:103A30004FFCFCF753FC10BD10B501211520FCF71D
:103A4000BDFB00211520FCF7A7FB01211620FCF788
:103A5000B5FB00211620FCF79FFB10BDF8B51E4DED
:103A60000E4669790127002933D13446002819D040
:103A7000F8BD0E20FCF7E4FB002816D0B4420CD0B1
:103A80000A243220FCF730FC641EE4B20E20FCF75E
:103A9000D7FB002815D0002CF3D100203446A871A4
:103AA000FFF7D2FD002CE4D1F8BD0A20FCF71CFC86
:103AB000641E2406240EDCD10020A871FFF7C4FD8B
:103AC000F8BD0A20FCF710FC0E20FCF7B9FB00281B
:103AD000FAD0AF71F8BD00001C70FF1F10B50121B6
:103AE0000846FCF76BFB01210846FCF755FB01215A
:103AF0001320FCF763FB01211320FCF74DFB10BDE5
:103B0000F8B5404E0C4608040CD5F078FCF7BAFA2C
:103B1000050004D0FCF7ACFB2846FCF7B9FA0120FD
:103B2000C0036BE0E0070027374D002831D0A879AB
:103B3000012802D0002828D029E0287A00280BD0BC
:103B400000F0DAFA7D22D2000121F078FCF7B2FA17
:103B50002879012813D01AE0A87A0028F2D1B07889
:103B6000002805D001210846FCF716FBB770E9E7ED
:103B700000210120FCF710FB0120B070E2E728686B
:103B8000401E286003D1AF7101E0FFF75DFD012009
:103B900034E0A00703D500F041F802202EE06007D2
:103BA0002ED5FCF7A7FB7770FF2030700121132082
:103BB000FCF704FB01211320FCF7EEFA002201239D
:103BC00011460220FCF778FB13210220FCF77AFB58
:103BD000FF2211460220FCF77BFBFCF77FFB287AD3
:103BE000012806D101210020FCF7D6FA0020FFF7BA
:103BF000E5FE01210846FCF7CFFA04206040F8BD3D
:103C00000020F8BD5470FF1F1C70FF1F10B5024943
:103C1000C870FFF763FF10BD5470FF1F0D4810B54B
:103C2000427801460978002A05D0491CC9B20170C2
:103C3000FF2907D008E0491E0906090E017003D1CB
:103C4000012100E0002141700178FF220220FCF7F1
:103C50003FFB10BD5470FF1F38B50C46050014D053
:103C6000002C12D00321684604F02EFD69468878A6
:103C700040218006800E0843694688702246284607
:103C800005F096FA050002D006E0022038BD0322B6
:103C90006946E01CFCF7CCF9284638BDF7B58EB074
:103CA0000E9815460E4600282DD0002D2BD0301D25
:103CB000C0B20190FCF716FA040039D001F09AF86E
:103CC00007463246201D0E99FCF7E8F9F8B2089035
:103CD000E0703804000E0B90A0703802000E0A90BD
:103CE00060703F0E277001F07FF80146102202A895
:103CF000FCF7D4F906AB214602A8019A05F0AEF90B
:103D0000060003D010E0022011B0F0BD0898287022
:103D10000B9868700A98A870EF70082206A9281DF1
:103D2000FCF7BCF901F06CF82046FCF7E1F900E083
:103D300013263046E8E7000010B5064C2070FCF76B
:103D4000DFFA06212078FFF721FC034804F0BCF8D5
:103D500010BD00005871FF1F1D870211F8B50E46F7
:103D60001F4C0146B50060590027002807D02422C7
:103D7000125C022A05D0032A03D0042A01D01220A3
:103D8000F8BDC288B24201D00220F8BD10220C302A
:103D9000FCF74EF960591021353004F095FC61595B
:103DA00030460B460A46253335320C3105F022FAEF
:103DB000605902210278002A427807D0032A0BD1E9
:103DC0004170304604F04AFC074605E0042A02D060
:103DD000032A03D000E041703846F8BD0521EFE723
:103DE0006471FF1F70B50C46080419D50D480078A2
:103DF000FCF748F905000FD004F0B0FD002808D109
:103E000009480078FF2804D02946FCF795F90028D6
:103E100002D02846FCF73CF90120C003604070BD89
:103E2000002070BD5871FF1F2071FF1F7CB50C462C
:103E300005001DD0002C1BD00322E11C6846FCF7B6
:103E4000F7F86946887840218006800E0843694665
:103E5000887001AA284605F0ABF9002807D1032293
:103E6000214601A8FCF7F0F8012803D001207CBD11
:103E700002207CBD00207CBD10B5054800784007BD
:103E800001D5044800E0002004F01CFE002010BD15
:103E90009370FF1F4C71FF1FFFB581B00020274CAE
:103EA0009500009060591E461746002802D0112048
:103EB00005B0F0BD002E0BD02120FDF7D7FE317EDE
:103EC000884205D82220FDF7D1FE317E884201D2FA
:103ED0000220EDE77820FCF705F9605100282AD090
:103EE00078220021FCF7BCF8615900204870625923
:103EF000019911706259029991706259FF21D17034
:103F00006159CF8061598E606159086261592031D1
:103F100008710198002803D0384604F0B5FB0090E2
:103F20006159012048700098002802D0384604F0FA
:103F300067FB0098BCE71320BAE700006471FF1F1D
:103F4000FFB58DB00F98169C0E46002815D0002C9A
:103F500013D00D9803F042FF050011D0617820784E
:103F600009024018A178E278090412068918471856
:103F7000286AB84206D3401C04D0022011B0F0BD1C
:103F80001420FBE7002E04D02879800701D40120FB
:103F9000F4E70822002106A8FCF762F81098001D3B
:103FA000C0B20190FCF79EF8060017D0301D109AA1
:103FB0000F99FCF773F8042221463046FCF76EF89F
:103FC0001022A91802A8FCF769F806AB314602A82E
:103FD000019A05F043F8050002D013E01320CDE765
:103FE000082206A908A8FCF759F80822211D08A8EC
:103FF000FCF72AF8012801D0012503E039460D9885
:1040000001F0F0FC3046FCF773F82846B6E70000F4
:10401000FFB583B00F4603981B4940001646085A67
:10402000FFF706FB04002AD00125601C2670002F34
:1040300003D00699B847401C85B2300610D5102130
:10404000039803F06FFF002801D0192613E06219CE
:10405000E9B22046FFF722FE06000CD10C35ADB2C6
:104060000421684601800194058169460398FFF7A1
:10407000C5FA060004D02046FCF7C4F800E0132679
:10408000304607B0F0BD00008C70FF1F70B50446CD
:104090000079BEB0C0072AD060881649FEF7F4F94F
:1040A000144EC00701250C3E00280CD030461C30B1
:1040B000418D684601804580317801716088002219
:1040C0006946FEF7A3FB0B4960880831FEF7DCF96F
:1040D000C0070CD0074800225030418D684601804F
:1040E00045807178017160886946FEF78FFB3EB0AC
:1040F00070BD0000586CFF1F10B5024803F0CEFEE3
:1041000010BD00008D40021170B51046049A0025C4
:10411000002A01D00B2070BD4A68124E14785278E4
:104120001202A21892B2104CB24208D122785F213A
:104130005F2A00D921700121198021780DE00B4EF2
:10414000B24205D102221A80C968FBF771FF07E06D
:104150000449491C8A4202D16178017000E00A25B5
:10416000284670BD192A00004C6CFF1F082900006A
:10417000FEB54C68154626786478089A24023419EE
:104180001A4EA4B2F4420ED1194C4E89678F012405
:10419000BE421CD10092DBB201942A46FEF71AF807
:1041A000040003D000E00A242046FEBD6978287888
:1041B000090240180E4980B21C3989680029F3D0E1
:1041C000002802D001208847EEE70220FBE7084FD5
:1041D00040377F8FBE4207D10092DBB201942A465E
:1041E000FDF7F8FF0446DFE70124DDE7FED6FFFF19
:1041F000686CFF1F01680A0508D11031044A01608C
:1042000052781203914201D3891A0160704700006D
:104210005069FF1F10B50C4603F0F4FD002804D0D0
:1042200040882146FBF78EFF10BD122010BD000014
:10423000F0B5504E504C9BB071682160717821717F
:10424000FF21A1711021002561712F460922FF2154
:10425000E01DFBF705FF4E22002106A8FBF700FF3B
:1042600032E0206829034018102202A900F040F92A
:1042700002982168884218D16846007B21798842DB
:1042800013D16846407B617988420ED168467178C7
:10429000807B491E884225DAA84201D1022700E02E
:1042A000032706A94855A0710CE00298401C19D1BB
:1042B0006846007BFF2815D16846407BFF2811D156
:1042C00006A948556D1CEDB22179A942C9D8042F21
:1042D00008D0A0790125FF2807D0012F05D00020A4
:1042E00006AA24E020201BB0F0BD00270DE0A77136
:1042F00021683803081810221F4900F00FF9002820
:1043000001D01F20EFE77F1CFFB22079401EB8428A
:10431000EDDC002020742079401E60741020608243
:10432000357025E0135C002B03D0401CC0B28142E5
:10433000F8D881421CD9401E0818FBF7E7FF6174CA
:104340000020357002466946009000F017F80028FA
:1043500002D0212802D004E0009901E001210903E4
:104360006182C0B2212803D0002801D02A20BAE7F8
:104370000020B8E75069FF1FC887FF1FF7B5012469
:104380008AB000200E46274605909CE056480179E9
:10439000407CC019FBF770FEC8B2FF2C03D3FF3C72
:1043A000A4B2FF2C33D20A9A002A01D14E4A1174CA
:1043B0000003029005980125002803D000200590F5
:1043C000601C06E0012C05D92819811EFF2917DA87
:1043D000401E85B20298290108180790424804221D
:1043E00001680798081804A900F082F80A980028C4
:1043F0000ED0012829D002283CD006200DB0F0BDF7
:10440000FF200230401B201A84B20120059058E0A2
:1044100004988103890F04D0022902D003294CD1CA
:104420000EE00103890F012901D0012445E0000DB0
:104430000C21FBF721FE002900D0012144183CE0AB
:1044400007980005000D306047E0049881038A0F4B
:1044500004D0022A05D0032A2FD142E0890F022975
:10446000DFD1328881B292B29142DAD10C990798A9
:10447000086032E004988103890F04D00229D0D06B
:1044800003291AD129E00103890F012903D03068DB
:1044900001240C300BE0000D0C21FBF7EDFD002991
:1044A00000D0012144180C203168604308183060A6
:1044B0000C980C990068401C08606D1CADB2FF2D73
:1044C00080D97F1CFFB209484078874200D25DE75F
:1044D0000A98002803D0012803D000208EE721206D
:1044E0008CE725208AE70000C887FF1F5069FF1F5F
:1044F00010B5094C636898420BD364782403E31821
:10450000834206D9002904D0002A02D0FBF74AFED4
:1045100010BD222010BD00005069FF1F70B5154668
:104520000E460446FBF7F8FE800601D0292070BD38
:1045300009494868844206D3497809030818A0420B
:1045400001D9A00701D0222070BD2A46314620465D
:10455000FBF7E8FE70BD00005069FF1F0022002934
:1045600013D0002811D0012806D04A799206920E65
:104570004A71032805D007E04879C02210434871EA
:1045800002E0402002434A710122104670470000B9
:1045900070B5124800250078052108421BD0202064
:1045A000FBF7A0FD0E4C0028A06013D020220021B4
:1045B000FBF756FD2020FBF795FDE060002804D0B6
:1045C00020220021FBF74CFD05E0A068FBF790FDE1
:1045D0000020A0601325284670BD00009370FF1FC7
:1045E0000471FF1FF3B588880D4681005448544C70
:1045F00040580027203C85B000281CD10598002891
:104600007CD0002D7AD000F0D9F9607400281AD03F
:1046100000260E204B49704340180622FF21FBF76D
:1046200025FD002804D1761C3606360EF1D0012671
:104630006674012E03D0607C002804D05EE06774AD
:10464000607B401C6073A8883D4E80003058002875
:1046500057D08268002A07D021201C2103F095FC46
:10466000A888800030588760A88880003058026988
:10467000002A0BD0607C062148432230C0B21C21A6
:1046800003F083FCA888800030580761A888800068
:1046900030584269002A0BD0607C06214843233001
:1046A000C0B2102103F071FCA88880003058476127
:1046B000A88880003058C268002A18D0607C062183
:1046C00048432430C0B2102103F05FFCA8880621C3
:1046D00080003058C268607C103248432530C0B238
:1046E000042103F052FCA88880003058C760A07BEA
:1046F000002801D000F09EFA00F0E0FA012007B097
:10470000F0BD20200E21059A03F03FFC1022FF216E
:104710006846FBF7A5FC607C6A467030C0B2102189
:1047200003F033FC607C0E21484306490E224018FA
:104730000599FBF77DFCA888800035500020DEE756
:10474000A469FF1F1488FF1FF0B589B017460E46F5
:104750000446202200216846FBF782FC684604805C
:10476000394C0225E178017122794271217B017770
:1047700006984108E07A4900C307DB0F1943069108
:1047800081070029069901DA294300E0A94306912F
:1047900001072E4B069901D5194300E09943069174
:1047A000C1062B4B069901D5194300E099430691A8
:1047B0008106284B069901D5194300E099430691DB
:1047C000400704210028069801DA084300E08843E6
:1047D0000690002A05D001A810221F490230FBF7DD
:1047E00027FC6179002904D0002E02D006982843C6
:1047F00006906846807D002900D001210843694663
:104800008875A178002900D004210843694688757D
:10481000A179002900D00821084369468875E1790B
:10482000002900D01021084369468875217A0029A3
:1048300000D0202108436946887539466846FDF74F
:1048400025F909B0F0BD00008469FF1F00010000D8
:1048500000020000000400000488FF1F70B500255E
:10486000094E2C460E20604380190622FF21FBF7DB
:10487000FDFB002801D16D1CEDB2641C2406240E42
:10488000F0D0284670BD00001488FF1F7FB50C468D
:1048900006214843064615462036F0B26A460E21E8
:1048A00003F068FB002806D10622FF216846FBF7CB
:1048B000DDFB002802D0002004B070BD684681896D
:1048C000002DC8B202D02043C0B200E0A043814214
:1048D00006D069468881F0B26A460E2103F055FB86
:1048E0000120E9E710B50020044604E0204600F06E
:1048F00006F8641CE4B221460143F7D010BD70B540
:104900000546044606204443264690B02036F0B2C1
:1049100007AA0E2103F02EFB002806D10622FF2154
:1049200007A8FBF7A3FB002802D0002010B070BD41
:104930000E22FF2107A8FBF793FB1C22FF216846EC
:10494000FBF78EFB1022FF210BA8FBF789FBF0B2CF
:1049500007AA0E2103F019FB064620462130C0B2FB
:104960006A461C2103F011FB064320462230C0B2E8
:104970006A461C2103F009FB064320462330C0B2DF
:104980006A46102103F001FB064320462430C0B2E2
:104990006A46102103F0F9FA06432534E0B26A466C
:1049A000042103F0F2FA014631430C467035E8B2B7
:1049B0000BAA102103F0E9FA2043B7E770B50A4DBE
:1049C000064600240E206043401906223146FBF7BC
:1049D0003BFB002801D0204670BD641C2406240E39
:1049E000F0D0012070BD00001488FF1F002293004A
:1049F000CB5A834202D1900040187047521CD2B269
:104A0000042AF4D3002070477FB50C46002809D152
:104A1000002C07D020206A460E2103F0ABFA0500D7
:104A200003D007E0022004B070BD0622694620468C
:104A3000FBF7FEFA2846F6E700218A00835A491C54
:104A4000DB43835212189378C9B2DB439370042975
:104A5000F3D3704770B5144E00240E2060438219C2
:104A600020460621484320301546C0B20E2103F0EF
:104A700081FA00280BD028460622FF21FBF7F0FA26
:104A8000A81D0622FF21FBF7EBFA0020A881641C79
:104A90002406240EE1D00548807B002801D000F0D8
:104AA000C9F800F00BF970BD1488FF1F8469FF1F5F
:104AB00010B5034940880978FDF73EFD10BD0000A0
:104AC0008469FF1F10B50F494A79002A01D00123DC
:104AD00000E000238A78002A00D004221A438B7950
:104AE000002B00D008231343CA79002A00D01022DB
:104AF000097A1A43002900D020211143FDF734FA26
:104B000010BD00008469FF1F70B50E4604460621E3
:104B1000484388B015462030C0B204AA0E2103F0E5
:104B200029FA002843D10622FF2104A8FBF79EFAA8
:104B300000283CD17034E0B26A46102103F01AFA22
:104B4000002831D16846FFF777FF002E06D069466E
:104B50003046FFF74BFF00280DD015E01022002152
:104B60006846FBF783FA00281ED110220021684610
:104B7000FBF776FA10E0002D19D069460020FFF708
:104B800035FF002813D006808178A9420CD08570AB
:104B9000002D01D1002101806846FFF74DFFE0B2F2
:104BA0006A46102103F0F1F9012008B070BD002021
:104BB000FBE7000070B51C4C0646606A1B4D86B0D2
:104BC000002809D12046143000900223184A2946B3
:104BD0000120FDF743FD20E004A8022200210090FF
:104BE0000292019103ABA28A3046616AFDF73AFB5B
:104BF00000280CD16846017B407B000208180204A3
:104C0000120C04D0606A41893046FCF7A1FC0023F5
:104C1000A28A2946606AFDF753FD60620028DBD155
:104C2000012006B070BD00008469FF1FFFFF000077
:104C3000149D021170B5FBF77BFB0A4E00240E2079
:104C40006043801905460622FF21FBF70FFA002872
:104C500002D12946FBF772FB641C2406240EEED019
:104C600070BD00001488FF1F70B50B460446114646
:104C70001846FFF7B7FC00281DD00F4DA400285997
:104C80008088FFF797FF002815D02E46203EF06958
:104C9000002807D04368002B04D0285900228088C0
:104CA000012198472859002803D0FBF7F1F900208B
:104CB00028510120707470BDA469FF1F08B5FFF76B
:104CC000CDFD012801D9022000E00A2069460870C4
:104CD0006A4601210520FDF7A1FE08BD002909D083
:104CE000012807D1497989098901C02902D04029C1
:104CF00001D00220704703207047FFB500200E4608
:104D000008701AE01C5C401CC5B2002C17D0281992
:104D1000904214D85F5D6D1CEDB2384600F08BFEFA
:104D2000002806D0641EE0B2307000998F4202D194
:104D3000581904B0F0BD4019C0B29042E2D300202F
:104D4000F7E7000010B5044C2068002803D0FBF7FB
:104D5000CFF90020206010BDF070FF1F70B50E4D20
:104D600084002859002815D0006A002801D0FBF7DC
:104D7000BFF92859406A002801D0FBF7B9F9285932
:104D8000806A002801D0FBF7B3F92859FBF7B0F986
:104D90000020285170BD0000FC70FF1F10B5044CAE
:104DA0006068002803D0FBF7A3F90020606010BD05
:104DB000F470FF1F0100044805D1044989780029D7
:104DC00001D00248801D7047CC8DFF1F9270FF1FDD
:104DD00001488078704700009270FF1F01484068CA
:104DE00070470000BC8DFF1F0148806870470000BD
:104DF000BC8DFF1F0148C06800687047BC8DFF1F55
:104E000010B50748C0680168491C01600548007872
:104E1000FF2803D001218903FBF758F910BD0000DA
:104E2000BC8DFF1F9270FF1F02484068002800D011
:104E300001207047EC70FF1FFFB581B00F460D9E3B
:104E40000A9D039802F0CAFF040042D0019800288E
:104E50003FD120791021084320710499490702D5D8
:104E60000221084301E0FD21084020710B992846EA
:104E700008430C9908433043207902D004210843A9
:104E800001E0FB2108402071002E06D0306910227D
:104E900020623146A018FBF7CBF8002D01D0002F7F
:104EA00005D00B98002814D0012F08D011E0606ABB
:104EB000002801D0FBF71CF91C21284606E0606A97
:104EC000002801D0FBF714F91C210B98FBF716F909
:104ED00060620398224C8700E05900283ED0002DE4
:104EE0000FD0006A002806D11C20FBF7FBF8E1591F
:104EF0000028086205D0E0591C22006A2946FBF709
:104F000097F80C98002810D0E059406A002806D184
:104F10001620FBF7E7F8E1590028486205D0E05970
:104F20001622406A0C99FBF783F8002E10D0E05946
:104F3000806A002806D11420FBF7D4F8E159002834
:104F4000886205D0E0591422806A3146FBF770F878
:104F50000B9B049A0399019803F01EFA05B0F0BD6B
:104F6000FC70FF1FF3B581B0019802F037FF050018
:104F700029D00E20FBF7FEF8040024D02620FCF7F1
:104F800075FE060000D12E78D020207000276770B3
:104F90000B20A0700622E91DE01CFBF749F80198E0
:104FA00060810298C1070120002901D0207300E030
:104FB00027730299890701D5607300E06773F0B227
:104FC0002146FBF7B9F8FEBD10B581881F4B0124BF
:104FD000CA1A994237D011DC1D4BCA1A994219D00E
:104FE00007DC1C4A8A1810D0022A1ED0032A29D1B5
:104FF0001BE0472A27D0482A24D124E01300FBF7DE
:1050000029F806212222222222218068007800F03D
:10501000D3FC08E08068827841781202891889B24E
:10502000007800F029FD04460DE0094A921E9142E5
:1050300001D1012200E0002280680178104600F0D2
:1050400003FD00E00024204610BD000053200000B6
:105050000A200000FADFFFFF70B51A4D1A4A014618
:10506000002628781268194C01290CD0002A09D092
:1050700017490978490705D50221FBF721F8668011
:10508000FFF760FE70BD6188002903D0114B1B78CB
:10509000002B05D0002AF5D01078FCF7BDFD70BDBF
:1050A0003C2902D33C39618070BD0221FBF708F82E
:1050B00062887D20C000424302212878FAF7FAFF77
:1050C000668070BD2171FF1FF070FF1F0471FF1F0C
:1050D0009370FF1F9570FF1F08B5418900910389E8
:1050E000C2888188C07800F0B3FB08BDF0B50446E3
:1050F0008088A12189004843304987B00968401859
:10510000FF30FF300230A1794167002C54D02C4D84
:105110006868002823D006782A480068002804D050
:105120004168002901D0002088472146E0790831F4
:105130000591FFF7D3FDE0710246277D638A218A3E
:10514000E089019002A88AC0A0880090E0783146EA
:10515000059B03F097F9E078002802D00DE01A488B
:10516000D9E7E079E2896B46059907C3A379A1885D
:105170000122304602F0E0FDE0706868002811D09E
:10518000FFF70CFE287800280CD06978FFF742F86A
:10519000002807D0E078A2880346297803F0C6F9F2
:1051A00000202870A0881721FBF7F6FDA088FEF7E5
:1051B000DBF9A088FEF700FA07B0F0BD3409FF1F45
:1051C000F470FF1F2471FF1F9270FF1F70B504461B
:1051D0000026808802F002FE002803D00678A0880E
:1051E00002F084FE144D2878002808D0864206D1AB
:1051F0006978FFF70FF8002809D000202870002EEA
:1052000005D0A379A288A078314603F08FF9A08851
:10521000094A810008325158002901D0FFF79EFD4C
:10522000A0881721FBF7B8FDA088FEF79DF9A0889C
:10523000FEF7C2F970BD0000F470FF1F70B58288E0
:10524000294D0124531B2949AA4242D019DC284D7B
:10525000531BAA4218D00BDC264BD21826D0254B64
:105260001033D2181ED0032A17D0042A39D10BE0EC
:10527000012B09D0022B07D0032B21D0042B30D1D6
:105280001AE0433B072B2CD8496800292AD009682B
:10529000002927D08847044624E08068007800F081
:1052A000ADF81FE0806800F001F9F4E78068411C68
:1052B000007800F0D9F8EEE783681B78002B11D056
:1052C000896800290ED00B6808E00146104698470F
:1052D000E1E709490968002904D04B68002BF4D1A3
:1052E00000E00024204670BD0E2000002071FF1F4A
:1052F00008200000F7EFFFFF0071FF1F10B5094CF9
:10530000A17800290CD001460622A01DFAF790FED4
:10531000A11DA078FFF722F9A01DFBF715F810BD1D
:10532000002010BD9270FF1F1CB52F490378012487
:105330000A68912B02D0A22B2ED13EE0417805299C
:1053400009D00E2904D00F2908D03E2924D115E018
:10535000FFF774FF10E0FFF739FF3AE0014680885D
:10536000224B0124C31801D0062B15D1002A30D0BE
:105370005268002A2DD0904704462AE08178012403
:10538000032917D004DC012911D0022904D105E03A
:1053900015291ED016291CD000241AE0144989684A
:1053A000002916D04968002913D0884711E0FFF77B
:1053B0009DFE0EE0FFF790FE0BE00E4909780429F0
:1053C00009D0002A05D05268002A02D001460A48B6
:1053D000904720461CBD00216A4611800179408813
:1053E000FEF742F8F5E700000071FF1FF3DFFFFF53
:1053F0002071FF1F9370FF1FFFFF0000F8B5164FCD
:105400000646BD1F2878FF2814D00A20FAF7B2FEFE
:1054100004000FD0D020207066700820A070A878FB
:10542000E07006223946201DFAF702FE2146287850
:10543000FAF782FEE87801280DD1084800680028B4
:1054400003D08068002800D080470648044A042121
:105450000078FAF765FEF8BD9870FF1F2471FF1FF2
:1054600060EA00002171FF1F70B500240546002886
:1054700005D1002903D006220B48FAF7D9FD0A48C6
:1054800010380178012907D10124002D06D0002110
:105490000170284600F0B8F9204670BD0221017065
:1054A000FAF758FFF8E70000CC8DFF1F10B5002475
:1054B000002813D002780B49002A03D14288CA82FF
:1054C00002790A760A78022A08D102780124002A91
:1054D00006D000220A70007800F096F9204610BD30
:1054E0000322F7E7BC8DFF1F0149486070470000A9
:1054F0002071FF1FF8B57A4C8778014600250726F2
:105500006079A2793B00FAF7A5FD0805361A37370E
:105510005F9ACD36487800285CD1714806223C302D
:10552000C91CFAF785FD0120A0716D4B014642337D
:1055300062786079FCF7C6FD00284BD1A8E00F46E1
:105540004978002946D1F978002906D0654BA27820
:105550000021FCF7B7FD78700AE0022A0BD0012188
:10556000FAF7BAFD002803D101216079FAF7AEFD00
:10557000787800282ED1F8BD497800292AD1032F48
:1055800009D0A289002A0CD0217800290AD0012153
:10559000FAF790FD06E0052A01D0022012E006206D
:1055A00010E02570A079062802D0042802D008E077
:1055B000052007E00120207001466079FAF786FD9A
:1055C00066E00320A07163E048780F46002803D00E
:1055D000312832D0A6715BE041480622391D3630B1
:1055E000FAF726FD7889E081B8892082F8896082FF
:1055F0000520A071A28A002A03D002216079FAF75F
:1056000059FDB889E083F8892084388A6084E0787D
:1056100001280AD11F20FCF729FB7D21C90048433E
:10562000024604216079FAF745FD7A89F878042367
:10563000391DFBF783FC25702AE02570C1E7284857
:105640000E46062200213630FAF70AFDE58325844E
:10565000658404216079FAF733FD08216079FAF74F
:105660002FFDB079082808D00320A07120780028E9
:1056700005D06079FCF7D0FA07E00420F5E70120B7
:10568000207001466079FAF721FD0020C043E081D7
:10569000606A002800D16EE701680029FBD0A0797C
:1056A0008847F8BD0D460821FAF70AFD68782946B3
:1056B0000028F6D1E888E08328892084488960841E
:1056C00004216079FAF708FD0028EAD1A06A0028D1
:1056D000E7D00368628C218CE08B9847F8BD00000E
:1056E000306AFF1F3888FF1F10B501781C4C9129C4
:1056F00006D0A2291BD0D02901D1FFF7FBFE10BD97
:1057000041780E29FBD18188164A9142F7D18168F0
:1057100003200856A1790529F1D17F28EFD0616ACD
:105720000029ECD049680029E9D0884710BD4179AB
:105730001329FBD10089012802D12079022808D041
:105740000520FCF793FA024608216079FAF7B2FCCB
:1057500010BD08216079FAF7B3FCFCF787F910BD9A
:10576000306AFF1F051400007CB5154C0546E08B20
:10577000E18A88420AD3218B884207D8208C618B2A
:10578000884203D1608CA18B884217D00520FCF79A
:105790006DFA0646E18A68460180218B4180618B63
:1057A0008180A18BC18062796946E089FDF768FE3E
:1057B0002571324608216079FAF77CFC7CBD000037
:1057C000306AFF1FF8B507460E46084602F006FB92
:1057D000040018D02620FCF749FA050000D12578EE
:1057E0000620FAF7C7FC04000DD006220021FAF7C4
:1057F00037FCD020207067700E20A070A680E8B221
:105800002146FAF799FCF8BD70B50F4D0646287889
:10581000FF2818D00E20FAF7ADFC040013D0D020DA
:10582000207066700020A07006220849E01CFAF77C
:10583000FFFB06481038C18A6181007E2073214633
:105840002878FAF779FC70BD9270FF1FCC8DFF1F8E
:10585000FFB581B01E4617460D460C20FAF78AFCAC
:10586000040013D0284602F0B9FA002810D00078BE
:10587000D0212170019961700721A170A580E78076
:1058800026810A9961812146FAF756FC05B0F0BDE0
:105890000048ECE79270FF1F70B50D4D0446286874
:1058A0000E46002812D00620FAF764FC010009D049
:1058B000D02008704C70032088708E802868007893
:1058C000FAF73AFC002C01D0FFF73CFA70BD00005B
:1058D000F070FF1FFFB581B01F460E46084602F06C
:1058E0007DFA050022D01020FAF744FC04001DD0F8
:1058F00010220021FAF7B4FB2620FCF7B7F90028A4
:1059000000D12878D0212170019961700F21A170F8
:10591000A6800399217267720A99A1720B99E172AC
:105920000C99E160C0B22146FAF706FC05B0F0BD63
:10593000F0B51F4D85B02868002837D08778FCF770
:1059400011FA002805D00A20FCF790F904900B20EA
:105950000EE001F0CBFD002805D00620FCF786F90B
:105960000490072004E00820FCF780F90490092047
:10597000FCF77CF904460F480078002814D0012673
:105980002968C878091DFEF7E9FD29686D46CA7ABD
:105990008B7A091D0BC5039233463A46214604987B
:1059A000FAF7DEFC05B0F0BD0026E9E70120F9E7D3
:1059B000F070FF1F9470FF1F10B509490968002996
:1059C0000CD0002805D101204870FAF79DFB002873
:1059D00002D00021FFF760FF012010BD002010BDA4
:1059E000F070FF1FF8B50C4602F0F8F9020021D064
:1059F00026201462FCF73AF905062D0E00D1157821
:105A00009679D01D00901020176AFAF7B3FB0400B6
:105A100010D0D0202070002060700920A070E670A7
:105A20000622201D0099FAF703FB21462846E7606D
:105A3000FAF782FBF8BD411E152903D9FF2801D0D2
:105A4000002070470120704770B50A4E0546307837
:105A50000C46FF280DD00420FAF78CFB010008D07B
:105A6000D02008704C7002208870CD703078FAF722
:105A700063FB70BD0471FF1FF3B5284D81B028682A
:105A800000284AD04078264E012803D030780028DC
:105A900031D041E001F02AFD224F002813D001202F
:105AA000FCF7E4F80446412808D91F4A0221387857
:105AB000FAF736FB1D483C3C44800EE07D20C000D8
:105AC0002246424303E00020FCF7D0F80246002AB9
:105AD00003D002213878FAF7EDFA296802204870DD
