:020000041102E7
:1000000003B40148019001BDADAE000003B4014846
:10001000019001BD456B010003B40148019001BD91
:100020000189000003B40148019001BDC53F0000F3
:1000300003B40148019001BDE94C010003B401483B
:10004000019001BDC95C010003B40148019001BDEC
:10005000CD4C010003B40148019001BD618900004D
:1000600003B40148019001BD154D010003B40148DE
:10007000019001BD1D4B010003B40148019001BD79
:10008000090E000003B40148019001BDF54E0100C6
:1000900003B40148019001BD434D010003B4014880
:1000A000019001BD4551010003B40148019001BD1B
:1000B0002526000003B40148019001BD8B520100C8
:1000C00003B40148019001BDB352010003B40148DB
:1000D000019001BD0D52010003B40148019001BD22
:1000E000C94A010003B40148019001BD3D4B010024
:1000F00003B40148019001BD014C010003B4014863
:10010000019001BDF94C010003B40148019001BD0B
:10011000691F000003B40148019001BD5D17000094
:1001200003B40148019001BD5952010003B40148D4
:10013000019001BD5125000003B40148019001BDAB
:10014000594F010003B40148019001BD8D12000018
:1001500003B40148019001BD4D1F000003B40148E4
:10016000019001BD5522000003B40148019001BD7A
:10017000DD52010003B40148019001BD1D4D010095
:1001800003B40148019001BD810E000003B4014891
:10019000019001BDC94EFF1F03B40148019001BD8C
:1001A0009548FF1F03B40148019001BD355400007C
:1001B00003B40148019001BD114CFF1F03B4014875
:1001C000019001BD714CFF1F03B40148019001BDB6
:1001D0002550FF1F03B40148019001BD017F0000BD
:1001E00003B40148019001BDE117000003B40148C8
:1001F000019001BD7918000003B40148019001BDD0
:10020000D949010003B40148019001BDE92800006B
:1002100003B40148019001BD5549010003B40148F0
:10022000019001BDBD2DFF1F03B40148019001BD28
:100230003D54FF1F03B40148019001BDED36FF1F7F
:1002400003B40148019001BDB54CFF1F03B4014840
:10025000019001BD7953FF1F03B40148019001BD16
:10026000D153FF1F03B40148019001BD2153FF1F6B
:1002700003B40148019001BD452BFF1F03B40148A1
:10028000019001BD7956FF1F03B40148019001BDE3
:10029000AD3EFF1F03B40148019001BD092EFF1FB1
:1002A00003B40148019001BD5152FF1F03B401483E
:1002B000019001BD0D2DFF1F03B40148019001BD48
:1002C0002551FF1F03B40148019001BD5551FF1F87
:1002D00003B40148019001BDB951FF1F03B40148A7
:1002E000019001BDE951FF1F03B40148019001BD18
:1002F0002152FF1F03B40148019001BDD936FF1FF1
:1003000003B40148019001BDED2DFF1F03B4014866
:10031000019001BDC926000003B40148019001BD50
:100320001958FF1F03B40148019001BDB557FF1FC5
:1003300003B40148019001BD350E000003B401482B
:10034000019001BD6F37FF1F03B40148019001BD4B
:100350004549FF1F03B40148019001BD3519000054
:1003600003B40148019001BDBD18000003B4014869
:10037000019001BDC521000003B40148019001BDF9
:10038000291C000003B40148019001BD851F000035
:1003900003B40148019001BDA946010003B401481E
:1003A000019001BD1147010003B40148019001BD56
:1003B000DD47FF1F03B40148019001BD5556FF1FE3
:1003C00003B40148019001BDB728FF1F03B40148E1
:1003D000019001BD9128FF1F03B40148019001BDA8
:1003E000B13E000003B40148019001BD1937FF1F61
:1003F00003B40148019001BDC90E000003B40148D7
:10040000019001BD055E000003B40148019001BDEB
:10041000E548000003B40148019001BD29510100E5
:1004200003B40148019001BDD91B000003B4014889
:10043000019001BD3929FF1F03B40148019001BD9E
:100440006129FF1F03B40148019001BD514701001C
:10045000F8B5D349D14A002004464A608300401CC5
:10046000D450FF28FADD4868CE4A014680318A60C0
:100470006E22C262CC4A1278002A01D07F22C26268
:100480000A220265C94A13788363C94BC361157890
:100490001023022D08D01578012D05D01578032DD5
:1004A00002D01578042D00D10362C24D4561192593
:1004B000AD0185613725CD6036272826C76308251D
:1004C000466405644F6032270F603B27CF634127A6
:1004D000CF6439274031E0C132274F6002274F6196
:1004E00042270831E0C11E274F60CE608D6005268F
:1004F0004E6142260E615A2660390E614D613C25DF
:100500008D61AF25ED000560AB4D05631578022DBB
:1005100009D01578012D08D01578032D07D015784E
:10052000042D06D007E0152504E0436003E00E2506
:1005300000E00C254560FF252D358560C560FF2551
:10054000F53505619D4D85647D25ED009C4ECD679B
:10055000C66445629B4D85627325C5650625456564
:100560008565C51D0826F93502272E6047664B278D
:10057000FF0087660927C766934F07674667BE1067
:100580008467C667914F8E4E3E601678022E09D062
:100590001678012E0AD01678032E0BD01278042A72
:1005A0000CD00EE01A22CA61212205E01422CA6191
:1005B000182201E01322CB610A6202E00E220B62D4
:1005C000CA617E4A8A627D22D2008A6764224A62B8
:1005D0000522CA6202220A63C8228C634A63382158
:1005E00069607B4929647B49A9614B21C900E961A4
:1005F0007349FF30643929627D2109016962EC6623
:100600001E212C67A9667049A965E96589102966CC
:10061000696469677049A9677049714A8130E967FF
:10062000026082604160FF21F531C16001616E4866
:100630006C495A4A81606D49803A11616A496C4A35
:1006400080318A626B4ACA626B4A82616B4AC262BB
:100650006B4A02636B4A64484038C2636A4ACA61A3
:100660006A49816360496A48403188616A496948DA
:1006700088605D48694A80384260694A4263694AD5
:100680000A626949816058496848C039C860FFF703
:10069000B7FC0120FFF7BAFCF8BDF3B50746644884
:1006A00081B0C169634A1140FF310931C16100263F
:1006B00013E000252C461120FFF7AEFC5C48406A91
:1006C0008007800F610088402843641CE4B205461F
:1006D000102CF0D301C7761CF6B202988642E8D3FC
:1006E000FEBD10B52E4C607800280AD10421524876
:1006F000FFF7D3FF504804211030FFF7CEFF012051
:10070000607010BDF0B500248BB00D460646102970
:1007100002D901200BB0F0BDFFF7E3FF46490020EE
:100720000A5C401C1419C0B21028F9D3002C03D065
:10073000102D03D90B20EDE70E20EBE73F483E4C90
:100740000023006802A91034E25CC75C7A40CA54F6
:100750005B1CDBB2102BF7D306AA3748FFF762FC0D
:10076000102D00D910252A4606A93046FFF760FC57
:10077000FFF764FC216840182060FFF75FFC6168A8
:1007800040186060FFF75AFCA1684018A060FFF7AE
:1007900055FCE1684018E0600020BBE70004FF1F43
:1007A0001C77FF1FB899FF1F7470FF1F4A0AFF1FB5
:1007B0003A07000080C3C9019A02000050C300003C
:1007C000280A00006A180000204E0000F009FF1FF0
:1007D0000040001168100000DC05000040420F00DE
:1007E00010270000B95CFF1F0001FF1FA931FF1F88
:1007F0002D61FF1F0564FF1F132EFF1FA52FFF1F75
:100800002D2EFF1FC13EFF1F796DFF1F9D6BFF1F28
:100810001129FF1F6135FF1F0002FF1F3159FF1F04
:100820000D5BFF1F515AFF1FED58FF1F9135FF1F32
:1008300040F0004000FEFEFF3C94FF1F4077FF1F8A
:100840000A7802708A7842704A88120A827009799E
:10085000C170042070470A7802700988090A417043
:100860000220704710B500220EE093005B189C78C0
:1008700004705C88521C240A44701C7984709B8824
:10088000D2B21B0AC370001D0B789342EDD8180634
:10089000800D10BDF8B50D4606464978012031702F
:1008A0000024761C16E06978012917D012216143D3
:1008B00049198A7832704A88871C120A7270B61CED
:1008C00010223046091DFFF7B3FB1037B8B21036BF
:1008D000641CE4B22978A142E5D8F8BDA100491909
:1008E0008A7832704A88871C120A7270B61C0222FB
:1008F0003046091DFFF79CFBBF1CB8B2B61CE7E7EA
:1009000010B50C46097801702188090A4170628887
:10091000211D801CFFF78CFB6088801C80B210BDFD
:1009200010B50C46097801702188090A4170A17838
:1009300081706188090AC170A288A11D001DFFF79E
:1009400077FBA088001D80B210BD10B50C460A8848
:10095000891CFFF76DFB208810BD10B50B788A78D5
:1009600002705343DCB22246401C091DFFF760FBB6
:10097000601C10BD10B50B788A7802705343DCB24E
:100980002246401C091DFFF753FB601C10BD10B52B
:100990000C460A88891CFFF74BFB208810BD10B558
:1009A0000C460A88891CFFF743FB208810BD7FB5E1
:1009B00015460446022901D0102903D1022B04D088
:1009C000102B02D0002004B070BD994202D10A461B
:1009D000294607E01029694607D000F00DF81022DB
:1009E00069462846FFF730FBEDE7104600F004F8B3
:1009F000102269462046F5E770B50C4605000CD07C
:100A0000002C0AD0102206492046FFF711FB287857
:100A1000207368786073012070BD002070BD0000F5
:100A200054A8021110B50B460122024903F092FCB2
:100A300010BD00004108021170B5064608880C463A
:100A4000172812D30B4603220949304603F082FCD3
:100A5000050008D1074920880988884200D201464C
:100A6000304600F0ABF9284670BD022070BD000092
:100A7000570802114E77FF1F10B50023192219469F
:100A800003F068FC10BD000010B50A78002A05D0FC
:100A90000B460722024903F05DFC10BD022010BD89
:100AA0006508021110B54A78012A01D0022A08D13E
:100AB0000A78002A05D00B460522034903F04AFCB8
:100AC00010BD022010BD0000950802110149400030
:100AD000085A70474C77FF1F10B50B461D2202497C
:100AE00003F038FC10BD00000109021110B50B46DF
:100AF0001B22024903F02EFC10BD00000109021167
:100B000001491720088070474C77FF1F0098022B7F
:100B100001D00420704711785278120289180180A0
:100B2000002070470098012B01D0042070471178F5
:100B300001700020704770B5049C1E461546062BB8
:100B40001BD369782878090240182080E978A878B2
:100B500009024018608002222271291D601DFFF7E2
:100B600067FAB61FB2B22281F02A06D82046A91D24
:100B70000A30FFF75DFA002070BD042070BD0098B8
:100B8000042B01D004207047537811781B02C91838
:100B900001809178D2781202891841800020704734
:100BA000F8B584890D460646002C26D0B268177821
:100BB000380620D50C2C20D90C3CA4B2101900907A
:100BC00001217088234603F057FB002811D0022032
:100BD00028707806C00F6870B806800EA870641E72
:100BE0002004000CA88001D0B068401CA860002040
:100BF000F8BD0120ECE70020EAE70120F8BD10B5C0
:100C000002981146042B14D34C780A782402121946
:100C10000280CC788A782402121942801B1F9AB273
:100C20008280F22A05D8801D091DFFF701FA0020F5
:100C300010BD042010BD0098042B01D00420704783
:100C4000537811781B02C91801809178D27812026A
:100C5000891841800020704710B502981146062B74
:100C600003D0142B03D0042010BD022200E0102278
:100C700002714B780A781B02D2180280CB788A78EE
:100C80001B02D21842800279401D091DFFF7D0F9DE
:100C9000002010BD30B5039CD80718D1D805010E2F
:100CA000022914D30B488088814210D8F6200155C0
:100CB000002008E0557813782D025B194500401C90
:100CC0006353C0B2921C8842F4D3002030BD04208C
:100CD00030BD00004677FF1F0098022B01D0042092
:100CE00070471178527812028918018000207047ED
:100CF00070B5144602460498022B18D366782578FE
:100D00003602AD1905800546E0352A766976002A57
:100D10000BD0E8219B1E9AB242808A4207D8A11CC0
:100D2000001DFFF785F9002070BDF421F2E70420D3
:100D300070BD000010B50B461722024903F00AFBF4
:100D400010BD00002109021110B50B460D22024909
:100D500003F000FB10BD00004B09021110B50A782A
:100D6000002A05D00B461122024903F0F3FA10BD08
:100D7000022010BD5B09021110B50A78002A05D0C7
:100D80000B460922024903F0E5FA10BD022010BD0E
:100D90007509021110B50B460F22024903F0DAFA69
:100DA00010BD00008F09021110B50B460B2202493D
:100DB00003F0D0FA10BD00009F090211044A128806
:100DC000914203D8024A4000921D11527047000020
:100DD0004677FF1F10B500231322194603F0BAFA15
:100DE00010BD000010B5094C0749204601F062FA19
:100DF00005492046083101F05DFA0348044A0821FC
:100E0000103001F0D7FB10BDB073FF1FFFFF0000D3
:100E1000C4A70211034610B50020104A002B08D0C9
:100E2000012B08D01C32022B08D0032B09D0022042
:100E300010BD127800E092780A7010BD52890A80C5
:100E400010BD064BDB1C1C780C715B784B71538D0D
:100E50000B80528F4A8001228A7110BDA473FF1F3C
:100E600010B504460B48844212D0012907D002294C
:100E70000ED10121204607F077FB002808D1064952
:100E8000204601F017FA04492046083101F012FA11
:100E900010BD0000FEFF0000B073FF1F10B5054934
:100EA0005F200A785F2A03D90870034807F018FB0F
:100EB000002010BDA473FF1FD143021101498860B7
:100EC00070470000A473FF1F10B5034A0D210348AB
:100ED00001F070FB10BD0000A8A70211D072FF1F27
:100EE00070B50C460146012080020A1A00251C48F4
:100EF0001300FFF7AFF80F32090B0D1012181A1C70
:100F00002A1F212325272A00408A23E0807800E039
:100F1000C078207021E00079FBE7102211492046BB
:100F2000FFF786F819E04079F3E7C07AF1E78069C6
:100F3000206012E0407AECE7807AEAE7007BE8E79D
:100F4000807BE6E703F0B8FEE3E7272904D20846F2
:100F500000F014FF208000E00225284670BD00004C
:100F6000DC70FF1FC48EFF1F10B50249087003F02C
:100F70009FFF10BDDC70FF1FFFB593B000240F462C
:100F80001D461646109411944BA0139903F0E4FAF1
:100F90000621384607F06CFC10AA3946139800F079
:100FA000F5F9074601464CA003F0D6FA062110A831
:100FB00007F05EFC03F080FE01464FA003F0CCFA80
:100FC000002F6BD120206A460E2107F01DFD00285E
:100FD00002D168468089C4B2082D11D00020129039
:100FE000082D0FD021271C2200216846FFF738F872
:100FF0006A461C21384607F007FD002804D00FE0A0
:101000000120ECE72227EEE76846807EC01F092812
:1010100006D8E107C90F6A463046129B00F0FAFD78
:101020001422002107A8FFF71BF8242007AA10218B
:1010300007F0EAFC002811D11022FF2107A8FFF7D2
:1010400015F800280AD125200BAA042107F0DCFCA2
:10105000E107C90F07AA304601F046F870200CAA34
:10106000102107F0D1FC002811D10CA803F012FFC9
:101070000027B9000CA808180188002903D082783D
:10108000304601F0F3FA7F1CFFB2042FF1D3A00722
:1010900004D51F480178304601F0D6FA042D07D157
:1010A0001B48401C805D022802D1304603F038FF07
:1010B000002017B0F0BD00004C696E6B4573742DB5
:1010C0002D61646472547970653D25642C704465AB
:1010D00076416464723A0A004C696E6B4573742DF4
:1010E0002D6964783D25642C7075626C6963416478
:1010F00064723A0A00000000626F6E6420746F74BC
:10110000616F6C206E756D6265723D25640A00002A
:10111000DC70FF1F70B50024054600290BD108497B
:101120001046FEF7A9FF0846294600F0C3FE04005A
:1011300003D00121284600F0FDFF204670BD0000CD
:1011400040420F0070B50C46080428D515480078B9
:10115000FEF798FF05001ED00178B02908D0B1290C
:101160000ED0D02914D100F01FF8002810D112E0C1
:1011700001791E290CD16888002100F05FF907E091
:101180000179002904D10289C188688800F042FAF7
:101190002846FEF77DFF0120C003604070BD00209F
:1011A00070BD0000DC70FF1F7FB582786E4C921F0F
:1011B0000025E1691300FEF74DFF0AAFD4D4681B88
:1011C00006D4D45F77D40546002908D00E68002ED7
:1011D00005D06B7B2A7B6989E81CB047C1E069892F
:1011E000A06900F067FE0028F8D0688901218DE031
:1011F0000546407800282DD1A879C0072AD0A888B4
:101200005949800020310858002823D10E2200219E
:101210006846FEF725FF6969002903D00622684663
:10122000103107E0A88807F0FBF800283BD0C11D6B
:1012300006226846FEF7FCFE69468889A9794907B7
:10124000C90F0843694688812946684603F0F8FBC0
:10125000002809D0E069002825D04368002B22D05F
:101260006A78A88801214EE0A8882A46694603F0DA
:1012700029FF002004B070BD002972D04B68002BFC
:101280006FD04278808802213DE00446C078002279
:10129000211D00F07BF8002863D1224625200C3266
:1012A000042107F0BCFB5CE00546607A0028A888B2
:1012B00001D0A17A2AE02C49491C095C002924D0DC
:1012C00007F0AEF80646A87AC0070DD0002E48D029
:1012D000B079002808D0A989890505D46A46F11D8E
:1012E00000F054F8002814D02A46B179A8880832B2
:1012F00003F058FCE069002833D04368002B30D05D
:101300000022A888114698472BE0052100F012FF23
:1013100027E0A8880321F9E700F0ACFD002820D1E0
:10132000E07B012806D0104E00241036305D0128E5
:101330000AD00DE003F004FD0B48E5730122002103
:101340001030FEF78DFE07E0204603F006FD355510
:10135000641C2406240EE9D0502007F053FB03F050
:10136000A7FD012086E70000DC70FF1F10B5064CCA
:10137000E0612178FF2905D0262000F0A5FE207825
:1013800001F012F910BD0000DC70FF1FF0B5012460
:1013900085B016460F46002807D0012805D0012544
:1013A00002280FD0032844D11EE0084603F034FD84
:1013B00004003ED1002E3CD0062239463046FEF7CE
:1013C00037FE36E01C4F002400910E206043C01908
:1013D0000622801D0099FEF737FE002823D1641CE9
:1013E0002406240EF1D01CE00024204606214843A8
:1013F0002330C0B26A46102107F006FB00280CD14A
:101400001022FF216846FEF731FE002805D139463B
:10141000684600F00DFE002805D0641C2406240E4A
:10142000E3D02C4605E0002E03D03146204603F0E1
:1014300019FD204605B0F0BDD48EFF1F70B50E46D5
:1014400017491525884212D1002432460221204630
:1014500003F04AFC002800D00025641C2406240E5A
:10146000F3D0002E1AD00F4807F03AF816E006F035
:10147000D7FF040011D0A0790022E11DFFF786FFFD
:10148000002804D13246022103F02EFC0025002E54
:1014900004D0204603F03AFD00E01425284670BD34
:1014A000FFFF00000D4F0211FEB51546012292020A
:1014B000821A00240127544E1300FEF7CBFD110AB7
:1014C000151A21282F373E434B757D848C9A9A56E6
:1014D0009A0001296FD1297802297ED84A48012231
:1014E000401CFEF7BDFD8CE0022976D12888708271
:1014F00087E0012971D1287801286ED8B07080E08A
:1015000001296AD12878042867D8F07079E0012988
:1015100063D12878012860D8307172E010295CD13D
:10152000102229463948FEF783FD6AE0012954D18B
:101530002878012851D8707163E001294DD12878AD
:10154000F0725EE0042948D131492868884244D8C5
:10155000B06156E0002940D100F08CFC002801D099
:10156000F7734EE003F0ECFB18E0072935D10622B3
:10157000691C6846FEF792FD287800226946FFF74D
:1015800005FF05000ED100F075FC002803D01E48B1
:101590001030077035E0284603F0DFFB502007F0DD
:1015A00031FA23E002242CE0012916D12878012801
:1015B00013D8707225E010E001290ED1287809288F
:1015C0000BD8B0721DE0012907D12878C11F092965
:1015D00003D8307315E0012901D0182411E0B07B45
:1015E0002978B17300280CD101290AD103F060FCDD
:1015F00007E02728D6D20229D4D1298800F064FD3B
:1016000004462046FEBD0000DC70FF1FC48EFF1F95
:101610003F420F00F8B50F4613491525164688427C
:101620000DD1002432463946204603F09BFC0028A9
:1016300000D00025641C2406240EF3D012E006F02E
:10164000EFFE00280DD08379C11D00221846FFF758
:101650009DFE002806D13246394603F083FC002562
:1016600000E014252846F8BDFFFF000070B50C46C9
:101670000146032000020A1A002534481300FEF731
:10168000E9FC1D1012151C1F2326282C303234387B
:101690003A3C3E40424446484A4E50525A545658AC
:1016A0005A00C07911E01022294902E0284910228D
:1016B00010312046FEF7BCFC45E0C06A206042E0E5
:1016C000224906223C31F4E7007820703BE0808913
:1016D00036E01E4942784231EBE71D4982781F39D6
:1016E000E7E7007AF1E7407AEFE718490622303160
:1016F000DFE7807AE9E7C07AE7E7C08920E0808AFF
:101700001EE0C0781CE0C08A1AE0008B18E0408B15
:1017100016E0808B14E00D4906223631C9E7C08BF4
:101720000EE0008C0CE0408C0AE08079CDE7008A66
:1017300006E0408A04E0272904D2084600F01EFB98
:10174000208000E00225284670BD00008871FF1F40
:10175000178FFF1F70B50E4C00256071A571691EB3
:10176000E18100F05FFC0420E071102200210948B3
:10177000FEF776FC0748102200211030FEF770FCBF
:10178000E562257265720720A072E57270BD0000E7
:101790008871FF1F178FFF1FFEB53B4D0C460804D5
:1017A0000CD56879FEF76EFC050004D004F0CAF988
:1017B0002846FEF76DFC0120C00360E0600403D5FD
:1017C000012080034840FEBD2F48E10701268079B3
:1017D00000292AD02978002920D0052821D0297A6B
:1017E00068460170697A4170274906223031801CB1
:1017F000FEF71EFCA97A68460172E97A41726946D1
:10180000687900F0D7FA002808D00720A871696A23
:10181000002903D00968002900D08847204670407D
:10182000FEBD032069460870E4E7A1070DD5052831
:1018300009D1E889FEF738FCAA8A002A03D00221E0
:101840006879FEF737FC022019E0600704D5002014
:1018500004F0D0F9042012E0200712D528790128DD
:1018600002D002280AD107E00096AB8B6A8B298B45
:10187000E88A00F00BF801E000F05AF90820604017
:10188000FEBD0020FEBD00008871FF1FF8B5134C9F
:10189000069EA579052D01D01420F8BD104F851F97
:1018A000BD4219D2062917D3BD1DA94214D2FF2764
:1018B000F537BA4210D20A2B0ED3AB420CD2E082DB
:1018C00021836283A383304604F094F90421607974
:1018D000FEF7F6FB0020F8BD1820F8BD8871FF1F49
:1018E0007A0C0000F7B50D4680490098164642185C
:1018F0007F4F00247879B9791300FEF7ABFB190EFE
:10190000141BE92040455970777E888FE996A2A97B
:10191000B4BFC8E9E9E9E9D3E900102D76D1102276
:10192000314674486FE0102D70D172481022314654
:10193000103068E0042D69D13068F862CEE0012DE6
:1019400064D13B7832783A70002B0AD0002A07D154
:10195000022903D0062901D0042901D100F0E4F9BD
:10196000BCE0002A0AD0012905D0032903D00529AB
:1019700001D0042902D10121FEF7A8FBAEE0022D1F
:1019800044D13088B881A9E01F2D3FD858481F2284
:1019900000214230FEF764FB55482A46314642306A
:1019A000FEF746FB524B7D7042332A46012112E07E
:1019B0001F2D7CD84F481F2200211F38FEF750FBF7
:1019C0004C482A4631461F38FEF732FB494B2A461F
:1019D0001F3BBD700021787900F0FCFB83E0012DF6
:1019E00065D13078042862D8387277E0012D5ED155
:1019F000307803285BD8787270E0062D57D13C48C8
:101A0000062231463030FEF713FB67E04FE0012D30
:101A10004DD1307807284AD8B8725FE0012D46D101
:101A20003078032843D8F87258E0022D3FD132882D
:101A3000BA82002A52D0052950D10221FEF73AFB82
:101A40004CE0012D33D13078012830D8F87045E0D2
:101A50003088022D2BD1062829D31921C9018842AB
:101A600025D8F8823AE03088022D20D106281ED3EE
:101A70001921C90188421AD838832FE03088022DF5
:101A800015D1FF21F531884211D2788326E03088C4
:101A9000022D0CD10A280AD31921C901884206D87F
:101AA000B8831BE03178012D01D1012901D0182420
:101AB00014E00821FEF710FB002801D016240DE0E9
:101AC000002004F097F804217879FEF7F9FA05E090
:101AD0000098272801D2022D02D002242046FEBD04
:101AE000318800F0F1FA0446F8E70000FFFCFFFF40
:101AF0008871FF1F178FFF1F1CB50B4CA1790029A0
:101B000001D011201CBD002800D0606206490748A2
:101B10002C31034601910090103B0022E17960795D
:101B200000F0BCF800201CBD8871FF1F278FFF1F2D
:101B300010B506488179052901D0122010BDC18950
:101B40001322407900F006FB10BD00008871FF1FD2
:101B5000F8B504462C480F460078022805D0012825
:101B600003D0082803D1002F01D01220F8BD002C8B
:101B700007D02088254D81006958002903D0112005
:101B8000F8BD0220F8BD06F04BFC060036D02C2034
:101B9000FEF7A8FA218889006850002830D02C224E
:101BA0000021FEF75DFA20881C22810069584880D8
:101BB0002088211D80002858001DFEF739FA218851
:101BC0000220890069580870228890002B5870798B
:101BD0001B1D002816D000200D49097802F0F8FAE4
:101BE0000546002F03D03946304607F0AFFC002DE4
:101BF00002D0208803F0E0FA2846F8BD1420F8BD92
:101C00001320F8BD0120E7E75377FF1FBC77FF1FC4
:101C1000E177FF1FFFB5204D81B028781E4617469B
:101C2000022823D0012821D0002F22D0019806F0CD
:101C3000F7FB04001FD0606A002801D0FEF758FAB5
:101C40001C213846FEF75AFA6062010015D0287848
:101C5000000714D5002E12D0887E00900B46123358
:101C60000A8A019807F03CFF014609E0122005B0FE
:101C7000F0BD0220FBE71420F9E71320F7E700216D
:101C80002079042210432071029A002A02D00222F5
:101C9000104320710846EAE75377FF1FFFB581B074
:101CA0001E460D4602240B9F0B00FEF7D3F90D1ABA
:101CB0000B1A1A0B1A1A1A1A1A1A1A081A000AA058
:101CC00002F04AFC2946019800F0D8F8040008D137
:101CD0003A4630460A9900F0AFF900F00FF902F0E9
:101CE00067FA204605B0F0BD4741505F446576690C
:101CF0006365496E69743A204741505F50524F46C0
:101D0000494C455F43454E5452414C207C2047414D
:101D1000505F50524F46494C455F504552495048DC
:101D20004552414C200A000070B5104C2168002932
:101D300004D00978814203D0032070BD122070BD09
:101D40000B4D02212878FEF7BBF90A480026468091
:101D500004212878FEF7B4F907480680216803209B
:101D600048700020FEF7D0F970BD0000B077FF1F6B
:101D7000E177FF1FC477FF1F5677FF1F272803D285
:101D800002494000085A7047014870475E77FF1FBC
:101D9000FFFF000010B5064C607006F071FB607824
:101DA000FEF7B8F90521607801F0BAFC10BD00001B
:101DB000E077FF1F70B5284E054630680C460028B6
:101DC00001D0112070BD254801780520014216D0B0
:101DD00023488068002805D00078002802D0C80772
:101DE00006D101E0102070BD00F044F8002808D0B2
:101DF0002078032805D0022803D0002801D0122023
:101E000070BD0C20FEF76EF93060002820D0057000
:101E1000002141700A222146801CFEF709F903F0D7
:101E2000CDFF040002D003F0BBF912E00D480078AA
:101E300003280ED11D20FFF7A1FF0B4900280880C1
:101E400007D00B48094A04210078FEF769F900E041
:101E50001324204670BD0000B077FF1F5377FF1F8B
:101E6000C477FF1F5477FF1F5677FF1F60EA0000FB
:101E7000E177FF1F10B506F021FB10BD70B50C46D1
:101E800005461C2200210948FEF7EAF808480570BB
:101E90004470FEF74BF90549002803D00020087074
:101EA000122070BD01220A7070BD00006C94FF1FEB
:101EB0005277FF1F7FB504460D46084606F0B0FA7C
:101EC000002805D00C48844204D9022004B070BD1B
:101ED0001220FBE7102200216846FEF7C1F8684691
:101EE0000470210A4170210C8170210EC1702946B5
:101EF00002F0D0F8EAE700003F420F0070B50F4C47
:101F00000025A068002802D0FEF7F2F8A560E0687E
:101F1000002802D0FEF7ECF8E560094805210078BA
:101F2000084206D00548103003F00CFD02F05EFDBB
:101F300070BD002003F006FD002070BDC477FF1FB8
:101F40005377FF1FFEB5344D0C46080419D5687849
:101F5000FEF798F80121C9034C40064600280ED030
:101F600003F010FC002807D12878FF2804D0314660
:101F7000FEF7E2F8002802D03046FEF789F8204646
:101F8000FEBDE007012700280AD0A868002804D079
:101F90004168002901D00020884720467840FEBDD6
:101FA000A00709D56868002804D04168002901D03D
:101FB0000120884702202AE060072AD5174E308882
:101FC00000281FD0401E0004000C30801ED103F0FA
:101FD00059F9002809D0124807706868002804D011
:101FE0004168002901D00120884703F025F969469E
:101FF00001F0CEFF684603F0AFFB1D20FFF7BEFEE9
:10200000308003E004216878FEF75AF8042060402D
:10201000FEBD0020FEBD0000E077FF1F5677FF1FCA
:102020005577FF1F0149087070470000E077FF1FD8
:1020300010B502F097F810BD70B50E4C0B46261D7A
:1020400007C60546102200211846FEF70FF80128A2
:1020500003D11021A06807F0E5F8102200212846DE
:10206000FEF704F8012803D11021606807F0DAF8C0
:1020700070BD00006C94FF1F38B505460F480C4634
:102080000078400701D4122038BD284606F0C8F970
:10209000002811D00A48A9004058002801D0817DAD
:1020A00000E02146684607F071FD064B6A460221B2
:1020B000284607F0D1FC38BD142038BD5377FF1FE8
:1020C000BC77FF1F99A00211272807D2044A91422A
:1020D00004D0044A4000115200207047022070478B
:1020E000FFFF00005E77FF1F70B50E4610491546D2
:1020F0000978022916D0012914D0002D14D006F039
:102100008FF9040012D0002E03D020790221084359
:10211000207110222946A018FDF78AFF2869206245
:10212000002070BD122070BD022070BD142070BD53
:102130005377FF1F38B50C46054606F071F90028A5
:1021400006D0684604706946284607F073FC38BD1F
:10215000142038BDF8B50D4617461D4906461B4AE2
:102160001224C868954208D100282DD00268002AA0
:102170002AD029463046904723E0144A521C954203
:1021800013D1002807D00268002A04D0294630461F
:102190009047040005D03946304602F069FA040041
:1021A00012D10B48067047700EE0284606F038F949
:1021B000002809D00078B04205D139462846FDF7FD
:1021C000C1FF044600E003242046F8BDFEFF0000E6
:1021D000B477FF1FF8B50E4601461948154600783A
:1021E00005221F46104028D0304326D01548012E26
:1021F0001BD0C468002C20D01F2D18D8002D01D072
:10220000002F14D001701F220021601CFDF728FF51
:102210002A463946601CFDF70BFF28462570002E24
:1022200007D0611CFDF794FFF8BD8468E2E7022047
:10223000F8BD611CFDF792FFF8BD1220F8BD00004B
:102240005377FF1FC477FF1F014610B50020C90751
:1022500004D0034A0421034800F0ACF910BD00008B
:1022600004A702110C72FF1F70B50F4D0F4CA87020
:1022700029461831204600F01DF8002128460B465B
:102280001030CA0084521218491C09065360090E06
:10229000F7D0012004F072FCA87800F071FB04482C
:1022A00006F034F970BD0000EC71FF1FFFFF000065
:1022B000B563021170B50A4C0025A04209D1002077
:1022C00082008C525218401CC0B295700228F7D37D
:1022D00070BD04F03EF80028FAD00480857070BD0F
:1022E000FFFF0000F8B50E46074606990024079840
:1022F000002902D00B242046F8BD022B01D00D246A
:10230000F9E711785278120289188DB22946814373
:1023100001D08024EFE73846F16800F03DF9A8428B
:10232000E9D02A463846F16800F0CCF90400E2D141
:1023300071892A46384600F06BF9DCE770B50C4627
:10234000080412D50A488078FDF79CFE050008D0E5
:102350002878B02802D1284604F018F92846FDF75D
:1023600097FE0120C003604070BD002070BD0000DA
:10237000EC71FF1FFFB587B0087A0025109E1C4640
:102380000F46C0060DD5099803F0DCFF030006D008
:102390000A22394607989847050035D101E00E25F5
:1023A00032E0387802281DD17868292201784078F7
:1023B00012020002081880B2811A90427ED009DC15
:1023C0007249401A23D0012821D0022851D0032875
:1023D00008D125E0012972D0022971D003296DD0DE
:1023E00004296ED0099803F0D5FF0028D7D00568DE
:1023F000002DD4D0129911980191009033462246B5
:1024000039460798A847054628460BB0F0BD1198F5
:10241000002873D1F868017831800278416897E02C
:10242000119800286AD101203080F86800210078D6
:1024300020707889401C80B200F072F900280FD01B
:10244000318802788918891C3180817A61704189CC
:10245000090AA17002784168E01CFDF7E9FDD3E7A5
:1024600030880422001D30800021601CFDF7F8FD3B
:10247000CAE71198002872D1F86804A90088009072
:1024800004203080009820700098000A6070009846
:1024900000F046F9070028D0F86805906846028ADF
:1024A00003AB3B49384600F093F900280FD13B7845
:1024B000022138487A68FEF77AFA03E027E031E033
:1024C0001DE049E0002802D1401E69468881059838
:1024D000007802280CD1059802224168201DFDF7E2
:1024E000A7FD3088801C308002E069460098888112
:1024F00068468089A070000AE07085E72FE0119897
:1025000000282CD1F968079800F046F804E01198EB
:10251000002824D1F8680088022131802070000A48
:10252000607071E7F868FDF71FFE1199C0B2814233
:1025300010D8814201D1002206E0129A8918814206
:1025400002D31199401AC2B23280F9681198091861
:10255000204682E7072557E71198002801D00B2570
:1025600052E70721F8683180017821704178617065
:102570008178A1704188090AE1700179217181791E
:102580006171C088000AA0713EE7000000280000C9
:10259000FFFF0000CAA8021110B503F0DAFE002800
:1025A00000D0807810BD000001490870704700001D
:1025B000EC71FF1F7CB51446050019D068460195E3
:1025C000018000F0E3F903001DD1002C1BD06D89C0
:1025D000002D0DD00C20FDF785FD00280AD000232A
:1025E00003608580094A84609168002904D006E070
:1025F000022308E0132306E0906004E011460A6815
:10260000002AFBD1086018467CBD0000EC71FF1F5A
:10261000F8B50C4C0746207815460E46FF280FD01B
:102620000A20FDF7A7FD01000AD0B12008700020A4
:10263000487008714F80CE800D812078FDF77CFDB9
:10264000F8BD0000EC71FF1F70B50C460546064949
:10265000FFF7A2FF800704D52146284600F0EAF9DB
:1026600070BD012070BD00000472FF1F1CB56B46D9
:102670001A71120A5A7100220092022301AA00F074
:1026800001F81CBDFFB583B008461F4601A90C9E8A
:1026900000F046F8050012D06846808803F07AFE04
:1026A00000280AD04468002C07D000963B462946F3
:1026B000059A0398A04707B0F0BD0E20FBE7012064
:1026C000F9E7000070B514460E46054603F041FEDA
:1026D000002806D13146054803F03BFE002803D010
:1026E00005808470002070BD112070BDFFFF0000C8
:1026F00010B50178B0290BD14178002908D10179B2
:10270000122906D01B2903D14088012100F092FF35
:1027100010BDFF210231095C0129F5D010BD000078
:10272000F0B58C4610494B6819E09F687C89A0423F
:1027300014D39E883119814210D900220CE0110176
:102740007D186989814205D16046002800D0048047
:102750002846F0BD521C92B29642F0D81B68002B5E
:10276000E3D10020F0BD0000EC77FF1FFFB5174854
:1027700081B00A9F446824E000251EE0A06829017A
:10278000461870890199884215D30299884212D857
:102790000498002807D031787068049B039AFEF7EC
:1027A00006F9002807D0002F02D0A06840893880A1
:1027B000304605B0F0BD6D1CADB2A088A842DDD892
:1027C0002468002CD8D10020F3E70000EC77FF1F2D
:1027D000FEB5174600256A469580044640891D4A85
:1027E0001E46904208D001AA0092401C237880B275
:1027F0006268FFF7BBFF054623780221164862682E
:10280000FEF7D5F8002807D1237802211348626823
:10281000FEF7CDF8002801D060890EE02378022170
:102820000F486268FEF7C3F800280DD0002D03D0D2
:1028300068468088B84203D0384604F0B3FA04E012
:102840006889401E80B200E06089002E00D0308090
:102850002846FEBDFFFF0000C8A80211CAA8021149
:10286000CEA80211FFB581B00F461E461446694638
:10287000019803F0B5FB050018D1002C06D0012209
:102880001021019805F0A6FD05000FD139460198E9
:10289000FEF722F9050009D1009CFF2E06D0214643
:1028A0001E22A31C034804F089FAE670284605B0EE
:1028B000F0BD0000A96C021110B505490870042193
:1028C00000F02EFF00F006F8FEF71AF910BD000028
:1028D000FC77FF1F70B50E4C00200C4B651CFF22CF
:1028E0008100C91800280ED00D80401CCA70C0B2EB
:1028F0008A700228F4D3074803F016FD064805F055
:1029000005FE002070BD0C80EFE70000F477FF1F8C
:10291000FEFF0000D56C0211296C0211F8B50D46BE
:1029200014460646694603F05BFB17280CD0002CC2
:1029300006D001221021304605F04CFD002803D1BD
:1029400029463046FEF7D2F8F8BD000070B50C46B7
:10295000080411D509480078FDF794FB050007D05D
:102960000178A02901D103F083FC2846FDF790FBF4
:102970000120C003604070BD002070BDFC77FF1FC8
:102980000149087070470000EC77FF1F70B50546DD
:10299000008800281DD06868022103784268224818
:1029A000FEF705F8002808D168680221037842681C
:1029B0001E48FDF7FCFF00280BD01D4C6088002846
:1029C00005D0012229881204101A814203D901205E
:1029D00070BD022070BD0C20FDF784FB060001D005
:1029E00000200AE0132070BD02016B6861880A3282
:1029F0009952491C401C618080B229888142F3D8D9
:102A00000020306008222946301DFDF711FB606868
:102A1000002802D1666004E0084601680029FBD165
:102A20000660002070BD0000C8A80211CAA80211EB
:102A3000EC77FF1F70B5BEB00D460646002402239A
:102A40000E4A0F4901200094FFF790FE002812D093
:102A500040896A4610800420508001201071547112
:102A6000FF209071D0712B46002269463046FFF757
:102A7000F9FE3EB070BD0120FBE70000E6A80211A0
:102A8000FFFF00000649496806E08A6852898242D1
:102A900001D18888704709680029F6D10020704765
:102AA000EC77FF1F10B51422114201D0012202E081
:102AB0004A0604D50022102105F08CFC10BDC80781
:102AC00001D0002010BD022010BD10B514468A06AA
:102AD00004D50122102105F07DFC10BD8822114291
:102AE0000ED008220A40102105F074FC00280BD0FB
:102AF000E034617E0029F0D0217E0129EDD103E090
:102B0000880701D4032010BD002010BD014610B578
:102B10000020C90704D0034A07210348FFF74AFDF4
:102B200010BD0000F0A602111471FF1F70B50D4614
:102B3000164600241D490300FDF78CFA08051234DF
:102B4000341934222934152D23D81622002118488F
:102B5000FDF786FA2A4631461548FDF769FA22E064
:102B6000022D16D111491088103908801BE0082D5C
:102B70000FD10E48082231460838FDF701FB12E05C
:102B8000012D06D1CA6909493078283107E0012DA5
:102B900001D0182407E0CA6B04493078483104F0AA
:102BA000CEF900E00224204670BD00001471FF1F22
:102BB000E28EFF1F10B5012208490020FFF782FDB9
:102BC0000649012208310020FFF77CFD034901225C
:102BD00010310020FFF776FD10BD0000E674FF1FE6
:102BE00038B50F4C6946E0710120087001466A460D
:102BF0000C48FEF759FC0025ED432846FFF786FFF9
:102C00002846FFF721FBFEF75FF9FEF7EBF80020FF
:102C1000FEF754F90121E079FDF758FA38BD0000BC
:102C2000AC74FF1F0D040000FEB55E4D0C46080499
:102C300009D5E879FDF726FA002801D0FDF728FA32
:102C40000120C0039CE0E007012600280CD0554875
:102C50001C30FEF751FF5448FEF788FB53A001F0EB
:102C60007BFC20467040FEBD4E48610700780DD5C4
:102C7000052809D1A878002803D004F0BBFE50A095
:102C800000E055A001F068FC042079E0A1070AD516
:102C9000052806D1FEF702F9584A0221E879FDF726
:102CA00009FA02206CE0210724D56978082026461D
:102CB000464000291AD052A001F04EFC6879A9794B
:102CC00088420FD00B21401CFDF7D6F969710B200B
:102CD000414350480B1805D09A7859781878DB1C76
:102CE00004F02CFE6879A979884201D13046FEBDF6
:102CF0002046FEBD484DE10615D569460E700E71A1
:102D000005280ED1312001AA01210001FEF7EAFDBC
:102D10006A4601214148FEF7E5FD697A40A001F0CD
:102D20001BFC10202CE0A00639D50020FDF7CEFEBC
:102D3000C0B20027B92825D09E2823D04D2821D005
:102D40006F72FFF737FF4348C82201210078FDF773
:102D5000B1F9414828602E72A87A002814D00121C8
:102D60002F710846FDF712FA01210020FDF70EFA37
:102D7000002000F083FF697A38A001F0EDFB2020ED
:102D80006040FEBD6E72DCE72E7100210120FDF770
:102D9000FDF900210846FDF7F9F90120E9E70020D7
:102DA000FEBD0000AC74FF1FD0A7021173746172E6
:102DB0007420446576696365204556540A0D000009
:102DC000686964446576537461727449646C6554CF
:102DD000696D6572200A0D006869644465765374F4
:102DE00061727449646C6554696D657220646973BD
:102DF000636F6E6E656374200A0D0000983A0000E0
:102E000053656E6420486964205265706F72740A5D
:102E10000D0000008A93FF1FDC76FF1F19030000DE
:102E20006465766963652075706461746120636FA1
:102E30006E6E656374656420706172616D656E7439
:102E40002C2070686F6E652074797065203D256454
:102E50000A000000EA76FF1F110E000070686F6E16
:102E600065207479706520636865636B2025640A4A
:102E700000000000FFB583B000200C9F029048685E
:102E80000E46017840781D4600020818594A5949F3
:102E9000584B84B22B391B3B901E002F04D0844228
:102EA00025D00B2007B0F0BD944207D08C4205D04E
:102EB0009C4203D04F491A398C4216D1708904F0D4
:102EC00023FD00280ED00599009501914A4A4179C9
:102ED00052690079156801232246A847029000280C
:102EE00002D085E00020288080E084425CD1434805
:102EF0000088874202D30720029079E03E4C7D2271
:102F000052011021E079FDF7D5F87D22D200202171
:102F1000E079FDF7CFF80020FDF7D8FDC1B23848C1
:102F2000B92906D09E2904D04D2902D0002F06D001
:102F300008E0002F06D101224272002201E00022A7
:102F4000427262812E48427A2EA001F005FB2B4886
:102F50000D990088C01B884200DD08462880039830
:102F6000FDF7B4FD0090019724482B8801882DA01F
:102F70000D9A01F0F1FAF0682A88C1190598FDF759
:102F800057F828886189401880B21C4960810988F7
:102F900088422BD11A48407A002827D16422202168
:102FA000E079FDF787F821E01248C01E844204D181
:102FB000042028800246F16815E0274902208C424F
:102FC0000ED00C49491C8C4206D101202880F068A3
:102FD00001780598017009E01F49491E8C4205D10E
:102FE0002880F16802220598FDF722F804F002FD1E
:102FF000029857E74D2A0000AC74FF1FD074FF1FE2
:10300000DC76FF1F6D74755F6C656E3D25642C70FA
:10301000686F6E652074796570203D2025640A0D07
:10302000000000004849445F4D41505F4C454E3D13
:1030300025642C6D61783D25642C2A704C656E3DAD
:1030400025642C6D74753D25642C6F6666736574FC
:103050003D25640A0D00000008290000014A516165
:1030600090617047AC74FF1F014A11611072704784
:10307000AC74FF1FF8B507460D480E4601781C4694
:103080001546052912D14178002909D04179807966
:10309000814205D13146384604F050FC002805D065
:1030A00023462A463146384604F0CAFAF8BD0000E5
:1030B000AC74FF1FFFB583B00C9B002415460F4670
:1030C0008446002B02D00B2007B0F0BD7868017851
:1030D00040780002081886B23E48864203D03D4838
:1030E0001B38864212D1788904F00EFC00286AD081
:1030F00006A901950091384A41795269007914680E
:1031000000233246A04704005DD05EE03248314AD9
:1031100041696846521E008B96420AD1012841D16E
:103120002878002801D0012843D1002849D0012067
:1031300047E02A4A96422FD1012100930191C3B260
:103140002A4639466046FFF7CDF804003DD169783C
:10315000287809024018204982B208697B89097AD7
:1031600015E047889F420FD100282CD006A9019571
:103170000091012A0ED00323174A41795269007940
:1031800015683246A8471EE0491EC9B2083000291A
:10319000E7D118E00223EFE70E4A521C964212D103
:1031A000012801D00D2410E02878002803D0012840
:1031B00001D0802409E0FA6810702878002806D031
:1031C00003204968884704F015FC20467CE702206C
:1031D000F7E700004D2A0000AC74FF1F0229000031
:1031E000F8B5334C31492046FFF764F82F492046A3
:1031F0000831FFF75FF82D4920461031FFF75AF8E4
:103200002A482C4A1D211A30FFF7D4F9009027488C
:103210001A30C1690220FDF7FDFD24492648C91F67
:103220000F7807714E784671E1314A890280498BE7
:1032300041801E4901228271491F0D7805734C7827
:103240001E4B4473598901810021418182730775A6
:1032500046755B8F0382194B40335E8946828175C8
:10326000057744775B8D0383418303468177203361
:10327000124C1A715A71803465890584658B4584B6
:103280000A4D9971ED1E2E781E736D785D73648FF3
:103290000485418501469A7330310320FDF7BAFD5C
:1032A00005490720FFF7E0FE0098F8BDE674FF1F10
:1032B000FFFF000048A802110494FF1F0076FF1FC3
:1032C00070B50C4C049816190B4A0124002E0FD02F
:1032D00000251B2E03D1022903D0032903D01D8012
:1032E00004E0117800E0917801701C80002070BD2E
:1032F0005178F9E7CED5FFFFDC74FF1FF0B5644EBF
:103300008DB0707006211F20FEF7DEFE0024684697
:103310000471048407210172012505730A21818447
:1033200014210185FF218485F531018604AF0494C1
:1033300002225848791C0594FCF72EFF0422F91C40
:103340001003FCF729FF30460622791C1030FCF7E9
:103350006FFE51A001F000F90621781C05F088FAF3
:1033600001AA01214E48FEF7BDFA4D4808AA0221E4
:10337000401CFEF7B7FAC32002AA01218000FEF725
:10338000B1FA474832462B321321801CFEF7AAFAC5
:10339000324661200C321F21C000FEF7A3FA312013
:1033A00003AA01210001FEF79DFA3D4809AA022166
:1033B0000C30FEF797FA3A480AAA02210D30FEF7C0
:1033C00091FA37480BAA02210E30FEF78BFAC5207E
:1033D0000CAA02218000FEF785FAC7216846017019
:1033E000032747706A4602210120FFF79FFB324600
:1033F0003E3215210020FFF799FB684605940571C0
:10340000047207730574812005AA0421C000FEF729
:103410004BF8012101AA8802FEF746F8204802AACB
:103420000121FD30FEF740F81D4803AA0121FE30BE
:10343000FEF73AF804AA01211A48FEF735F8A0244D
:1034400021460620FEF740FE21460720FEF73CFEFF
:1034500021460820FEF738FE21460920FEF734FEFB
:10346000FFF7BEFE31465431301DFFF7F7FD0EA1C8
:1034700003C90791069006A9082005F053FB00F048
:103480003BFA01217078FCF721FE0DB0F0BD000081
:103490004874FF1F044000004D41433A0000000003
:1034A00005030000060400004C454E5A455A505191
:1034B00038B50C4608040DD512484078FCF7E2FDFB
:1034C000050004D004F0FCFA2846FCF7E1FD0120D9
:1034D000C00312E0E0070AD00125684605706A467D
:1034E00029460948FEF7FEF92046684038BD200706
:1034F00005D50020FCF756FE0820604038BD0020AE
:1035000038BD00004874FF1F0503000030B50F4DA3
:1035100000205519039C0E4A13D01B2D04D10229FB
:1035200003D0032908D00A2030BD012B02D1217815
:10353000117030BD0D2030BD012BFBD12178917071
:1035400030BD012BF6D12178517030BDCED5FFFFB3
:10355000DC74FF1F10B500210E20FCF729FE0121AD
:103560000E20FCF72BFE00211120FCF721FE01218B
:103570001120FCF723FE0F4A00211120FCF724FE46
:1035800000210C20FCF714FE03210C20FCF716FE92
:1035900000210420FCF70CFE01210420FCF70EFEA4
:1035A00001210020FCF704FE01210020FCF7EEFDC4
:1035B00010BD0000E927FF1F0B7803700B88022263
:1035C0001B0A43700B88801C012B02D0022B07D0F2
:1035D00011E08A7802704988090A417004220AE0E1
:1035E0008A7802704A88120A42700A798270898841
:1035F000090AC170062210467047000008B5044B46
:10360000009313460A46012104F034FE08BD000071
:10361000B93502111CB50323019200930A46024BEF
:10362000122104F057FE1CBD957B021110B5FCF76A
:10363000D1FD10BD13B504480078012803D101AABB
:103640006946FCF7CDFD1CBD0878FF1F70B50F491A
:103650000F4A087000210B468C00491CC9B2135355
:103660000429F9D30A4C00211034FF260A460A2502
:103670006A4315196B80491CA354C9B26E720329A1
:10368000F4D3FCF7B3FD04F0C9FD70BD0978FF1F4A
:103690008894FF1F082A01D0012070474B780A78D0
:1036A0001B02D2180280CB788A781B02D218428083
:1036B0004B790A791B02D21882808A79C97909026A
:1036C0005118C1800020704770B50C46080411D510
:1036D00009480078FCF7D6FC050007D0017890294E
:1036E00001D104F0FDFC2846FCF7D2FC0120C00308
:1036F000604070BD002070BD0978FF1F70B50028C4
:103700000AD1064C00252580A581A580A068002847
:1037100002D0FCF771FDA56070BD00000495FF1F8D
:10372000072907D0052905D0042903D0062901D08F
:1037300002207047044A8B009A181346403B1986B2
:10374000203A9074002070478894FF1F70B50600DF
:103750001BD10E4C0025214640310D744D740D7661
:10376000606D002802D0FCF747FD65655C200025F0
:1037700046433419E80020184068002801D0FCF7BF
:103780003BFD6D1CEDB20A2DF4D370BD1495FF1FE7
:1037900070B50A880C460546072A07D0052A05D0C9
:1037A000042A03D0062A01D0022070BD012104F0B2
:1037B000DBFE002804D02146284604F001FA70BD43
:1037C000142070BD10B5001D80B2FCF71BFD002851
:1037D00003D00321C943FCF71BFD10BD7CB5254870
:1037E000817925A000F0B8FEFCF718FD002111201A
:1037F000FCF7DEFC01211120FCF7E0FC002108466B
:10380000FCF7D6FC01210020FCF7D8FC00210120A8
:10381000FCF7CEFC00211320FCF7CAFC012108466E
:10382000FCF7CCFC01211320FCF7C8FC0E216846F4
:103830000170002141700A2141800C210171012198
:1038400041710521C1806820FCF7EEFC0E4D762405
:10385000EC600E4E03E03046FCF7ECFCEC600E2012
:10386000FCF7EEFC0028F6D002216846FCF7EEFCDF
:103870007CBD0000DC76FF1F504F574552204F465D
:10388000465B25645D0A0000002000401027000010
:1038900070B50E20FCF7D4FC164D2C46143C0028C5
:1038A00016D01120FCF7CCFC002813D0207800287B
:1038B0000DD00020207028710A2201212079FCF708
:1038C000F9FBFF22F53210212079FCF7F3FB70BDE4
:1038D000012000E0022021788142F8D02070287178
:1038E0000A2201212079FCF7E5FB10212079FCF761
:1038F000E7FB70BD0C77FF1F10B5FFF72BFE0E48DE
:1039000001680EA000F028FE002211466820FCF796
:10391000A3FC6820FCF7A6FC0C20FCF791FC002817
:1039200005D00E48012141718172002101711E21D3
:10393000002000F0F3F910BD800AFF1F506F77657B
:10394000725F466C6173685F53617665645F466C55
:103950006167203D205B25785D0A0000DC76FF1F53
:10396000F8B57A4D0C4608040CD52879FCF78AFB8B
:10397000050004D0FCF77CFC2846FCF789FB0120FD
:10398000C003DEE0E0070126002700287ED0FCF718
:1039900075FC01216D4E08431436286130790028EA
:1039A00068780ED0002817D11421E868FCF76CFC69
:1039B000002811D0012068702869A8603079A870AB
:1039C0000AE0002808D01421A868FCF75DFC002854
:1039D00002D02869E8606F707079002830D03068B4
:1039E00000282DD0FA21FCF74FFC002828D071794F
:1039F00057A000F0B1FD5C48817A00291DD1717992
:103A000002291AD1E978012902D0022902D014E052
:103A1000877112E0007A01280FD154A000F09CFDBC
:103A2000554808210078FCF74BFB1D21012004F0CC
:103A300027F80021012004F023F837607771EF7038
:103A4000A878002814D03079002817D11421A8684C
:103A5000FCF71AFC00280BD07079401CC1B27171C0
:103A600028693060AA78EA7044A000F075FDAF7054
:103A70003079002802D17079002804D01422012165
:103A80002879FCF717FB01205BE0FFE7200708D54A
:103A90001E2208212879FCF70DFBFFF7F9FE08200C
:103AA0004FE0E00612D53CA000F056FD3E4A002152
:103AB0000E20FCF789FB3C4A00211120FCF784FB17
:103AC00008212879FCF7FCFA10203AE0A0063AD544
:103AD000FF22F53220212879FCF722FB0420FCF795
:103AE000AFFB002818D031A000F036FDFCF7D2FB68
:103AF000FCF7D6FB01211320FCF75AFB0021132011
:103B0000FCF744FB1848C6722C480178642901D29E
:103B1000491C00E0642101700C20FCF791FB002897
:103B20000ED127A000F018FD0F48C8228771284841
:103B300001210078FCF7BEFA20212879FCF7C0FAB1
:103B400020206040F8BD0020F8BD0000F876FF1F7F
:103B50004B657920746F74616C204B69636B206EC8
:103B6000756D3A2025640A00DC76FF1F4354524CE1
:103B70002F434D442B5A0A004974FF1F6B6579206F
:103B800074696D65206E756D3A2025642C206B6517
:103B90007920697325640A0073746F702073636100
:103BA0006E66200A00000000E927FF1F636861724B
:103BB00067652066696E6973680A0000A473FF1F59
:103BC0006368617267652073746F700A000000009B
:103BD0001777FF1F70B51A4C1B4D2071194880795B
:103BE00001280DD119A000F0B7FCFF22F532012108
:103BF0002878FCF75FFA194A00210E20FCF7E4FA56
:103C00000C20FCF71DFB002811D015A000F0A4FC2F
:103C10001949BB200870C82204212878FCF74AFA09
:103C20007D22D20020212079FCF744FA04E0002212
:103C30000A490C20FCF7C8FAFCF738FB70BD0000FD
:103C4000F876FF1FDC76FF1F1777FF1F706F776511
:103C500072206F6E206C65640A000000E927FF1F68
:103C60005374617274204368617267696E67205093
:103C70006F7765726F6E0A00A573FF1F10B501287C
:103C800008D00020FCF718FB0120FCF715FB00F022
:103C900033F810BD00F030F8002201231146104621
:103CA000FCF710FB15210020FCF712FB012300227A
:103CB00011461846FCF706FB16210120FCF708FB0D
:103CC0000022012311460220FCF7FCFA13210220F6
:103CD000FCF7FEFA212210210020FCF7FFFA202237
:103CE00010210120FCF7FAFAFF2211460220FCF70E
:103CF000F5FAFCF7F9FA10BD10B501211520FCF713
:103D000057FA00211520FCF741FA01211620FCF793
:103D10004FFA00211620FCF739FA10BDF8B5164D00
:103D20000E466979002902D00120A871F8BD3446F9
:103D30000028FBD1002CF9D000270A20FCF7DAFA82
:103D40000E20FCF77DFA002809D0641EE4B221465B
:103D50000AA000F001FC002CEFD10DA006E0B44257
:103D600003D00EA000F0F8FBDEE710A000F0F4FB9B
:103D7000AF71FFF733FDF8BDDC76FF1F72656C6530
:103D80006173652066697273742025640A000000FF
:103D90006E6F2070726573730A0000007072657335
:103DA000732066697273740A000000007072657394
:103DB00073206572726F720A0000000010B5012155
:103DC0000846FCF7F5F901210846FCF7DFF9012167
:103DD0001320FCF7EDF901211320FCF7D7F910BDF2
:103DE000F8B5454E0C4608040CD5F078FCF74AF9B6
:103DF000050004D0FCF73CFA2846FCF749F90120FD
:103E0000C00374E0E00700273C4D002837D0A879B4
:103E1000012802D000282ED02FE0287A00280BD0CD
:103E200000F00CFB7D22D2000121F078FCF742F972
:103E30002879012813D020E0A87A0028F2D1B078A0
:103E4000002805D001210846FCF7A0F9B770E9E782
:103E500000210120FCF79AF90120B070E2E72968FF
:103E60000122491E26A0296000F076FB2868002860
:103E700003D1AF7101E0FFF7B1FC012037E0A007EB
:103E800003D500F067F8022031E0600731D5FCF778
:103E900037FA7770FF20307001211320FCF788F982
:103EA00001211320FCF772F90022012311460220A0
:103EB000FCF708FA13210220FCF70AFAFF22114648
:103EC0000220FCF70BFAFCF70FFA287A012809D137
:103ED00014A000F041FB01210020FCF757F900205D
:103EE000FFF7CCFE01210846FCF750F904206040A2
:103EF000F8BD0020F8BD00001477FF1FDC76FF1F1F
:103F000073797374656D207469656D7220574F52B3
:103F10004B494E47203D205B25645D2A5B25645D4F
:103F2000730A00006368617267696E672064697371
:103F300061626C652050574D206F75747075740AFE
:103F40000000000010B50249C870FFF737FF10BD30
:103F50001477FF1F0D4810B5427801460978002AF2
:103F600005D0491CC9B20170FF2907D008E0491EDD
:103F70000906090E017003D1012100E00021417002
:103F80000178FF220220FCF7A9F910BD1477FF1F6A
:103F900038B50C46050014D0002C12D00321684619
:103FA00005F040F96946887840218006800E084374
:103FB000694688702246284605F0A8FE050002D012
:103FC00006E0022038BD03226946E01CFCF730F809
:103FD000284638BDF7B58EB00E9815460E46002817
:103FE0002DD0002D2BD0301DC0B20190FCF77AF8F7
:103FF000040039D001F02CF907463246201D0E99F5
:10400000FCF74CF8F8B20890E0703804000E0B9002
:10401000A0703802000E0A9060703F0E277001F009
:1040200011F90146102202A8FCF738F806AB214628
:1040300002A8019A05F0C0FD060003D010E002209E
:1040400011B0F0BD089828700B9868700A98A87095
:10405000EF70082206A9281DFCF720F801F0FEF8F1
:104060002046FCF745F800E013263046E8E700005C
:1040700010B5064C2070FCF749F906212078FFF7AF
:104080004FFB034804F042FA10BD00001878FF1FF0
:1040900079920211F8B50E461F4C0146B5006059E1
:1040A0000027002807D02422125C022A05D0032A08
:1040B00003D0042A01D01220F8BDC288B24201D038
:1040C0000220F8BD10220C30FBF7B2FF605910211E
:1040D000353005F0A7F8615930460B460A462533BE
:1040E00035320C3105F034FE605902210278002A85
:1040F000427807D0032A0BD14170304605F05CF8B6
:10410000074605E0042A02D0032A03D000E04170EC
:104110003846F8BD0521EFE72478FF1F70B50C463F
:10412000080419D50D480078FBF7ACFF05000FD047
:1041300005F0C2F9002808D109480078FF2804D00A
:104140002946FBF7F9FF002802D02846FBF7A0FF1D
:104150000120C003604070BD002070BD1878FF1FB3
:10416000E077FF1F7CB50C4605001DD0002C1BD04E
:104170000322E11C6846FBF75BFF69468878402113
:104180008006800E08436946887001AA284605F01B
:10419000BDFD002807D10322214601A8FBF754FFEB
:1041A000012803D001207CBD02207CBD00207CBD05
:1041B00010B505480078400701D5044800E000200C
:1041C00005F02EFA002010BD5377FF1F0C78FF1F5B
:1041D000FFB581B00020274C9500009060591E4625
:1041E0001746002802D0112005B0F0BD002E0BD0DC
:1041F0002120FDF7C3FD317E884205D82220FDF73E
:10420000BDFD317E884201D20220EDE77820FBF728
:1042100069FF605100282AD078220021FBF720FF97
:1042200061590020487062590199117062590299D0
:1042300091706259FF21D1706159CF8061598E60B0
:10424000615908626159203108710198002803D032
:10425000384604F0C7FF009061590120487000986B
:10426000002802D0384604F079FF0098BCE71320FC
:10427000BAE700002478FF1FFFB58DB00F98169C99
:104280000E46002815D0002C13D00D9804F0C8F865
:10429000050011D06178207809024018A178E278F1
:1042A0000904120689184718286AB84206D3401C28
:1042B00004D0022011B0F0BD1420FBE7002E04D082
:1042C0002879800701D40120F4E70822002106A8FC
:1042D000FBF7C6FE1098001DC0B20190FBF702FF6D
:1042E000060017D0301D109A0F99FBF7D7FE042255
:1042F00021463046FBF7D2FE1022A91802A8FBF790
:10430000CDFE06AB314602A8019A05F055FC05002A
:1043100002D013E01320CDE7082206A908A8FBF776
:10432000BDFE0822211D08A8FBF78EFE012801D042
:10433000012503E039460D9801F09AFD3046FBF760
:10434000D7FE2846B6E70A4610B501460020FBF71F
:10435000E3FF10BDFFB583B00F4603981B49400033
:104360001646085AFFF72EFA04002AD00125601CD1
:104370002670002F03D00699B847401C85B230063E
:1043800010D51021039804F0EFF8002801D0192669
:1043900013E06219E9B22046FFF71CFE06000CD1BB
:1043A0000C35ADB20421684601800194058169464F
:1043B0000398FFF7EDF9060004D02046FBF71CFF39
:1043C00000E01326304607B0F0BD00004C77FF1F19
:1043D00070B504460079BEB0C0072AD0608816497F
:1043E000FEF7DAF8144EC00701250C3E00280CD069
:1043F00030461C30418D684601804580317801711E
:10440000608800226946FEF789FA0B496088083106
:10441000FEF7C2F8C0070CD0074800225030418D8B
:104420006846018045807178017160886946FEF7B1
:1044300075FA3EB070BD0000B073FF1F10B50248A2
:1044400004F04EF810BD0000D143021170B51046C3
:10445000049A0025002A01D00B2070BD4A68124E34
:10446000147852781202A21892B2104CB24208D1BB
:1044700022785F215F2A00D92170012119802178DB
:104480000DE00B4EB24205D102221A80C968FBF73B
:10449000CFFD07E00449491C8A4202D161780170CE
:1044A00000E00A25284670BD192A0000A473FF1FEA
:1044B00008290000FEB54C68154626786478089AED
:1044C000240234191A4EA4B2F4420ED1194C4E896A
:1044D000678F0124BE421CD10092DBB201942A46B0
:1044E000FDF700FF040003D000E00A242046FEBDD3
:1044F00069782878090240180E4980B21C39896809
:104500000029F3D0002802D001208847EEE70220DE
:10451000FBE7084F40377F8FBE4207D10092DBB2E6
:1045200001942A46FDF7DEFE0446DFE70124DDE7BD
:10453000FED6FFFFC073FF1F01680A0508D11031C6
:10454000044A016052781203914201D3891A016032
:1045500070470000A870FF1F0FB410B503AA0448ED
:10456000029904F051F810BC08BC04B018470000D0
:104570004743021138B5034B00240FCB0094FBF7DF
:10458000D1FE38BDD8A60211F8B5496894460A781C
:104590004978069C090251188EB20521091B304A40
:1045A0008E460C2100250798B71A091B964231D078
:1045B00007DC2C4AB2180DD0012A15D0022A04D1EA
:1045C0001CE0022F31D0292F39D0002018800A2575
:1045D0002846F8BD052C34D27146864500D80846D9
:1045E00082B21A80204836E00C2C2AD2814200D8B0
:1045F000084682B21C481A800C302CE0112C20D2C4
:104600001121091B814200D8084682B216481A803F
:10461000193020E0052C14D27146864500D8084692
:1046200082B211481A80801D15E00C2C09D28142FB
:1046300000D8084682B20C481A802B300BE0072CB9
:1046400001D30725C4E70721091B814200D808468A
:1046500082B206481A8001196046FBF7E9FCB7E709
:10466000272A0000DCD5FFFF70A70211C872FF1FC8
:1046700010B50C4603F0E8FE002804D0408821461F
:10468000FBF760FD10BD122010BD0000F0B5504ECC
:10469000504C9BB07168216071782171FF21A1712C
:1046A0001021002561712F460922FF21E01DFBF733
:1046B000D7FC4E22002106A8FBF7D2FC32E020688E
:1046C00029034018102202A900F040F9029821683D
:1046D000884218D16846007B2179884213D1684608
:1046E000407B617988420ED168467178807B491E93
:1046F000884225DAA84201D1022700E0032706A953
:104700004855A0710CE00298401C19D16846007B06
:10471000FF2815D16846407BFF2811D106A94855CE
:104720006D1CEDB22179A942C9D8042F08D0A07917
:104730000125FF2807D0012F05D0002006AA24E07C
:1047400020201BB0F0BD00270DE0A77121683803C1
:10475000081810221F4900F00FF9002801D01F206F
:10476000EFE77F1CFFB22079401EB842EDDC00204D
:1047700020742079401E607410206082357025E01E
:10478000135C002B03D0401CC0B28142F8D8814298
:104790001CD9401E0818FBF7CBFD61740020357052
:1047A00002466946009000F017F8002802D0212840
:1047B00002D004E0009901E0012109036182C0B246
:1047C000212803D0002801D02A20BAE70020B8E72A
:1047D000A870FF1F888EFF1FF7B501248AB0002044
:1047E0000E46274605909CE056480179407CC0194A
:1047F000FBF742FCC8B2FF2C03D3FF3CA4B2FF2C52
:1048000033D20A9A002A01D14E4A11740003029051
:1048100005980125002803D000200590601C06E0C3
:10482000012C05D92819811EFF2917DA401E85B2EF
:104830000298290108180790424804220168079845
:10484000081804A900F082F80A9800280ED0012860
:1048500029D002283CD006200DB0F0BDFF20023048
:10486000401B201A84B20120059058E0049881036F
:10487000890F04D0022902D003294CD10EE0010394
:10488000890F012901D0012445E0000D0C21FBF71F
:10489000F3FB002900D0012144183CE007980005F3
:1048A000000D306047E0049881038A0F04D0022A8B
:1048B00005D0032A2FD142E0890F0229DFD13288A7
:1048C00081B292B29142DAD10C990798086032E035
:1048D00004988103890F04D00229D0D003291AD16A
:1048E00029E00103890F012903D0306801240C302D
:1048F0000BE0000D0C21FBF7BFFB002900D00121CC
:1049000044180C2031686043081830600C980C99EA
:104910000068401C08606D1CADB2FF2D80D97F1C63
:10492000FFB209484078874200D25DE70A98002824
:1049300003D0012803D000208EE721208CE725201A
:104940008AE70000888EFF1FA870FF1F10B5094C72
:10495000636898420BD364782403E318834206D932
:10496000002904D0002A02D0FBF716FC10BD22203B
:1049700010BD0000A870FF1F70B515460E46044616
:10498000FBF7DCFC800601D0292070BD094948688E
:10499000844206D3497809030818A04201D9A00728
:1049A00001D0222070BD2A4631462046FBF7CCFCC0
:1049B00070BD0000A870FF1F0022002913D000283E
:1049C00011D0012806D04A799206920E4A71032826
:1049D00005D007E04879C0221043487102E040202A
:1049E00002434A71012210467047000070B5124818
:1049F00000250078052108421BD02020FBF772FB20
:104A00000E4C0028A06013D020220021FBF728FBC9
:104A10002020FBF767FBE060002804D02022002163
:104A2000FBF71EFB05E0A068FBF762FB0020A0601F
:104A30001325284670BD00005377FF1FC477FF1F62
:104A4000F3B588880D4681005448544C40580027DF
:104A5000203C85B000281CD1059800287CD0002D72
:104A60007AD000F0D9F9607400281AD000260E2000
:104A70004B49704340180622FF21FBF7F7FA002844
:104A800004D1761C3606360EF1D001266674012E4E
:104A900003D0607C002804D05EE06774607B401C1B
:104AA0006073A8883D4E80003058002857D0826837
:104AB000002A07D021201C2103F0B1FFA888800024
:104AC00030588760A888800030580269002A0BD0CF
:104AD000607C062148432230C0B21C2103F09FFFB6
:104AE000A888800030580761A88880003058426943
:104AF000002A0BD0607C062148432330C0B210212D
:104B000003F08DFFA888800030584761A888800096
:104B10003058C268002A18D0607C062148432430EF
:104B2000C0B2102103F07BFFA88806218000305816
:104B3000C268607C103248432530C0B2042103F0C3
:104B40006EFFA88880003058C760A07B002801D085
:104B500000F09EFA00F0E0FA012007B0F0BD20203E
:104B60000E21059A03F05BFF1022FF216846FBF738
:104B700077FA607C6A467030C0B2102103F04FFFB4
:104B8000607C0E21484306490E2240180599FBF728
:104B90004FFAA888800035500020DEE7FC70FF1F28
:104BA000D48EFF1FF0B589B017460E46044620226A
:104BB00000216846FBF754FA68460480394C022508
:104BC000E178017122794271217B017706984108D1
:104BD000E07A4900C307DB0F1943069181070029DA
:104BE000069901DA294300E0A943069101072E4BFB
:104BF000069901D5194300E099430691C1062B4B54
:104C0000069901D5194300E0994306918106284B86
:104C1000069901D5194300E0994306914007042104
:104C20000028069801DA084300E088430690002A2D
:104C300005D001A810221F490230FBF7F9F961796C
:104C4000002904D0002E02D006982843069068461A
:104C5000807D002900D00121084369468875A1782C
:104C6000002900D00421084369468875A1790029EC
:104C700000D00821084369468875E179002900D0F1
:104C80001021084369468875217A002900D0202127
:104C900008436946887539466846FCF759FF09B0EC
:104CA000F0BD0000DC70FF1F0001000000020000EA
:104CB00000040000C48EFF1F70B50025094E2C466D
:104CC0000E20604380190622FF21FBF7CFF9002850
:104CD00001D16D1CEDB2641C2406240EF0D02846D0
:104CE00070BD0000D48EFF1F7FB50C4606214843DF
:104CF000064615462036F0B26A460E2103F084FEC1
:104D0000002806D10622FF216846FBF7AFF90028EC
:104D100002D0002004B070BD68468189002DC8B261
:104D200002D02043C0B200E0A043814206D06946D1
:104D30008881F0B26A460E2103F071FE0120E9E796
:104D400010B50020044604E0204600F006F8641C7C
:104D5000E4B221460143F7D010BD70B505460446C4
:104D600006204443264690B02036F0B207AA0E2112
:104D700003F04AFE002806D10622FF2107A8FBF710
:104D800075F9002802D0002010B070BD0E22FF215E
:104D900007A8FBF765F91C22FF216846FBF760F9BD
:104DA0001022FF210BA8FBF75BF9F0B207AA0E2136
:104DB00003F035FE064620462130C0B26A461C216B
:104DC00003F02DFE064320462230C0B26A461C2165
:104DD00003F025FE064320462330C0B26A46102168
:104DE00003F01DFE064320462430C0B26A4610215F
:104DF00003F015FE06432534E0B26A46042103F0B1
:104E00000EFE014631430C467035E8B20BAA102164
:104E100003F005FE2043B7E770B50A4D06460024AF
:104E20000E206043401906223146FBF70DF9002899
:104E300001D0204670BD641C2406240EF0D0012051
:104E400070BD0000D48EFF1F00229300CB5A834216
:104E500002D1900040187047521CD2B2042AF4D3F9
:104E6000002070477FB50C46002809D1002C07D0E0
:104E700020206A460E2103F0C7FD050003D007E09D
:104E8000022004B070BD062269462046FBF7D0F828
:104E90002846F6E700218A00835A491CDB438352E7
:104EA00012189378C9B2DB4393700429F3D3704787
:104EB00070B5144E00240E2060438219204606214E
:104EC000484320301546C0B20E2103F09DFD002856
:104ED0000BD028460622FF21FBF7C2F8A81D0622A8
:104EE000FF21FBF7BDF80020A881641C2406240ED6
:104EF000E1D00548807B002801D000F0C9F800F01F
:104F00000BF970BDD48EFF1FDC70FF1F10B5034975
:104F100040880978FDF798FB10BD0000DC70FF1F8A
:104F200010B50F494A79002A01D0012300E000237F
:104F30008A78002A00D004221A438B79002B00D0F3
:104F400008231343CA79002A00D01022097A1A4391
:104F5000002900D020211143FDF78EF810BD00007C
:104F6000DC70FF1F70B50E4604460621484388B02A
:104F700015462030C0B204AA0E2103F045FD0028DA
:104F800043D10622FF2104A8FBF770F800283CD18A
:104F90007034E0B26A46102103F036FD002831D1AA
:104FA0006846FFF777FF002E06D069463046FFF7C8
:104FB0004BFF00280DD015E0102200216846FBF7BA
:104FC00055F800281ED1102200216846FBF748F84A
:104FD00010E0002D19D069460020FFF735FF0028AA
:104FE00013D006808178A9420CD08570002D01D1A4
:104FF000002101806846FFF74DFFE0B26A461021AC
:1050000003F00DFD012008B070BD0020FBE700009B
:1050100070B51C4C0646606A1B4D86B0002809D14D
:105020002046143000900223184A29460120FDF73B
:105030009DFB20E004A80222002100900292019131
:1050400003ABA28A3046616AFDF794F900280CD1BF
:105050006846017B407B000208180204120C04D051
:10506000606A41893046FCF7D5FA0023A28A2946B6
:10507000606AFDF7ADFB60620028DBD1012006B05D
:1050800070BD0000DC70FF1FFFFF0000D4A80211FC
:1050900070B5FBF75FF90A4E00240E2060438019BB
:1050A00005460622FF21FAF7E1FF002802D1294632
:1050B000FBF756F9641C2406240EEED070BD0000E8
:1050C000D48EFF1F70B50B46044611461846FFF7F5
:1050D000B7FC00281DD00F4DA40028598088FFF789
:1050E00097FF002815D02E46203EF069002807D0F3
:1050F0004368002B04D0285900228088012198475A
:105100002859002803D0FAF7C3FF002028510120B6
:10511000707470BDFC70FF1F08B5FFF7CDFD01284E
:1051200001D9022000E00A20694608706A46012180
:105130000520FDF7FBFC08BD002909D0012807D197
:10514000497989098901C02902D0402901D002206A
:10515000704703207047FFB500200E4608701AE024
:105160001C5C401CC5B2002C17D02819904214D8E2
:105170005F5D6D1CEDB2384600F0A3FE002806D03E
:10518000641EE0B2307000998F4202D1581904B009
:10519000F0BD4019C0B29042E2D30020F7E7000012
:1051A00010B5044C2068002803D0FAF7A1FF0020B6
:1051B000206010BDB077FF1F70B50E4D84002859D8
:1051C000002815D0006A002801D0FAF791FF28596D
:1051D000406A002801D0FAF78BFF2859806A00281E
:1051E00001D0FAF785FF2859FAF782FF00202851ED
:1051F00070BD0000BC77FF1F10B5044C606800282C
:1052000003D0FAF775FF0020606010BDB477FF1F70
:105210000100044805D104498978002901D00248D9
:10522000801D70477C94FF1F5277FF1F01488078D4
:10523000704700005277FF1F014840687047000028
:105240006C94FF1F01488068704700006C94FF1F3A
:105250000148C068006870476C94FF1F10B507488C
:10526000C0680168491C016005480078FF2803D028
:1052700001218903FAF72AFF10BD00006C94FF1F7B
:105280005277FF1F02484068002800D00120704775
:10529000AC77FF1FFFB581B00F460D9E0A9D0398A6
:1052A00003F0BEF8040042D0019800283FD12079D5
:1052B0001021084320710499490702D502210843AF
:1052C00001E0FD21084020710B99284608430C9904
:1052D00008433043207902D00421084301E0FB2138
:1052E00008402071002E06D030691022206231461D
:1052F000A018FAF79DFE002D01D0002F05D00B98C5
:10530000002814D0012F08D011E0606A002801D0D5
:10531000FAF7EEFE1C21284606E0606A002801D05C
:10532000FAF7E6FE1C210B98FAF7E8FE6062039894
:10533000224C8700E05900283ED0002D0FD0006A93
:10534000002806D11C20FAF7CDFEE159002808629A
:1053500005D0E0591C22006A2946FAF769FE0C982C
:10536000002810D0E059406A002806D11620FAF72C
:10537000B9FEE1590028486205D0E0591622406A7A
:105380000C99FAF755FE002E10D0E059806A0028DB
:1053900006D11420FAF7A6FEE1590028886205D04C
:1053A000E0591422806A3146FAF742FE0B9B049AB8
:1053B0000399019803F08EFD05B0F0BDBC77FF1F87
:1053C000F3B581B0019803F02BF8050029D00E2029
:1053D000FAF7D0FE040024D02620FCF7CFFC06000C
:1053E00000D12E78D0202070002767700B20A0708D
:1053F0000622E91DE01CFAF71BFE01986081029865
:10540000C1070120002901D0207300E02773029911
:10541000890701D5607300E06773F0B22146FAF79F
:105420008BFEFEBD10B581881F4B0124CA1A99421C
:1054300037D011DC1D4BCA1A994219D007DC1C4A1F
:105440008A1810D0022A1ED0032A29D11BE0472A2D
:1054500027D0482A24D124E01300FAF7FBFD0621C7
:105460002222222222218068007800F0EBFC08E052
:105470008068827841781202891889B2007800F039
:1054800041FD04460DE0094A921E914201D10122DC
:1054900000E0002280680178104600F01BFD00E06B
:1054A0000024204610BD0000532000000A20000008
:1054B000FADFFFFF70B51A4D1A4A01460026287818
:1054C0001268194C01290CD0002A09D01749097813
:1054D000490705D50221FAF7F3FD6680FFF760FE64
:1054E00070BD6188002903D0114B1B78002B05D0BB
:1054F000002AF5D01078FCF717FC70BD3C2902D3C8
:105500003C39618070BD0221FAF7DAFD62887D20A6
:10551000C000424302212878FAF7CCFD668070BDB6
:10552000E177FF1FB077FF1FC477FF1F5377FF1F7F
:105530005577FF1F08B5418900910389C28881888A
:10554000C07800F0CBFB08BDF0B504468088A121EF
:1055500089004843304987B009684018FF30FF3060
:105560000230A1794167002C54D02C4D6868002886
:1055700023D006782A480068002804D04168002912
:1055800001D0002088472146E07908310591FFF7D6
:10559000D3FDE0710246277D638A218AE08901906C
:1055A00002A88AC0A0880090E0783146059B03F0ED
:1055B00007FDE078002802D00DE01A48D9E7E0792D
:1055C000E2896B46059907C3A379A1880122304679
:1055D00002F0D4FEE0706868002811D0FFF70CFEDE
:1055E000287800280CD06978FFF742F8002807D007
:1055F000E078A2880346297803F036FD0020287061
:10560000A0881721FBF7DAFBA088FEF777F8A088BF
:10561000FEF79CF807B0F0BD3409FF1FB477FF1FF9
:10562000E477FF1F5277FF1F70B50446002680887D
:1056300002F0F6FE002803D00678A08802F078FF7A
:10564000144D2878002808D0864206D16978FFF7E3
:105650000FF8002809D000202870002E05D0A3796B
:10566000A288A078314603F0FFFCA088094A810097
:1056700008325158002901D0FFF79EFDA08817215C
:10568000FBF79CFBA088FEF739F8A088FEF75EF8D0
:1056900070BD0000B477FF1F70B58288294D0124CA
:1056A000531B2949AA4242D019DC284D531BAA4258
:1056B00018D00BDC264BD21826D0254B1033D2182D
:1056C0001ED0032A17D0042A39D10BE0012B09D0B0
:1056D000022B07D0032B21D0042B30D11AE0433BFF
:1056E000072B2CD8496800292AD00968002927D01F
:1056F0008847044624E08068007800F0ADF81FE099
:10570000806800F001F9F4E78068411C007800F03F
:10571000D9F8EEE783681B78002B11D0896800293F
:105720000ED00B6808E0014610469847E1E70949AA
:105730000968002904D04B68002BF4D100E0002454
:10574000204670BD0E200000E077FF1F08200000FB
:10575000F7EFFFFFC077FF1F10B5094CA1780029B4
:105760000CD001460622A01DFAF762FCA11DA0780C
:10577000FFF722F9A01DFAF7F9FD10BD002010BDBA
:105780005277FF1F1CB52F49037801240A68912B1B
:1057900002D0A22B2ED13EE04178052909D00E2956
:1057A00004D00F2908D03E2924D115E0FFF774FF5B
:1057B00010E0FFF739FF3AE001468088224B0124D0
:1057C000C31801D0062B15D1002A30D05268002A08
:1057D0002DD0904704462AE081780124032917D070
:1057E00004DC012911D0022904D105E015291ED0BD
:1057F00016291CD000241AE014498968002916D003
:105800004968002913D0884711E0FFF79DFE0EE09C
:10581000FFF790FE0BE00E490978042909D0002A11
:1058200005D05268002A02D001460A489047204617
:105830001CBD00216A46118001794088FDF7DEFE1B
:10584000F5E70000C077FF1FF3DFFFFFE077FF1FE2
:105850005377FF1FFFFF0000F8B5164F0646BD1F28
:105860002878FF2814D00A20FAF784FC04000FD00F
:10587000D020207066700820A070A878E070062202
:105880003946201DFAF7D4FB21462878FAF754FC54
:10589000E87801280DD108480068002803D0806806
:1058A000002800D080470648044A04210078FAF70F
:1058B00037FCF8BD5877FF1FE477FF1F60EA000050
:1058C000E177FF1F70B500240546002805D10029A7
:1058D00003D006220B48FAF7ABFB0A4810380178D0
:1058E000012907D10124002D06D00021017028468E
:1058F00000F0D0F9204670BD02210170FAF73CFD9E
:10590000F8E700007C94FF1F10B50024002813D096
:1059100002780B49002A03D14288CA8202790A76AA
:105920000A78022A08D102780124002A06D000222F
:105930000A70007800F0AEF9204610BD0322F7E7A8
:105940006C94FF1F0149486070470000E077FF1F1B
:10595000F8B57A4C87780146002507266079A27948
:105960003B00FAF777FB0805361A37375F9ACD36D2
:10597000487800285CD1714806223C30C91CFAF7EF
:1059800057FB0120A0716D4B01464233627860796C
:10599000FCF720FC00284BD1A8E00F4649780029ED
:1059A00046D1F978002906D0654BA2780021FCF792
:1059B00011FC78700AE0022A0BD00121FAF78CFB67
:1059C000002803D101216079FAF780FB787800285C
:1059D0002ED1F8BD497800292AD1032F09D0A289F8
:1059E000002A0CD0217800290AD00121FAF762FBA5
:1059F00006E0052A01D0022012E0062010E0257002
:105A0000A079062802D0042802D008E0052007E08B
:105A10000120207001466079FAF758FB66E0032008
:105A2000A07163E048780F46002803D0312832D0B7
:105A3000A6715BE041480622391D3630FAF7F8FAC4
:105A40007889E081B8892082F88960820520A07178
:105A5000A28A002A03D002216079FAF72BFBB889C9
:105A6000E083F8892084388A6084E07801280AD1AC
:105A70001F20FCF783F97D21C90048430246042119
:105A80006079FAF717FB7A89F8780423391DFBF758
:105A900073FA25702AE02570C1E728480E460622D1
:105AA00000213630FAF7DCFAE58325846584042189
:105AB0006079FAF705FB08216079FAF701FBB07904
:105AC000082808D00320A0712078002805D060792C
:105AD000FCF72AF907E00420F5E7012020700146D1
