:020000041102E7
:1000000003B40148019001BDADAE000003B4014846
:10001000019001BD456B010003B40148019001BD91
:100020000189000003B40148019001BDC53F0000F3
:1000300003B40148019001BDE94C010003B401483B
:10004000019001BDC95C010003B40148019001BDEC
:10005000CD4C010003B40148019001BD618900004D
:1000600003B40148019001BD154D010003B40148DE
:10007000019001BD1D4B010003B40148019001BD79
:10008000090E000003B40148019001BDF54E0100C6
:1000900003B40148019001BD434D010003B4014880
:1000A000019001BD4551010003B40148019001BD1B
:1000B0002526000003B40148019001BD8B520100C8
:1000C00003B40148019001BDB352010003B40148DB
:1000D000019001BD0D52010003B40148019001BD22
:1000E000C94A010003B40148019001BD3D4B010024
:1000F00003B40148019001BD014C010003B4014863
:10010000019001BDF94C010003B40148019001BD0B
:10011000691F000003B40148019001BD5D17000094
:1001200003B40148019001BD5952010003B40148D4
:10013000019001BD5125000003B40148019001BDAB
:10014000594F010003B40148019001BD8D12000018
:1001500003B40148019001BD4D1F000003B40148E4
:10016000019001BD5522000003B40148019001BD7A
:10017000DD52010003B40148019001BD1D4D010095
:1001800003B40148019001BD810E000003B4014891
:10019000019001BD8D28FF1F03B40148019001BDEE
:1001A000494CFF1F03B40148019001BD1546FF1FD4
:1001B00003B40148019001BD3554000003B4014867
:1001C000019001BD9149FF1F03B40148019001BD99
:1001D000F149FF1F03B40148019001BDA54DFF1F68
:1001E00003B40148019001BD017F000003B4014840
:1001F000019001BDE117000003B40148019001BD69
:100200007918000003B40148019001BDD9490100EB
:1002100003B40148019001BDE928000003B401487E
:10022000019001BD5549010003B40148019001BD91
:10023000BD51FF1F03B40148019001BD8533FF1F6D
:1002400003B40148019001BD354AFF1F03B40148C2
:10025000019001BDF950FF1F03B40148019001BD99
:100260005151FF1F03B40148019001BDA150FF1F70
:1002700003B40148019001BD892AFF1F03B401485E
:10028000019001BDF953FF1F03B40148019001BD66
:10029000453BFF1F03B40148019001BDD14FFF1F33
:1002A00003B40148019001BDA54EFF1F03B40148EE
:1002B000019001BDD54EFF1F03B40148019001BD5F
:1002C000394FFF1F03B40148019001BD694FFF1F63
:1002D00003B40148019001BDA14FFF1F03B40148C1
:1002E000019001BD7133FF1F03B40148019001BDAE
:1002F0008D2AFF1F03B40148019001BDC9260000EB
:1003000003B40148019001BD9955FF1F03B4014892
:10031000019001BD3555FF1F03B40148019001BD97
:10032000350E000003B40148019001BD0734FF1FE2
:1003300003B40148019001BDC546FF1F03B4014845
:10034000019001BD3519000003B40148019001BDC1
:10035000BD18000003B40148019001BDC521000093
:1003600003B40148019001BD291C000003B40148F9
:10037000019001BD851F000003B40148019001BD3B
:10038000A946010003B40148019001BD11470100D5
:1003900003B40148019001BD5D45FF1F03B401484E
:1003A000019001BDD553FF1F03B40148019001BD69
:1003B0000B28FF1F03B40148019001BDE527FF1F73
:1003C00003B40148019001BDB13E000003B40148EF
:1003D000019001BDB133FF1F03B40148019001BD7D
:1003E000C90E000003B40148019001BD055E000084
:1003F00003B40148019001BDE548000003B4014881
:10040000019001BD2951010003B40148019001BDD3
:10041000D91B000003B40148019001BDA528FF1FAE
:1004200003B40148019001BDCD28FF1F03B401486A
:10043000019001BD51470100F8B5D349D14A0020D0
:1004400004464A608300401CD450FF28FADD486807
:10045000CE4A014680318A606E22C262CC4A12784E
:10046000002A01D07F22C2620A220265C94A13789B
:100470008363C94BC36115781023022D08D015780A
:10048000012D05D01578032D02D01578042D00D14B
:100490000362C24D45611925AD0185613725CD60E7
:1004A00036272826C7630825466405644F6032272F
:1004B0000F603B27CF634127CF6439274031E0C12C
:1004C00032274F6002274F6142270831E0C11E27C3
:1004D0004F60CE608D6005264E6142260E615A2621
:1004E00060390E614D613C258D61AF25ED000560E1
:1004F000AB4D05631578022D09D01578012D08D074
:100500001578032D07D01578042D06D007E01525A2
:1005100004E0436003E00E2500E00C254560FF2564
:100520002D358560C560FF25F53505619D4D8564D8
:100530007D25ED009C4ECD67C66445629B4D85626E
:100540007325C565062545658565C51D0826F935EC
:1005500002272E6047664B27FF0087660927C7667C
:10056000934F07674667BE108467C667914F8E4EEC
:100570003E601678022E09D01678012E0AD0167821
:10058000032E0BD01278042A0CD00EE01A22CA6176
:10059000212205E01422CA61182201E01322CB6156
:1005A0000A6202E00E220B62CA617E4A8A627D22E2
:1005B000D2008A6764224A620522CA6202220A6362
:1005C000C8228C634A63382169607B4929647B496E
:1005D000A9614B21C900E9617349FF30643929627F
:1005E0007D2109016962EC661E212C67A9667049AC
:1005F000A965E96589102966696469677049A96711
:100600007049714A8130E967026082604160FF2170
:10061000F531C16001616E486C495A4A81606D498B
:10062000803A11616A496C4A80318A626B4ACA62B7
:100630006B4A82616B4AC2626B4A02636B4A6448CE
:100640004038C2636A4ACA616A49816360496A483C
:10065000403188616A49694888605D48694A8038E4
:100660004260694A4263694A0A626949816058493D
:100670006848C039C860FFF7C3FC0120FFF7C6FC1B
:10068000F8BDF3B50746644881B0C169634A1140BB
:10069000FF310931C161002613E000252C461120ED
:1006A000FFF7BAFC5C48406A8007800F6100884011
:1006B0002843641CE4B20546102CF0D301C7761C15
:1006C000F6B202988642E8D3FEBD10B52E4C607893
:1006D00000280AD104215248FFF7D3FF50480421D3
:1006E0001030FFF7CEFF0120607010BDF0B5002480
:1006F0008BB00D460646102902D901200BB0F0BD83
:10070000FFF7E3FF464900200A5C401C1419C0B201
:100710001028F9D3002C03D0102D03D90B20EDE7BE
:100720000E20EBE73F483E4C0023006802A910343E
:10073000E25CC75C7A40CA545B1CDBB2102BF7D377
:1007400006AA3748FFF76EFC102D00D910252A465F
:1007500006A93046FFF76CFCFFF770FC21684018D3
:100760002060FFF76BFC616840186060FFF766FC73
:10077000A1684018A060FFF761FCE1684018E060E4
:100780000020BBE70004FF1F5875FF1F0098FF1FE4
:10079000186EFF1F4A0AFF1F3A07000080C3C901F5
:1007A0009A02000050C30000280A00006A180000E6
:1007B000204E0000F009FF1F0040001168100000EB
:1007C000DC05000040420F0010270000395AFF1FCF
:1007D0000001FF1F412EFF1F9D5EFF1F7561FF1F60
:1007E000A92AFF1F3D2CFF1FC52AFF1F593BFF1FD2
:1007F000E96AFF1F0D69FF1F6528FF1FF931FF1F01
:100800000002FF1FB156FF1F8D58FF1FD157FF1F5A
:100810006D56FF1F2932FF1F40F0004000FEFEFF13
:100820008892FF1F7C75FF1F0A7802708A784270D9
:100830004A88120A82700979C170042070470A78C8
:1008400002700988090A41700220704710B5002221
:100850000EE093005B189C7804705C88521C240A9C
:1008600044701C7984709B88D2B21B0AC370001D2F
:100870000B789342EDD81806800D10BDF8B50D46E3
:1008800006464978012031700024761C16E069780C
:10089000012917D01221614349198A7832704A8898
:1008A000871C120A7270B61C10223046091DFFF711
:1008B000BFFB1037B8B21036641CE4B22978A142ED
:1008C000E5D8F8BDA10049198A7832704A88871C9A
:1008D000120A7270B61C02223046091DFFF7A8FBEF
:1008E000BF1CB8B2B61CE7E710B50C46097801701A
:1008F0002188090A41706288211D801CFFF798FB3E
:100900006088801C80B210BD10B50C46097801705B
:100910002188090A4170A17881706188090AC17033
:10092000A288A11D001DFFF783FBA088001D80B2D7
:1009300010BD10B50C460A88891CFFF779FB20888A
:1009400010BD10B50B788A7802705343DCB2224692
:10095000401C091DFFF76CFB601C10BD10B50B7827
:100960008A7802705343DCB22246401C091DFFF70F
:100970005FFB601C10BD10B50C460A88891CFFF790
:1009800057FB208810BD10B50C460A88891CFFF75C
:100990004FFB208810BD7FB515460446022901D0C3
:1009A000102903D1022B04D0102B02D0002004B058
:1009B00070BD994202D10A46294607E010296946CE
:1009C00007D000F00DF8102269462846FFF73CFBDF
:1009D000EDE7104600F004F8102269462046F5E7DE
:1009E00070B50C4605000CD0002C0AD01022064928
:1009F0002046FFF71DFB287820736878607301207C
:100A000070BD002070BD00001CA8021110B50B467F
:100A10000122024903F02AFD10BD0000290802113D
:100A200070B5064608880C46172812D30B460322D9
:100A30000949304603F01AFD050008D1074920880E
:100A40000988884200D20146304600F0ABF92846BA
:100A500070BD022070BD00003F0802118A75FF1FA3
:100A600010B500231922194603F000FD10BD000047
:100A700010B50A78002A05D00B460722024903F078
:100A8000F5FC10BD022010BD4D08021110B54A78CA
:100A9000012A01D0022A08D10A78002A05D00B4683
:100AA0000522034903F0E2FC10BD022010BD000046
:100AB0007D08021101494000085A70478875FF1FE0
:100AC00010B50B461D22024903F0D0FC10BD0000FA
:100AD000E908021110B50B461B22024903F0C6FCBF
:100AE00010BD0000E9080211014917200880704775
:100AF0008875FF1F0098022B01D0042070471178E1
:100B00005278120289180180002070470098012B4A
:100B100001D004207047117801700020704770B533
:100B2000049C1E461546062B1BD3697828780902BB
:100B300040182080E978A8780902401860800222D5
:100B40002271291D601DFFF773FAB61FB2B2228110
:100B5000F02A06D82046A91D0A30FFF769FA0020BE
:100B600070BD042070BD0098042B01D00420704794
:100B7000537811781B02C91801809178D27812023B
:100B80008918418000207047F8B584890D460646D3
:100B9000002C26D0B2681778380620D50C2C20D926
:100BA0000C3CA4B21019009001217088234603F078
:100BB000EFFB002811D0022028707806C00F687063
:100BC000B806800EA870641E2004000CA88001D016
:100BD000B068401CA8600020F8BD0120ECE70020B0
:100BE000EAE70120F8BD10B502981146042B14D392
:100BF0004C780A78240212190280CC788A78240270
:100C0000121942801B1F9AB28280F22A05D8801DD9
:100C1000091DFFF70DFA002010BD042010BD00983B
:100C2000042B01D004207047537811781B02C91897
:100C300001809178D2781202891841800020704793
:100C400010B502981146062B03D0142B03D00420B4
:100C500010BD022200E0102202714B780A781B02BC
:100C6000D2180280CB788A781B02D218428002798F
:100C7000401D091DFFF7DCF9002010BD30B5039CB5
:100C8000D80718D1D805010E022914D30B48808843
:100C9000814210D8F6200155002008E055781378DD
:100CA0002D025B194500401C6353C0B2921C884260
:100CB000F4D3002030BD042030BD00008275FF1F3A
:100CC0000098022B01D0042070471178527812024C
:100CD000891801800020704770B5144602460498B8
:100CE000022B18D3667825783602AD1905800546A3
:100CF000E0352A766976002A0BD0E8219B1E9AB24D
:100D000042808A4207D8A11C001DFFF791F90020FC
:100D100070BDF421F2E7042070BD000010B50B4651
:100D20001722024903F0A2FB10BD000009090211BD
:100D300010B50B460D22024903F098FB10BD0000D0
:100D40003309021110B50A78002A05D00B4611228A
:100D5000024903F08BFB10BD022010BD43090211B4
:100D600010B50A78002A05D00B460922024903F083
:100D70007DFB10BD022010BD5D09021110B50B46B0
:100D80000F22024903F072FB10BD00007709021127
:100D900010B50B460B22024903F068FB10BD0000A2
:100DA00087090211044A1288914203D8024A40007E
:100DB000921D1152704700008275FF1F10B500236D
:100DC0001322194603F052FB10BD000010B5094C68
:100DD0000749204601F056FA05492046083101F03E
:100DE00051FA0348044A0821103001F0CBFB10BD32
:100DF0005471FF1FFFFF000070A70211034610B5DA
:100E00000020104A002B08D0012B08D01C32022BE6
:100E100008D0032B09D0022010BD127800E0927890
:100E20000A7010BD52890A8010BD064BDB1C1C786D
:100E30000C715B784B71538D0B80528F4A8001226D
:100E40008A7110BD4871FF1F10B504460B488442DB
:100E500012D0012907D002290ED10121204607F026
:100E600087FB002808D10649204601F00BFA044907
:100E70002046083101F006FA10BD0000FEFF000018
:100E80005471FF1F10B505495F200A785F2A03D906
:100E90000870034807F028FB002010BD4871FF1FB1
:100EA000E944021101498860704700004871FF1F42
:100EB00070B50C460146012080020A1A00251C4824
:100EC0001300FFF7C7F80F32090B0D1012181A1C88
:100ED0002A1F212325272A00408A23E0807800E06A
:100EE000C078207021E00079FBE7102211492046EC
:100EF000FFF79EF819E04079F3E7C07AF1E78069DF
:100F0000206012E0407AECE7807AEAE7007BE8E7CD
:100F1000807BE6E703F0E8FEE3E7272904D20846F2
:100F200000F014FF208000E00225284670BD00007C
:100F3000806EFF1F008DFF1F10B50249087003F07F
:100F4000CFFF10BD806EFF1FFFB593B000240F468A
:100F50001D461646109411944BA0139903F088FB7C
:100F60000621384607F088FC10AA3946139800F08D
:100F7000F5F9074601464CA003F07AFB062110A8BC
:100F800007F07AFC03F0B0FE01464FA003F070FBBF
:100F9000002F6BD120206A460E2107F039FD002872
:100FA00002D168468089C4B2082D11D00020129069
:100FB000082D0FD021271C2200216846FFF750F88A
:100FC0006A461C21384607F023FD002804D00FE0B4
:100FD0000120ECE72227EEE76846807EC01F092843
:100FE00006D8E107C90F6A463046129B00F0FAFDA9
:100FF0001422002107A8FFF733F8242007AA1021A4
:1010000007F006FD002811D11022FF2107A8FFF7E5
:101010002DF800280AD125200BAA042107F0F8FC9E
:10102000E107C90F07AA304601F046F870200CAA64
:10103000102107F0EDFC002811D10CA803F042FFAD
:101040000027B9000CA808180188002903D082786D
:10105000304601F0F3FA7F1CFFB2042FF1D3A00752
:1010600004D51F480178304601F0D6FA042D07D187
:101070001B48401C805D022802D1304603F068FF07
:10108000002017B0F0BD00004C696E6B4573742DE5
:101090002D61646472547970653D25642C704465DB
:1010A00076416464723A0A004C696E6B4573742D24
:1010B0002D6964783D25642C7075626C69634164A8
:1010C00064723A0A00000000626F6E6420746F74EC
:1010D000616F6C206E756D6265723D25640A00005B
:1010E000806EFF1F70B50024054600290BD108490A
:1010F0001046FEF7C1FF0846294600F0C3FE040073
:1011000003D00121284600F0FDFF204670BD0000FD
:1011100040420F0070B50C46080428D515480078E9
:10112000FEF7B0FF05001ED00178B02908D0B12924
:101130000ED0D02914D100F01FF8002810D112E0F1
:1011400001791E290CD16888002100F05FF907E0C1
:101150000179002904D10289C188688800F042FA27
:101160002846FEF795FF0120C003604070BD0020B7
:1011700070BD0000806EFF1F7FB582786E4C921F9D
:101180000025E1691300FEF765FF0AAFD4D4681BA0
:1011900006D4D45F77D40546002908D00E68002E07
:1011A00005D06B7B2A7B6989E81CB047C1E069895F
:1011B000A06900F067FE0028F8D0688901218DE061
:1011C0000546407800282DD1A879C0072AD0A888E4
:1011D0005949800020310858002823D10E220021CF
:1011E0006846FEF73DFF6969002903D0062268467C
:1011F000103107E0A88807F017F900283BD0C11D7F
:1012000006226846FEF714FF69468889A9794907CE
:10121000C90F0843694688812946684603F028FCBF
:10122000002809D0E069002825D04368002B22D08F
:101230006A78A88801214EE0A8882A46694603F00A
:1012400059FF002004B070BD002972D04B68002BFC
:101250006FD04278808802213DE00446C0780022A9
:10126000211D00F07BF8002863D1224625200C3296
:10127000042107F0D8FB5CE00546607A0028A888C6
:1012800001D0A17A2AE02C49491C095C002924D00C
:1012900007F0CAF80646A87AC0070DD0002E48D03D
:1012A000B079002808D0A989890505D46A46F11DBE
:1012B00000F054F8002814D02A46B179A8880832E2
:1012C00003F088FCE069002833D04368002B30D05D
:1012D0000022A888114698472BE0052100F012FF54
:1012E00027E0A8880321F9E700F0ACFD002820D111
:1012F000E07B012806D0104E00241036305D012816
:101300000AD00DE003F034FD0B48E5730122002103
:101310001030FEF7A5FE07E0204603F036FD3555F8
:10132000641C2406240EE9D0502007F06FFB03F064
:10133000D7FD012086E70000806EFF1F10B5064C28
:10134000E0612178FF2905D0262000F0A5FE207855
:1013500001F012F910BD0000806EFF1FF0B50124EE
:1013600085B016460F46002807D0012805D0012574
:1013700002280FD0032844D11EE0084603F064FD84
:1013800004003ED1002E3CD0062239463046FEF7FE
:101390004FFE36E01C4F002400910E206043C01920
:1013A0000622801D0099FEF74FFE002823D1641C01
:1013B0002406240EF1D01CE00024204606214843D8
:1013C0002330C0B26A46102107F022FB00280CD15E
:1013D0001022FF216846FEF749FE002805D1394654
:1013E000684600F00DFE002805D0641C2406240E7B
:1013F000E3D02C4605E0002E03D03146204603F012
:1014000049FD204605B0F0BD108DFF1F70B50E469A
:1014100017491525884212D1002432460221204660
:1014200003F07AFC002800D00025641C2406240E5A
:10143000F3D0002E1AD00F4807F056F816E006F049
:10144000F3FF040011D0A0790022E11DFFF786FF11
:10145000002804D13246022103F05EFC0025002E54
:1014600004D0204603F06AFD00E01425284670BD34
:10147000FFFF00003D4F0211FEB51546012292020A
:10148000821A00240127544E1300FEF7E3FD110ACF
:10149000151A21282F373E434B757D848C9A9A5616
:1014A0009A0001296FD1297802297ED84A48012261
:1014B000401CFEF7D5FD8CE0022976D12888708289
:1014C00087E0012971D1287801286ED8B07080E0BA
:1014D00001296AD12878042867D8F07079E00129B9
:1014E00063D12878012860D8307172E010295CD16E
:1014F000102229463948FEF79BFD6AE0012954D1A4
:101500002878012851D8707163E001294DD12878DD
:10151000F0725EE0042948D131492868884244D8F5
:10152000B06156E0002940D100F08CFC002801D0C9
:10153000F7734EE003F01CFC18E0072935D10622B2
:10154000691C6846FEF7AAFD287800226946FFF765
:1015500005FF05000ED100F075FC002803D01E48E1
:101560001030077035E0284603F00FFC502007F0DC
:101570004DFA23E002242CE0012916D12878012815
:1015800013D8707225E010E001290ED128780928BF
:101590000BD8B0721DE0012907D12878C11F092995
:1015A00003D8307315E0012901D0182411E0B07B75
:1015B0002978B17300280CD101290AD103F090FCDD
:1015C00007E02728D6D20229D4D1298800F064FD6B
:1015D00004462046FEBD0000806EFF1F008DFF1FE9
:1015E0003F420F00F8B50F461349152516468842AD
:1015F0000DD1002432463946204603F0CBFC0028AA
:1016000000D00025641C2406240EF3D012E006F05E
:101610000BFF00280DD08379C11D00221846FFF76B
:101620009DFE002806D13246394603F0B3FC002562
:1016300000E014252846F8BDFFFF000070B50C46F9
:101640000146032000020A1A002534481300FEF761
:1016500001FD1D1012151C1F2326282C3032343892
:101660003A3C3E40424446484A4E50525A545658DC
:101670005A00C07911E01022294902E028491022BD
:1016800010312046FEF7D4FC45E0C06A206042E0FD
:10169000224906223C31F4E7007820703BE0808943
:1016A00036E01E4942784231EBE71D4982781F3906
:1016B000E7E7007AF1E7407AEFE718490622303190
:1016C000DFE7807AE9E7C07AE7E7C08920E0808A2F
:1016D0001EE0C0781CE0C08A1AE0008B18E0408B46
:1016E00016E0808B14E00D4906223631C9E7C08B25
:1016F0000EE0008C0CE0408C0AE08079CDE7008A97
:1017000006E0408A04E0272904D2084600F01EFBC8
:10171000208000E00225284670BD00002C6FFF1FCE
:10172000538DFF1F70B50E4C00256071A571691EA9
:10173000E18100F05FFC0420E071102200210948E3
:10174000FEF78EFC0748102200211030FEF788FCBF
:10175000E562257265720720A072E57270BD000017
:101760002C6FFF1F538DFF1FFEB53B4D0C46080429
:101770000CD56879FEF786FC050004D004F0FAF970
:101780002846FEF785FC0120C00360E0600403D515
:10179000012080034840FEBD2F48E10701268079E3
:1017A00000292AD02978002920D0052821D0297A9B
:1017B00068460170697A4170274906223031801CE1
:1017C000FEF736FCA97A68460172E97A41726946E9
:1017D000687900F0D7FA002808D00720A871696A54
:1017E000002903D00968002900D0884720467040AE
:1017F000FEBD032069460870E4E7A1070DD5052862
:1018000009D1E889FEF750FCAA8A002A03D00221F8
:101810006879FEF74FFC022019E0600704D500202C
:1018200004F000FA042012E0200712D528790128DC
:1018300002D002280AD107E00096AB8B6A8B298B75
:10184000E88A00F00BF801E000F05AF90820604047
:10185000FEBD0020FEBD00002C6FFF1FF8B5134C2D
:10186000069EA579052D01D01420F8BD104F851FC7
:10187000BD4219D2062917D3BD1DA94214D2FF2794
:10188000F537BA4210D20A2B0ED3AB420CD2E0820B
:1018900021836283A383304604F0C4F90421607974
:1018A000FEF70EFC0020F8BD1820F8BD2C6FFF1FBE
:1018B0007A0C0000F7B50D4680490098164642188C
:1018C0007F4F00247879B9791300FEF7C3FB190E16
:1018D000141BE92040455970777E888FE996A2A9AC
:1018E000B4BFC8E9E9E9E9D3E900102D76D11022A7
:1018F000314674486FE0102D70D172481022314685
:10190000103068E0042D69D13068F862CEE0012D16
:1019100064D13B7832783A70002B0AD0002A07D184
:10192000022903D0062901D0042901D100F0E4F9ED
:10193000BCE0002A0AD0012905D0032903D00529DB
:1019400001D0042902D10121FEF7C0FBAEE0022D37
:1019500044D13088B881A9E01F2D3FD858481F22B4
:1019600000214230FEF77CFB55482A463146423082
:10197000FEF75EFB524B7D7042332A46012112E096
:101980001F2D7CD84F481F2200211F38FEF768FB0F
:101990004C482A4631461F38FEF74AFB494B2A4637
:1019A0001F3BBD700021787900F0FCFB83E0012D26
:1019B00065D13078042862D8387277E0012D5ED185
:1019C000307803285BD8787270E0062D57D13C48F8
:1019D000062231463030FEF72BFB67E04FE0012D49
:1019E0004DD1307807284AD8B8725FE0012D46D132
:1019F0003078032843D8F87258E0022D3FD132885E
:101A0000BA82002A52D0052950D10221FEF752FB9A
:101A10004CE0012D33D13078012830D8F87045E002
:101A20003088022D2BD1062829D31921C9018842DB
:101A300025D8F8823AE03088022D20D106281ED31E
:101A40001921C90188421AD838832FE03088022D25
:101A500015D1FF21F531884211D2788326E03088F4
:101A6000022D0CD10A280AD31921C901884206D8AF
:101A7000B8831BE03178012D01D1012901D0182450
:101A800014E00821FEF728FB002801D016240DE001
:101A9000002004F0C7F804217879FEF711FB05E077
:101AA0000098272801D2022D02D002242046FEBD34
:101AB000318800F0F1FA0446F8E70000FFFCFFFF70
:101AC0002C6FFF1F538DFF1F1CB50B4CA1790029F4
:101AD00001D011201CBD002800D0606206490748D3
:101AE0002C31034601910090103B0022E17960798E
:101AF00000F0BCF800201CBD2C6FFF1F638DFF1F82
:101B000010B506488179052901D0122010BDC18980
:101B10001322407900F006FB10BD00002C6FFF1F60
:101B2000F8B504462C480F460078022805D0012855
:101B300003D0082803D1002F01D01220F8BD002CBB
:101B400007D02088254D81006958002903D0112035
:101B5000F8BD0220F8BD06F067FC060036D02C2048
:101B6000FEF7C0FA218889006850002830D02C2266
:101B70000021FEF775FA20881C22810069584880F0
:101B80002088211D80002858001DFEF751FA218869
:101B90000220890069580870228890002B587079BB
:101BA0001B1D002816D000200D49097802F09CFB6F
:101BB0000546002F03D03946304607F0CBFC002DF8
:101BC00002D0208803F010FB2846F8BD1420F8BD91
:101BD0001320F8BD0120E7E78F75FF1FF875FF1F81
:101BE0001D76FF1FFFB5204D81B028781E46174691
:101BF000022823D0012821D0002F22D0019806F0FE
:101C000013FC04001FD0606A002801D0FEF770FAB0
:101C10001C213846FEF772FA6062010015D0287860
:101C2000000714D5002E12D0887E00900B46123388
:101C30000A8A019807F058FF014609E0122005B012
:101C4000F0BD0220FBE71420F9E71320F7E700219D
:101C50002079042210432071029A002A02D0022225
:101C6000104320710846EAE78F75FF1FFFB581B06A
:101C70001E460D4602240B9F0B00FEF7EBF90D1AD2
:101C80000B1A1A0B1A1A1A1A1A1A1A081A000AA088
:101C900002F0EEFC2946019800F0D8F8040008D1C3
:101CA0003A4630460A9900F0AFF900F00FF902F019
:101CB0000BFB204605B0F0BD4741505F4465766997
:101CC0006365496E69743A204741505F50524F46F0
:101CD000494C455F43454E5452414C207C2047417E
:101CE000505F50524F46494C455F5045524950480D
:101CF0004552414C200A000070B5104C2168002963
:101D000004D00978814203D0032070BD122070BD39
:101D10000B4D02212878FEF7D3F90A4800264680A9
:101D200004212878FEF7CCF90748068021680320B3
:101D300048700020FEF7E8F970BD0000EC75FF1F49
:101D40001D76FF1F0076FF1F9275FF1F272803D205
:101D500002494000085A7047014870479A75FF1FB2
:101D6000FFFF000010B5064C607006F08DFB607838
:101D7000FEF7D0F90521607801F022FD10BD0000CA
:101D80001C76FF1F70B5284E054630680C460028AB
:101D900001D0112070BD254801780520014216D0E0
:101DA00023488068002805D00078002802D0C807A2
:101DB00006D101E0102070BD00F044F8002808D0E2
:101DC0002078032805D0022803D0002801D0122053
:101DD00070BD0C20FEF786F93060002820D0057019
:101DE000002141700A222146801CFEF721F903F0F0
:101DF000FDFF040002D003F0EBF912E00D4800787B
:101E000003280ED11D20FFF7A1FF0B4900280880F1
:101E100007D00B48094A04210078FEF781F900E059
:101E20001324204670BD0000EC75FF1F8F75FF1F47
:101E30000076FF1F9075FF1F9275FF1F60EA00007C
:101E40001D76FF1F10B506F03DFB10BD70B50C46AA
:101E500005461C2200210948FEF702F908480570D2
:101E60004470FEF763F90549002803D0002008708C
:101E7000122070BD01220A7070BD0000B892FF1FD1
:101E80008E75FF1F7FB504460D46084606F0CCFA56
:101E9000002805D00C48844204D9022004B070BD4B
:101EA0001220FBE7102200216846FEF7D9F86846A9
:101EB0000470210A4170210C8170210EC1702946E5
:101EC00002F074F9EAE700003F420F0070B50F4CD2
:101ED0000025A068002802D0FEF70AF9A560E06896
:101EE000002802D0FEF704F9E560094805210078D2
:101EF000084206D00548103003F03CFD02F08EFD8C
:101F000070BD002003F036FD002070BD0076FF1F7D
:101F10008F75FF1FFEB5344D0C46080419D568783F
:101F2000FEF7B0F80121C9034C40064600280ED048
:101F300003F040FC002807D12878FF2804D0314660
:101F4000FEF7FAF8002802D03046FEF7A1F8204646
:101F5000FEBDE007012700280AD0A868002804D0A9
:101F60004168002901D00020884720467840FEBD06
:101F7000A00709D56868002804D04168002901D06D
:101F80000120884702202AE060072AD5174E3088B2
:101F900000281FD0401E0004000C30801ED103F02A
:101FA00089F9002809D0124807706868002804D011
:101FB0004168002901D00120884703F055F969469E
:101FC00002F072F8684603F0DFFB1D20FFF7BEFE4B
:101FD000308003E004216878FEF772F80420604046
:101FE000FEBD0020FEBD00001C76FF1F9275FF1F86
:101FF0009175FF1F01490870704700001C76FF1F94
:1020000010B502F03BF910BD70B50E4C0B46261D05
:1020100007C60546102200211846FEF727F80128BA
:1020200003D11021A06807F001F9102200212846F1
:10203000FEF71CF8012803D11021606807F0F6F8BC
:1020400070BD0000B892FF1F38B505460F480C461A
:102050000078400701D4122038BD284606F0E4F984
:10206000002811D00A48A9004058002801D0817DDD
:1020700000E02146684607F08DFD064B6A460221C6
:10208000284607F0EDFC38BD142038BD8F75FF1FC2
:10209000F875FF1FA1A00211272807D2044A914218
:1020A00004D0044A400011520020704702207047BB
:1020B000FFFF00009A75FF1F70B50E4610491546C8
:1020C0000978022916D0012914D0002D14D006F069
:1020D000ABF9040012D0002E03D02079022108436E
:1020E000207110222946A018FDF7A2FF286920625E
:1020F000002070BD122070BD022070BD142070BD84
:102100008F75FF1F38B50C46054606F08DF900287F
:1021100006D0684604706946284607F08FFC38BD33
:10212000142038BDF8B50D4617461D4906461B4A12
:102130001224C868954208D100282DD00268002AD0
:102140002AD029463046904723E0144A521C954233
:1021500013D1002807D00268002A04D0294630464F
:102160009047040005D03946304602F099FA040041
:1021700012D10B48067047700EE0284606F054F95D
:10218000002809D00078B04205D139462846FDF72D
:10219000D9FF044600E003242046F8BDFEFF0000FE
:1021A000F075FF1FF8B50E46014619481546007830
:1021B00005221F46104028D0304326D01548012E56
:1021C0001BD0C468002C20D01F2D18D8002D01D0A2
:1021D000002F14D001701F220021601CFDF740FF6A
:1021E0002A463946601CFDF723FF28462570002E3D
:1021F00007D0611CFDF7ACFFF8BD8468E2E7022060
:10220000F8BD611CFDF7AAFFF8BD1220F8BD000063
:102210008F75FF1F0076FF1F014610B50020C9070C
:1022200004D0034A0421034800F0ACF910BD0000BB
:102230000CA70211B06FFF1F70B50F4D0F4CA870A7
:1022400029461831204600F01DF8002128460B468B
:102250001030CA0084521218491C09065360090E36
:10226000F7D0012004F0A2FCA87800F071FB04482C
:1022700006F050F970BD0000906FFF1FFFFF0000D7
:10228000E563021170B50A4C0025A04209D1002077
:1022900082008C525218401CC0B295700228F7D3AD
:1022A00070BD04F06EF80028FAD00480857070BD0F
:1022B000FFFF0000F8B50E46074606990024079870
:1022C000002902D00B242046F8BD022B01D00D249A
:1022D000F9E711785278120289188DB229468143A4
:1022E00001D08024EFE73846F16800F03DF9A842BC
:1022F000E9D02A463846F16800F0CCF90400E2D172
:1023000071892A46384600F06BF9DCE770B50C4657
:10231000080412D50A488078FDF7B4FE050008D0FD
:102320002878B02802D1284604F048F92846FDF75D
:10233000AFFE0120C003604070BD002070BD0000F2
:10234000906FFF1FFFB587B0087A0025109E1C46CE
:102350000F46C0060DD5099804F00CF8030006D00E
:102360000A22394607989847050035D101E00E2525
:1023700032E0387802281DD1786829220178407827
:1023800012020002081880B2811A90427ED009DC45
:102390007249401A23D0012821D0022851D00328A5
:1023A00008D125E0012972D0022971D003296DD00E
:1023B00004296ED0099804F005F80028D7D00568E4
:1023C000002DD4D0129911980191009033462246E5
:1023D00039460798A847054628460BB0F0BD119826
:1023E000002873D1F868017831800278416897E05D
:1023F000119800286AD101203080F8680021007807
:1024000020707889401C80B200F072F900280FD04B
:10241000318802788918891C3180817A61704189FC
:10242000090AA17002784168E01CFDF701FED3E7BC
:1024300030880422001D30800021601CFDF710FE52
:10244000CAE71198002872D1F86804A900880090A2
:1024500004203080009820700098000A6070009876
:1024600000F046F9070028D0F86805906846028A0F
:1024700003AB3B49384600F093F900280FD13B7875
:10248000022138487A68FEF786FA03E027E031E057
:102490001DE049E0002802D1401E69468881059868
:1024A000007802280CD1059802224168201DFDF712
:1024B000BFFD3088801C308002E06946009888812A
:1024C00068468089A070000AE07085E72FE01198C7
:1024D00000282CD1F968079800F046F804E011981C
:1024E000002824D1F8680088022131802070000A79
:1024F000607071E7F868FDF737FE1199C0B281424C
:1025000010D8814201D1002206E0129A8918814236
:1025100002D31199401AC2B23280F9681198091891
:10252000204682E7072557E71198002801D00B25A0
:1025300052E70721F8683180017821704178617095
:102540008178A1704188090AE1700179217181794E
:102550006171C088000AA0713EE7000000280000F9
:10256000FFFF000092A8021110B503F00AFF002837
:1025700000D0807810BD000001490870704700004D
:10258000906FFF1F7CB51446050019D06846019571
:10259000018000F0E3F903001DD1002C1BD06D89F0
:1025A000002D0DD00C20FDF79DFD00280AD0002342
:1025B00003608580094A84609168002904D006E0A0
:1025C000022308E0132306E0906004E011460A6845
:1025D000002AFBD1086018467CBD0000906FFF1FE9
:1025E000F8B50C4C0746207815460E46FF280FD04C
:1025F0000A20FDF7BFFD01000AD0B12008700020BD
:10260000487008714F80CE800D812078FDF794FDD1
:10261000F8BD0000906FFF1F70B50C4605460649D7
:10262000FFF7A2FF800704D52146284600F0EAF90B
:1026300070BD012070BD0000A86FFF1F1CB56B4668
:102640001A71120A5A7100220092022301AA00F0A4
:1026500001F81CBDFFB583B008461F4601A90C9EBA
:1026600000F046F8050012D06846808803F0AAFE04
:1026700000280AD04468002C07D000963B46294623
:10268000059A0398A04707B0F0BD0E20FBE7012094
:10269000F9E7000070B514460E46054603F071FEDA
:1026A000002806D13146054803F06BFE002803D010
:1026B00005808470002070BD112070BDFFFF0000F8
:1026C00010B50178B0290BD14178002908D10179E2
:1026D000122906D01B2903D14088012100F0FAFFFE
:1026E00010BDFF210231095C0129F5D010BD0000A9
:1026F000F0B58C4610494B6819E09F687C89A04270
:1027000014D39E883119814210D900220CE01101A6
:102710007D186989814205D16046002800D0048077
:102720002846F0BD521C92B29642F0D81B68002B8E
:10273000E3D10020F0BD00002876FF1FFFB5174849
:1027400081B00A9F446824E000251EE0A0682901AA
:10275000461870890199884215D30299884212D887
:102760000498002807D031787068049B039AFEF71C
:1027700012F9002807D0002F02D0A06840893880C5
:10278000304605B0F0BD6D1CADB2A088A842DDD8C2
:102790002468002CD8D10020F3E700002876FF1F22
:1027A000FEB5174600256A469580044640891D4AB5
:1027B0001E46904208D001AA0092401C237880B2A5
:1027C0006268FFF7BBFF054623780221164862685E
:1027D000FEF7E1F8002807D1237802211348626848
:1027E000FEF7D9F8002801D060890EE02378022195
:1027F0000F486268FEF7CFF800280DD0002D03D0F7
:1028000068468088B84203D0384604F0E3FA04E012
:102810006889401E80B200E06089002E00D03080C0
:102820002846FEBDFFFF000090A8021192A80211E9
:1028300096A80211FFB581B00F461E4614466946A0
:10284000019803F0E5FB050018D1002C06D0012209
:102850001021019805F0C2FD05000FD139460198FD
:10286000FEF72EF9050009D1009CFF2E06D0214667
:102870001E22A31C034804F0B9FAE670284605B0EE
:10288000F0BD0000D96C021110B505490870042193
:1028900000F096FF00F006F8FEF726F910BD0000E4
:1028A0003876FF1F70B50E4C00200C4B651CFF22C4
:1028B0008100C91800280ED00D80401CCA70C0B21B
:1028C0008A700228F4D3074803F046FD064805F055
:1028D00021FE002070BD0C80EFE700003076FF1F66
:1028E000FEFF0000056D0211596C0211F8B50D468E
:1028F00014460646694603F08BFB17280CD0002CC3
:1029000006D001221021304605F068FD002803D1D1
:1029100029463046FEF7DEF8F8BD000070B50C46DB
:10292000080411D509480078FDF7ACFB050007D075
:102930000178A02901D103F0B3FC2846FDF7A8FBDC
:102940000120C003604070BD002070BD3876FF1FBD
:1029500001490870704700002876FF1F70B50546D2
:10296000008800281DD06868022103784268224848
:10297000FEF711F8002808D1686802210378426840
:102980001E48FEF708F800280BD01D4C6088002870
:1029900005D0012229881204101A814203D901208E
:1029A00070BD022070BD0C20FDF79CFB060001D01D
:1029B00000200AE0132070BD02016B6861880A32B2
:1029C0009952491C401C618080B229888142F3D809
:1029D0000020306008222946301DFDF729FB606881
:1029E000002802D1666004E0084601680029FBD196
:1029F0000660002070BD000090A8021192A802118C
:102A00002876FF1F70B5BEB00D460646002402238F
:102A10000E4A0F4901200094FFF790FE002812D0C3
:102A200040896A4610800420508001201071547142
:102A3000FF209071D0712B46002269463046FFF787
:102A4000F9FE3EB070BD0120FBE70000AEA8021108
:102A5000FFFF00000649496806E08A685289824201
:102A600001D18888704709680029F6D10020704795
:102A70002876FF1F10B51422114201D0012202E076
:102A80004A0604D50022102105F0A8FC10BDC80795
:102A900001D0002010BD022010BD10B514468A06DA
:102AA00004D50122102105F099FC10BD88221142A5
:102AB0000ED008220A40102105F090FC00280BD00F
:102AC000E034617E0029F0D0217E0129EDD103E0C0
:102AD000880701D4032010BD002010BD014610B5A9
:102AE0000020C90704D0034A07210348FFF74AFD25
:102AF00010BD0000F8A60211B86EFF1F70B50D469C
:102B0000164600241D490300FDF7A4FA08051234F7
:102B1000341934222934152D23D8162200211848BF
:102B2000FDF79EFA2A4631461548FDF781FA22E064
:102B3000022D16D111491088103908801BE0082D8C
:102B40000FD10E48082231460838FDF719FB12E074
:102B5000012D06D1CA6909493078283107E0012DD5
:102B600001D0182407E0CA6B04493078483104F0DA
:102B7000FEF900E00224204670BD0000B86EFF1F81
:102B80001E8DFF1F10B501220E490020FFF782FDA8
:102B90000C49012218390020FFF77CFD0949012268
:102BA00008310020FFF776FD064901221039002088
:102BB000FFF770FD0349012208390020FFF76AFD85
:102BC00010BD0000A672FF1F38B50F4C6946E071BA
:102BD0000120087001466A460C48FEF74DFC0025AE
:102BE000ED432846FFF77AFF2846FFF715FBFDF770
:102BF000CDFAFEF7EBF80020FEF754F90121E07959
:102C0000FDF764FA38BD00005072FF1F0D0400008C
:102C1000FEB56B4E0C46080409D5F079FDF732FA83
:102C2000002801D0FDF734FA0120C003C2E0E0071C
:102C3000012700280CD062481C30FEF745FF614890
:102C4000FEF77CFB60A001F013FD20467840FEBD3E
:102C50005B48610700780DD5052809D1B0780028B8
:102C600003D004F0CBFE5DA000E062A001F000FD07
:102C700004209FE0A1070AD5052806D1FEF702F936
:102C8000654A0221F079FDF715FA022092E020074B
:102C900024D5717808202546454000291AD05FA028
:102CA00001F0E6FC7079B17988420FD00B21401C0D
:102CB000FDF7E2F971710B2041435D480B1805D017
:102CC0009A7859781878DB1C04F03CFE7079B17959
:102CD000884201D12846FEBD2046FEBD554DE00686
:102CE0002DD501206946087008710020FDF7E2FE2D
:102CF000C7B2394650A001F0BBFCB92F0CD09E2FB3
:102D00000AD04D2F08D0A87A012801D00020A8723F
:102D10003078052802D010E00120F8E7312001AA20
:102D200001210001FEF7C6FD6A4601214548FEF774
:102D3000C1FDA97A44A001F09BFC10203AE0A00656
:102D40000CD5684607703F486A4601211438FEF7E3
:102D5000B1FD4AA001F08CFC20202BE0E0052DD530
:102D60000020FDF7A7FEC0B2B92825D09E2823D0A9
:102D70004D2821D00020A872FFF704FF44487D228F
:102D8000D20001210078FDF795F9424828602F72A2
:102D90002F7300210120FDF7FFF900210846FDF700
:102DA000FBF9012000F0B2FFA97A3BA001F060FC22
:102DB000FF2001306040FEBDAF72DDE70020FEBDA8
:102DC0005072FF1F7CA702117374617274204465F6
:102DD00076696365204556540A0D000068696444AD
:102DE0006576537461727449646C6554696D65727B
:102DF000200A0D00686964446576537461727449F1
:102E0000646C6554696D657220646973636F6E6E7E
:102E1000656374200A0D0000983A000053656E64E3
:102E200020486964205265706F72740A0D000000BA
:102E3000C691FF1F1875FF1F6D747573697A653D24
:102E400025640A00190300006465766963652075CE
:102E5000706461746120636F6E6E65637465642075
:102E6000706172616D656E742C2070686F6E652084
:102E700074797065203D25640A00000041445620A5
:102E8000656E61626C6520757064617465210A000D
:102E90002975FF1F110E000070686F6E6520747930
:102EA000706520636865636B2025640A000000007C
:102EB000FFB583B000200C9F029048680E46017851
:102EC00040781D4600020818594A5949584B84B2A7
:102ED0002B391B3B901E002F04D0844225D00B20A1
:102EE00007B0F0BD944207D08C4205D09C4203D07D
:102EF0004F491A398C4216D1708904F009FD002817
:102F00000ED00599009501914A4A4179526900799C
:102F1000156801232246A8470290002802D085E0C8
:102F20000020288080E084425CD1434800888742AA
:102F300002D30720029079E03E4C404A1021E0790C
:102F4000FDF7B8F8FF213E4A0131E079FDF7B2F80C
:102F50000020FDF7AFFDC1B23A4AB92906D09E293B
:102F600004D04D2902D0002F06D008E0002F06D152
:102F700001209072002001E00020907260813148B1
:102F8000827A31A001F074FB2B480D990088C01B98
:102F9000884200DD084628800398FDF78BFD0090ED
:102FA000019725482B8801882FA00D9A01F060FB1E
:102FB000F0682A88C1190598FDF73AF828886189D0
:102FC000401880B21C496081098888422CD11D4874
:102FD000807A002828D1FF2164220131E079FDF7B1
:102FE00069F821E01248C01E844204D104202880E0
:102FF0000246F16815E0294902208C420ED00C49A6
:10300000491C8C4206D101202880F068017805987F
:10301000017009E02149491E8C4205D12880F168E0
:1030200002220598FDF704F804F0E8FC029857E73F
:103030004D2A00005072FF1F7472FF1F70170000AE
:10304000B80B00001875FF1F6D74755F6C656E3DE1
:1030500025642C70686F6E652074796570203D2042
:1030600025640A0D000000004849445F4D41505F4F
:103070004C454E3D25642C6D61783D25642C2A70AD
:103080004C656E3D25642C6D74753D25642C6F6612
:10309000667365743D25640A0D0000000829000070
:1030A000014A5161906170475072FF1F014A1161DE
:1030B000107270475072FF1FF8B507460D480E4654
:1030C00001781C461546052912D14178002909D0FE
:1030D00041798079814205D13146384604F032FC8D
:1030E000002805D023462A463146384604F036FAF1
:1030F000F8BD00005072FF1FFFB583B00C9B002489
:1031000015460F468446002B02D00B2007B0F0BDB9
:103110007868017840780002081886B23E488642F6
:1031200003D03D481B38864212D1788904F0F0FB69
:1031300000286AD006A901950091384A4179526960
:103140000079146800233246A04704005DD05EE099
:103150003248314A41696846521E008B96420AD174
:10316000012841D12878002801D0012843D1002826
:1031700049D0012047E02A4A96422FD101210093ED
:103180000191C3B22A4639466046FFF793F804001E
:103190003DD16978287809024018204982B208692F
:1031A0007B89097A15E047889F420FD100282CD0EF
:1031B00006A901950091012A0ED00323174A4179EF
:1031C0005269007915683246A8471EE0491EC9B207
:1031D00008300029E7D118E00223EFE70E4A521C1D
:1031E000964212D1012801D00D2410E02878002841
:1031F00003D0012801D0802409E0FA6810702878F3
:10320000002806D003204968884704F0F7FB2046D1
:103210007CE70220F7E700004D2A00005072FF1FF4
:1032200002290000F8B5474C45492046FFF72AF827
:10323000434920461839FFF725F84149204608310F
:10324000FFF720F83E4920461039FFF71BF83C49AC
:1032500020460839FFF716F839483B4A2521123035
:10326000FFF790F9009036481230C1690220FDF74F
:10327000C5FD3348354C2338077827714678FF3031
:103280006671363041892180408B60802C48012551
:10329000A57121380378237342782D4962734889D8
:1032A000208100206081A57327756675498F218272
:1032B000274940314E896682A07523776277498D10
:1032C000218360832646A0772036214935717571A8
:1032D000C0314A8922844A8B6284194AB0711F3AEC
:1032E0001378337352787273498F21856085214634
:1032F000B57330310320FDF781FD11481D38017889
:103300003177407870771248803841892187408B27
:1033100060870B49B5771B3920460A784030027127
:10332000497841710A4980314A890280498B41803C
:10333000857121460920FFF7B9FE0098F8BD00000D
:10334000A672FF1FFFFF000010A802114092FF1F8E
:10335000F873FF1F70B50C4C049816190B4A012422
:10336000002E0FD000251B2E03D1022903D00329E4
:1033700003D01D8004E0117800E0917801701C807A
:10338000002070BD5178F9E7CED5FFFF8072FF1F96
:10339000F0B5664E8DB0707006211F20FEF77CFEE2
:1033A0000024684604710484072101720125057315
:1033B0000A21818414210185FF218485F53101864C
:1033C00004AF049402225A48791C0594FCF7EAFEE3
:1033D0000422F91C1003FCF7E5FE30460622791C96
:1033E0001030FCF725FE53A001F042F90621781CAD
:1033F00005F042FA01AA01215048FEF75BFA4F4856
:1034000008AA0221401CFEF755FAC32002AA012196
:103410008000FEF74FFA494832462B321321801CB8
:10342000FEF748FA324661200C321F21C000FEF739
:1034300041FA312003AA01210001FEF73BFA3F487F
:1034400009AA02210C30FEF735FA3C480AAA0221EB
:103450000D30FEF72FFA39480BAA02210E30FEF785
:1034600029FAC5200CAA02218000FEF723FAC72101
:1034700068460170032747706A4602210120FFF762
:103480003DFB32463E3215210020FFF737FB6846F0
:1034900005940571047207730574812005AA04213F
:1034A000C000FDF7E9FF012101AA8802FDF7E4FF52
:1034B000224802AA0121FD30FDF7DEFF1F4803AAC2
:1034C0000121FE30FDF7D8FF04AA01211C48FDF7B9
:1034D000D3FFA02421460620FEF7DEFD214607206B
:1034E000FEF7DAFD21460820FEF7D6FD2146092029
:1034F000FEF7D2FDFFF796FE31465431301DFFF73F
:10350000CFFD10A103C90791069006A9082005F078
:103510000DFB00F025FA0D48C07A002803D10121E7
:103520007078FCF7D3FD0DB0F0BD0000EC71FF1F0B
:10353000044000004D41433A000000000503000034
:10354000060400004C454E5A455A50511875FF1F4D
:1035500038B50C4608040DD512484078FCF792FDAA
:10356000050004D004F0B0FA2846FCF791FD0120D4
:10357000C00312E0E0070AD00125684605706A46DC
:1035800029460948FEF796F92046684038BD2007CD
:1035900005D50020FCF70CFE0820604038BD002057
:1035A00038BD0000EC71FF1F0503000030B50F4D62
:1035B00000205519039C0E4A13D01B2D04D102295B
:1035C00003D0032908D00A2030BD012B02D1217875
:1035D000117030BD0D2030BD012BFBD121789170D1
:1035E00030BD012BF6D12178517030BDCED5FFFF13
:1035F0008072FF1F10B500210E20FCF7DFFD0121B6
:103600000E20FCF7E1FD00211120FCF7D7FD012180
:103610001120FCF7D9FD0F4A00211120FCF7DAFD3B
:1036200000210C20FCF7CAFD03210C20FCF7CCFD87
:1036300000210420FCF7C2FD01210420FCF7C4FD99
:1036400001210020FCF7BAFD01210020FCF7A4FDB8
:1036500010BD00004127FF1F0B7803700B8802226A
:103660001B0A43700B88801C012B02D0022B07D051
:1036700011E08A7802704988090A417004220AE040
:103680008A7802704A88120A42700A7982708988A0
:10369000090AC170062210467047000008B5044BA5
:1036A000009313460A46012104F0E8FD08BD00001E
:1036B000593602111CB50323019200930A46024BAE
:1036C000122104F00BFE1CBD9D7B021110B5FCF70E
:1036D00087FD10BD13B504480078012803D101AA65
:1036E0006946FCF783FD1CBD4476FF1F70B50F498A
:1036F0000F4A087000210B468C00491CC9B21353B5
:103700000429F9D30A4C00211034FF260A460A2561
:103710006A4315196B80491CA354C9B26E72032900
:10372000F4D3FCF769FD04F07DFD70BD4576FF1F05
:10373000D492FF1F082A01D0012070474B780A78E5
:103740001B02D2180280CB788A781B02D2184280E2
:103750004B790A791B02D21882808A79C9790902C9
:103760005118C1800020704770B50C46080411D56F
:1037700009480078FCF786FC050007D001789029FD
:1037800001D104F0B1FC2846FCF782FC0120C00303
:10379000604070BD002070BD4576FF1F70B50028E9
:1037A0000AD1064C00252580A581A580A0680028A7
:1037B00002D0FCF727FDA56070BD00005093FF1FED
:1037C000072907D0052905D0042903D0062901D0EF
:1037D00002207047044A8B009A181346403B198612
:1037E000203A907400207047D492FF1F70B50600F5
:1037F0001BD10E4C0025214640310D744D740D76C1
:10380000606D002802D0FCF7FDFC65655C2000259A
:1038100046433419E80020184068002801D0FCF71E
:10382000F1FC6D1CEDB20A2DF4D370BD6093FF1F47
:1038300070B50A880C460546072A07D0052A05D028
:10384000042A03D0062A01D0022070BD012104F011
:103850008FFE002804D02146284604F0B5F970BD3B
:10386000142070BD10B5001D80B2FCF7D1FC0028FB
:1038700003D00321C943FCF7D1FC10BD7CB5174828
:10388000817917A000F0F4FE00210846FCF796FCB1
:1038900001210020FCF798FC0E21684601700021F0
:1038A0004170052141800C22027101224271C180C8
:1038B0006820FCF7B9FC0E4C7625E5600D4E03E060
:1038C0003046FCF7B7FCE5600E20FCF7B9FC002899
:1038D000F6D002216846FCF7B9FC7CBD1875FF1FC5
:1038E000504F574552204F46465B25645D0A000005
:1038F000002000401027000070B50E20FCF7A0FC4F
:10390000164D2C46143C002816D01120FCF798FCCC
:10391000002813D0207800280DD0002020702871B6
:103920000A2201216079FCF7C5FBFF22F532102144
:103930006079FCF7BFFB70BD012000E00220217818
:103940008142F8D0207028710A2201216079FCF7A9
:10395000B1FB10216079FCF7B3FB70BD4875FF1F08
:1039600010B5FFF747FE0F4801680FA000F080FE7A
:10397000002211466820FCF76FFC6820FCF772FCFF
:103980000C20FCF75DFC104C002802D00120607177
:10399000E0723221002000F009FAFF202E30206072
:1039A00010BD0000800AFF1F506F7765725F466C84
:1039B0006173685F53617665645F466C6167203D43
:1039C000205B25785D0A00001875FF1FF8B57E4C56
:1039D0000D4608040CD56079FCF754FB040004D0B4
:1039E000FCF746FC2046FCF753FB0120C003E7E050
:1039F000E807002700287DD0FCF740FC0121724E2B
:103A00000843143620613079002860780ED00028F1
:103A100017D11421E068FCF737FC002811D00120F1
:103A200060702069A0603079A0700AE0002808D09A
:103A30001421A068FCF728FC002802D02069E0606F
:103A40006770707900283AD03068002837D0FF219D
:103A50002D31FCF719FC002831D071795BA000F002
:103A600007FE7079022820D15E48C07A00281CD158
:103A7000E078002819D10120E0705BA000F0F8FD8B
:103A80002079012802D0022803D00EE05548877122
:103A90000BE05448007A012807D10821002003F0E8
:103AA000F3FF0021084603F0EFFFE078012803D17F
:103AB000E77050A000F0DCFD376077712771A078C7
:103AC000002814D03079002819D11421A068FCF7FF
:103AD000DBFB00280BD07079401CC1B271712069EA
:103AE0003060A278227148A000F0C2FDA770307942
:103AF000002800E00AE002D17079002804D01422E6
:103B000001216079FCF7D6FA012059E0A80708D511
:103B100034488079022802D142A000F0A9FD022099
:103B20004EE0280708D5282208216079FCF7C2FA60
:103B3000FFF7E2FE082043E0E80612D53CA000F0C3
:103B400097FD3F4A00210E20FCF744FB3C4A002130
:103B50001120FCF73FFB08216079FCF7B1FA102037
:103B60002EE0A8062ED5FF22F53220216079FCF741
:103B7000D7FA0420FCF764FB00280CD031A000F039
:103B800077FDFCF787FB01210F20FCF717FB0021D5
:103B90000F20FCF701FB0C20FCF752FB00280ED194
:103BA0002CA000F065FD0F48C82287712D48012127
:103BB0000078FCF77FFA20216079FCF781FA202059
:103BC0006840F8BD0020F8BD3475FF1F4B657920B3
:103BD000746F74616C204B69636B206E756D3A2055
:103BE00025640A001875FF1F7477696365206F6E7E
:103BF00063650A004B6579205477696365205265D7
:103C00006C656173650A00006B65792074696D6588
:103C1000206E756D3A2025642C206B6579206973C0
:103C200025640A005359535F52455345540A000016
:103C300073746F70207363616E66200A0000000069
:103C40004127FF1F6368617267652066696E69734B
:103C5000680A00006368617267652073746F700A98
:103C6000000000005375FF1F70B5194C1A4D6071AC
:103C70001848807901280DD118A000F0F9FCFF2226
:103C8000F53201212878FCF715FA184A00210E2098
:103C9000FCF7A0FA0C20FCF7D3FA002811D014A0EE
:103CA00000F0E6FC1849BB200870C82204212878DF
:103CB000FCF700FA7D22D20020216079FCF7FAF9A6
:103CC00070BD002209490C20FCF784FA70BD000089
:103CD0003475FF1F1875FF1F5375FF1F706F7765D1
:103CE00072206F6E206C65640A0000004127FF1F80
:103CF0005374617274204368617267696E67205003
:103D00006F7765726F6E0A004971FF1F10B5012849
:103D100008D00020FCF7C4FA0120FCF7C1FA00F03B
:103D200033F810BD00F030F8002201231146104690
:103D3000FCF7BCFA15210020FCF7BEFA0123002293
:103D400011461846FCF7B2FA16210120FCF7B4FA26
:103D50000022012311460220FCF7A8FA0F210220BD
:103D6000FCF7AAFA212210210020FCF7ABFA20224E
:103D700010210120FCF7A6FAFF2211460220FCF7D1
:103D8000A1FAFCF7A5FA10BD10B501211520FCF72A
:103D900015FA00211520FCF7FFF901211620FCF788
:103DA0000DFA00211620FCF7F7F910BDF8B5264DE5
:103DB0000E4669790127002944D1344600281FD0D6
:103DC000F8BD0E20FCF73CFA00281CD01FA000F024
:103DD0004FFCB4420FD00A243220FCF77FFA1FA018
:103DE00000F046FC641EE4B20E20FCF729FA00281D
:103DF0001CD0002CF0D100203446A871FFF73EFD06
:103E0000002CDED1F8BD0A20FCF768FA641EE4B28B
:103E1000214617A000F02CFC002CD2D118A000F0F5
:103E200027FC0020A871FFF729FDF8BD214619A045
:103E300000F01EFC0A20FCF751FA0E20FCF700FAF5
:103E40000028FAD0AF71F8BD1875FF1F72656C6558
:103E50006173652066697273740A00006368656344
:103E60006B207365636F6E642070726573730A00F4
:103E700070726573732066697273742025640A001A
:103E80006C6F6E67206F6E63652070726573730A66
:103E9000000000007072657373207365636F6E6459
:103EA0002025640A0000000010B501210846FCF737
:103EB00085F901210846FCF76FF901210F20FCF775
:103EC0007DF901210F20FCF767F910BDF8B54A4DC7
:103ED0000C4608040CD5E878FCF7D4F8050004D0AB
:103EE000FCF7C6F92846FCF7D3F80120C00373E0BD
:103EF000E007424E0027002836D0B079012802D0D2
:103F000000282DD02EE0307A002803D0307B012805
:103F100010D011E0A878002805D001210846FCF750
:103F20003BF9AF7008E000210120FCF735F90120D2
:103F3000A87001E000F00EFB7D22D2000121E8789C
:103F4000FCF7B8F831680122491E2DA0316000F05D
:103F50008FFB3068002805D10121E878FCF7B0F824
:103F6000FFF78CFC012037E0A00703D500F074F8C0
:103F7000022031E060073DD5FCF7B6F96F70FF20F5
:103F8000287001210F20FCF719F901210F20FCF7FF
:103F900003F90022012311460220FCF787F90F21C3
:103FA0000220FCF789F9FF2211460220FCF78AF96A
:103FB000FCF78EF9307A002810D01AA000F058FBD8
:103FC00001210020FCF7E8F80020FFF79FFE012107
:103FD0000846FCF7E1F804206040F8BD0121E878CC
:103FE000FCF76EF8684607706A4601211548FDF730
:103FF00061FCECE70020F8BD5075FF1F1875FF1F2E
:1040000073797374656D207469656D7220574F52B2
:104010004B494E47203D205B25645D2A5B25645D4E
:10402000730A00006368617267696E672064697370
:1040300061626C652050574D206F75747075740AFD
:10404000000000000503000010B50249C870FFF72A
:104050002BFF10BD5075FF1F10B50F4C6178204627
:104060000078002905D0401CC0B22070FF2807D07E
:1040700008E0401E0006000E207003D1012000E081
:1040800000206070217805A000F0F2FAFF2221786C
:104090000220FCF717F910BD5075FF1F62726561B1
:1040A00074682025640A000038B50C46050014D059
:1040B000002C12D00321684605F0B8F869468878CC
:1040C00040218006800E08436946887022462846B3
:1040D00005F020FE050002D006E0022038BD0322D4
:1040E0006946E01CFBF7A4FF284638BDF7B58EB043
:1040F0000E9815460E4600282DD0002D2BD0301DD1
:10410000C0B20190FBF7EEFF040039D001F0B8F81F
:1041100007463246201D0E99FBF7C0FFF8B2089003
:10412000E0703804000E0B90A0703802000E0A9068
:1041300060703F0E277001F09DF80146102202A822
:10414000FBF7ACFF06AB214602A8019A05F038FD4B
:10415000060003D010E0022011B0F0BD08982870CE
:104160000B9868700A98A870EF70082206A9281D9D
:10417000FBF794FF01F08AF82046FBF7B9FF00E057
:1041800013263046E8E7000010B5064C2070FCF717
:10419000B1F806212078FFF713FB034804F0BAF9C1
:1041A00010BD00005476FF1F81920211F8B50E4633
:1041B0001F4C0146B50060590027002807D0242273
:1041C000125C022A05D0032A03D0042A01D012204F
:1041D000F8BDC288B24201D00220F8BD10220C30D6
:1041E000FBF726FF60591021353005F01FF86159A3
:1041F00030460B460A46253335320C3105F0ACFD0E
:10420000605902210278002A427807D0032A0BD194
:104210004170304604F0D4FF074605E0042A02D07E
:10422000032A03D000E041703846F8BD0521EFE7CE
:104230006076FF1F70B50C46080419D50D4800784C
:10424000FBF720FF05000FD005F03AF9002808D150
:1042500009480078FF2804D02946FBF76DFF0028A5
:1042600002D02846FBF714FF0120C003604070BD58
:10427000002070BD5476FF1F1C76FF1F7CB50C46D6
:1042800005001DD0002C1BD00322E11C6846FBF763
:10429000CFFE6946887840218006800E0843694633
:1042A000887001AA284605F035FD002807D10322B1
:1042B000214601A8FBF7C8FE012803D001207CBDE0
:1042C00002207CBD00207CBD10B505480078400769
:1042D00001D5044800E0002005F0A6F9002010BD3B
:1042E0008F75FF1F4876FF1FFFB581B00020274C58
:1042F0009500009060591E461746002802D01120F4
:1043000005B0F0BD002E0BD02120FDF71FFD317E42
:10431000884205D82220FDF719FD317E884201D25E
:104320000220EDE77820FBF7DDFE605100282AD05F
:1043300078220021FBF794FE6159002048706259F1
:10434000019911706259029991706259FF21D170DF
:104350006159CF8061598E6061590862615920317D
:1043600008710198002803D0384604F03FFF009000
:104370006159012048700098002802D0384604F0A6
:10438000F1FE0098BCE71320BAE700006076FF1F3B
:10439000FFB58DB00F98169C0E46002815D0002C46
:1043A00013D00D9804F040F8050011D06178207802
:1043B00009024018A178E278090412068918471802
:1043C000286AB84206D3401C04D0022011B0F0BDC8
:1043D0001420FBE7002E04D02879800701D40120A7
:1043E000F4E70822002106A8FBF73AFE1098001D0A
:1043F000C0B20190FBF776FE060017D0301D109A70
:104400000F99FBF74BFE042221463046FBF746FE90
:104410001022A91802A8FBF741FE06AB314602A8FC
:10442000019A05F0CDFB050002D013E01320CDE783
:10443000082206A908A8FBF731FE0822211D08A8BA
:10444000FBF702FE012801D0012503E039460D9853
:1044500001F026FD3046FBF74BFE2846B6E70A463C
:1044600010B501460020FBF74BFF10BDFFB583B030
:104470000F4603981B4940001646085AFFF7F2F909
:1044800004002AD00125601C2670002F03D0069955
:10449000B847401C85B2300610D51021039804F0AF
:1044A00067F8002801D0192613E06219E9B2204606
:1044B000FFF71CFE06000CD10C35ADB20421684696
:1044C00001800194058169460398FFF7B1F9060060
:1044D00004D02046FBF796FE00E01326304607B0D6
:1044E000F0BD00008875FF1F70B504460079BEB0AE
:1044F000C0072AD060881649FEF736F8144EC00768
:1045000001250C3E00280CD030461C30418D6846F9
:104510000180458031780171608800226946FEF78C
:10452000E5F90B4960880831FEF71EF8C0070CD08A
:10453000074800225030418D6846018045807178DF
:10454000017160886946FEF7D1F93EB070BD000088
:104550005471FF1F10B5024803F0C6FF10BD0000E4
:10456000E944021170B51046049A0025002A01D0D2
:104570000B2070BD4A68124E147852781202A218AD
:1045800092B2104CB24208D122785F215F2A00D942
:1045900021700121198021780DE00B4EB24205D126
:1045A00002221A80C968FBF743FD07E00449491C51
:1045B0008A4202D16178017000E00A25284670BD68
:1045C000192A00004871FF1F08290000FEB54C6839
:1045D000154626786478089A240234191A4EA4B233
:1045E000F4420ED1194C4E89678F0124BE421CD172
:1045F0000092DBB201942A46FDF75CFE040003D072
:1046000000E00A242046FEBD697828780902401897
:104610000E4980B21C3989680029F3D0002802D0E5
:1046200001208847EEE70220FBE7084F40377F8FE5
:10463000BE4207D10092DBB201942A46FDF73AFE52
:104640000446DFE70124DDE7FED6FFFF6471FF1FAC
:1046500001680A0508D11031044A0160527812033A
:10466000914201D3891A0160704700004C6EFF1F10
:104670000FB410B503AA0448029903F0C9FF10BC97
:1046800008BC04B0184700005F44021138B5034B62
:1046900000240FCB0094FBF739FE38BDE0A60211D1
:1046A00010B50C4603F0D4FE002804D04088214603
:1046B000FBF748FD10BD122010BD0000F0B5504EB4
:1046C000504C9BB07168216071782171FF21A171FC
:1046D0001021002561712F460922FF21E01DFBF703
:1046E000BFFC4E22002106A8FBF7BAFC32E020688E
:1046F00029034018102202A900F040F9029821680D
:10470000884218D16846007B2179884213D16846D7
:10471000407B617988420ED168467178807B491E62
:10472000884225DAA84201D1022700E0032706A922
:104730004855A0710CE00298401C19D16846007BD6
:10474000FF2815D16846407BFF2811D106A948559E
:104750006D1CEDB22179A942C9D8042F08D0A079E7
:104760000125FF2807D0012F05D0002006AA24E04C
:1047700020201BB0F0BD00270DE0A7712168380391
:10478000081810221F4900F00FF9002801D01F203F
:10479000EFE77F1CFFB22079401EB842EDDC00201D
:1047A00020742079401E607410206082357025E0EE
:1047B000135C002B03D0401CC0B28142F8D8814268
:1047C0001CD9401E0818FBF7A7FD61740020357046
:1047D00002466946009000F017F8002802D0212810
:1047E00002D004E0009901E0012109036182C0B216
:1047F000212803D0002801D02A20BAE70020B8E7FA
:104800004C6EFF1FC48CFF1FF7B501248AB0002037
:104810000E46274605909CE056480179407CC01919
:10482000FBF72AFCC8B2FF2C03D3FF3CA4B2FF2C39
:1048300033D20A9A002A01D14E4A11740003029021
:1048400005980125002803D000200590601C06E093
:10485000012C05D92819811EFF2917DA401E85B2BF
:104860000298290108180790424804220168079815
:10487000081804A900F082F80A9800280ED0012830
:1048800029D002283CD006200DB0F0BDFF20023018
:10489000401B201A84B20120059058E0049881033F
:1048A000890F04D0022902D003294CD10EE0010364
:1048B000890F012901D0012445E0000D0C21FBF7EF
:1048C000DBFB002900D0012144183CE007980005DB
:1048D000000D306047E0049881038A0F04D0022A5B
:1048E00005D0032A2FD142E0890F0229DFD1328877
:1048F00081B292B29142DAD10C990798086032E005
:1049000004988103890F04D00229D0D003291AD139
:1049100029E00103890F012903D0306801240C30FC
:104920000BE0000D0C21FBF7A7FB002900D00121B3
:1049300044180C2031686043081830600C980C99BA
:104940000068401C08606D1CADB2FF2D80D97F1C33
:10495000FFB209484078874200D25DE70A980028F4
:1049600003D0012803D000208EE721208CE72520EA
:104970008AE70000C48CFF1F4C6EFF1F10B5094C66
:10498000636898420BD364782403E318834206D902
:10499000002904D0002A02D0FBF704FC10BD22201D
:1049A00010BD00004C6EFF1F70B515460E46044644
:1049B000FBF7B8FC800601D0292070BD0949486882
:1049C000844206D3497809030818A04201D9A007F8
:1049D00001D0222070BD2A4631462046FBF7A8FCB4
:1049E00070BD00004C6EFF1F0022002913D000286C
:1049F00011D0012806D04A799206920E4A710328F6
:104A000005D007E04879C0221043487102E04020F9
:104A100002434A71012210467047000070B51248E7
:104A200000250078052108421BD02020FBF75AFB07
:104A30000E4C0028A06013D020220021FBF710FBB1
:104A40002020FBF74FFBE060002804D0202200214B
:104A5000FBF706FB05E0A068FBF74AFB0020A0601F
:104A60001325284670BD00008F75FF1F0076FF1FBD
:104A7000F3B588880D4681005448544C40580027AF
:104A8000203C85B000281CD1059800287CD0002D42
:104A90007AD000F0D9F9607400281AD000260E20D0
:104AA0004B49704340180622FF21FBF7DFFA00282C
:104AB00004D1761C3606360EF1D001266674012E1E
:104AC00003D0607C002804D05EE06774607B401CEB
:104AD0006073A8883D4E80003058002857D0826807
:104AE000002A07D021201C2103F09DFFA888800008
:104AF00030588760A888800030580269002A0BD09F
:104B0000607C062148432230C0B21C2103F08BFF99
:104B1000A888800030580761A88880003058426912
:104B2000002A0BD0607C062148432330C0B21021FC
:104B300003F079FFA888800030584761A88880007A
:104B40003058C268002A18D0607C062148432430BF
:104B5000C0B2102103F067FFA888062180003058FA
:104B6000C268607C103248432530C0B2042103F093
:104B70005AFFA88880003058C760A07B002801D069
:104B800000F09EFA00F0E0FA012007B0F0BD20200E
:104B90000E21059A03F047FF1022FF216846FBF71C
:104BA0005FFA607C6A467030C0B2102103F03BFFB0
:104BB000607C0E21484306490E2240180599FBF7F8
:104BC00037FAA888800035500020DEE7A06EFF1F6E
:104BD000108DFF1FF0B589B017460E4604462022FF
:104BE00000216846FBF73CFA68460480394C0225F0
:104BF000E178017122794271217B017706984108A1
:104C0000E07A4900C307DB0F1943069181070029A9
:104C1000069901DA294300E0A943069101072E4BCA
:104C2000069901D5194300E099430691C1062B4B23
:104C3000069901D5194300E0994306918106284B56
:104C4000069901D5194300E09943069140070421D4
:104C50000028069801DA084300E088430690002AFD
:104C600005D001A810221F490230FBF7E1F9617954
:104C7000002904D0002E02D00698284306906846EA
:104C8000807D002900D00121084369468875A178FC
:104C9000002900D00421084369468875A1790029BC
:104CA00000D00821084369468875E179002900D0C1
:104CB0001021084369468875217A002900D02021F7
:104CC00008436946887539466846FCF729FF09B0EC
:104CD000F0BD0000806EFF1F000100000002000018
:104CE00000040000008DFF1F70B50025094E2C4602
:104CF0000E20604380190622FF21FBF7B7F9002838
:104D000001D16D1CEDB2641C2406240EF0D028469F
:104D100070BD0000108DFF1F7FB50C460621484373
:104D2000064615462036F0B26A460E2103F070FEA4
:104D3000002806D10622FF216846FBF797F90028D4
:104D400002D0002004B070BD68468189002DC8B231
:104D500002D02043C0B200E0A043814206D06946A1
:104D60008881F0B26A460E2103F05DFE0120E9E77A
:104D700010B50020044604E0204600F006F8641C4C
:104D8000E4B221460143F7D010BD70B50546044694
:104D900006204443264690B02036F0B207AA0E21E2
:104DA00003F036FE002806D10622FF2107A8FBF7F4
:104DB0005DF9002802D0002010B070BD0E22FF2146
:104DC00007A8FBF74DF91C22FF216846FBF748F9BD
:104DD0001022FF210BA8FBF743F9F0B207AA0E211E
:104DE00003F021FE064620462130C0B26A461C214F
:104DF00003F019FE064320462230C0B26A461C2149
:104E000003F011FE064320462330C0B26A4610214B
:104E100003F009FE064320462430C0B26A46102142
:104E200003F001FE06432534E0B26A46042103F094
:104E3000FAFD014631430C467035E8B20BAA102149
:104E400003F0F1FD2043B7E770B50A4D0646002494
:104E50000E206043401906223146FBF7F5F8002882
:104E600001D0204670BD641C2406240EF0D0012021
:104E700070BD0000108DFF1F00229300CB5A8342AB
:104E800002D1900040187047521CD2B2042AF4D3C9
:104E9000002070477FB50C46002809D1002C07D0B0
:104EA00020206A460E2103F0B3FD050003D007E081
:104EB000022004B070BD062269462046FBF7B8F810
:104EC0002846F6E700218A00835A491CDB438352B7
:104ED00012189378C9B2DB4393700429F3D3704757
:104EE00070B5144E00240E2060438219204606211E
:104EF000484320301546C0B20E2103F089FD00283A
:104F00000BD028460622FF21FBF7AAF8A81D06228F
:104F1000FF21FBF7A5F80020A881641C2406240EBD
:104F2000E1D00548807B002801D000F0C9F800F0EE
:104F30000BF970BD108DFF1F806EFF1F10B5034968
:104F400040880978FDF768FB10BD0000806EFF1FE8
:104F500010B50F494A79002A01D0012300E000234F
:104F60008A78002A00D004221A438B79002B00D0C3
:104F700008231343CA79002A00D01022097A1A4361
:104F8000002900D020211143FDF75EF810BD00007C
:104F9000806EFF1F70B50E4604460621484388B058
:104FA00015462030C0B204AA0E2103F031FD0028BE
:104FB00043D10622FF2104A8FBF758F800283CD172
:104FC0007034E0B26A46102103F022FD002831D18E
:104FD0006846FFF777FF002E06D069463046FFF798
:104FE0004BFF00280DD015E0102200216846FBF78A
:104FF0003DF800281ED1102200216846FBF730F84A
:1050000010E0002D19D069460020FFF735FF002879
:1050100013D006808178A9420CD08570002D01D173
:10502000002101806846FFF74DFFE0B26A4610217B
:1050300003F0F9FC012008B070BD0020FBE7000080
:1050400070B51C4C0646606A1B4D86B0002809D11D
:105050002046143000900223184A29460120FDF70B
:105060006DFB20E004A80222002100900292019131
:1050700003ABA28A3046616AFDF764F900280CD1BF
:105080006846017B407B000208180204120C04D021
:10509000606A41893046FCF7A5FA0023A28A2946B6
:1050A000606AFDF77DFB60620028DBD1012006B05D
:1050B00070BD0000806EFF1FFFFF00009CA8021162
:1050C00070B5FBF73BF90A4E00240E2060438019AF
:1050D00005460622FF21FAF7C9FF002802D129461A
:1050E000FBF732F9641C2406240EEED070BD0000DC
:1050F000108DFF1F70B50B46044611461846FFF78A
:10510000B7FC00281DD00F4DA40028598088FFF758
:1051100097FF002815D02E46203EF069002807D0C2
:105120004368002B04D02859002280880121984729
:105130002859002803D0FAF7ABFF0020285101209E
:10514000707470BDA06EFF1F08B5FFF7CDFD01287C
:1051500001D9022000E00A20694608706A46012150
:105160000520FDF7CBFC08BD002909D0012807D197
:10517000497989098901C02902D0402901D002203A
:10518000704703207047FFB500200E4608701AE0F4
:105190001C5C401CC5B2002C17D02819904214D8B2
:1051A0005F5D6D1CEDB2384600F0A3FE002806D00E
:1051B000641EE0B2307000998F4202D1581904B0D9
:1051C000F0BD4019C0B29042E2D30020F7E70000E2
:1051D00010B5044C2068002803D0FAF789FF00209E
:1051E000206010BDEC75FF1F70B50E4D840028596E
:1051F000002815D0006A002801D0FAF779FF285955
:10520000406A002801D0FAF773FF2859806A002805
:1052100001D0FAF76DFF2859FAF76AFF00202851EC
:1052200070BD0000F875FF1F10B5044C60680028C1
:1052300003D0FAF75DFF0020606010BDF075FF1F1E
:105240000100044805D104498978002901D00248A9
:10525000801D7047C892FF1F8E75FF1F0148807820
:10526000704700008E75FF1F0148406870470000BE
:10527000B892FF1F0148806870470000B892FF1F76
:105280000148C06800687047B892FF1F10B5074812
:10529000C0680168491C016005480078FF2803D0F8
:1052A00001218903FAF712FF10BD0000B892FF1F19
:1052B0008E75FF1F02484068002800D0012070470B
:1052C000E875FF1FFFB581B00F460D9E0A9D03983C
:1052D00003F0AAF8040042D0019800283FD12079B9
:1052E0001021084320710499490702D5022108437F
:1052F00001E0FD21084020710B99284608430C99D4
:1053000008433043207902D00421084301E0FB2107
:1053100008402071002E06D03069102220623146EC
:10532000A018FAF785FE002D01D0002F05D00B98AC
:10533000002814D0012F08D011E0606A002801D0A5
:10534000FAF7D6FE1C21284606E0606A002801D044
:10535000FAF7CEFE1C210B98FAF7D0FE6062039894
:10536000224C8700E05900283ED0002D0FD0006A63
:10537000002806D11C20FAF7B5FEE1590028086282
:1053800005D0E0591C22006A2946FAF751FE0C9814
:10539000002810D0E059406A002806D11620FAF7FC
:1053A000A1FEE1590028486205D0E0591622406A62
:1053B0000C99FAF73DFE002E10D0E059806A0028C3
:1053C00006D11420FAF78EFEE1590028886205D034
:1053D000E0591422806A3146FAF72AFE0B9B049AA0
:1053E0000399019803F07AFD05B0F0BDF875FF1F31
:1053F000F3B581B0019803F017F8050029D00E200D
:10540000FAF7B8FE040024D02620FCF79FFC060023
:1054100000D12E78D0202070002767700B20A0705C
:105420000622E91DE01CFAF703FE0198608102984C
:10543000C1070120002901D0207300E027730299E1
:10544000890701D5607300E06773F0B22146FAF76F
:1054500073FEFEBD10B581881F4B0124CA1A994204
:1054600037D011DC1D4BCA1A994219D007DC1C4AEF
:105470008A1810D0022A1ED0032A29D11BE0472AFD
:1054800027D0482A24D124E01300FAF7E3FD0621AF
:105490002222222222218068007800F0EBFC08E022
:1054A0008068827841781202891889B2007800F009
:1054B00041FD04460DE0094A921E914201D10122AC
:1054C00000E0002280680178104600F01BFD00E03B
:1054D0000024204610BD0000532000000A200000D8
:1054E000FADFFFFF70B51A4D1A4A014600262878E8
:1054F0001268194C01290CD0002A09D017490978E3
:10550000490705D50221FAF7DBFD6680FFF760FE4B
:1055100070BD6188002903D0114B1B78002B05D08A
:10552000002AF5D01078FCF7E7FB70BD3C2902D3C8
:105530003C39618070BD0221FAF7C2FD62887D208E
:10554000C000424302212878FAF7B4FD668070BD9E
:105550001D76FF1FEC75FF1F0076FF1F8F75FF1F65
:105560009175FF1F08B5418900910389C288818820
:10557000C07800F0CBFB08BDF0B504468088A121BF
:1055800089004843304987B009684018FF30FF3030
:105590000230A1794167002C54D02C4D6868002856
:1055A00023D006782A480068002804D041680029E2
:1055B00001D0002088472146E07908310591FFF7A6
:1055C000D3FDE0710246277D638A218AE08901903C
:1055D00002A88AC0A0880090E0783146059B03F0BD
:1055E000F3FCE078002802D00DE01A48D9E7E07912
:1055F000E2896B46059907C3A379A1880122304649
:1056000002F0C0FEE0706868002811D0FFF70CFEC1
:10561000287800280CD06978FFF742F8002807D0D6
:10562000E078A2880346297803F022FD0020287044
:10563000A0881721FBF7B6FBA088FEF7AFF8A0887B
:10564000FEF7D4F807B0F0BD3409FF1FF075FF1F57
:105650002076FF1F8E75FF1F70B5044600268088D8
:1056600002F0E2FE002803D00678A08802F064FF72
:10567000144D2878002808D0864206D16978FFF7B3
:105680000FF8002809D000202870002E05D0A3793B
:10569000A288A078314603F0EBFCA088094A81007B
:1056A00008325158002901D0FFF79EFDA08817212C
:1056B000FBF778FBA088FEF771F8A088FEF796F854
:1056C00070BD0000F075FF1F70B58288294D012460
:1056D000531B2949AA4242D019DC284D531BAA4228
:1056E00018D00BDC264BD21826D0254B1033D218FD
:1056F0001ED0032A17D0042A39D10BE0012B09D080
:10570000022B07D0032B21D0042B30D11AE0433BCE
:10571000072B2CD8496800292AD00968002927D0EE
:105720008847044624E08068007800F0ADF81FE068
:10573000806800F001F9F4E78068411C007800F00F
:10574000D9F8EEE783681B78002B11D0896800290F
:105750000ED00B6808E0014610469847E1E709497A
:105760000968002904D04B68002BF4D100E0002424
:10577000204670BD0E2000001C76FF1F0820000090
:10578000F7EFFFFFFC75FF1F10B5094CA17800294A
:105790000CD001460622A01DFAF74AFCA11DA078F4
:1057A000FFF722F9A01DFAF7D5FD10BD002010BDAE
:1057B0008E75FF1F1CB52F49037801240A68912BB1
:1057C00002D0A22B2ED13EE04178052909D00E2926
:1057D00004D00F2908D03E2924D115E0FFF774FF2B
:1057E00010E0FFF739FF3AE001468088224B0124A0
:1057F000C31801D0062B15D1002A30D05268002AD8
:105800002DD0904704462AE081780124032917D03F
:1058100004DC012911D0022904D105E015291ED08C
:1058200016291CD000241AE014498968002916D0D2
:105830004968002913D0884711E0FFF79DFE0EE06C
:10584000FFF790FE0BE00E490978042909D0002AE1
:1058500005D05268002A02D001460A4890472046E7
:105860001CBD00216A46118001794088FDF716FFB2
:10587000F5E70000FC75FF1FF3DFFFFF1C76FF1F3D
:105880008F75FF1FFFFF0000F8B5164F0646BD1FBE
:105890002878FF2814D00A20FAF76CFC04000FD0F7
:1058A000D020207066700820A070A878E0700622D2
:1058B0003946201DFAF7BCFB21462878FAF73CFC54
:1058C000E87801280DD108480068002803D08068D6
:1058D000002800D080470648044A04210078FAF7DF
:1058E0001FFCF8BD9475FF1F2076FF1F60EA0000C3
:1058F0001D76FF1F70B500240546002805D100293C
:1059000003D006220B48FAF793FB0A4810380178B7
:10591000012907D10124002D06D00021017028465D
:1059200000F0D0F9204670BD02210170FAF718FD91
:10593000F8E70000C892FF1F10B50024002813D01C
:1059400002780B49002A03D14288CA8202790A767A
:105950000A78022A08D102780124002A06D00022FF
:105960000A70007800F0AEF9204610BD0322F7E778
:10597000B892FF1F01494860704700001C76FF1F66
:10598000F8B57A4C87780146002507266079A27918
:105990003B00FAF75FFB0805361A37375F9ACD36BA
:1059A000487800285CD1714806223C30C91CFAF7BF
:1059B0003FFB0120A0716D4B014642336278607954
:1059C000FCF7F0FB00284BD1A8E00F4649780029EE
:1059D00046D1F978002906D0654BA2780021FCF762
:1059E000E1FB78700AE0022A0BD00121FAF774FB80
:1059F000002803D101216079FAF768FB7878002844
:105A00002ED1F8BD497800292AD1032F09D0A289C7
:105A1000002A0CD0217800290AD00121FAF74AFB8C
:105A200006E0052A01D0022012E0062010E02570D1
:105A3000A079062802D0042802D008E0052007E05B
:105A40000120207001466079FAF740FB66E00320F0
:105A5000A07163E048780F46002803D0312832D087
:105A6000A6715BE041480622391D3630FAF7E0FAAC
:105A70007889E081B8892082F88960820520A07148
:105A8000A28A002A03D002216079FAF713FBB889B1
:105A9000E083F8892084388A6084E07801280AD17C
:105AA0001F20FCF753F97D21C90048430246042119
:105AB0006079FAF7FFFA7A89F8780423391DFBF741
:105AC00043FA25702AE02570C1E728480E460622D1
:105AD00000213630FAF7C4FAE58325846584042171
