:020000041102E7
:1000000003B40148019001BDADAE000003B4014846
:10001000019001BD456B010003B40148019001BD91
:100020000189000003B40148019001BDC53F0000F3
:1000300003B40148019001BDE94C010003B401483B
:10004000019001BDC95C010003B40148019001BDEC
:10005000CD4C010003B40148019001BD618900004D
:1000600003B40148019001BD154D010003B40148DE
:10007000019001BD1D4B010003B40148019001BD79
:10008000090E000003B40148019001BDF54E0100C6
:1000900003B40148019001BD434D010003B4014880
:1000A000019001BD4551010003B40148019001BD1B
:1000B0002526000003B40148019001BD8B520100C8
:1000C00003B40148019001BDB352010003B40148DB
:1000D000019001BD0D52010003B40148019001BD22
:1000E000C94A010003B40148019001BD3D4B010024
:1000F00003B40148019001BD014C010003B4014863
:10010000019001BDF94C010003B40148019001BD0B
:10011000691F000003B40148019001BD5D17000094
:1001200003B40148019001BD5952010003B40148D4
:10013000019001BD5125000003B40148019001BDAB
:10014000594F010003B40148019001BD8D12000018
:1001500003B40148019001BD4D1F000003B40148E4
:10016000019001BD5522000003B40148019001BD7A
:10017000DD52010003B40148019001BD1D4D010095
:1001800003B40148019001BD810E000003B4014891
:10019000019001BD154EFF1F03B40148019001BD40
:1001A000E147FF1F03B40148019001BD3554000031
:1001B00003B40148019001BD5D4BFF1F03B401482A
:1001C000019001BDBD4BFF1F03B40148019001BD6B
:1001D000714FFF1F03B40148019001BD017F000072
:1001E00003B40148019001BDE117000003B40148C8
:1001F000019001BD7918000003B40148019001BDD0
:10020000D949010003B40148019001BDE92800006B
:1002100003B40148019001BD5549010003B40148F0
:10022000019001BD092DFF1F03B40148019001BDDC
:100230008953FF1F03B40148019001BD3936FF1FE8
:1002400003B40148019001BD014CFF1F03B40148F4
:10025000019001BDC552FF1F03B40148019001BDCB
:100260001D53FF1F03B40148019001BD6D52FF1FD4
:1002700003B40148019001BD912AFF1F03B4014856
:10028000019001BDC555FF1F03B40148019001BD98
:10029000F93DFF1F03B40148019001BDA5520000C4
:1002A00003B40148019001BD552DFF1F03B401485F
:1002B000019001BD9D51FF1F03B40148019001BD94
:1002C000592CFF1F03B40148019001BD7150FF1F5D
:1002D00003B40148019001BDA150FF1F03B40148C0
:1002E000019001BD0551FF1F03B40148019001BDFC
:1002F0003551FF1F03B40148019001BD6D51FF1F2F
:1003000003B40148019001BD2536FF1F03B4014825
:10031000019001BD392DFF1F03B40148019001BDBB
:10032000C926000003B40148019001BD6557FF1FB5
:1003300003B40148019001BD0157FF1F03B40148F8
:10034000019001BD350E000003B40148019001BDCC
:10035000BB36FF1F03B40148019001BD9148FF1F48
:1003600003B40148019001BD3519000003B40148F0
:10037000019001BDBD18000003B40148019001BD0A
:10038000C521000003B40148019001BD291C0000F3
:1003900003B40148019001BD851F000003B401486A
:1003A000019001BDA946010003B40148019001BDBF
:1003B0001147010003B40148019001BD2947FF1F07
:1003C00003B40148019001BDA155FF1F03B40148CA
:1003D000019001BD0328FF1F03B40148019001BD36
:1003E000DD27FF1F03B40148019001BDB13E0000AD
:1003F00003B40148019001BD6536FF1F03B40148F5
:10040000019001BDC90E000003B40148019001BD77
:10041000055E000003B40148019001BDE5480000FD
:1004200003B40148019001BD2951010003B4014802
:10043000019001BDD91B000003B40148019001BD2A
:100440008528FF1F03B40148019001BDAD28FF1F9F
:1004500003B40148019001BD51470100F8B5D349EB
:10046000D14A002004464A608300401CD450FF2833
:10047000FADD4868CE4A014680318A606E22C26247
:10048000CC4A1278002A01D07F22C2620A22026579
:10049000C94A13788363C94BC36115781023022DB1
:1004A00008D01578012D05D01578032D02D01578C8
:1004B000042D00D10362C24D45611925AD0185614E
:1004C0003725CD6036272826C7630825466405648E
:1004D0004F6032270F603B27CF634127CF64392716
:1004E0004031E0C132274F6002274F614227083177
:1004F000E0C11E274F60CE608D6005264E6142260A
:100500000E615A2660390E614D613C258D61AF2523
:10051000ED000560AB4D05631578022D09D0157807
:10052000012D08D01578032D07D01578042D06D09D
:1005300007E0152504E0436003E00E2500E00C25EC
:100540004560FF252D358560C560FF25F5350561C2
:100550009D4D85647D25ED009C4ECD67C66445624A
:100560009B4D85627325C565062545658565C51D59
:100570000826F93502272E6047664B27FF0087665D
:100580000927C766934F07674667BE108467C6672B
:10059000914F8E4E3E601678022E09D01678012EAD
:1005A0000AD01678032E0BD01278042A0CD00EE055
:1005B0001A22CA61212205E01422CA61182201E030
:1005C0001322CB610A6202E00E220B62CA617E4AEC
:1005D0008A627D22D2008A6764224A620522CA6248
:1005E00002220A63C8228C634A63382169607B490E
:1005F00029647B49A9614B21C900E9617349FF3036
:10060000643929627D2109016962EC661E212C672B
:10061000A9667049A965E9658910296669646967F1
:100620007049A9677049714A8130E9670260826048
:100630004160FF21F531C16001616E486C495A4A41
:1006400081606D49803A11616A496C4A80318A62E1
:100650006B4ACA626B4A82616B4AC2626B4A02632E
:100660006B4A64484038C2636A4ACA616A49816316
:1006700060496A48403188616A49694888605D48D4
:10068000694A80384260694A4263694A0A62694934
:10069000816058496848C039C860FFF7B1FC012043
:1006A000FFF7B4FCF8BDF3B50746644881B0C169F3
:1006B000634A1140FF310931C161002613E0002572
:1006C0002C461120FFF7A8FC5C48406A8007800F89
:1006D000610088402843641CE4B20546102CF0D326
:1006E00001C7761CF6B202988642E8D3FEBD10B56B
:1006F0002E4C607800280AD104215248FFF7D3FF1E
:10070000504804211030FFF7CEFF0120607010BD6B
:10071000F0B500248BB00D460646102902D9012001
:100720000BB0F0BDFFF7E3FF464900200A5C401C18
:100730001419C0B21028F9D3002C03D0102D03D9FE
:100740000B20EDE70E20EBE73F483E4C002300680E
:1007500002A91034E25CC75C7A40CA545B1CDBB26D
:10076000102BF7D306AA3748FFF75CFC102D00D9F1
:1007700010252A4606A93046FFF75AFCFFF75EFC13
:10078000216840182060FFF759FC616840186060DC
:10079000FFF754FCA1684018A060FFF74FFCE16828
:1007A0004018E0600020BBE70004FF1F3076FF1F09
:1007B000C898FF1F886FFF1F4A0AFF1F3A070000F3
:1007C00080C3C9019A02000050C30000280A00003B
:1007D0006A180000204E0000F009FF1F00400011C1
:1007E00068100000DC05000040420F0010270000E8
:1007F000055CFF1F0001FF1FF530FF1F6960FF1F31
:100800004163FF1F5F2DFF1FF12EFF1F792DFF1F7B
:100810000D3EFF1FB56CFF1FD96AFF1F5D28FF1F2C
:10082000AD34FF1F0002FF1F7D58FF1F595AFF1FE5
:100830009D59FF1F3958FF1FDD34FF1F40F0004056
:1008400000FEFEFF5093FF1F5476FF1F0A780270D0
:100850008A7842704A88120A82700979C17004202D
:1008600070470A7802700988090A417002207047AF
:1008700010B500220EE093005B189C7804705C8831
:10088000521C240A44701C7984709B88D2B21B0AC3
:10089000C370001D0B789342EDD81806800D10BD73
:1008A000F8B50D4606464978012031700024761CC3
:1008B00016E06978012917D01221614349198A7815
:1008C00032704A88871C120A7270B61C1022304699
:1008D000091DFFF7ADFB1037B8B21036641CE4B247
:1008E0002978A142E5D8F8BDA10049198A7832706B
:1008F0004A88871C120A7270B61C02223046091DF3
:10090000FFF796FBBF1CB8B2B61CE7E710B50C4664
:10091000097801702188090A41706288211D801CB4
:10092000FFF786FB6088801C80B210BD10B50C46B6
:10093000097801702188090A4170A1788170618865
:10094000090AC170A288A11D001DFFF771FBA088D4
:10095000001D80B210BD10B50C460A88891CFFF737
:1009600067FB208810BD10B50B788A78027053435E
:10097000DCB22246401C091DFFF75AFB601C10BD6B
:1009800010B50B788A7802705343DCB22246401CC3
:10099000091DFFF74DFB601C10BD10B50C460A8801
:1009A000891CFFF745FB208810BD10B50C460A884E
:1009B000891CFFF73DFB208810BD7FB51546044616
:1009C000022901D0102903D1022B04D0102B02D010
:1009D000002004B070BD994202D10A46294607E0C2
:1009E0001029694607D000F00DF810226946284604
:1009F000FFF72AFBEDE7104600F004F810226946E5
:100A00002046F5E770B50C4605000CD0002C0AD046
:100A1000102206492046FFF70BFB287820736878E0
:100A20006073012070BD002070BD000078A8021125
:100A300010B50B460122024903F09EFC10BD0000D8
:100A40004D08021170B5064608880C46172812D3C7
:100A50000B4603220949304603F08EFC050008D1FD
:100A6000074920880988884200D20146304600F0B4
:100A7000ABF9284670BD022070BD0000630802116A
:100A80006276FF1F10B500231922194603F074FC8B
:100A900010BD000010B50A78002A05D00B460722C9
:100AA000024903F069FC10BD022010BD710802115B
:100AB00010B54A78012A01D0022A08D10A78002A02
:100AC00005D00B460522034903F056FC10BD022059
:100AD00010BD0000A108021101494000085A7047EA
:100AE0006076FF1F10B50B461D22024903F044FC3F
:100AF00010BD00000D09021110B50B461B22024962
:100B000003F03AFC10BD00000D0902110149172045
:100B1000088070476076FF1F0098022B01D00420E8
:100B200070471178527812028918018000207047AE
:100B30000098012B01D0042070471178017000202B
:100B4000704770B5049C1E461546062B1BD369786A
:100B50002878090240182080E978A878090240180E
:100B6000608002222271291D601DFFF761FAB61F05
:100B7000B2B22281F02A06D82046A91D0A30FFF71A
:100B800057FA002070BD042070BD0098042B01D0DE
:100B900004207047537811781B02C918018091789E
:100BA000D27812028918418000207047F8B58489F4
:100BB0000D460646002C26D0B2681778380620D598
:100BC0000C2C20D90C3CA4B2101900900121708883
:100BD000234603F063FB002811D00220287078061A
:100BE000C00F6870B806800EA870641E2004000C48
:100BF000A88001D0B068401CA8600020F8BD01208A
:100C0000ECE70020EAE70120F8BD10B50298114694
:100C1000042B14D34C780A78240212190280CC7861
:100C20008A782402121942801B1F9AB28280F22A0B
:100C300005D8801D091DFFF7FBF9002010BD042019
:100C400010BD0098042B01D0042070475378117810
:100C50001B02C91801809178D2781202891841804C
:100C60000020704710B502981146062B03D0142BB4
:100C700003D0042010BD022200E0102202714B7844
:100C80000A781B02D2180280CB788A781B02D2180D
:100C900042800279401D091DFFF7CAF9002010BDEE
:100CA00030B5039CD80718D1D805010E022914D3FA
:100CB0000B488088814210D8F6200155002008E0BA
:100CC000557813782D025B194500401C6353C0B260
:100CD000921C8842F4D3002030BD042030BD0000B7
:100CE0005A76FF1F0098022B01D00420704711781C
:100CF00052781202891801800020704770B514469E
:100D000002460498022B18D3667825783602AD196E
:100D100005800546E0352A766976002A0BD0E82161
:100D20009B1E9AB242808A4207D8A11C001DFFF781
:100D30007FF9002070BDF421F2E7042070BD0000AF
:100D400010B50B461722024903F016FB10BD000038
:100D50002D09021110B50B460D22024903F00CFBC0
:100D600010BD00005709021110B50A78002A05D0FD
:100D70000B461122024903F0FFFA10BD022010BDFC
:100D80006709021110B50A78002A05D00B4609221E
:100D9000024903F0F1FA10BD022010BD81090211D1
:100DA00010B50B460F22024903F0E6FA10BD000011
:100DB0009B09021110B50B460B22024903F0DCFA25
:100DC00010BD0000AB090211044A1288914203D8F9
:100DD000024A4000921D1152704700005A76FF1FD0
:100DE00010B500231322194603F0C6FA10BD000007
:100DF00010B5094C0749204601F062FA0549204622
:100E0000083101F05DFA0348044A0821103001F06E
:100E1000D7FB10BDC472FF1FFFFF0000E8A702113F
:100E2000034610B50020104A002B08D0012B08D033
:100E30001C32022B08D0032B09D0022010BD1278DF
:100E400000E092780A7010BD52890A8010BD064BEE
:100E5000DB1C1C780C715B784B71538D0B80528FAF
:100E60004A8001228A7110BDB872FF1F10B5044676
:100E70000B48844212D0012907D002290ED101214A
:100E8000204607F083FB002808D10649204601F0E0
:100E900017FA04492046083101F012FA10BD00008B
:100EA000FEFF0000C472FF1F10B505495F200A78DD
:100EB0005F2A03D90870034807F024FB002010BD07
:100EC000B872FF1FF54302110149886070470000A6
:100ED000B872FF1F10B5034A0D21034801F070FBE3
:100EE00010BD0000CCA70211E471FF1F70B50C46C5
:100EF0000146012080020A1A00251C481300FFF752
:100F0000A9F80F32090B0D1012181A1C2A1F2123E1
:100F100025272A00408A23E0807800E0C0782070EE
:100F200021E00079FBE7102211492046FFF780F805
:100F300019E04079F3E7C07AF1E78069206012E0B8
:100F4000407AECE7807AEAE7007BE8E7807BE6E737
:100F500003F0C4FEE3E7272904D2084600F014FF9B
:100F6000208000E00225284670BD0000F06FFF1FC2
:100F7000D88DFF1F10B50249087003F0ABFF10BDFC
:100F8000F06FFF1FFFB593B000240F461D461646B5
:100F9000109411944BA0139903F0F0FA06213846EF
:100FA00007F078FC10AA3946139800F0F5F90746C7
:100FB00001464CA003F0E2FA062110A807F06AFCF3
:100FC00003F08CFE01464FA003F0D8FA002F6BD13E
:100FD00020206A460E2107F029FD002802D168462C
:100FE0008089C4B2082D11D000201290082D0FD096
:100FF00021271C2200216846FFF732F86A461C218F
:10100000384607F013FD002804D00FE00120ECE77C
:101010002227EEE76846807EC01F092806D8E10730
:10102000C90F6A463046129B00F0FAFD14220021D7
:1010300007A8FFF715F8242007AA102107F0F6FCEF
:10104000002811D11022FF2107A8FFF70FF8002870
:101050000AD125200BAA042107F0E8FCE107C90FFB
:1010600007AA304601F046F870200CAA102107F0BC
:10107000DDFC002811D10CA803F01EFF0027B900E9
:101080000CA808180188002903D08278304601F0A6
:10109000F3FA7F1CFFB2042FF1D3A00704D51F4839
:1010A0000178304601F0D6FA042D07D11B48401CC8
:1010B000805D022802D1304603F044FF002017B0C3
:1010C000F0BD00004C696E6B4573742D2D61646436
:1010D00072547970653D25642C7044657641646472
:1010E000723A0A004C696E6B4573742D2D696478F1
:1010F0003D25642C7075626C6963416464723A0AC0
:1011000000000000626F6E6420746F74616F6C2069
:101110006E756D6265723D25640A0000F06FFF1FF9
:1011200070B50024054600290BD108491046FEF78A
:10113000A3FF0846294600F0C3FE040003D00121A6
:10114000284600F0FDFF204670BD000040420F0021
:1011500070B50C46080428D515480078FEF792FFB4
:1011600005001ED00178B02908D0B1290ED0D029B1
:1011700014D100F01FF8002810D112E001791E29C7
:101180000CD16888002100F05FF907E0017900299F
:1011900004D10289C188688800F042FA2846FEF727
:1011A00077FF0120C003604070BD002070BD0000CB
:1011B000F06FFF1F7FB582786E4C921F0025E169AA
:1011C0001300FEF747FF0AAFD4D4681B06D4D45FE0
:1011D00077D40546002908D00E68002E05D06B7B19
:1011E0002A7B6989E81CB047C1E06989A06900F0E1
:1011F00067FE0028F8D0688901218DE00546407817
:1012000000282DD1A879C0072AD0A8885949800084
:1012100020310858002823D10E2200216846FEF70D
:101220001FFF6969002903D006226846103107E0D4
:10123000A88807F007F900283BD0C11D06226846A0
:10124000FEF7F6FE69468889A9794907C90F084360
:10125000694688812946684603F004FC002809D0C5
:10126000E069002825D04368002B22D06A78A8883E
:1012700001214EE0A8882A46694603F035FF002088
:1012800004B070BD002972D04B68002B6FD042783B
:10129000808802213DE00446C0780022211D00F034
:1012A0007BF8002863D1224625200C32042107F068
:1012B000C8FB5CE00546607A0028A88801D0A17AC6
:1012C0002AE02C49491C095C002924D007F0BAF80F
:1012D0000646A87AC0070DD0002E48D0B079002865
:1012E00008D0A989890505D46A46F11D00F054F893
:1012F000002814D02A46B179A888083203F064FC8B
:10130000E069002833D04368002B30D00022A88841
:10131000114698472BE0052100F012FF27E0A8882E
:101320000321F9E700F0ACFD002820D1E07B012883
:1013300006D0104E00241036305D01280AD00DE092
:1013400003F010FD0B48E573012200211030FEF779
:1013500087FE07E0204603F012FD3555641C240685
:10136000240EE9D0502007F05FFB03F0B3FD01200D
:1013700086E70000F06FFF1F10B5064CE061217892
:10138000FF2905D0262000F0A5FE207801F012F9F3
:1013900010BD0000F06FFF1FF0B5012485B01646A8
:1013A0000F46002807D0012805D0012502280FD0BC
:1013B000032844D11EE0084603F040FD04003ED15E
:1013C000002E3CD0062239463046FEF731FE36E08C
:1013D0001C4F002400910E206043C0190622801D7E
:1013E0000099FEF731FE002823D1641C2406240E48
:1013F000F1D01CE000242046062148432330C0B22F
:101400006A46102107F012FB00280CD11022FF21A0
:101410006846FEF72BFE002805D13946684600F0E5
:101420000DFE002805D0641C2406240EE3D02C46B3
:1014300005E0002E03D03146204603F025FD20466E
:1014400005B0F0BDE88DFF1F70B50E461749152594
:10145000884212D1002432460221204603F056FC75
:10146000002800D00025641C2406240EF3D0002E92
:101470001AD00F4807F046F816E006F0E3FF040024
:1014800011D0A0790022E11DFFF786FF002804D1CA
:101490003246022103F03AFC0025002E04D02046FB
:1014A00003F046FD00E01425284670BDFFFF000054
:1014B000314F0211FEB5154601229202821A002414
:1014C0000127544E1300FEF7C5FD110A151A2128F5
:1014D0002F373E434B757D848C9A9A569A0001298A
:1014E0006FD1297802297ED84A480122401CFEF794
:1014F000B7FD8CE0022976D12888708287E0012927
:1015000071D1287801286ED8B07080E001296AD1A5
:101510002878042867D8F07079E0012963D1287809
:10152000012860D8307172E010295CD11022294660
:101530003948FEF77DFD6AE0012954D12878012859
:1015400051D8707163E001294DD12878F0725EE0C6
:10155000042948D131492868884244D8B06156E00E
:10156000002940D100F08CFC002801D0F7734EE038
:1015700003F0F8FB18E0072935D10622691C6846FC
:10158000FEF78CFD287800226946FFF705FF05006D
:101590000ED100F075FC002803D01E4810300770F3
:1015A00035E0284603F0EBFB502007F03DFA23E03E
:1015B00002242CE0012916D12878012813D8707252
:1015C00025E010E001290ED1287809280BD8B07247
:1015D0001DE0012907D12878C11F092903D83073DC
:1015E00015E0012901D0182411E0B07B2978B173EE
:1015F00000280CD101290AD103F06CFC07E0272850
:10160000D6D20229D4D1298800F064FD04462046B0
:10161000FEBD0000F06FFF1FD88DFF1F3F420F007F
:10162000F8B50F4613491525164688420DD10024FA
:1016300032463946204603F0A7FC002800D000259A
:10164000641C2406240EF3D012E006F0FBFE0028F2
:101650000DD08379C11D00221846FFF79DFE00289A
:1016600006D13246394603F08FFC002500E01425F0
:101670002846F8BDFFFF000070B50C460146032068
:1016800000020A1A002534481300FEF7E3FC1D107F
:1016900012151C1F2326282C303234383A3C3E4089
:1016A000424446484A4E50525A5456585A00C079FD
:1016B00011E01022294902E0284910221031204669
:1016C000FEF7B6FC45E0C06A206042E022490622EF
:1016D0003C31F4E7007820703BE0808936E01E4919
:1016E00042784231EBE71D4982781F39E7E7007AFB
:1016F000F1E7407AEFE7184906223031DFE7807AD8
:10170000E9E7C07AE7E7C08920E0808A1EE0C07878
:101710001CE0C08A1AE0008B18E0408B16E0808B3A
:1017200014E00D4906223631C9E7C08B0EE0008C6B
:101730000CE0408C0AE08079CDE7008A06E0408A20
:1017400004E0272904D2084600F01EFB208000E0B8
:101750000225284670BD00009C70FF1F2B8EFF1FC6
:1017600070B50E4C00256071A571691EE18100F015
:101770005FFC0420E071102200210948FEF770FC94
:101780000748102200211030FEF76AFCE56225723E
:1017900065720720A072E57270BD00009C70FF1F8B
:1017A0002B8EFF1FFEB53B4D0C4608040CD5687907
:1017B000FEF768FC050004D004F0D6F92846FEF7D1
:1017C00067FC0120C00360E0600403D501208003B2
:1017D0004840FEBD2F48E1070126807900292AD024
:1017E0002978002920D0052821D0297A684601705F
:1017F000697A4170274906223031801CFEF718FCB7
:10180000A97A68460172E97A41726946687900F0FE
:10181000D7FA002808D00720A871696A002903D0E8
:101820000968002900D0884720467040FEBD03208B
:1018300069460870E4E7A1070DD5052809D1E889B4
:10184000FEF732FCAA8A002A03D002216879FEF74B
:1018500031FC022019E0600704D5002004F0DCF917
:10186000042012E0200712D52879012802D002288E
:101870000AD107E00096AB8B6A8B298BE88A00F0CF
:101880000BF801E000F05AF908206040FEBD00208E
:10189000FEBD00009C70FF1FF8B5134C069EA57995
:1018A000052D01D01420F8BD104F851FBD4219D25F
:1018B000062917D3BD1DA94214D2FF27F537BA4216
:1018C00010D20A2B0ED3AB420CD2E082218362836A
:1018D000A383304604F0A0F904216079FEF7F0FB01
:1018E0000020F8BD1820F8BD9C70FF1F7A0C000086
:1018F000F7B50D4680490098164642187F4F0024E0
:101900007879B9791300FEF7A5FB190E141BE920AD
:1019100040455970777E888FE996A2A9B4BFC8E97F
:10192000E9E9E9D3E900102D76D110223146744857
:101930006FE0102D70D1724810223146103068E0EF
:10194000042D69D13068F862CEE0012D64D13B7876
:1019500032783A70002B0AD0002A07D1022903D02E
:10196000062901D0042901D100F0E4F9BCE0002AE5
:101970000AD0012905D0032903D0052901D0042963
:1019800002D10121FEF7A2FBAEE0022D44D1308846
:10199000B881A9E01F2D3FD858481F2200214230AE
:1019A000FEF75EFB55482A4631464230FEF740FBC3
:1019B000524B7D7042332A46012112E01F2D7CD804
:1019C0004F481F2200211F38FEF74AFB4C482A4689
:1019D00031461F38FEF72CFB494B2A461F3BBD7092
:1019E0000021787900F0FCFB83E0012D65D130788F
:1019F000042862D8387277E0012D5ED13078032850
:101A00005BD8787270E0062D57D13C4806223146EB
:101A10003030FEF70DFB67E04FE0012D4DD13078FF
:101A200007284AD8B8725FE0012D46D130780328E4
:101A300043D8F87258E0022D3FD13288BA82002A8A
:101A400052D0052950D10221FEF734FB4CE0012D84
:101A500033D13078012830D8F87045E03088022D35
:101A60002BD1062829D31921C901884225D8F8820B
:101A70003AE03088022D20D106281ED31921C90151
:101A800088421AD838832FE03088022D15D1FF21E3
:101A9000F531884211D2788326E03088022D0CD1AE
:101AA0000A280AD31921C901884206D8B8831BE045
:101AB0003178012D01D1012901D0182414E0082129
:101AC000FEF70AFB002801D016240DE0002004F0E8
:101AD000A3F804217879FEF7F3FA05E000982728A7
:101AE00001D2022D02D002242046FEBD318800F032
:101AF000F1FA0446F8E70000FFFCFFFF9C70FF1FAF
:101B00002B8EFF1F1CB50B4CA179002901D0112091
:101B10001CBD002800D06062064907482C310346EE
:101B200001910090103B0022E179607900F0BCF84F
:101B300000201CBD9C70FF1F3B8EFF1F10B5064888
:101B40008179052901D0122010BDC1891322407965
:101B500000F006FB10BD00009C70FF1FF8B50446A6
:101B60002C480F460078022805D0012803D0082809
:101B700003D1002F01D01220F8BD002C07D02088FF
:101B8000254D81006958002903D01120F8BD02209D
:101B9000F8BD06F057FC060036D02C20FEF7A2FA5E
:101BA000218889006850002830D02C220021FEF7BF
:101BB00057FA20881C228100695848802088211DFE
:101BC00080002858001DFEF733FA21880220890082
:101BD00069580870228890002B5870791B1D0028C6
:101BE00016D000200D49097802F004FB0546002FAD
:101BF00003D03946304607F0BBFC002D02D02088C8
:101C000003F0ECFA2846F8BD1420F8BD1320F8BD07
:101C10000120E7E76776FF1FD076FF1FF576FF1FED
:101C2000FFB5204D81B028781E461746022823D0E4
:101C3000012821D0002F22D0019806F003FC0400D7
:101C40001FD0606A002801D0FEF752FA1C213846E6
:101C5000FEF754FA6062010015D02878000714D509
:101C6000002E12D0887E00900B4612330A8A01980B
:101C700007F048FF014609E0122005B0F0BD022040
:101C8000FBE71420F9E71320F7E70021207904226D
:101C900010432071029A002A02D0022210432071C0
:101CA0000846EAE76776FF1FFFB581B01E460D467E
:101CB00002240B9F0B00FEF7CDF90D1A0B1A1A0B1D
:101CC0001A1A1A1A1A1A1A081A000AA002F056FC4E
:101CD0002946019800F0D8F8040008D13A46304669
:101CE0000A9900F0AFF900F00FF902F073FA2046FC
:101CF00005B0F0BD4741505F446576696365496E44
:101D000069743A204741505F50524F46494C455FF5
:101D100043454E5452414C207C204741505F505225
:101D20004F46494C455F5045524950484552414CF9
:101D3000200A000070B5104C2168002904D00978F1
:101D4000814203D0032070BD122070BD0B4D0221D3
:101D50002878FEF7B5F90A4800264680042128783D
:101D6000FEF7AEF90748068021680320487000207E
:101D7000FEF7CAF970BD0000C476FF1FF576FF1F9D
:101D8000D876FF1F6A76FF1F272803D2024940003A
:101D9000085A7047014870477276FF1FFFFF000026
:101DA00010B5064C607006F07DFB6078FEF7B2F966
:101DB0000521607801F0BAFC10BD0000F476FF1F29
:101DC00070B5284E054630680C46002801D0112019
:101DD00070BD254801780520014216D0234880684F
:101DE000002805D00078002802D0C80706D101E0FD
:101DF000102070BD00F044F8002808D02078032897
:101E000005D0022803D0002801D0122070BD0C207C
:101E1000FEF768F93060002820D00570002141707D
:101E20000A222146801CFEF703F903F0D9FF0400C3
:101E300002D003F0C7F912E00D48007803280ED154
:101E40001D20FFF7A1FF0B490028088007D00B4891
:101E5000094A04210078FEF763F900E013242046C4
:101E600070BD0000C476FF1F6776FF1FD876FF1F86
:101E70006876FF1F6A76FF1F60EA0000F576FF1F95
:101E800010B506F02DFB10BD70B50C4605461C22A2
:101E900000210948FEF7E4F8084805704470FEF791
:101EA00045F90549002803D000200870122070BDB4
:101EB00001220A7070BD00008093FF1F6676FF1F2D
:101EC0007FB504460D46084606F0BCFA002805D04A
:101ED0000C48844204D9022004B070BD1220FBE7F4
:101EE000102200216846FEF7BBF868460470210AFC
:101EF0004170210C8170210EC170294602F0DCF87E
:101F0000EAE700003F420F0070B50F4C0025A068C3
:101F1000002802D0FEF7ECF8A560E068002802D0A7
:101F2000FEF7E6F8E560094805210078084206D08A
:101F30000548103003F018FD02F06AFD70BD002066
:101F400003F012FD002070BDD876FF1F6776FF1FDB
:101F5000FEB5344D0C46080419D56878FEF792F8A2
:101F60000121C9034C40064600280ED003F01CFC9A
:101F7000002807D12878FF2804D03146FEF7DCF886
:101F8000002802D03046FEF783F82046FEBDE00769
:101F9000012700280AD0A868002804D04168002939
:101FA00001D00020884720467840FEBDA00709D513
:101FB0006868002804D04168002901D001208847C2
:101FC00002202AE060072AD5174E308800281FD04B
:101FD000401E0004000C30801ED103F065F900287B
:101FE00009D0124807706868002804D041680029A9
:101FF00001D00120884703F031F9694601F0DAFF8A
:10200000684603F0BBFB1D20FFF7BEFE308003E0F7
:1020100004216878FEF754F804206040FEBD0020DB
:10202000FEBD0000F476FF1F6A76FF1F6976FF1F72
:102030000149087070470000F476FF1F10B502F0E8
:10204000A3F810BD70B50E4C0B46261D07C60546FD
:10205000102200211846FEF709F8012803D11021AB
:10206000A06807F0F1F8102200212846FDF7FEFFD6
:10207000012803D11021606807F0E6F870BD000068
:102080008093FF1F38B505460F480C46007840077F
:1020900001D4122038BD284606F0D4F9002811D00A
:1020A0000A48A9004058002801D0817D00E021465F
:1020B000684607F07DFD064B6A460221284607F078
:1020C000DDFC38BD142038BD6776FF1FD076FF1FBA
:1020D000BDA00211272807D2044A914204D0044A25
:1020E000400011520020704702207047FFFF00009F
:1020F0007276FF1F70B50E46104915460978022901
:1021000016D0012914D0002D14D006F09BF904003C
:1021100012D0002E03D02079022108432071102212
:102120002946A018FDF784FF28692062002070BDB1
:10213000122070BD022070BD142070BD6776FF1F95
:1021400038B50C46054606F07DF9002806D06846ED
:1021500004706946284607F07FFC38BD142038BD5E
:10216000F8B50D4617461D4906461B4A1224C86895
:10217000954208D100282DD00268002A2AD029468D
:102180003046904723E0144A521C954213D1002850
:1021900007D00268002A04D0294630469047040040
:1021A00005D03946304602F075FA040012D10B48CA
:1021B000067047700EE0284606F044F9002809D062
:1021C0000078B04205D139462846FDF7BBFF0446EA
:1021D00000E003242046F8BDFEFF0000C876FF1F84
:1021E000F8B50E46014619481546007805221F46E7
:1021F000104028D0304326D01548012E1BD0C4688B
:10220000002C20D01F2D18D8002D01D0002F14D065
:1022100001701F220021601CFDF722FF2A4639466B
:10222000601CFDF705FF28462570002E07D0611CB5
:10223000FDF78EFFF8BD8468E2E70220F8BD611C5F
:10224000FDF78CFFF8BD1220F8BD00006776FF1F78
:10225000D876FF1F014610B50020C90704D0034AF5
:102260000421034800F0ACF910BD000028A70211BA
:102270002071FF1F70B50F4D0F4CA8702946183103
:10228000204600F01DF8002128460B461030CA00F9
:1022900084521218491C09065360090EF7D0012018
:1022A00004F07EFCA87800F071FB044806F040F9C9
:1022B00070BD00000071FF1FFFFF0000D963021115
:1022C00070B50A4C0025A04209D1002082008C5232
:1022D0005218401CC0B295700228F7D370BD04F0AC
:1022E0004AF80028FAD00480857070BDFFFF000016
:1022F000F8B50E460746069900240798002902D033
:102300000B242046F8BD022B01D00D24F9E71178EB
:102310005278120289188DB22946814301D0802457
:10232000EFE73846F16800F03DF9A842E9D02A46C7
:102330003846F16800F0CCF90400E2D171892A46F0
:10234000384600F06BF9DCE770B50C46080412D58E
:102350000A488078FDF796FE050008D02878B02856
:1023600002D1284604F024F92846FDF791FE012009
:10237000C003604070BD002070BD00000071FF1FF1
:10238000FFB587B0087A0025109E1C460F46C00690
:102390000DD5099803F0E8FF030006D00A2239465C
:1023A00007989847050035D101E00E2532E03878CE
:1023B00002281DD178682922017840781202000293
:1023C000081880B2811A90427ED009DC7249401A06
:1023D00023D0012821D0022851D0032808D125E09C
:1023E000012972D0022971D003296DD004296ED041
:1023F000099803F0E1FF0028D7D00568002DD4D05C
:102400001299119801910090334622463946079857
:10241000A847054628460BB0F0BD1198002873D197
:10242000F868017831800278416897E011980028B7
:102430006AD101203080F868002100782070788906
:10244000401C80B200F072F900280FD03188027869
:102450008918891C3180817A61704189090AA170CB
:1024600002784168E01CFDF7E3FDD3E730880422E1
:10247000001D30800021601CFDF7F2FDCAE71198B5
:10248000002872D1F86804A90088009004203080E8
:10249000009820700098000A6070009800F046F9DB
:1024A000070028D0F86805906846028A03AB3B49CC
:1024B000384600F093F900280FD13B7802213848C4
:1024C0007A68FEF77AFA03E027E031E01DE049E0A0
:1024D000002802D1401E69468881059800780228AC
:1024E0000CD1059802224168201DFDF7A1FD30881E
:1024F000801C308002E069460098888168468089A7
:10250000A070000AE07085E72FE0119800282CD118
:10251000F968079800F046F804E01198002824D1E3
:10252000F8680088022131802070000A607071E72D
:10253000F868FDF719FE1199C0B2814210D88142A6
:1025400001D1002206E0129A8918814202D3119922
:10255000401AC2B23280F96811980918204682E701
:10256000072557E71198002801D00B2552E70721CE
:10257000F868318001782170417861708178A170AC
:102580004188090AE1700179217181796171C088FE
:10259000000AA0713EE7000000280000FFFF0000D5
:1025A000EEA8021110B503F0E6FE002800D08078F6
:1025B00010BD000001490870704700000071FF1F46
:1025C0007CB51446050019D068460195018000F0DD
:1025D000E3F903001DD1002C1BD06D89002D0DD017
:1025E0000C20FDF77FFD00280AD0002303608580C2
:1025F000094A84609168002904D006E0022308E0BB
:10260000132306E0906004E011460A68002AFBD11B
:10261000086018467CBD00000071FF1FF8B50C4C27
:102620000746207815460E46FF280FD00A20FDF7F2
:10263000A1FD01000AD0B120087000204870087187
:102640004F80CE800D812078FDF776FDF8BD00002B
:102650000071FF1F70B50C4605460649FFF7A2FF43
:10266000800704D52146284600F0EAF970BD012014
:1026700070BD00001871FF1F1CB56B461A71120A5D
:102680005A7100220092022301AA00F001F81CBD39
:10269000FFB583B008461F4601A90C9E00F046F81E
:1026A000050012D06846808803F086FE00280AD014
:1026B0004468002C07D000963B462946059A0398AB
:1026C000A04707B0F0BD0E20FBE70120F9E70000AE
:1026D00070B514460E46054603F04DFE002806D19F
:1026E0003146054803F047FE002803D0058084707A
:1026F000002070BD112070BDFFFF000010B50178F3
:10270000B0290BD14178002908D10179122906D0CE
:102710001B2903D14088012100F092FF10BDFF2149
:102720000231095C0129F5D010BD0000F0B58C46DE
:1027300010494B6819E09F687C89A04214D39E8899
:102740003119814210D900220CE011017D186989EC
:10275000814205D16046002800D004802846F0BDA3
:10276000521C92B29642F0D81B68002BE3D1002095
:10277000F0BD00000077FF1FFFB5174881B00A9F2A
:10278000446824E000251EE0A068290146187089ED
:102790000199884215D30299884212D804980028DA
:1027A00007D031787068049B039AFEF706F9002879
:1027B00007D0002F02D0A06840893880304605B08D
:1027C000F0BD6D1CADB2A088A842DDD82468002CF5
:1027D000D8D10020F3E700000077FF1FFEB51746B1
:1027E00000256A469580044640891D4A1E4690424F
:1027F00008D001AA0092401C237880B26268FFF7DB
:10280000BBFF05462378022116486268FEF7D5F81B
:10281000002807D12378022113486268FEF7CDF81B
:10282000002801D060890EE0237802210F486268F9
:10283000FEF7C3F800280DD0002D03D0684680882D
:10284000B84203D0384604F0BFFA04E06889401E5D
:1028500080B200E06089002E00D030802846FEBDA6
:10286000FFFF0000ECA80211EEA80211F2A802116D
:10287000FFB581B00F461E4614466946019803F025
:10288000C1FB050018D1002C06D0012210210198AF
:1028900005F0B2FD05000FD139460198FEF722F987
:1028A000050009D1009CFF2E06D021461E22A31C44
:1028B000034804F095FAE670284605B0F0BD000024
:1028C000CD6C021110B505490870042100F02EFFEF
:1028D00000F006F8FEF71AF910BD00001077FF1F90
:1028E00070B50E4C00200C4B651CFF228100C918EE
:1028F00000280ED00D80401CCA70C0B28A70022819
:10290000F4D3074803F022FD064805F011FE00202D
:1029100070BD0C80EFE700000877FF1FFEFF00008E
:10292000F96C02114D6C0211F8B50D4614460646BD
:10293000694603F067FB17280CD0002C06D0012253
:102940001021304605F058FD002803D129463046B5
:10295000FEF7D2F8F8BD000070B50C46080411D59A
:1029600009480078FDF78EFB050007D00178A02903
:1029700001D103F08FFC2846FDF78AFB0120C0033C
:10298000604070BD002070BD1077FF1F01490870C6
:10299000704700000077FF1F70B5054600880028CB
:1029A0001DD068680221037842682248FEF705F8C6
:1029B000002808D168680221037842681E48FDF7A4
:1029C000FCFF00280BD01D4C6088002805D0012298
:1029D00029881204101A814203D9012070BD0220F7
:1029E00070BD0C20FDF77EFB060001D000200AE040
:1029F000132070BD02016B6861880A329952491C2C
:102A0000401C618080B229888142F3D80020306068
:102A100008222946301DFDF70BFB6068002802D113
:102A2000666004E0084601680029FBD106600020CA
:102A300070BD0000ECA80211EEA802110077FF1F84
:102A400070B5BEB00D460646002402230E4A0F495B
:102A500001200094FFF790FE002812D040896A46BA
:102A6000108004205080012010715471FF2090715B
:102A7000D0712B46002269463046FFF7F9FE3EB082
:102A800070BD0120FBE700000AA90211FFFF000052
:102A90000649496806E08A685289824201D18888DD
:102AA000704709680029F6D1002070470077FF1FA2
:102AB00010B51422114201D0012202E04A0604D5C9
:102AC0000022102105F098FC10BDC80701D000209D
:102AD00010BD022010BD10B514468A0604D501228F
:102AE000102105F089FC10BD882211420ED0082269
:102AF0000A40102105F080FC00280BD0E034617EF4
:102B00000029F0D0217E0129EDD103E0880701D40E
:102B1000032010BD002010BD014610B50020C907DC
:102B200004D0034A07210348FFF74AFD10BD000007
:102B300014A702112870FF1F70B50D461646002419
:102B40001D490300FDF786FA0805123434193422B2
:102B50002934152D23D8162200211848FDF780FAB4
:102B60002A4631461548FDF763FA22E0022D16D1B8
:102B700011491088103908801BE0082D0FD10E482C
:102B8000082231460838FDF7FBFA12E0012D06D184
:102B9000CA6909493078283107E0012D01D018248D
:102BA00007E0CA6B04493078483104F0DAF900E0F4
:102BB0000224204670BD00002870FF1FF68DFF1F05
:102BC00010B5012208490020FFF782FD06490122C5
:102BD00008310020FFF77CFD03490122103100205D
:102BE000FFF776FD10BD0000FA73FF1F38B50F4CDC
:102BF0006946E0710120087001466A460C48FEF7FC
:102C000059FC0025ED432846FFF786FF2846FFF7CD
:102C100021FBFEF75FF9FEF7EBF80020FEF754F911
:102C20000121E079FDF752FA38BD0000C073FF1FA3
:102C30000D040000FEB55E4D0C46080409D5E87988
:102C4000FDF720FA002801D0FDF722FA0120C00389
:102C50009CE0E007012600280CD055481C30FEF708
:102C600051FF5448FEF788FB53A001F087FC204633
:102C70007040FEBD4E48610700780DD5052809D18A
:102C8000A878002803D004F0C7FE50A000E055A0AB
:102C900001F074FC042079E0A1070AD5052806D1CB
:102CA000FEF702F9584A0221E879FDF703FA0220FB
:102CB0006CE0210724D56978082026464640002983
:102CC0001AD052A001F05AFC6879A97988420FD035
:102CD0000B21401CFDF7D0F969710B20414350488E
:102CE0000B1805D09A7859781878DB1C04F038FE58
:102CF0006879A979884201D13046FEBD2046FEBDE3
:102D0000484DE10615D569460E700E7105280ED1A5
:102D1000312001AA01210001FEF7EAFD6A460121E6
:102D20004148FEF7E5FD697A40A001F027FC10203C
:102D30002CE0A00639D50020FDF7CEFEC0B200275A
:102D4000B92825D09E2823D04D2821D06F72FFF7B7
:102D500037FF4348C82201210078FDF7ABF941480D
:102D600028602E72A87A002814D001212F710846FD
:102D7000FDF70CFA01210020FDF708FA002000F011
:102D80008FFF697A38A001F0F9FB20206040FEBD7A
:102D90006E72DCE72E7100210120FDF7F7F90021AA
:102DA0000846FDF7F3F90120E9E70020FEBD000029
:102DB000C073FF1FF4A7021173746172742044651D
:102DC00076696365204556540A0D000068696444BD
:102DD0006576537461727449646C6554696D65728B
:102DE000200A0D0068696444657653746172744901
:102DF000646C6554696D657220646973636F6E6E8F
:102E0000656374200A0D0000983A000053656E64F3
:102E100020486964205265706F72740A0D000000CA
:102E20009E92FF1FF075FF1F19030000646576690D
:102E300063652075706461746120636F6E6E656395
:102E400074656420706172616D656E742C207068A9
:102E50006F6E652074797065203D25640A0000005E
:102E6000FE75FF1F110E000070686F6E652074798B
:102E7000706520636865636B2025640A00000000AC
:102E8000FFB583B000200C9F029048680E46017881
:102E900040781D4600020818594A5949584B84B2D7
:102EA0002B391B3B901E002F04D0844225D00B20D1
:102EB00007B0F0BD944207D08C4205D09C4203D0AD
:102EC0004F491A398C4216D1708904F02FFD002821
:102ED0000ED00599009501914A4A417952690079CD
:102EE000156801232246A8470290002802D085E0F9
:102EF0000020288080E084425CD1434800888742DB
:102F000002D30720029079E03E4C7D22520110212D
:102F1000E079FDF7CFF87D22D2002021E079FDF79E
:102F2000C9F80020FDF7D8FDC1B23848B92906D04C
:102F30009E2904D04D2902D0002F06D008E0002F92
:102F400006D101224272002201E000224272628117
:102F50002E48427A2EA001F011FB2B480D990088D3
:102F6000C01B884200DD084628800398FDF7B4FDA9
:102F70000090019724482B8801882DA00D9A01F01C
:102F8000FDFAF0682A88C1190598FDF751F82888DC
:102F90006189401880B21C496081098888422BD120
:102FA0001A48407A002827D164222021E079FDF7D1
:102FB00081F821E01248C01E844204D104202880F8
:102FC0000246F16815E0274902208C420ED00C49D8
:102FD000491C8C4206D101202880F06801780598B0
:102FE000017009E01F49491E8C4205D12880F16813
:102FF00002220598FDF71CF804F00EFD029857E731
:103000004D2A0000C073FF1FE473FF1FF075FF1F00
:103010006D74755F6C656E3D25642C70686F6E65B0
:103020002074796570203D2025640A0D00000000A1
:103030004849445F4D41505F4C454E3D25642C6DE1
:1030400061783D25642C2A704C656E3D25642C6D9D
:1030500074753D25642C6F66667365743D25640A3E
:103060000D00000008290000014A5161906170477D
:10307000C073FF1F014A116110727047C073FF1FB8
:10308000F8B507460D480E4601781C461546052939
:1030900012D14178002909D041798079814205D146
:1030A0003146384604F05CFC002805D023462A4609
:1030B0003146384604F0D6FAF8BD0000C073FF1F51
:1030C000FFB583B00C9B002415460F468446002BA9
:1030D00002D00B2007B0F0BD78680178407800027C
:1030E000081886B23E48864203D03D481B388642C7
:1030F00012D1788904F01AFC00286AD006A901953B
:103100000091384A417952690079146800233246A7
:10311000A04704005DD05EE03248314A416968460C
:10312000521E008B96420AD1012841D128780028EE
:1031300001D0012843D1002849D0012047E02A4A84
:1031400096422FD1012100930191C3B22A463946FC
:103150006046FFF7CDF804003DD169782878090270
:103160004018204982B208697B89097A15E04788AE
:103170009F420FD100282CD006A901950091012A69
:103180000ED00323174A41795269007915683246F7
:10319000A8471EE0491EC9B208300029E7D118E04F
:1031A0000223EFE70E4A521C964212D1012801D0A9
:1031B0000D2410E02878002803D0012801D08024B5
:1031C00009E0FA6810702878002806D003204968C2
:1031D000884704F021FC20467CE70220F7E7000046
:1031E0004D2A0000C073FF1F02290000F8B5334CC0
:1031F00031492046FFF764F82F4920460831FFF790
:103200005FF82D4920461031FFF75AF82A482C4A1A
:103210001D211A30FFF7D4F9009027481A30C169F0
:103220000220FDF7FDFD24492648C91F0F780771CC
:103230004E784671E1314A890280498B41801E49AE
:1032400001228271491F0D7805734C781E4B44731F
:1032500059890181002141818273077546755B8F11
:103260000382194B40335E89468281750577447726
:103270005B8D03834183034681772033124C1A719F
:103280005A71803465890584658B45840A4D99712E
:10329000ED1E2E781E736D785D73648F04854185F5
:1032A00001469A7330310320FDF7BAFD0549072026
:1032B000FFF7E0FE0098F8BDFA73FF1FFFFF000064
:1032C0006CA802111893FF1F1475FF1F70B50C4CEA
:1032D000049816190B4A0124002E0FD000251B2E2E
:1032E00003D1022903D0032903D01D8004E0117803
:1032F00000E0917801701C80002070BD5178F9E7E2
:10330000CED5FFFFF073FF1FF0B5644E8DB0707027
:1033100006211F20FEF7DEFE0024684604710484A7
:1033200007210172012505730A2181841421018579
:1033300004218185FF21F531018604AF0494022226
:103340005748791C0594FCF727FF0422F91C100349
:10335000FCF722FF30460622791C1030FCF768FE8D
:1033600050A001F00BF90621781C05F093FA01AA90
:1033700001214E48FEF7BCFA4C4808AA0221401C25
:10338000FEF7B6FAC32002AA01218000FEF7B0FAC8
:10339000464832462B321321801CFEF7A9FA3246EA
:1033A00061200C321F21C000FEF7A2FA312003AACF
:1033B00001210001FEF79CFA3C4809AA02210C30C9
:1033C000FEF796FA39480AAA02210D30FEF790FA64
:1033D00036480BAA02210E30FEF78AFAC5200CAA45
:1033E00002218000FEF784FAC72168460170032796
:1033F00047706A4602210120FFF79EFB32463E32AB
:1034000015210020FFF798FB6846059405710472AA
:1034100007730574812005AA0421C000FEF74AF84D
:10342000012101AA8802FEF745F8204802AA0121DD
:10343000FD30FEF73FF81D4803AA0121FE30FEF7DC
:1034400039F804AA01211A48FEF734F8A0242146CD
:103450000620FEF73FFE21460720FEF73BFE2146F1
:103460000820FEF737FE21460920FEF733FEFFF75E
:10347000BDFE31465431301DFFF7F6FD0DA103C9E5
:103480000791069006A9082005F05EFB00F03AFAC5
:1034900001217078FCF71AFE0DB0F0BD5C73FF1FC0
:1034A000044000004D41433A0000000005030000C5
:1034B000060400004C454E5A455A505138B50C464A
:1034C00008040DD512484078FCF7DCFD050004D057
:1034D00004F008FB2846FCF7DBFD0120C00312E0E6
:1034E000E0070AD00125684605706A462946094862
:1034F000FEF7FEF92046684038BD200705D50020BC
:10350000FCF750FE0820604038BD002038BD0000A8
:103510005C73FF1F0503000030B50F4D00205519E7
:10352000039C0E4A13D01B2D04D1022903D003297A
:1035300008D00A2030BD012B02D12178117030BD96
:103540000D2030BD012BFBD12178917030BD012BB6
:10355000F6D12178517030BDCED5FFFFF073FF1F3B
:1035600010B500210E20FCF723FE01210E20FCF7F0
:1035700025FE00211120FCF71BFE01211120FCF784
:103580001DFE0F4A00211120FCF71EFE00210C2019
:10359000FCF70EFE03210C20FCF710FE0021042096
:1035A000FCF706FE01210420FCF708FE01210020A3
:1035B000FCF7FEFD01210020FCF7E8FD10BD000036
:1035C0003527FF1F0B7803700B8802221B0A4370FC
:1035D0000B88801C012B02D0022B07D011E08A78C7
:1035E00002704988090A417004220AE08A78027050
:1035F0004A88120A42700A7982708988090AC17061
:10360000062210467047000008B5044B009313468D
:103610000A46012104F040FE08BD0000C535021134
:103620001CB50323019200930A46024B122104F0B9
:1036300063FE1CBDB97B021110B5FCF7CBFD10BDBC
:1036400013B504480078012803D101AA6946FCF7A4
:10365000C7FD1CBD1C77FF1F70B50F490F4A0870CE
:1036600000210B468C00491CC9B213530429F9D31D
:103670000A4C00211034FF260A460A256A43151910
:103680006B80491CA354C9B26E720329F4D3FCF7B2
:10369000ADFD04F0D5FD70BD1D77FF1F9C93FF1F8E
:1036A000082A01D0012070474B780A781B02D218F3
:1036B0000280CB788A781B02D21842804B790A7933
:1036C0001B02D21882808A79C97909025118C180F7
:1036D0000020704770B50C46080411D509480078E1
:1036E000FCF7D0FC050007D00178902901D104F047
:1036F00009FD2846FCF7CCFC0120C003604070BDEA
:10370000002070BD1D77FF1F70B500280AD1064C40
:1037100000252580A581A580A068002802D0FCF79F
:103720006BFDA56070BD00001894FF1F072907D02E
:10373000052905D0042903D0062901D002207047AD
:10374000044A8B009A181346403B1986203A90741D
:10375000002070479C93FF1F70B506001BD10E4CD4
:103760000025214640310D744D740D76606D0028A2
:1037700002D0FCF741FD65655C2000254643341905
:10378000E80020184068002801D0FCF735FD6D1CCA
:10379000EDB20A2DF4D370BD2894FF1F70B50A88CE
:1037A0000C460546072A07D0052A05D0042A03D06F
:1037B000062A01D0022070BD012104F0E7FE002896
:1037C00004D02146284604F00DFA70BD142070BDC7
:1037D00010B5001D80B2FCF715FD002803D00321B1
:1037E000C943FCF715FD10BD7CB52548817925A09E
:1037F00000F0C4FEFCF712FD00211120FCF7D8FCFC
:1038000001211120FCF7DAFC00210846FCF7D0FC6E
:1038100001210020FCF7D2FC00210120FCF7C8FCAC
:1038200000211320FCF7C4FC01210846FCF7C6FC6C
:1038300001211320FCF7C2FC0E2168460170002113
:1038400041700A2141800C21017101214171052142
:10385000C1806820FCF7E8FC0E4D7624EC600E4E2B
:1038600003E03046FCF7E6FCEC600E20FCF7E8FCD9
:103870000028F6D002216846FCF7E8FC7CBD000079
:10388000F075FF1F504F574552204F46465B256449
:103890005D0A0000002000401027000070B50E20D7
:1038A000FCF7CEFC164D2C46143C002816D01120F7
:1038B000FCF7C6FC002813D0207800280DD000208B
:1038C000207028710A2201212079FCF7F3FBFF22E6
:1038D000F53210212079FCF7EDFB70BD012000E0EE
:1038E000022021788142F8D0207028710A2201211B
:1038F0002079FCF7DFFB10212079FCF7E1FB70BD9C
:103900002076FF1F10B5FFF72BFE0E4801680EA0B2
:1039100000F034FE002211466820FCF79DFC682070
:10392000FCF7A0FC0C20FCF78BFC002805D00E480F
:10393000012141718172002101711E21002000F0DE
:10394000FFF910BD800AFF1F506F7765725F466CEC
:103950006173685F53617665645F466C6167203DA3
:10396000205B25785D0A0000F075FF1FF8B5804DDB
:103970000C4608040CD52879FCF784FB050004D01C
:10398000FCF776FC2846FCF783FB0120C003EAE045
:10399000E0070126002700287ED0FCF76FFC0121FC
:1039A000734E0843143628613079002868780ED0A9
:1039B000002817D11421E868FCF766FC002811D014
:1039C000012068702869A8603079A8700AE0002892
:1039D00008D01421A868FCF757FC002802D02869F9
:1039E000E8606F70707900283BD03068002838D0CC
:1039F000FF212D31FCF748FC002832D071795DA001
:103A000000F0BCFD6148817A002927D17179022933
:103A100024D1E978012902D0022902D01EE0877161
:103A20001CE0007A012819D159A000F0A7FD002060
:103A3000FCF730FC594808210078FCF741FB1D21B8
:103A4000012004F02FF80021012004F02BF8534846
:103A5000FF22F53208210078FCF72CFB37607771E4
:103A6000EF70A878002814D03079002819D11421DB
:103A7000A868FCF709FC00280BD07079401CC1B283
:103A8000717128693060AA78EA7045A000F076FD6F
:103A9000AF703079002800E00AE002D17079002888
:103AA00004D0142201212879FCF704FB01205AE0FC
:103AB000200708D5282208212879FCF7FBFAFFF710
:103AC000EDFE08204FE0E00612D53CA000F056FDC8
:103AD0003E4A00210E20FCF777FB3C4A00211120D2
:103AE000FCF772FB08212879FCF7EAFA10203AE08B
:103AF000A0063AD5FF22F53220212879FCF710FBE9
:103B00000420FCF79DFB002818D031A000F036FD02
:103B1000FCF7C6FBFCF7CAFB01211320FCF748FBAE
:103B200000211320FCF732FB1848C6722C4801789C
:103B3000642901D2491C00E0642101700C20FCF7CB
:103B40007FFB00280ED127A000F018FD0F48C822E7
:103B50008771284801210078FCF7ACFA20212879E8
:103B6000FCF7AEFA20206040F8BD0020F8BD000050
:103B70000C76FF1F4B657920746F74616C204B6964
:103B8000636B206E756D3A2025640A00F075FF1F87
:103B90004354524C2F434D442B5A0A005D73FF1F70
:103BA0006B65792074696D65206E756D3A202564AA
:103BB0002C206B657920697325640A0073746F701B
:103BC000207363616E66200A000000003527FF1F26
:103BD0006368617267652066696E6973680A0000D0
:103BE000B872FF1F6368617267652073746F700A33
:103BF000000000002B76FF1F70B51A4C1B4D207182
:103C00001948807901280DD119A000F0B7FCFF22D6
:103C1000F53201212878FCF74DFA194A00210E20CF
:103C2000FCF7D2FA0C20FCF70BFB002811D015A0F2
:103C300000F0A4FC1949BB200870C8220421287890
:103C4000FCF738FA7D22D20020212079FCF732FAE5
:103C500004E000220A490C20FCF7B6FAFCF72CFB22
:103C600070BD00000C76FF1FF075FF1F2B76FF1F45
:103C7000706F776572206F6E206C65640A000000BB
:103C80003527FF1F5374617274204368617267693E
:103C90006E6720506F7765726F6E0A00B972FF1FF2
:103CA00010B5012808D00020FCF70CFB0120FCF720
:103CB00009FB00F033F810BD00F030F800220123BA
:103CC00011461046FCF704FB15210020FCF706FB0B
:103CD0000123002211461846FCF7FAFA16210120AA
:103CE000FCF7FCFA0022012311460220FCF7F0FA4F
:103CF00013210220FCF7F2FA212210210020FCF708
:103D0000F3FA202210210120FCF7EEFAFF221146DF
:103D10000220FCF7E9FAFCF7EDFA10BD10B501211D
:103D20001520FCF745FA00211520FCF72FFA012198
:103D30001620FCF73DFA00211620FCF727FA10BDEB
:103D4000F8B5164D0E466979002902D00120A871F8
:103D5000F8BD34460028FBD1002CF9D000270A20FA
:103D6000FCF7CEFA0E20FCF76BFA002809D0641E8F
:103D7000E4B221460AA000F001FC002CEFD10DA016
:103D800006E0B44203D00EA000F0F8FBDEE710A07E
:103D900000F0F4FBAF71FFF727FDF8BDF075FF1FD2
:103DA00072656C6561736520666972737420256441
:103DB0000A0000006E6F2070726573730A000000C5
:103DC00070726573732066697273740A0000000074
:103DD0007072657373206572726F720A0000000062
:103DE00010B501210846FCF7E3F901210846FCF76C
:103DF000CDF901211320FCF7DBF901211320FCF799
:103E0000C5F910BDF8B5454E0C4608040CD5F07840
:103E1000FCF738F9050004D0FCF72AFA2846FCF72D
:103E200037F90120C00374E0E00700273C4D00286B
:103E300037D0A879012802D000282ED02FE0287A88
:103E400000280BD000F00CFB7D22D2000121F0787D
:103E5000FCF730F92879012813D020E0A87A00284F
:103E6000F2D1B078002805D001210846FCF78EF980
:103E7000B770E9E700210120FCF788F90120B07054
:103E8000E2E729680122491E26A0296000F076FB9E
:103E90002868002803D1AF7101E0FFF7A5FC0120DD
:103EA00037E0A00703D500F067F8022031E0600793
:103EB00031D5FCF72BFA7770FF20307001211320E9
:103EC000FCF776F901211320FCF760F900220123A9
:103ED00011460220FCF7FCF913210220FCF7FEF941
:103EE000FF2211460220FCF7FFF9FCF703FA287ABB
:103EF000012809D114A000F041FB01210020FCF7AA
:103F000045F90020FFF7CCFE01210846FCF73EF9F9
:103F100004206040F8BD0020F8BD00002876FF1F97
:103F2000F075FF1F73797374656D207469656D7228
:103F300020574F524B494E47203D205B25645D2A58
:103F40005B25645D730A00006368617267696E6770
:103F50002064697361626C652050574D206F7574E1
:103F60007075740A0000000010B50249C870FFF7B0
:103F700037FF10BD2876FF1F0D4810B54278014667
:103F80000978002A05D0491CC9B20170FF2907D061
:103F900008E0491E0906090E017003D1012100E065
:103FA000002141700178FF220220FCF79DF910BD2D
:103FB0002876FF1F38B50C46050014D0002C12D00F
:103FC0000321684605F040F969468878402180065B
:103FD000800E0843694688702246284605F0A8FEF0
:103FE000050002D006E0022038BD03226946E01C2D
:103FF000FCF71EF8284638BDF7B58EB00E9815466A
:104000000E4600282DD0002D2BD0301DC0B20190BF
:10401000FCF768F8040039D001F02CF90746324665
:10402000201D0E99FCF73AF8F8B20890E0703804B9
:10403000000E0B90A0703802000E0A9060703F0EC8
:10404000277001F011F90146102202A8FCF726F8AA
:1040500006AB214602A8019A05F0C0FD060003D078
:1040600010E0022011B0F0BD089828700B9868701D
:104070000A98A870EF70082206A9281DFCF70EF810
:1040800001F0FEF82046FCF733F800E01326304636
:10409000E8E7000010B5064C2070FCF73DF906215A
:1040A0002078FFF743FB034804F042FA10BD0000FC
:1040B0002C77FF1F9D920211F8B50E461F4C01464A
:1040C000B50060590027002807D02422125C022A7C
:1040D00005D0032A03D0042A01D01220F8BDC288DB
:1040E000B24201D00220F8BD10220C30FBF7A0FF35
:1040F00060591021353005F0A7F8615930460B465C
:104100000A46253335320C3105F034FE6059022160
:104110000278002A427807D0032A0BD1417030463A
:1041200005F05CF8074605E0042A02D0032A03D014
:1041300000E041703846F8BD0521EFE73877FF1FF2
:1041400070B50C46080419D50D480078FBF79AFFA6
:1041500005000FD005F0C2F9002808D10948007801
:10416000FF2804D02946FBF7E7FF002802D02846A5
:10417000FBF78EFF0120C003604070BD002070BDC2
:104180002C77FF1FF476FF1F7CB50C4605001DD071
:10419000002C1BD00322E11C6846FBF749FF69464F
:1041A000887840218006800E08436946887001AAFD
:1041B000284605F0BDFD002807D10322214601A8AD
:1041C000FBF742FF012803D001207CBD02207CBD0B
:1041D00000207CBD10B505480078400701D5044893
:1041E00000E0002005F02EFA002010BD6776FF1FCA
:1041F0002077FF1FFFB581B00020274C950000906D
:1042000060591E461746002802D0112005B0F0BDA7
:10421000002E0BD02120FDF7B7FD317E884205D856
:104220002220FDF7B1FD317E884201D20220EDE768
:104230007820FBF757FF605100282AD07822002110
:10424000FBF70EFF61590020487062590199117007
:104250006259029991706259FF21D1706159CF80E2
:1042600061598E6061590862615920310871019865
:10427000002803D0384604F0C7FF009061590120A0
:1042800048700098002802D0384604F079FF009862
:10429000BCE71320BAE700003877FF1FFFB58DB0E9
:1042A0000F98169C0E46002815D0002C13D00D98A0
:1042B00004F0C8F8050011D0617820780902401890
:1042C000A178E2780904120689184718286AB842CA
:1042D00006D3401C04D0022011B0F0BD1420FBE72F
:1042E000002E04D02879800701D40120F4E70822A9
:1042F000002106A8FBF7B4FE1098001DC0B2019083
:10430000FBF7F0FE060017D0301D109A0F99FBF74F
:10431000C5FE042221463046FBF7C0FE1022A91834
:1043200002A8FBF7BBFE06AB314602A8019A05F0D6
:1043300055FC050002D013E01320CDE7082206A9A2
:1043400008A8FBF7ABFE0822211D08A8FBF77CFE9E
:10435000012801D0012503E039460D9801F09AFDAE
:104360003046FBF7C5FE2846B6E70A4610B50146BB
:104370000020FBF7D7FF10BDFFB583B00F460398B1
:104380001B4940001646085AFFF722FA04002AD0BB
:104390000125601C2670002F03D00699B847401CE9
:1043A00085B2300610D51021039804F0EFF80028EC
:1043B00001D0192613E06219E9B22046FFF71CFE6E
:1043C00006000CD10C35ADB2042168460180019481
:1043D000058169460398FFF7E1F9060004D02046FD
:1043E000FBF70AFF00E01326304607B0F0BD0000DF
:1043F0006076FF1F70B504460079BEB0C0072AD0B2
:1044000060881649FEF7CEF8144EC00701250C3E11
:1044100000280CD030461C30418D68460180458014
:1044200031780171608800226946FEF77DFA0B49F8
:1044300060880831FEF7B6F8C0070CD007480022A4
:104440005030418D684601804580717801716088E7
:104450006946FEF769FA3EB070BD0000C472FF1FE6
:1044600010B5024804F04EF810BD0000F5430211EB
:1044700070B51046049A0025002A01D00B2070BDAB
:104480004A68124E147852781202A21892B2104C56
:10449000B24208D122785F215F2A00D92170012120
:1044A000198021780DE00B4EB24205D102221A800C
:1044B000C968FBF7BDFD07E00449491C8A4202D1E7
:1044C0006178017000E00A25284670BD192A0000B5
:1044D000B872FF1F08290000FEB54C681546267803
:1044E0006478089A240234191A4EA4B2F4420ED108
:1044F000194C4E89678F0124BE421CD10092DBB259
:1045000001942A46FDF7F4FE040003D000E00A24DB
:104510002046FEBD69782878090240180E4980B20D
:104520001C3989680029F3D0002802D0012088476F
:10453000EEE70220FBE7084F40377F8FBE4207D1EE
:104540000092DBB201942A46FDF7D2FE0446DFE773
:104550000124DDE7FED6FFFFD472FF1F01680A05C4
:1045600008D11031044A016052781203914201D3FC
:10457000891A016070470000BC6FFF1F0FB410B5AF
:1045800003AA0448029904F051F810BC08BC04B016
:10459000184700006B43021138B5034B00240FCBC2
:1045A0000094FBF7C5FE38BDFCA60211F8B54968BA
:1045B00094460A784978069C090251188EB2052162
:1045C000091B304A8E460C2100250798B71A091B93
:1045D000964231D007DC2C4AB2180DD0012A15D0F2
:1045E000022A04D11CE0022F31D0292F39D000201B
:1045F00018800A252846F8BD052C34D27146864518
:1046000000D8084682B21A80204836E00C2C2AD204
:10461000814200D8084682B21C481A800C302CE037
:10462000112C20D21121091B814200D8084682B2E8
:1046300016481A80193020E0052C14D271468645A0
:1046400000D8084682B211481A80801D15E00C2C53
:1046500009D2814200D8084682B20C481A802B3019
:104660000BE0072C01D30725C4E70721091B814272
:1046700000D8084682B206481A8001196046FBF746
:10468000D7FCB7E7272A0000DCD5FFFF94A702116B
:10469000DC71FF1F10B50C4603F0E8FE002804D0C3
:1046A00040882146FBF74EFD10BD122010BD0000D2
:1046B000F0B5504E504C9BB07168216071782171FB
:1046C000FF21A1711021002561712F460922FF21D0
:1046D000E01DFBF7C5FC4E22002106A8FBF7C0FC3D
:1046E00032E0206829034018102202A900F040F9A6
:1046F00002982168884218D16846007B2179884257
:1047000013D16846407B617988420ED16846717842
:10471000807B491E884225DAA84201D1022700E0A9
:10472000032706A94855A0710CE00298401C19D136
:104730006846007BFF2815D16846407BFF2811D1D1
:1047400006A948556D1CEDB22179A942C9D8042F9C
:1047500008D0A0790125FF2807D0012F05D000201F
:1047600006AA24E020201BB0F0BD00270DE0A771B1
:1047700021683803081810221F4900F00FF900289B
:1047800001D01F20EFE77F1CFFB22079401EB84206
:10479000EDDC002020742079401E607410206082BF
:1047A000357025E0135C002B03D0401CC0B2814261
:1047B000F8D881421CD9401E0818FBF7BFFD617470
:1047C0000020357002466946009000F017F8002876
:1047D00002D0212802D004E0009901E00121090360
:1047E0006182C0B2212803D0002801D02A20BAE774
:1047F0000020B8E7BC6FFF1F9C8DFF1FF7B5012499
:104800008AB000200E46274605909CE05648017964
:10481000407CC019FBF730FCC8B2FF2C03D3FF3C2F
:10482000A4B2FF2C33D20A9A002A01D14E4A117445
:104830000003029005980125002803D00020059070
:10484000601C06E0012C05D92819811EFF2917DA02
:10485000401E85B202982901081807904248042298
:1048600001680798081804A900F082F80A9800283F
:104870000ED0012829D002283CD006200DB0F0BD72
:10488000FF200230401B201A84B20120059058E01E
:1048900004988103890F04D0022902D003294CD146
:1048A0000EE00103890F012901D0012445E0000D2C
:1048B0000C21FBF7E1FB002900D0012144183CE06A
:1048C00007980005000D306047E0049881038A0FC7
:1048D00004D0022A05D0032A2FD142E0890F0229F1
:1048E000DFD1328881B292B29142DAD10C99079825
:1048F000086032E004988103890F04D00229D0D0E7
:1049000003291AD129E00103890F012903D0306856
:1049100001240C300BE0000D0C21FBF7ADFB00294E
:1049200000D0012144180C20316860430818306021
:104930000C980C990068401C08606D1CADB2FF2DEE
:1049400080D97F1CFFB209484078874200D25DE7DA
:104950000A98002803D0012803D000208EE72120E8
:104960008CE725208AE700009C8DFF1FBC6FFF1F8E
:1049700010B5094C636898420BD364782403E3189C
:10498000834206D9002904D0002A02D0FBF704FC98
:1049900010BD222010BD0000BC6FFF1F70B5154672
:1049A0000E460446FBF7D0FC800601D0292070BDDE
:1049B00009494868844206D3497809030818A04287
:1049C00001D9A00701D0222070BD2A4631462046D9
:1049D000FBF7C0FC70BD0000BC6FFF1F0022002968
:1049E00013D0002811D0012806D04A799206920EE1
:1049F0004A71032805D007E04879C0221043487166
:104A000002E0402002434A71012210467047000034
:104A100070B5124800250078052108421BD02020DF
:104A2000FBF760FB0E4C0028A06013D02022002171
:104A3000FBF716FB2020FBF755FBE060002804D0B5
:104A400020220021FBF70CFB05E0A068FBF750FBE0
:104A50000020A0601325284670BD00006776FF1F68
:104A6000D876FF1FF3B588880D4681005448544C12
:104A700040580027203C85B000281CD1059800280C
:104A80007CD0002D7AD000F0D9F9607400281AD0BB
:104A900000260E204B49704340180622FF21FBF7E9
:104AA000E5FA002804D1761C3606360EF1D0012630
:104AB0006674012E03D0607C002804D05EE0677429
:104AC000607B401C6073A8883D4E800030580028F1
:104AD00057D08268002A07D021201C2103F0B1FFA3
:104AE000A888800030588760A88880003058026904
:104AF000002A0BD0607C062148432230C0B21C2122
:104B000003F09FFFA888800030580761A8888000C4
:104B100030584269002A0BD0607C0621484323307C
:104B2000C0B2102103F08DFFA88880003058476183
:104B3000A88880003058C268002A18D0607C0621FE
:104B400048432430C0B2102103F07BFFA88806211F
:104B500080003058C268607C103248432530C0B2B3
:104B6000042103F06EFFA88880003058C760A07B46
:104B7000002801D000F09EFA00F0E0FA012007B012
:104B8000F0BD20200E21059A03F05BFF1022FF21CB
:104B90006846FBF765FA607C6A467030C0B2102147
:104BA00003F04FFF607C0E21484306490E22401857
:104BB0000599FBF73DFAA888800035500020DEE714
:104BC0001070FF1FE88DFF1FF0B589B017460E4625
:104BD0000446202200216846FBF742FA684604801A
:104BE000394C0225E178017122794271217B0177EC
:104BF00006984108E07A4900C307DB0F1943069184
:104C000081070029069901DA294300E0A9430691AA
:104C100001072E4B069901D5194300E099430691EF
:104C2000C1062B4B069901D5194300E09943069123
:104C30008106284B069901D5194300E09943069156
:104C4000400704210028069801DA084300E0884361
:104C50000690002A05D001A810221F490230FBF758
:104C6000E7F96179002904D0002E02D00698284384
:104C700006906846807D002900D0012108436946DE
:104C80008875A178002900D00421084369468875F9
:104C9000A179002900D00821084369468875E17987
:104CA000002900D01021084369468875217A00291F
:104CB00000D0202108436946887539466846FCF7CC
:104CC0004DFF09B0F0BD0000F06FFF1F00010000B4
:104CD0000002000000040000D88DFF1F70B5002501
:104CE000094E2C460E20604380190622FF21FBF757
:104CF000BDF9002801D16D1CEDB2641C2406240E00
:104D0000F0D0284670BD0000E88DFF1F7FB50C462F
:104D100006214843064615462036F0B26A460E2163
:104D200003F084FE002806D10622FF216846FBF727
:104D30009DF9002802D0002004B070BD684681892A
:104D4000002DC8B202D02043C0B200E0A04381428F
:104D500006D069468881F0B26A460E2103F071FEE2
:104D60000120E9E710B50020044604E0204600F0E9
:104D700006F8641CE4B221460143F7D010BD70B5BB
:104D80000546044606204443264690B02036F0B23D
:104D900007AA0E2103F04AFE002806D10622FF21B1
:104DA00007A8FBF763F9002802D0002010B070BDFF
:104DB0000E22FF2107A8FBF753F91C22FF216846AA
:104DC000FBF74EF91022FF210BA8FBF749F9F0B2CF
:104DD00007AA0E2103F035FE064620462130C0B258
:104DE0006A461C2103F02DFE064320462230C0B245
:104DF0006A461C2103F025FE064320462330C0B23C
:104E00006A46102103F01DFE064320462430C0B23E
:104E10006A46102103F015FE06432534E0B26A46C7
:104E2000042103F00EFE014631430C467035E8B212
:104E30000BAA102103F005FE2043B7E770B50A4D19
:104E4000064600240E206043401906223146FBF737
:104E5000FBF8002801D0204670BD641C2406240EF7
:104E6000F0D0012070BD0000E88DFF1F00229300EC
:104E7000CB5A834202D1900040187047521CD2B2E4
:104E8000042AF4D3002070477FB50C46002809D1CE
:104E9000002C07D020206A460E2103F0C7FD050034
:104EA00003D007E0022004B070BD06226946204608
:104EB000FBF7BEF82846F6E700218A00835A491C12
:104EC000DB43835212189378C9B2DB4393700429F1
:104ED000F3D3704770B5144E00240E20604382193E
:104EE00020460621484320301546C0B20E2103F06B
:104EF0009DFD00280BD028460622FF21FBF7B0F8C5
:104F0000A81D0622FF21FBF7ABF80020A881641C36
:104F10002406240EE1D00548807B002801D000F053
:104F2000C9F800F00BF970BDE88DFF1FF06FFF1F8F
:104F300010B5034940880978FDF78CFB10BD0000CF
:104F4000F06FFF1F10B50F494A79002A01D00123E5
:104F500000E000238A78002A00D004221A438B79CB
:104F6000002B00D008231343CA79002A00D0102256
:104F7000097A1A43002900D020211143FDF782F855
:104F800010BD0000F06FFF1F70B50E4604460621ED
:104F9000484388B015462030C0B204AA0E2103F061
:104FA00045FD002843D10622FF2104A8FBF75EF847
:104FB00000283CD17034E0B26A46102103F036FD7F
:104FC000002831D16846FFF777FF002E06D06946EA
:104FD0003046FFF74BFF00280DD015E010220021CE
:104FE0006846FBF743F800281ED1102200216846CE
:104FF000FBF736F810E0002D19D069460020FFF7C6
:1050000035FF002813D006808178A9420CD0857026
:10501000002D01D1002101806846FFF74DFFE0B26D
:105020006A46102103F00DFD012008B070BD00207C
:10503000FBE7000070B51C4C0646606A1B4D86B04D
:10504000002809D12046143000900223184A29462E
:105050000120FDF791FB20E004A80222002100902E
:105060000292019103ABA28A3046616AFDF788F98A
:1050700000280CD16846017B407B0002081802041E
:10508000120C04D0606A41893046FCF7C9FA00234B
:10509000A28A2946606AFDF7A1FB60620028DBD185
:1050A000012006B070BD0000F06FFF1FFFFF000081
:1050B000F8A8021170B5FBF753F90A4E00240E2030
:1050C0006043801905460622FF21FAF7CFFF00282A
:1050D00002D12946FBF74AF9641C2406240EEED0BF
:1050E00070BD0000E88DFF1F70B50B4604461146E9
:1050F0001846FFF7B7FC00281DD00F4DA400285913
:105100008088FFF797FF002815D02E46203EF069D3
:10511000002807D04368002B04D02859002280883B
:10512000012198472859002803D0FAF7B1FF002041
:1051300028510120707470BD1070FF1F08B5FFF773
:10514000CDFD012801D9022000E00A20694608703F
:105150006A4601210520FDF7EFFC08BD002909D0B2
:10516000012807D1497989098901C02902D040293C
:1051700001D00220704703207047FFB500200E4683
:1051800008701AE01C5C401CC5B2002C17D028190E
:10519000904214D85F5D6D1CEDB2384600F0A3FE5E
:1051A000002806D0641EE0B2307000998F4202D110
:1051B000581904B0F0BD4019C0B29042E2D30020AB
:1051C000F7E7000010B5044C2068002803D0FAF778
:1051D0008FFF0020206010BDC476FF1F70B50E4DFC
:1051E00084002859002815D0006A002801D0FAF759
:1051F0007FFF2859406A002801D0FAF779FF285923
:10520000806A002801D0FAF773FF2859FAF770FF77
:105210000020285170BD0000D076FF1F10B5044C4F
:105220006068002803D0FAF763FF0020606010BDBB
:10523000C876FF1F0100044805D104498978002978
:1052400001D00248801D70479093FF1F6676FF1FB4
:1052500001488078704700006676FF1F014840686B
:10526000704700008093FF1F01488068704700006E
:105270008093FF1F0148C068006870478093FF1F3C
:1052800010B50748C0680168491C016005480078EE
:10529000FF2803D001218903FAF718FF10BD000091
:1052A0008093FF1F6676FF1F02484068002800D0E9
:1052B00001207047C076FF1FFFB581B00F460D9EDD
:1052C0000A9D039803F0BEF8040042D0019800281C
:1052D0003FD120791021084320710499490702D554
:1052E0000221084301E0FD21084020710B99284666
:1052F00008430C9908433043207902D00421084325
:1053000001E0FB2108402071002E06D030691022F8
:1053100020623146A018FAF78BFE002D01D0002F35
:1053200005D00B98002814D0012F08D011E0606A36
:10533000002801D0FAF7DCFE1C21284606E0606A4E
:10534000002801D0FAF7D4FE1C210B98FAF7D6FEFC
:1053500060620398224C8700E05900283ED0002D5F
:105360000FD0006A002806D11C20FAF7BBFEE159D5
:105370000028086205D0E0591C22006A2946FAF785
:1053800057FE0C98002810D0E059406A002806D13A
:105390001620FAF7A7FEE1590028486205D0E05927
:1053A0001622406A0C99FAF743FE002E10D0E059FD
:1053B000806A002806D11420FAF794FEE1590028EB
:1053C000886205D0E0591422806A3146FAF730FE2F
:1053D0000B9B049A0399019803F08EFD05B0F0BD74
:1053E000D076FF1FF3B581B0019803F02BF80500CC
:1053F00029D00E20FAF7BEFE040024D02620FCF7A8
:10540000C3FC060000D12E78D020207000276770E2
:105410000B20A0700622E91DE01CFAF709FE019896
:1054200060810298C1070120002901D0207300E0AB
:1054300027730299890701D5607300E06773F0B2A2
:105440002146FAF779FEFEBD10B581881F4B012475
:10545000CA1A994237D011DC1D4BCA1A994219D089
:1054600007DC1C4A8A1810D0022A1ED0032A29D130
:105470001BE0472A27D0482A24D124E01300FAF75A
:10548000E9FD06212222222222218068007800F0F4
:10549000EBFC08E08068827841781202891889B2B2
:1054A000007800F041FD04460DE0094A921E914249
:1054B00001D1012200E0002280680178104600F04E
:1054C0001BFD00E00024204610BD0000532000001A
:1054D0000A200000FADFFFFF70B51A4D1A4A014694
:1054E000002628781268194C01290CD0002A09D00E
:1054F00017490978490705D50221FAF7E1FD6680C9
:10550000FFF760FE70BD6188002903D0114B1B7846
:10551000002B05D0002AF5D01078FCF70BFC70BDED
:105520003C2902D33C39618070BD0221FAF7C8FDE5
:1055300062887D20C000424302212878FAF7BAFD34
:10554000668070BDF576FF1FC476FF1FD876FF1FFB
:105550006776FF1F6976FF1F08B5418900910389AF
:10556000C2888188C07800F0CBFB08BDF0B5044646
:105570008088A12189004843304987B009684018D4
:10558000FF30FF300230A1794167002C54D02C4D00
:105590006868002823D006782A480068002804D0CC
:1055A0004168002901D0002088472146E079083170
:1055B0000591FFF7D3FDE0710246277D638A218ABA
:1055C000E089019002A88AC0A0880090E078314666
:1055D000059B03F007FDE078002802D00DE01A4893
:1055E000D9E7E079E2896B46059907C3A379A188D9
:1055F0000122304602F0D4FEE0706868002811D025
:10560000FFF70CFE287800280CD06978FFF742F8E5
:10561000002807D0E078A2880346297803F036FDF9
:1056200000202870A0881721FBF7CEFBA088FEF78A
:105630006BF8A088FEF790F807B0F0BD3409FF1FA3
:10564000C876FF1FF876FF1F6676FF1F70B5044609
:105650000026808802F0F6FE002803D00678A08895
:1056600002F078FF144D2878002808D0864206D131
:105670006978FFF70FF8002809D000202870002E65
:1056800005D0A379A288A078314603F0FFFCA0885A
:10569000094A810008325158002901D0FFF79EFDC8
:1056A000A0881721FBF790FBA088FEF72DF8A088B3
:1056B000FEF752F870BD0000C876FF1F70B58288F3
:1056C000294D0124531B2949AA4242D019DC284DF7
:1056D000531BAA4218D00BDC264BD21826D0254BE0
:1056E0001033D2181ED0032A17D0042A39D10BE068
:1056F000012B09D0022B07D0032B21D0042B30D152
:105700001AE0433B072B2CD8496800292AD00968A6
:10571000002927D08847044624E08068007800F0FC
:10572000ADF81FE0806800F001F9F4E78068411CE3
:10573000007800F0D9F8EEE783681B78002B11D0D1
:10574000896800290ED00B6808E00146104698478A
:10575000E1E709490968002904D04B68002BF4D11E
:1057600000E00024204670BD0E200000F476FF1FEC
:1057700008200000F7EFFFFFD476FF1F10B5094C9B
:10578000A17800290CD001460622A01DFAF750FC92
:10579000A11DA078FFF722F9A01DFAF7EDFD10BDBD
:1057A000002010BD6676FF1F1CB52F490378012429
:1057B0000A68912B02D0A22B2ED13EE04178052918
:1057C00009D00E2904D00F2908D03E2924D115E094
:1057D000FFF774FF10E0FFF739FF3AE001468088D9
:1057E000224B0124C31801D0062B15D1002A30D03A
:1057F0005268002A2DD0904704462AE0817801247F
:10580000032917D004DC012911D0022904D105E0B5
:1058100015291ED016291CD000241AE014498968C5
:10582000002916D04968002913D0884711E0FFF7F6
:105830009DFE0EE0FFF790FE0BE00E49097804296B
:1058400009D0002A05D05268002A02D001460A4831
:10585000904720461CBD00216A461180017940888E
:10586000FDF7D2FEF5E70000D476FF1FF3DFFFFF60
:10587000F476FF1F6776FF1FFFFF0000F8B5164F95
:105880000646BD1F2878FF2814D00A20FAF772FCBC
:1058900004000FD0D020207066700820A070A87877
:1058A000E07006223946201DFAF7C2FB214628780F
:1058B000FAF742FCE87801280DD108480068002872
:1058C00003D08068002800D080470648044A04219D
:1058D0000078FAF725FCF8BD6C76FF1FF876FF1FFD
:1058E00060EA0000F576FF1F70B500240546002829
:1058F00005D1002903D006220B48FAF799FB0A4884
:1059000010380178012907D10124002D06D000218B
:105910000170284600F0D0F9204670BD02210170C8
:10592000FAF730FDF8E700009093FF1F10B5002450
:10593000002813D002780B49002A03D14288CA827A
:1059400002790A760A78022A08D102780124002A0C
:1059500006D000220A70007800F0AEF9204610BD93
:105960000322F7E78093FF1F01494860704700005A
:10597000F476FF1FF8B57A4C877801460025072694
:105980006079A2793B00FAF765FB0805361A3737CC
:105990005F9ACD36487800285CD1714806223C30A9
:1059A000C91CFAF745FB0120A0716D4B014642333B
:1059B00062786079FCF714FC00284BD1A8E00F4610
:1059C0004978002946D1F978002906D0654BA2789C
:1059D0000021FCF705FC78700AE0022A0BD00121B7
:1059E000FAF77AFB002803D101216079FAF76EFB00
:1059F000787800282ED1F8BD497800292AD1032FC4
:105A000009D0A289002A0CD0217800290AD00121CE
:105A1000FAF750FB06E0052A01D0022012E006202A
:105A200010E02570A079062802D0042802D008E0F2
:105A3000052007E00120207001466079FAF746FB57
:105A400066E00320A07163E048780F46002803D089
:105A5000312832D0A6715BE041480622391D36302C
:105A6000FAF7E6FA7889E081B8892082F8896082BD
:105A70000520A071A28A002A03D002216079FAF7DA
:105A800019FBB889E083F8892084388A6084E0783B
:105A900001280AD11F20FCF777F97D21C90048436E
:105AA000024604216079FAF705FB7A89F878042325
:105AB000391DFBF767FA25702AE02570C1E72848F1
:105AC0000E46062200213630FAF7CAFAE58325840D
:105AD000658404216079FAF7F3FA08216079FAF70E
